:020000040800F2
:10000000002800207D110008F9100008FF100008EA
:10001000051100080B110008111100080000000074
:1000200000000000000000000000000017110008A0
:1000300023110008000000002F1100083B110008E8
:10004000C5110008C5110008C5110008C511000838
:10005000C5110008C5110008C5110008C511000828
:10006000C5110008C5110008C5110008C511000818
:10007000C5110008C5110008C5110008C511000808
:10008000C5110008C5110008C5110008C5110008F8
:10009000C5110008C5110008C5110008C5110008E8
:1000A000C5110008C5110008C5110008C5110008D8
:1000B00049110008C511000800000000C511000822
:1000C000C51100080000000000000000C511000874
:1000D00000000000C51100085D11000800000000CC
:1000E000C5110008C5110008C51100080000000076
:1000F0000000000000000000000000000000000000
:0C01000000000000000000005FF808F1A3
:10010C0010B5054C237833B9044B13B10448AFF345
:10011C0000800123237010BD480000200000000067
:10012C00403D000808B5034B1BB103490348AFF32E
:10013C00008008BD000000004C000020403D00087D
:10014C0080B500AF1B4B1B681B4A13601B4B1B6815
:10015C00184A13601A4B9B681A4A92881146184623
:10016C0001F0EEFB03461A46144B1A60114B1A6849
:10017C00124B1B689A421AD10E4B1A680E4B1B6815
:10018C009A4214D10C4B1A680F4B1B689A420ED032
:10019C00094B1B680C4A13600B4B1B68002B06D1D8
:1001AC000A4B01221A604FF47A7000F0B3FE00BFC4
:1001BC0080BD00BF180000201C000020140000208F
:1001CC00000000200C000020200000207C000020FB
:1001DC0080B483B000AF786039603B68032B39D0B2
:1001EC003B68032B3ADC3B68012B03D03B68022BAA
:1001FC0018D033E07B681C4A82FB03129210DB1789
:10020C00D31A1A4A13607968174B83FB01239A108F
:10021C00CB17D21A13469B0013445B00CA1A134B1C
:10022C005A601CE07B68104A82FB03129210DB17A9
:10023C00D31A0E4A936079680B4B83FB01239A10F7
:10024C00CB17D21A13469B0013445B00CA1A074BF8
:10025C00DA6004E0054A7B68136100E000BF00BF70
:10026C000C37BD4680BC704767666666640000202C
:10027C0080B582B000AF786001217868FFF7A8FFE5
:10028C0000BF0837BD4680BD80B582B000AF786036
:10029C0002217868FFF79CFF00BF0837BD4680BD80
:1002AC0080B500AF0021082000F09CFC00BF80BD91
:1002BC0080B500AF0221082000F094FC00BF80BD87
:1002CC0080B500AF0121082000F08CFC00BF80BD80
:1002DC0080B500AF0021092000F084FC00BF80BD78
:1002EC0080B500AF0221092000F07CFC00BF80BD6E
:1002FC0080B500AF0121092000F074FC00BF80BD67
:10030C0080B500AF0E4B1B68032B10D0032B13DCF6
:10031C00012B02D0022B05D00EE000F051F900F0B9
:10032C006FFD0AE000F04CF900F05EFD05E000F016
:10033C003BF900F065FD00E000BF00BF80BD00BFD1
:10034C007800002080B582B000AF78607B681B68B5
:10035C00124A93421DD1124B1B785A1CD1B2104A2F
:10036C0011701A460F4B19780F4B99540C4B1B7884
:10037C001E2B02D10A4B00221A704FF47A73012201
:10038C0008490A4802F082FE01220649074802F099
:10039C0000FF00BF0837BD4680BD00BF00440040D1
:1003AC00310400203004002024000020C80000206C
:1003BC0080B489B000AFF860B9607A600023FB614B
:1003CC00BB68724AA2FB0323DB08BB6100237B6181
:1003DC002BE06F497A6913469B0013449B000B4436
:1003EC001B68002B1BD06A497A6913469B00134487
:1003FC009B000B4404331A68BB699A420CD8B96948
:10040C0063487A6913469B0013449B0003440433EE
:10041C001B68CB1ABB6105E07B69FB6108E07B695B
:10042C00FB6105E07B6901337B617B69272BD0DDA8
:10043C0028233B6158E03B695A1E554913469B00E3
:10044C0013449B000B441B68002B4AD03B695A1E7B
:10045C004F4913469B0013449B000B4419684C48AE
:10046C003A6913469B0013449B00034419603B6993
:10047C005A1E474913469B0013449B000B440433FC
:10048C00196843483A6913469B0013449B00034484
:10049C00043319603B695A1E3D4913469B001344B3
:1004AC009B000B440833196839483A6913469B0082
:1004BC0013449B000344083319603B695A1E3449AA
:1004CC0013469B0013449B000B440C3318783049A3
:1004DC003A6913469B0013449B000B440C330246B1
:1004EC001A703B69013B3B613A69FB699A42A2DC99
:1004FC00F9682748FA6913469B0013449B00034490
:10050C001960B9692248FA6913469B0013449B0091
:10051C000344043319601E49FA6913469B001344C3
:10052C009B000B4408337A681A601949FA69134620
:10053C009B0013449B000B440C3300221A70FB6984
:10054C005A1C134913469B0013449B000B441B6815
:10055C00002B15D0FB695A1C0D4913469B00134404
:10056C009B000B4404331968BB69FA690132C91A40
:10057C00074813469B0013449B0003440433196043
:10058C0000BF2437BD4680BC704700BFCDCCCCCC5F
:10059C001001002080B500AF2021024801F0FFF9C6
:1005AC0000BF80BD0008014080B400AF034B1B6846
:1005BC0000229A6300BFBD4680BC704780000020BB
:1005CC0080B400AF054B63221A60044B1A68044BCD
:1005DC001B689A6300BFBD4680BC70472C0000208E
:1005EC008000002080B500AF00F0E8FD00F054F86A
:1005FC0000F02EF900F08CF800F000F901221D49F2
:10060C001D4802F0C6FD04211C4801F099FE4FF470
:10061C007A724FF47A711A48FFF7CAFE642000F020
:10062C0065FC184B1A68154B1B689A63164B1B68B4
:10063C00012B08D1642000F059FC2021134801F053
:10064C00AEF900F07DF9124B1B68012B01D1FFF7BD
:10065C0057FE104B1B68012B04D10D4B00221A6066
:10066C0000F0CEFB00F0D8FBFFF76AFD0A2000F08B
:10067C0007FEDBE730040020C800002080000020CB
:10068C00A10500082C00002058040020000801409F
:10069C007C0000207804002080B590B000AF07F1FA
:1006AC00180328220021184603F03CFB3B1D0022B6
:1006BC001A605A609A60DA601A610223BB610123E6
:1006CC00BB621023FB6200237B6307F118031846FF
:1006DC0001F07EF90346002B01D000F02BF90F231B
:1006EC007B600023BB600023FB6000233B61002385
:1006FC007B613B1D0021184601F0ECFB0346002BEF
:10070C0001D000F017F900BF4037BD4680BD000096
:10071C0080B58EB000AF07F1280300221A605A6032
:10072C009A60DA6007F1200300221A605A603B1DC0
:10073C0000221A605A609A60DA601A615A619A61F2
:10074C002D4B4FF080421A602B4B41F63F725A6092
:10075C00294B00229A60284B0922DA60264B002292
:10076C001A61254B00229A61234801F041FD034692
:10077C00002B01D000F0DEF84FF48053BB6207F180
:10078C00280319461C4802F041F80346002B01D0FF
:10079C0000F0D0F8184801F07AFD0346002B01D088
:1007AC0000F0C8F800233B6200237B6207F12003B2
:1007BC001946114802F0B0FB0346002B01D000F0A3
:1007CC00B9F860237B600023BB600023FB6000232F
:1007DC007B613B1D04221946074801F055FF034677
:1007EC00002B01D000F0A6F8034800F0FDFB00BF81
:1007FC003837BD4680BD00BF8000002080B500AFFB
:10080C00114B124A1A60104B4FF416525A600E4B91
:10081C0000229A600C4B0022DA600B4B00221A610A
:10082C00094B0C225A61084B00229A61064B00229C
:10083C00DA61054802F0DAFB0346002B01D000F028
:10084C0079F800BF80BD00BFC80000200044004004
:10085C0080B586B000AF07F1080300221A605A6019
:10086C009A60DA602A4B9B69294A43F0040393612E
:10087C00274B9B6903F004037B607B68244B9B69CB
:10088C00234A43F008039361214B9B6903F008034F
:10089C003B603B68002270211E4801F068F8012281
:1008AC003F211D4801F063F800224FF4F8611A480B
:1008BC0001F05DF87023BB600123FB6000233B61FA
:1008CC0003237B6107F108031946124800F0BCFEB4
:1008DC0040F2FF73BB600123FB6000233B610323E9
:1008EC007B6107F1080319460B4800F0ADFE4FF48D
:1008FC00E053BB600023FB6001233B6107F108035D
:10090C001946044800F0A0FE00BF1837BD4680BD54
:10091C000010024000080140000C014080B582B07C
:10092C0000AF786000F078FAFFF70AFC00BF0837D8
:10093C00BD4680BD80B400AF72B600BFFEE70000BC
:10094C0080B500AF9B4B1B68032B00F2988001A273
:10095C0052F823F07109000895090008E90900080C
:10096C003D0A0008944B01221A60944B1B68944A70
:10097C001360904B01221A60FFF792FC904B1B689E
:10098C001846FFF775FC81E08B4B01221A608C4BEB
:10099C001B68002B75DD8A4B1B68013B884A136072
:1009AC00874B1B68002B11DC864B1B68864A136037
:1009BC00804B02221A60FFF783FC834B1B6818469E
:1009CC00FFF756FC7C4B02221A605AE0FFF768FCDA
:1009DC007B4B1B681846FFF74BFC52E0764B022210
:1009EC001A60794B1B68002B4DDD774B1B68013B64
:1009FC00754A1360744B1B68002B11DC734B1B681E
:100A0C00734A13606B4B03221A60FFF751FC704B57
:100A1C001B681846FFF72CFC674B03221A6032E068
:100A2C00FFF74EFC684B1B681846FFF721FC2AE0C9
:100A3C00614B03221A60664B1B68002B25DD644B4F
:100A4C001B68013B624A1360614B1B68002B0EDC78
:100A5C005A4B1B685A4A1360564B01221A60FFF717
:100A6C001FFC574B1B681846FFF702FC0DE0FFF705
:100A7C001FFC574B1B681846FFF7FAFB05E000BF3D
:100A8C0004E000BF02E000BF00E000BF514B1B6858
:100A9C00032B00F2868001A252F823F0B90A000859
:100AAC00D70A00081F0B0008670B0008494B0122EE
:100ABC001A60444B1B68484A1360FFF719FC464BFD
:100ACC001B681846FFF7E0FB72E0434B1B68002BDA
:100ADC0069DD414B1B68013B3F4A13603E4B1B6871
:100AEC00002B0EDCFFF7FCFB384B1B683B4A1360FA
:100AFC00384B02221A60394B1B681846FFF7C4FBAF
:100B0C0051E0FFF7F5FB344B1B681846FFF7BCFBB5
:100B1C0049E0324B1B68002B47DD304B1B68013B17
:100B2C002E4A13602D4B1B68002B0EDC234B1B68CD
:100B3C002B4A1360274B03221A60FFF7C9FB284B83
:100B4C001B681846FFF7A0FB2FE0FFF7C9FB234BF0
:100B5C001B681846FFF798FB27E0214B1B68002BFE
:100B6C0025DD1F4B1B68013B1D4A13601C4B1B688A
:100B7C00002B0EDC134B1B68174A1360154B01221C
:100B8C001A60FFF7B5FB144B1B681846FFF77CFB8C
:100B9C000DE0FFF79DFB124B1B681846FFF774FB2B
:100BAC0005E000BF04E000BF02E000BF00E000BFB2
:100BBC0000BF80BD340400207800002034000020E9
:100BCC003C04002038000020440400203C0000209D
:100BDC004C0400203804002048040020500400205D
:100BEC004004002080B582B000AF786039607B682B
:100BFC00082B03D07B68092B77D0EEE03B68072BE2
:100C0C0071D801A252F823F0350C0008550C0008DD
:100C1C00750C0008950C0008A90C00089F0C000826
:100C2C00B30C0008D30C0008012201216D4800F020
:100C3C009EFE002204216B4800F099FE0022022146
:100C4C00684800F094FE4FE000220121654800F056
:100C5C008EFE00220421634800F089FE012202214D
:100C6C00604800F084FE3FE0002201215D4800F066
:100C7C007EFE012204215B4800F079FE0022022155
:100C8C00584800F074FE2FE00121564800F087FE12
:100C9C002AE00421534800F082FE25E0022151484D
:100CAC0000F07DFE20E0002201214E4800F05FFEA6
:100CBC00002204214B4800F05AFE00220221494830
:100CCC0000F055FE10E001220121464800F04FFED5
:100CDC0001220421434800F04AFE0122022141482E
:100CEC0000F045FE00E000BF77E03B68072B72D8B0
:100CFC0001A252F823F000BF250D0008450D000895
:100D0C00650D0008850D0008990D00088F0D000871
:100D1C00A30D0008C30D000801220821314800F082
:100D2C0026FE002220212F4800F021FE0022102157
:100D3C002C4800F01CFE4FE000220821294800F04E
:100D4C0016FE00222021274800F011FE012210215E
:100D5C00244800F00CFE3FE000220821214800F05E
:100D6C0006FE012220211F4800F001FE0022102166
:100D7C001C4800F0FCFD2FE008211A4800F00FFE83
:100D8C002AE02021174800F00AFE25E01021154822
:100D9C0000F005FE20E000220821124800F0E7FDDB
:100DAC00002220210F4800F0E2FD002210210D4806
:100DBC0000F0DDFD10E0012208210A4800F0D7FD0B
:100DCC0001222021074800F0D2FD01221021054804
:100DDC0000F0CDFD00E000BF00BF00BF0837BD46EE
:100DEC0080BD00BF000C014080B500AF0122402146
:100DFC00024800F0BCFD00BF80BD00BF000C0140EC
:100E0C0080B500AF00224021024800F0B0FD00BFC9
:100E1C0080BD00BF000C014080B400AF294B1B68A3
:100E2C00002B0BDD274B1B68013B264A1360254B1F
:100E3C001B68002B02DC244B01221A60234B1B681D
:100E4C00002B0BDD214B1B68013B204A13601F4B11
:100E5C001B68002B02DC1E4B01221A601D4B1B6809
:100E6C00002B0BDD1B4B1B68013B1A4A1360194B03
:100E7C001B68002B02DC184B01221A60174B1B68F5
:100E8C00002B0BDD154B1B68013B144A1360134BF5
:100E9C001B68002B02DC124B01221A60114B1B68E1
:100EAC00002B0BDD0F4B1B68013B0E4A13600D4BE7
:100EBC001B68002B02DC0C4B01221A6000BFBD46E4
:100ECC0080BC704754040020580400205C040020AF
:100EDC006004002064040020680400206C040020DE
:100EEC0070040020740400207804002080B483B0C7
:100EFC0000AF7860054A7B681360054B00221A60CE
:100F0C0000BF0C37BD4680BC704700BF54040020A6
:100F1C005804002080B483B000AF7860054A7B6829
:100F2C001360054B00221A6000BF0C37BD4680BC15
:100F3C00704700BF740400207804002080B485B092
:100F4C0000AF154B9B69144A43F001039361124B9C
:100F5C009B6903F00103BB60BB680F4BDB690E4A56
:100F6C0043F08053D3610C4BDB6903F080537B60FF
:100F7C007B680A4B5B68FB60FB6823F0E063FB60FB
:100F8C00FB6843F00073FB60044AFB68536000BFCE
:100F9C001437BD4680BC7047001002400000014071
:100FAC0080B584B000AF78607B681B68B3F1804F6C
:100FBC0013D10C4BDB690B4A43F00103D361094B92
:100FCC00DB6903F00103FB60FB68002201211C209C
:100FDC0000F051FA1C2000F06AFA00BF1037BD4631
:100FEC0080BD00BF0010024080B588B000AF7860B3
:100FFC0007F1100300221A605A609A60DA607B686D
:10100C001B68B3F1804F17D10D4B9B690C4A43F011
:10101C00040393610A4B9B6903F00403FB60FB68B8
:10102C0002233B6102237B610223FB6107F1100366
:10103C001946044800F008FB00BF2037BD4680BDB0
:10104C00001002400008014080B588B000AF786005
:10105C0007F1100300221A605A609A60DA607B680C
:10106C001B681F4A934237D11E4BDB691D4A43F460
:10107C000033D3611B4BDB6903F40033FB60FB686B
:10108C00184B9B69174A43F004039361154B9B69FA
:10109C0003F00403BB60BB6804233B6102237B6148
:1010AC000323FB6107F1100319460F4800F0CCFA3B
:1010BC0008233B6100237B610023BB6107F1100314
:1010CC001946094800F0C0FA00220021262000F041
:1010DC00D2F9262000F0EBF900BF2037BD4680BDC9
:1010EC0000440040001002400008014080B400AFF2
:1010FC00FEE780B400AFFEE780B400AFFEE780B43B
:10110C0000AFFEE780B400AFFEE780B400AF00BFD5
:10111C00BD4680BC704780B400AF00BFBD4680BCEC
:10112C00704780B400AF00BFBD4680BC704780B52F
:10113C0000AF00F089F800BF80BD000080B500AFA3
:10114C00024801F099F900BF80BD00BF800000206B
:10115C0080B500AF024802F041F800BF80BD00BF6F
:10116C00C800002080B400AF00BFBD4680BC7047F3
:10117C000C480D490D4A002302E0D458C4500433E6
:10118C00C4188C42F9D30A4A0A4C002301E01360BC
:10119C000432A242FBD3FFF7E5FF02F09FFDFFF7FD
:1011AC0021FA704700000020480000208C3D000808
:1011BC004800002080040020FEE7000080B500AF4E
:1011CC00084B1B68074A43F010031360032000F020
:1011DC0047F90F2000F008F8FFF7B0FE002318467F
:1011EC0080BD00BF0020024080B582B000AF7860A7
:1011FC00124B1A68124B1B7819464FF47A73B3FBD7
:10120C00F1F3B2FBF3F3184600F05FF90346002B41
:10121C0001D001230EE07B680F2B0AD800227968DD
:10122C004FF0FF3000F027F9064A7B68136000236B
:10123C0000E0012318460837BD4680BD3000002071
:10124C00440000204000002080B400AF054B1B7808
:10125C001A46054B1B681344034A136000BFBD4676
:10126C0080BC7047440000207C04002080B400AF98
:10127C00024B1B681846BD4680BC70477C0400209E
:10128C0080B584B000AF7860FFF7F0FFB8607B6882
:10129C00FB60FB68B3F1FF3F05D00A4B1B781A4685
:1012AC00FB681344FB6000BFFFF7E0FF0246BB681E
:1012BC00D31AFA689A42F7D800BF00BF1037BD4660
:1012CC0080BD00BF4400002080B485B000AF7860C2
:1012DC007B6803F00703FB600C4BDB68BB60BA68F0
:1012EC004FF6FF031340BB60FB681A02BB68134345
:1012FC0043F0BF6343F40033BB60044ABB68D36064
:10130C0000BF1437BD4680BC704700BF00ED00E045
:10131C0080B400AF044BDB681B0A03F007031846CC
:10132C00BD4680BC704700BF00ED00E080B483B0C8
:10133C0000AF0346FB7197F90730002B0BDBFB79F1
:10134C0003F01F02064997F907305B09012000FAE8
:10135C0002F241F8232000BF0C37BD4680BC704719
:10136C0000E100E080B483B000AF03463960FB714C
:10137C0097F90730002B0ADB3B68DAB20C4997F976
:10138C0007301201D2B20B4483F800230AE03B6809
:10139C00DAB20849FB7903F00F03043B1201D2B215
:1013AC000B441A7600BF0C37BD4680BC704700BF9B
:1013BC0000E100E000ED00E080B489B000AFF8601F
:1013CC00B9607A60FB6803F00703FB61FB69C3F14A
:1013DC000703042B28BF0423BB61FB690433062BD2
:1013EC0002D9FB69033B00E000237B614FF0FF3225
:1013FC00BB6902FA03F3DA43BB681A407B699A4073
:10140C004FF0FF317B6901FA03F3D9437B680B4042
:10141C00134318462437BD4680BC704780B582B054
:10142C0000AF78607B68013BB3F1807F01D301236F
:10143C000FE00A4A7B68013B53600F214FF0FF30ED
:10144C00FFF790FF054B00229A60044B07221A60AD
:10145C00002318460837BD4680BD00BF10E000E0F1
:10146C0080B582B000AF78607868FFF72DFF00BFC1
:10147C000837BD4680BD80B586B000AF0346B96065
:10148C007A60FB7300237B61FFF742FF78617A6817
:10149C00B9687869FFF790FF024697F90F3011464B
:1014AC001846FFF75FFF00BF1837BD4680BD80B5FB
:1014BC0082B000AF0346FB7197F907301846FFF76F
:1014CC0035FF00BF0837BD4680BD80B582B000AF88
:1014DC0078607868FFF7A2FF034618460837BD46C8
:1014EC0080BD80B485B000AF78600023FB737B684F
:1014FC0093F82130DBB2022B08D07B6804229A636C
:10150C007B68002283F82020012320E07B681B6885
:10151C001A687B681B6822F00E021A607B681B68D5
:10152C001A687B681B6822F001021A607B681A6CCF
:10153C007B68DB6B012101FA02F25A607B680122A5
:10154C0083F821207B68002283F82020FB7B18463F
:10155C001437BD4680BC704780B584B000AF78604E
:10156C000023FB737B6893F82130DBB2022B05D090
:10157C007B6804229A630123FB7351E07B681B6830
:10158C001A687B681B6822F00E021A607B681B6865
:10159C001A687B681B6822F001021A607B681B6862
:1015AC00224A934229D07B681B68214A934222D05D
:1015BC007B681B681F4A93421AD07B681B681E4AC3
:1015CC00934212D07B681B681C4A93420AD07B68FA
:1015DC001B681B4A934202D14FF480130EE04FF06C
:1015EC0080730BE04FF4803308E04FF4805305E038
:1015FC004FF4807302E0102300E00123114A536082
:10160C007B68012283F821207B68002283F820204C
:10161C007B685B6B002B03D07B685B6B78689847AF
:10162C00FB7B18461037BD4680BD00BF080002404A
:10163C001C000240300002404400024058000240AE
:10164C006C0002400000024080B48BB000AF7860A8
:10165C00396000237B6200233B6261E101227B6ADB
:10166C0002FA03F3FB613B681B68FA691340BB6128
:10167C00BA69FB699A4240F050813B685B68974AB3
:10168C0093425ED0954A934275D8954A934258D06E
:10169C00934A93426FD8934A934252D0914A9342C1
:1016AC0069D8914A93424CD08F4A934263D88F4A5F
:1016BC00934246D08D4A93425DD8122B2AD8122BD6
:1016CC0059D801A252F823F04F1700082917000827
:1016DC003B1700087D1700088317000883170008C4
:1016EC008317000883170008831700088317000866
:1016FC008317000883170008831700088317000856
:10170C008317000883170008831700083117000897
:10171C0045170008764A934213D02CE03B68DB68EF
:10172C003B6229E03B68DB6804333B6224E03B68A6
:10173C00DB6808333B621FE03B68DB680C333B62C1
:10174C001AE03B689B68002B02D104233B6213E038
:10175C003B689B68012B05D108233B627B68FA69C7
:10176C001A6109E008233B627B68FA695A6103E05D
:10177C0000233B6200E000BFBB69FF2B01D87B68F4
:10178C0001E07B6804337B61BB69FF2B02D87B6A69
:10179C009B0002E07B6A083B9B003B617B691A68FB
:1017AC000F213B6901FA03F3DB431A40396A3B69A9
:1017BC0001FA03F31A437B691A603B685B6803F018
:1017CC008053002B00F0A9804A4B9B69494A43F097
:1017DC0001039361474B9B6903F00103BB60BB683A
:1017EC00454A7B6A9B08023352F82330FB607B6AC4
:1017FC0003F003039B000F2202FA03F3DB43FA68A6
:10180C001340FB607B683D4A93420DD07B683C4A99
:10181C00934207D07B683B4A934201D1022304E0F8
:10182C00032302E0012300E000237A6A02F00302A2
:10183C0092009340FA681343FB602F497B6A9B0824
:10184C000233FA6841F823203B685B6803F4801389
:10185C00002B06D02C4B9A682B49BB6913438B6029
:10186C0006E0294B9A68BB69DB43274913408B6020
:10187C003B685B6803F40013002B06D0224BDA683C
:10188C002149BB691343CB6006E01F4BDA68BB6987
:10189C00DB431D491340CB603B685B6803F40033AA
:1018AC00002B06D0184B5A681749BB6913434B6081
:1018BC0006E0154B5A68BB69DB43134913404B6078
:1018CC003B685B6803F48033002B1FD00E4B1A6807
:1018DC000D49BB6913430B601FE000BF00003210C1
:1018EC000000311000002210000021100000121026
:1018FC0000001110001002400000014000080140DF
:10190C00000C014000100140000401400B4B1A6810
:10191C00BB69DB43094913400B607B6A01337B6273
:10192C003B681A687B6A22FA03F3002B7FF496AEAD
:10193C0000BF00BF2C37BD4680BC7047000401407F
:10194C0080B485B000AF78600B467B807B689A686A
:10195C007B881340002B02D00123FB7301E0002392
:10196C00FB73FB7B18461437BD4680BC704780B4B4
:10197C0083B000AF78600B467B8013467B707B781E
:10198C00002B03D07A887B681A6103E07B881A04E9
:10199C007B681A6100BF0C37BD4680BC704780B4B1
:1019AC0085B000AF78600B467B807B68DB68FB60A2
:1019BC007A88FB6813401A04FB68D9437B880B4078
:1019CC001A437B681A6100BF1437BD4680BC704750
:1019DC0080B586B000AF78607B68002B01D1012305
:1019EC0072E27B681B6803F00103002B00F0878018
:1019FC00924B5B6803F00C03042B0CD08F4B5B6891
:101A0C0003F00C03082B12D18C4B5B6803F480336E
:101A1C00B3F5803F0BD1894B1B6803F40033002BCB
:101A2C006CD07B685B68002B68D101234CE27B682F
:101A3C005B68B3F5803F06D1804B1B687F4A43F44B
:101A4C00803313602EE07B685B68002B0CD17B4BE2
:101A5C001B687A4A23F480331360784B1B68774AEF
:101A6C0023F4802313601DE07B685B68B3F5A02F23
:101A7C000CD1724B1B68714A43F4802313606F4B7B
:101A8C001B686E4A43F4803313600BE06B4B1B688E
:101A9C006A4A23F480331360684B1B68674A23F44B
:101AAC00802313607B685B68002B13D0FFF7DEFB91
:101ABC00386108E0FFF7DAFB02463B69D31A642B66
:101ACC0001D9032300E25D4B1B6803F40033002BA8
:101ADC00F0D014E0FFF7CAFB386108E0FFF7C6FB53
:101AEC0002463B69D31A642B01D90323ECE1534B17
:101AFC001B6803F40033002BF0D100E000BF7B68BF
:101B0C001B6803F00203002B63D04C4B5B6803F0A3
:101B1C000C03002B0BD0494B5B6803F00C03082B18
:101B2C001CD1464B5B6803F48033002B16D1434B1E
:101B3C001B6803F00203002B05D07B681B69012B8B
:101B4C0001D00123C0E13D4B1B6823F0F8027B68F8
:101B5C005B69DB00394913430B603AE07B681B6916
:101B6C00002B20D0364B01221A60FFF77FFB386127
:101B7C0008E0FFF77BFB02463B69D31A022B01D925
:101B8C000323A1E12D4B1B6803F00203002BF0D0C3
:101B9C002A4B1B6823F0F8027B685B69DB00274942
:101BAC0013430B6015E0264B00221A60FFF75EFB17
:101BBC00386108E0FFF75AFB02463B69D31A022B47
:101BCC0001D9032380E11D4B1B6803F00203002B9A
:101BDC00F0D17B681B6803F00803002B3AD07B68BC
:101BEC009B69002B19D0174B01221A60FFF73EFBA3
:101BFC00386108E0FFF73AFB02463B69D31A022B27
:101C0C0001D9032360E10D4B5B6A03F00203002B47
:101C1C00F0D0012000F0CEFA1CE00A4B00221A6032
:101C2C00FFF724FB38610FE0FFF720FB02463B690E
:101C3C00D31A022B08D9032346E100BF001002403F
:101C4C000000424280044242924B5B6A03F0020362
:101C5C00002BE9D17B681B6803F00403002B00F018
:101C6C00A6800023FB758B4BDB6903F08053002BA4
:101C7C000DD1884BDB69874A43F08053D361854B88
:101C8C00DB6903F08053BB60BB680123FB75824B9F
:101C9C001B6803F48073002B18D17F4B1B687E4AA2
:101CAC0043F480731360FFF7E1FA386108E0FFF743
:101CBC00DDFA02463B69D31A642B01D9032303E1F5
:101CCC00754B1B6803F48073002BF0D07B68DB68CA
:101CDC00012B06D16F4B1B6A6E4A43F00103136252
:101CEC002DE07B68DB68002B0CD16A4B1B6A694AC0
:101CFC0023F001031362674B1B6A664A23F004034B
:101D0C0013621CE07B68DB68052B0CD1614B1B6AF2
:101D1C00604A43F0040313625E4B1B6A5D4A43F056
:101D2C00010313620BE05B4B1B6A5A4A23F001035D
:101D3C001362584B1B6A574A23F0040313627B68E7
:101D4C00DB68002B15D0FFF791FA38610AE0FFF73A
:101D5C008DFA02463B69D31A41F28832934201D97B
:101D6C000323B1E04B4B1B6A03F00203002BEED0B4
:101D7C0014E0FFF77BFA38610AE0FFF777FA0246C6
:101D8C003B69D31A41F28832934201D903239BE079
:101D9C00404B1B6A03F00203002BEED1FB7D012BA1
:101DAC0005D13C4BDB693B4A23F08053D3617B6804
:101DBC00DB69002B00F08780364B5B6803F00C036B
:101DCC00082B61D07B68DB69022B46D1334B002298
:101DDC001A60FFF74BFA386108E0FFF747FA024642
:101DEC003B69D31A022B01D903236DE0294B1B68E5
:101DFC0003F00073002BF0D17B681B6AB3F5803FB6
:101E0C0008D1244B5B6823F400327B689B68214922
:101E1C0013434B601F4B5B6823F474127B68196A85
:101E2C007B685B6A0B431B4913434B601B4B0122C2
:101E3C001A60FFF71BFA386108E0FFF717FA024641
:101E4C003B69D31A022B01D903233DE0114B1B68CC
:101E5C0003F00073002BF0D035E0104B00221A6019
:101E6C00FFF704FA386108E0FFF700FA02463B6915
:101E7C00D31A022B01D9032326E0064B1B6803F06F
:101E8C000073002BF0D11EE07B68DB69012B07D1BE
:101E9C00012319E000100240007000406000424233
:101EAC000B4B5B68FB60FB6803F480327B681B6A3E
:101EBC009A4206D1FB6803F470127B685B6A9A4203
:101ECC0001D0012300E0002318461837BD4680BD21
:101EDC000010024080B584B000AF786039607B6838
:101EEC00002B01D10123D0E06A4B1B6803F00703E0
:101EFC003A689A4210D9674B1B6823F00702654970
:101F0C003B6813430B60634B1B6803F007033A6891
:101F1C009A4201D00123B8E07B681B6803F00203EE
:101F2C00002B20D07B681B6803F00403002B05D02A
:101F3C00594B5B68584A43F4E06353607B681B68F9
:101F4C0003F00803002B05D0534B5B68524A43F453
:101F5C0060535360504B5B6823F0F0027B689B68C6
:101F6C004D4913434B607B681B6803F00103002B46
:101F7C0040D07B685B68012B07D1474B1B6803F48F
:101F8C000033002B15D101237FE07B685B68022BAB
:101F9C0007D1414B1B6803F00073002B09D10123BF
:101FAC0073E03D4B1B6803F00203002B01D10123AE
:101FBC006BE0394B5B6823F003027B685B68364946
:101FCC0013434B60FFF752F9F8600AE0FFF74EF944
:101FDC000246FB68D31A41F28832934201D903239B
:101FEC0053E02D4B5B6803F00C027B685B689B0035
:101FFC009A42EBD1274B1B6803F007033A689A42CD
:10200C0010D2244B1B6823F0070222493B68134370
:10201C000B60204B1B6803F007033A689A4201D00F
:10202C00012332E07B681B6803F00403002B08D00B
:10203C00194B5B6823F4E0627B68DB681649134339
:10204C004B607B681B6803F00803002B09D0124B14
:10205C005B6823F460527B681B69DB000E491343F9
:10206C004B6000F021F802460B4B5B681B0903F038
:10207C000F030A49CB5C22FA03F3094A1360094B9C
:10208C001B681846FFF7B0F8002318461037BD46FA
:10209C0080BD00BF0020024000100240583D0008E7
:1020AC00300000204000002080B487B000AF002337
:1020BC00FB600023BB6000237B6100237B6000235B
:1020CC003B611E4B5B68FB60FB6803F00C03042B4D
:1020DC0002D0082B03D027E0194B3B6127E0FB68AB
:1020EC009B0C03F00F03174AD35C7B60FB6803F473
:1020FC008033002B10D0114B5B685B0C03F0010399
:10210C00114AD35CBB607B680D4A03FB02F2BB68CF
:10211C00B2FBF3F37B6104E07B680C4A02FB03F334
:10212C007B617B693B6102E0054B3B6100BF3B6916
:10213C0018461C37BD4680BC704700BF00100240DB
:10214C0000127A00703D0008803D000800093D0037
:10215C0080B400AF024B1B681846BD4680BC70476C
:10216C003000002080B500AFFFF7F2FF0246054BB0
:10217C005B681B0A03F007030349CB5C22FA03F3E9
:10218C00184680BD00100240683D000880B500AFC5
:10219C00FFF7DEFF0246054B5B68DB0A03F0070323
:1021AC000349CB5C22FA03F3184680BD00100240B1
:1021BC00683D000880B485B000AF78600A4B1B689E
:1021CC000A4AA2FB03235B0A7A6802FB03F3FB6057
:1021DC0000BFFB685A1EFA60002BF9D100BF00BF8C
:1021EC001437BD4680BC704730000020D34D6210C0
:1021FC0080B582B000AF78607B68002B01D10123E1
:10220C0041E07B6893F83D30DBB2002B06D17B6854
:10221C00002283F83C207868FEF7C2FE7B6802221D
:10222C0083F83D207B681A687B6804331946104696
:10223C0000F0D8FB7B68012283F846207B680122E2
:10224C0083F83E207B68012283F83F207B680122C3
:10225C0083F840207B68012283F841207B680122AF
:10226C0083F842207B68012283F843207B6801229B
:10227C0083F844207B68012283F845207B68012287
:10228C0083F83D20002318460837BD4680BD80B535
:10229C0082B000AF78607B68002B01D1012341E054
:1022AC007B6893F83D30DBB2002B06D17B680022B3
:1022BC0083F83C20786800F039F87B68022283F8B8
:1022CC003D207B681A687B6804331946104600F081
:1022DC0089FB7B68012283F846207B68012283F806
:1022EC003E207B68012283F83F207B68012283F823
:1022FC0040207B68012283F841207B68012283F80F
:10230C0042207B68012283F843207B68012283F8FA
:10231C0044207B68012283F845207B68012283F8E6
:10232C003D20002318460837BD4680BD80B483B0DD
:10233C0000AF786000BF0C37BD4680BC7047000012
:10234C0080B584B000AF786039603B68002B09D150
:10235C007B6893F83E30DBB2012B14BF01230023C2
:10236C00DBB222E03B68042B09D17B6893F83F3049
:10237C00DBB2012B14BF01230023DBB215E03B6859
:10238C00082B09D17B6893F84030DBB2012B14BFCA
:10239C0001230023DBB208E07B6893F84130DBB209
:1023AC00012B14BF01230023DBB2002B01D001232E
:1023BC0059E03B68002B04D17B68022283F83E2055
:1023CC0013E03B68042B04D17B68022283F83F2086
:1023DC000BE03B68082B04D17B68022283F8402079
:1023EC0003E07B68022283F841207B681B68012292
:1023FC003968184600F06CFD7B681B681C4A9342D8
:10240C0007D17B681B685A6C7B681B6842F40042DE
:10241C005A647B681B68164A934209D07B681B6818
:10242C00B3F1804F04D07B681B68124A934211D1E0
:10243C007B681B689B6803F00703FB60FB68062B3B
:10244C0010D07B681B681A687B681B6842F001021D
:10245C001A6007E07B681B681A687B681B6842F08F
:10246C0001021A60002318461037BD4680BD00BF1C
:10247C00002C01400004004080B582B000AF7860B1
:10248C007B681B681B6903F00203022B22D17B685B
:10249C001B68DB6803F00203022B1BD17B681B68F3
:1024AC006FF002021A617B6801221A777B681B6845
:1024BC009B6903F00303002B03D0786800F076FAD5
:1024CC0005E0786800F069FA786800F078FA7B68C3
:1024DC0000221A777B681B681B6903F00403042B2A
:1024EC0022D17B681B68DB6803F00403042B1BD12F
:1024FC007B681B686FF004021A617B6802221A77F2
:10250C007B681B689B6903F44073002B03D07868CD
:10251C0000F04CFA05E0786800F03FFA786800F0BB
:10252C004EFA7B6800221A777B681B681B6903F0E4
:10253C000803082B22D17B681B68DB6803F00803B7
:10254C00082B1BD17B681B686FF008021A617B6833
:10255C0004221A777B681B68DB6903F00303002BEA
:10256C0003D0786800F022FA05E0786800F015FADC
:10257C00786800F024FA7B6800221A777B681B6865
:10258C001B6903F01003102B22D17B681B68DB68DE
:10259C0003F01003102B1BD17B681B686FF010022B
:1025AC001A617B6808221A777B681B68DB6903F465
:1025BC004073002B03D0786800F0F8F905E07868D8
:1025CC0000F0EBF9786800F0FAF97B6800221A77D2
:1025DC007B681B681B6903F00103012B0ED17B6820
:1025EC001B68DB6803F00103012B07D17B681B68B8
:1025FC006FF001021A617868FEF790F97B681B682E
:10260C001B6903F08003802B0ED17B681B68DB6891
:10261C0003F08003802B07D17B681B686FF080026E
:10262C001A61786800F0D9FC7B681B681B6903F0A1
:10263C004003402B0ED17B681B68DB6803F0400322
:10264C00402B07D17B681B686FF040021A617868D9
:10265C0000F0BEF97B681B681B6903F02003202B7C
:10266C000ED17B681B68DB6803F02003202B07D19D
:10267C007B681B686FF020021A61786800F0A4FC7C
:10268C0000BF0837BD4680BD80B586B000AFF8608E
:10269C00B9607A600023FB75FB6893F83C30012B22
:1026AC0001D10223AEE0FB68012283F83C207B6859
:1026BC000C2B00F29F8001A252F823F0FD2600089B
:1026CC000128000801280008012800083D270008FF
:1026DC000128000801280008012800087F270008AD
:1026EC00012800080128000801280008BF2700085D
:1026FC00FB681B68B968184600F0CCF9FB681B68CE
:10270C009A69FB681B6842F008029A61FB681B68B7
:10271C009A69FB681B6822F004029A61FB681B68CB
:10272C009969BB681A69FB681B680A439A6164E083
:10273C00FB681B68B968184600F012FAFB681B6846
:10274C009A69FB681B6842F400629A61FB681B681B
:10275C009A69FB681B6822F480629A61FB681B68AB
:10276C009969BB681B691A02FB681B680A439A616A
:10277C0043E0FB681B68B968184600F05BFAFB681D
:10278C001B68DA69FB681B6842F00802DA61FB68B7
:10279C001B68DA69FB681B6822F00402DA61FB68CB
:1027AC001B68D969BB681A69FB681B680A43DA6144
:1027BC0023E0FB681B68B968184600F0A5FAFB68B3
:1027CC001B68DA69FB681B6842F40062DA61FB681B
:1027DC001B68DA69FB681B6822F48062DA61FB68AB
:1027EC001B68D969BB681B691A02FB681B680A4322
:1027FC00DA6102E00123FB7500BFFB68002283F85D
:10280C003C20FB7D18461837BD4680BD80B584B092
:10281C0000AF786039600023FB737B6893F83C3021
:10282C00012B01D10223B4E07B68012283F83C2008
:10283C007B68022283F83D207B681B689B68BB6029
:10284C00BB6823F07703BB60BB6823F47F43BB609A
:10285C007B681B68BA689A603B681B68B3F5005FBD
:10286C003ED0B3F5005F00F28780B3F5805F00F0D7
:10287C008680B3F5805F7FD8702B1AD0702B7BD8F5
:10288C00602B50D0602B77D8502B3CD0502B73D86A
:10289C00402B58D0402B6FD8302B64D0302B6BD8BA
:1028AC00202B60D0202B67D8002B5CD0102B5AD05B
:1028BC0062E07B6818683B6899683B685A683B68BB
:1028CC00DB6800F0E6FA7B681B689B68BB60BB6842
:1028DC0043F07703BB607B681B68BA689A604FE073
:1028EC007B6818683B6899683B685A683B68DB688A
:1028FC0000F0CFFA7B681B689A687B681B6842F40F
:10290C0080429A603CE07B6818683B6859683B6879
:10291C00DB681A4600F046FA7B681B6850211846A3
:10292C0000F09DFA2CE07B6818683B6859683B689E
:10293C00DB681A4600F064FA7B681B686021184655
:10294C0000F08DFA1CE07B6818683B6859683B689E
:10295C00DB681A4600F026FA7B681B684021184693
:10296C0000F07DFA0CE07B681A683B681B6819461E
:10297C00104600F074FA03E00123FB7300E000BF83
:10298C007B68012283F83D207B68002283F83C2081
:10299C00FB7B18461037BD4680BD80B483B000AFBA
:1029AC00786000BF0C37BD4680BC704780B483B0E4
:1029BC0000AF786000BF0C37BD4680BC704780B458
:1029CC0083B000AF786000BF0C37BD4680BC704749
:1029DC0080B483B000AF786000BF0C37BD4680BCBC
:1029EC007047000080B485B000AF786039607B68B8
:1029FC001B68FB607B68254A934207D07B68B3F168
:102A0C00804F03D07B68224A934208D1FB6823F0A5
:102A1C007003FB603B685B68FA681343FB607B6880
:102A2C001A4A934207D07B68B3F1804F03D07B687E
:102A3C00174A934208D1FB6823F44073FB603B6850
:102A4C00DB68FA681343FB60FB6823F080023B6889
:102A5C005B691343FB607B68FA681A603B689A6891
:102A6C007B68DA623B681A687B689A627B68074A03
:102A7C00934203D13B681A697B681A637B68012215
:102A8C005A6100BF1437BD4680BC7047002C014012
:102A9C000004004080B487B000AF786039607B6878
:102AAC001B6A7B617B681B6A23F001027B681A62DC
:102ABC007B685B683B617B689B69FB60FB6823F010
:102ACC007003FB60FB6823F00303FB603B681B682F
:102ADC00FA681343FB607B6923F002037B613B685C
:102AEC009B687A6913437B617B681C4A93420CD1C7
:102AFC007B6923F008037B613B68DB687A691343CD
:102B0C007B617B6923F004037B617B68134A9342EE
:102B1C0011D13B6923F480733B613B6923F400734F
:102B2C003B613B685B693A6913433B613B689B695A
:102B3C003A6913433B617B683A695A607B68FA686F
:102B4C009A613B685A687B685A637B687A691A6237
:102B5C0000BF1C37BD4680BC704700BF002C014035
:102B6C0080B487B000AF786039607B681B6A7B618A
:102B7C007B681B6A23F010027B681A627B685B68B7
:102B8C003B617B689B69FB60FB6823F4E043FB6063
:102B9C00FB6823F44073FB603B681B681B02FA68FC
:102BAC001343FB607B6923F020037B613B689B68CC
:102BBC001B017A6913437B617B681D4A93420DD1DB
:102BCC007B6923F080037B613B68DB681B017A69BE
:102BDC0013437B617B6923F040037B617B68144A60
:102BEC00934213D13B6923F480633B613B6923F42B
:102BFC0000633B613B685B699B003A6913433B6133
:102C0C003B689B699B003A6913433B617B683A695B
:102C1C005A607B68FA689A613B685A687B689A6369
:102C2C007B687A691A6200BF1C37BD4680BC70474E
:102C3C00002C014080B487B000AF786039607B68AD
:102C4C001B6A7B617B681B6A23F480727B681A6247
:102C5C007B685B683B617B68DB69FB60FB6823F02E
:102C6C007003FB60FB6823F00303FB603B681B688D
:102C7C00FA681343FB607B6923F400737B613B6848
:102C8C009B681B027A6913437B617B681D4A9342E4
:102C9C000DD17B6923F400637B613B68DB681B020D
:102CAC007A6913437B617B6923F480637B617B6866
:102CBC00144A934213D13B6923F480533B613B6923
:102CCC0023F400533B613B685B691B013A69134376
:102CDC003B613B689B691B013A6913433B617B6811
:102CEC003A695A607B68FA68DA613B685A687B68B3
:102CFC00DA637B687A691A6200BF1C37BD4680BCF8
:102D0C00704700BF002C014080B487B000AF7860E2
:102D1C0039607B681B6A3B617B681B6A23F48052B9
:102D2C007B681A627B685B687B617B68DB69FB6034
:102D3C00FB6823F4E043FB60FB6823F44073FB6007
:102D4C003B681B681B02FA681343FB603B6923F466
:102D5C0000533B613B689B681B033A6913433B611F
:102D6C007B680F4A934209D17B6923F480437B61D2
:102D7C003B685B699B017A6913437B617B687A6969
:102D8C005A607B68FA68DA613B685A687B681A6437
:102D9C007B683A691A6200BF1C37BD4680BC70471D
:102DAC00002C014080B487B000AFF860B9607A6045
:102DBC00FB681B6A7B61FB681B6A23F00102FB68E2
:102DCC001A62FB689B693B613B6923F0F0033B6132
:102DDC007B681B013A6913433B617B6923F00A034F
:102DEC007B617A69BB6813437B61FB683A699A61C2
:102DFC00FB687A691A6200BF1C37BD4680BC7047FD
:102E0C0080B487B000AFF860B9607A60FB681B6A69
:102E1C007B61FB681B6A23F01002FB681A62FB687B
:102E2C009B693B613B6923F470433B617B681B03EB
:102E3C003A6913433B617B6923F0A0037B61BB6858
:102E4C001B017A6913437B61FB683A699A61FB68E1
:102E5C007A691A6200BF1C37BD4680BC704780B4CB
:102E6C0085B000AF786039607B689B68FB60FB685D
:102E7C0023F07003FB603A68FB68134343F00703CD
:102E8C00FB607B68FA689A6000BF1437BD4680BC53
:102E9C00704780B487B000AFF860B9607A603B606F
:102EAC00FB689B687B617B6923F47F437B613B6898
:102EBC001A027B681A43BB6813437A6913437B611C
:102ECC00FB687A699A6000BF1C37BD4680BC7047AE
:102EDC0080B487B000AFF860B9607A60BB6803F06B
:102EEC001F03012202FA03F37B61FB681A6A7B69F8
:102EFC00DB431A40FB681A62FB681A6ABB6803F072
:102F0C001F03796801FA03F31A43FB681A6200BFC6
:102F1C001C37BD4680BC704780B485B000AF78606C
:102F2C0039607B6893F83C30012B01D1022341E0DE
:102F3C007B68012283F83C207B68022283F83D20C9
:102F4C007B681B685B68FB607B681B689B68BB606D
:102F5C00FB6823F07003FB603B681B68FA68134343
:102F6C00FB607B681B68FA685A607B681B68144AB4
:102F7C00934209D07B681B68B3F1804F04D07B6807
:102F8C001B68104A93420CD1BB6823F08003BB60D2
:102F9C003B685B68BA681343BB607B681B68BA68A4
:102FAC009A607B68012283F83D207B68002283F8BD
:102FBC003C20002318461437BD4680BC704700BF28
:102FCC00002C01400004004080B483B000AF786056
:102FDC0000BF0C37BD4680BC704780B483B000AFD7
:102FEC00786000BF0C37BD4680BC704780B582B09E
:102FFC0000AF78607B68002B01D1012342E07B6835
:10300C0093F84130DBB2002B06D17B68002283F8A9
:10301C0040207868FEF718F87B68242283F841205A
:10302C007B681B68DA687B681B6822F40052DA60E4
:10303C00786800F0C5FD7B681B681A697B681B68A3
:10304C0022F490421A617B681B685A697B681B6882
:10305C0022F02A025A617B681B68DA687B681B685D
:10306C0042F40052DA607B6800225A647B682022AA
:10307C0083F841207B68202283F842207B68002261
:10308C005A63002318460837BD4680BD80B58AB008
:10309C0002AFF860B9603B601346FB8000237B6194
:1030AC00FB6893F84130DBB2202B6DD1BB68002B51
:1030BC0002D0FB88002B01D1012366E0FB680022C3
:1030CC005A64FB68212283F84120FEF7CFF878611F
:1030DC00FB68FA889A84FB68FA88DA84FB689B6838
:1030EC00B3F5805F08D1FB681B69002B04D100236A
:1030FC00FB61BB68BB6103E0BB68FB610023BB6188
:10310C002AE03B6800937B6900228021F86800F07C
:10311C0014FB0346002B01D0032336E0FB69002B84
:10312C000BD1BB691B881A46FB681B68C2F30802EB
:10313C005A60BB690233BB6107E0FB691A78FB6814
:10314C001B685A60FB690133FB61FB68DB8C9BB22B
:10315C00013B9AB2FB68DA84FB68DB8C9BB2002BD8
:10316C00CFD13B6800937B6900224021F86800F0C6
:10317C00E4FA0346002B01D0032306E0FB6820226F
:10318C0083F84120002300E0022318462037BD4677
:10319C0080BD80B584B000AFF860B9601346FB8089
:1031AC00FB6893F84230DBB2202B12D1BB68002BAA
:1031BC0002D0FB88002B01D101230BE0FB6800221D
:1031CC001A63FB881A46B968F86800F024FB0346BA
:1031DC0000E0022318461037BD4680BD80B5BAB05A
:1031EC0000AF78607B681B681B68C7F8E4307B68AD
:1031FC001B68DB68C7F8E0307B681B685B69C7F845
:10320C00DC300023C7F8D8300023C7F8D430D7F807
:10321C00E43003F00F03C7F8D830D7F8D830002BC0
:10322C000FD1D7F8E43003F02003002B09D0D7F8E6
:10323C00E03003F02003002B03D0786800F001FC91
:10324C005BE2D7F8D830002B00F0DE80D7F8DC300A
:10325C0003F00103002B06D1D7F8E03003F4907390
:10326C00002B00F0D180D7F8E43003F00103002BE1
:10327C000BD0D7F8E03003F48073002B05D07B68BB
:10328C005B6C43F001027B685A64D7F8E43003F0BE
:10329C000403002B0BD0D7F8DC3003F00103002B18
:1032AC0005D07B685B6C43F002027B685A64D7F8EC
:1032BC00E43003F00203002B0BD0D7F8DC3003F022
:1032CC000103002B05D07B685B6C43F004027B6828
:1032DC005A64D7F8E43003F00803002B11D0D7F868
:1032EC00E03003F02003002B05D1D7F8DC3003F0DD
:1032FC000103002B05D07B685B6C43F008027B68F4
:10330C005A647B685B6C002B00F0F281D7F8E430D8
:10331C0003F02003002B08D0D7F8E03003F0200393
:10332C00002B02D0786800F08CFB7B681B685B6913
:10333C0003F04003002B14BF01230023DBB2C7F8BA
:10334C00D4307B685B6C03F00803002B03D1D7F8F7
:10335C00D430002B4FD0786800F096FA7B681B684D
:10336C005B6903F04003002B41D07B681B6814336E
:10337C00C7F89C30D7F89C3053E8003FC7F898301A
:10338C00D7F8983023F04003C7F8D0307B681B681F
:10339C001433D7F8D020C7F8A820C7F8A430D7F832
:1033AC00A410D7F8A82041E80023C7F8A030D7F81C
:1033BC00A030002BD9D17B68DB6B002B13D07B6842
:1033CC00DB6B7E4A5A637B68DB6B1846FEF7C4F8EE
:1033DC000346002B16D07B68DB6B5B6B7A68D26B79
:1033EC00104698470EE0786800F093F90AE0786888
:1033FC0000F08FF906E0786800F08BF97B6800220A
:10340C005A6475E100BF73E17B681B6B012B40F0C4
:10341C004F81D7F8E43003F01003002B00F0488103
:10342C00D7F8E03003F01003002B00F041810023AB
:10343C00BB607B681B681B68BB607B681B685B6838
:10344C00BB60BB687B681B685B6903F04003002BA7
:10345C0000F0B6807B68DB6B1B685B68A7F8BE303E
:10346C00B7F8BE30002B00F045817B689B8DB7F818
:10347C00BE209A4280F03E817B68B7F8BE20DA8588
:10348C007B68DB6B9B69202B00F088807B681B685A
:10349C000C33C7F88830D7F8883053E8003FC7F8AA
:1034AC008430D7F8843023F48073C7F8B8307B6845
:1034BC001B680C33D7F8B820C7F89420C7F89030A5
:1034CC00D7F89010D7F8942041E80023C7F88C3037
:1034DC00D7F88C30002BD9D17B681B6814337B67F1
:1034EC007B6F53E8003F3B673B6F23F00103C7F84A
:1034FC00B4307B681B681433D7F8B420C7F880202D
:10350C00FB67F96FD7F8802041E80023BB67BB6FDE
:10351C00002BE1D17B681B6814333B663B6E53E890
:10352C00003FFB65FB6D23F04003C7F8B0307B68B0
:10353C001B681433D7F8B020FA66BB66B96EFA6E06
:10354C0041E800237B667B6E002BE3D17B68202255
:10355C0083F842207B6800221A637B681B680C335B
:10356C00FB64FB6C53E8003FBB64BB6C23F01003A3
:10357C00C7F8AC307B681B680C33D7F8AC20BA6545
:10358C007B65796DBA6D41E800233B653B6D002B83
:10359C00E3D17B68DB6B1846FDF7A3FF7B68022247
:1035AC005A637B689A8D7B68DB8D9BB2D31A9BB276
:1035BC001946786800F0B6F89CE000BF593900084D
:1035CC007B689A8D7B68DB8D9BB2D31AA7F8CE30C3
:1035DC007B68DB8D9BB2002B00F08E80B7F8CE3071
:1035EC00002B00F089807B681B680C33BB63BB6BC2
:1035FC0053E8003F7B637B6B23F49073C7F8C830B0
:10360C007B681B680C33D7F8C8207A643B64396C30
:10361C007A6C41E80023FB63FB6B002BE3D17B68E6
:10362C001B6814337B627B6A53E8003F3B623B6A46
:10363C0023F00103C7F8C4307B681B681433D7F838
:10364C00C4203A63FB62F96A3A6B41E80023BB621F
:10365C00BB6A002BE3D17B68202283F842207B6875
:10366C0000221A637B681B680C333B613B6953E88F
:10367C00003FFB60FB6823F01003C7F8C0307B6889
:10368C001B680C33D7F8C020FA61BB61B969FA69C1
:10369C0041E800237B617B69002BE3D17B6802222C
:1036AC005A63B7F8CE301946786800F03BF823E03F
:1036BC00D7F8E43003F08003002B09D0D7F8E030C2
:1036CC0003F08003002B03D0786800F053F914E06A
:1036DC00D7F8E43003F04003002B0ED0D7F8E030DD
:1036EC0003F04003002B08D0786800F092F904E056
:1036FC0000BF02E000BF00E000BFE837BD4680BD60
:10370C0080B483B000AF786000BF0C37BD4680BC7E
:10371C00704780B483B000AF786000BF0C37BD46F3
:10372C0080BC704780B483B000AF78600B467B8060
:10373C0000BF0C37BD4680BC704780B590B000AF61
:10374C00F860B9603B601346FB7150E0BB6CB3F1A1
:10375C00FF3F4CD0BB6C002B07D0FDF787FD02461A
:10376C003B68D31ABA6C9A4241D2FB681B680C3383
:10377C00BB62BB6A53E8003F7B627B6A23F4D07365
:10378C00FB63FB681B680C33FA6B7A633B63396B26
:10379C007A6B41E80023FB62FB6A002BE5D1FB68E6
:1037AC001B6814337B617B6953E8003F3B613B69C9
:1037BC0023F00103BB63FB681B681433BA6B3A62DA
:1037CC00FB61F9693A6A41E80023BB61BB69002BD4
:1037DC00E5D1FB68202283F84120FB68202283F886
:1037EC004220FB68002283F8402003230FE0FB6893
:1037FC001B681A68BB681340BA689A420CBF012355
:10380C000023DBB21A46FB799A429FD0002318465C
:10381C004037BD4680BD80B485B000AFF860B9605C
:10382C001346FB80FB68BA689A62FB68FA889A8533
:10383C00FB68FA88DA85FB6800225A64FB6822224E
:10384C0083F84220FB681B69002B07D0FB681B68C0
:10385C00DA68FB681B6842F48072DA60FB681B68EC
:10386C005A69FB681B6842F001025A61FB681B68CD
:10387C00DA68FB681B6842F02002DA600023184605
:10388C001437BD4680BC704780B495B000AF7860EB
:10389C007B681B680C337B637B6B53E8003F3B639B
:1038AC003B6B23F49073FB647B681B680C33FA6CE2
:1038BC003A64FB63F96B3A6C41E80023BB63BB6B66
:1038CC00002BE5D17B681B6814333B623B6A53E8E1
:1038DC00003FFB61FB6923F00103BB647B681B6841
:1038EC001433BA6CFA62BB62B96AFA6A41E8002313
:1038FC007B627B6A002BE5D17B681B6B012B19D19A
:10390C007B681B680C33FB60FB6853E8003FBB60B3
:10391C00BB6823F010037B647B681B680C337A6CE8
:10392C00BA617B617969BA6941E800233B613B6903
:10393C00002BE5D17B68202283F842207B68002293
:10394C001A6300BF5437BD4680BC704780B584B045
:10395C0000AF78607B685B6AFB60FB680022DA85ED
:10396C00FB680022DA84F868FFF7D3FE00BF10373B
:10397C00BD4680BD80B485B000AF78607B6893F89D
:10398C004130DBB2212B3ED17B689B68B3F5805F65
:10399C0014D17B681B69002B10D17B681B6AFB6000
:1039AC00FB681B881A467B681B68C2F308025A60C6
:1039BC007B681B6A9A1C7B681A6208E07B681B6A2E
:1039CC00591C7A6811621A787B681B685A607B688C
:1039DC00DB8C9BB2013B9BB27A681946D184002BDD
:1039EC000FD17B681B68DA687B681B6822F0800249
:1039FC00DA607B681B68DA687B681B6842F04002FF
:103A0C00DA60002300E0022318461437BD4680BC60
:103A1C00704780B582B000AF78607B681B68DA684D
:103A2C007B681B6822F04002DA607B68202283F8F6
:103A3C0041207868FFF764FE002318460837BD461E
:103A4C0080BD80B58CB000AF78607B6893F8423055
:103A5C00DBB2222B40F0AE807B689B68B3F5805FB5
:103A6C0017D17B681B69002B13D10023FB627B6889
:103A7C009B6ABB627B681B685B689BB2C3F30803E1
:103A8C009AB2BB6A1A807B689B6A9A1C7B689A62A2
:103A9C0026E07B689B6AFB620023BB627B689B68A9
:103AAC00B3F5805F07D07B689B68002B0AD17B68DD
:103ABC001B69002B06D17B681B685B68DAB2FB6A5A
:103ACC001A7008E07B681B685B68DBB203F07F034D
:103ADC00DAB2FB6A1A707B689B6A5A1C7B689A6222
:103AEC007B68DB8D9BB2013B9BB27A681946D18512
:103AFC00002B5DD17B681B68DA687B681B6822F041
:103B0C002002DA607B681B68DA687B681B6822F429
:103B1C008072DA607B681B685A697B681B6822F0CC
:103B2C0001025A617B68202283F842207B680022C4
:103B3C005A637B681B6B012B35D17B6800221A639F
:103B4C007B681B680C337B617B6953E8003F3B61EE
:103B5C003B6923F010037B627B681B680C337A6A29
:103B6C003A62FB61F9693A6A41E80023BB61BB69BF
:103B7C00002BE5D17B681B681B6803F01003102B2E
:103B8C000AD10023FB607B681B681B68FB607B68A9
:103B9C001B685B68FB60FB687B689B8D19467868CB
:103BAC00FFF7C0FD02E07868FCF7CCFB002302E0D5
:103BBC00002300E0022318463037BD4680BD0000CC
:103BCC0080B584B000AF78607B681B681B6923F4F8
:103BDC0040517B68DA687B681B680A431A617B6812
:103BEC009A687B681B691A437B685B691343BB60EB
:103BFC007B681B68DB6823F4B05323F00C037A68F2
:103C0C001268B9680B43D3607B681B685B6923F44B
:103C1C0040717B689A697B681B680A435A617B68B0
:103C2C001B682C4A934203D1FEF7B0FAF86002E00D
:103C3C00FEF798FAF860FA6813469B0013449A0052
:103C4C001A447B685B689B00B2FBF3F3224AA2FB2D
:103C5C0003235B091901FA6813469B0013449A006D
:103C6C001A447B685B689B00B2FBF3F21A4BA3FB14
:103C7C0002035B09642000FB03F3D31A1B013233EC
:103C8C00154AA2FB03235B0903F0F0031944FA68FD
:103C9C0013469B0013449A001A447B685B689B0094
:103CAC00B2FBF3F20C4BA3FB02035B09642000FB99
:103CBC0003F3D31A1B013233074AA2FB03235B091C
:103CCC0003F00F027B681B680A449A6000BF103730
:103CDC00BD4680BD003801401F85EB5170B50026F4
:103CEC000C4D0D4C641BA410A64209D100F022F817
:103CFC0000260A4D0A4C641BA410A64205D170BDC7
:103D0C0055F8043B98470136EEE755F8043B9847C5
:103D1C000136F2E7843D0008843D0008843D00082C
:103D2C00883D000803460244934200D1704703F8D3
:103D3C00011BF9E7F8B500BFF8BC08BC9E467047FC
:0C3D4C00F8B500BFF8BC08BC9E467047EC
:103D58000000000000000000010203040607080933
:103D68000000000001020304020304050607080915
:0C3D78000A0B0C0D0E0F101001020000D1
:043D84003101000801
:043D88000D01000821
:103D8C000008014000080140000801400004000840
:103D9C000010000001000000010000000100000004
:103DAC000100000000010203040A0000630000008F
:103DBC000024F400070000000500000002000000D1
:083DCC001000000001000000DE
:040000050800117D61
:00000001FF
