:020000040800F2
:100000000050002081210008211C0008271C000846
:100010002D1C0008331C0008391C000800000000DB
:100020000000000000000000000000003F1C00086D
:100030004B1C000800000000571C0008631C00084F
:10004000C9210008C9210008C9210008C9210008E8
:10005000C9210008C9210008C9210008C9210008D8
:10006000C9210008C9210008C9210008C9210008C8
:10007000C9210008C9210008C9210008C9210008B8
:10008000C9210008C9210008C9210008C9210008A8
:10009000C9210008C9210008C9210008C921000898
:1000A000C9210008C9210008C9210008C921000888
:1000B000711C0008C9210008C9210008C9210008D5
:1000C000C9210008C9210008C9210008C921000868
:1000D000C9210008C9210008851C0008C9210008A1
:1000E000C9210008C9210008C9210008000000003A
:1000F0000000000000000000000000000000000000
:0C01000000000000000000005FF808F1A3
:10010C0010B5054C237833B9044B13B10448AFF345
:10011C0000800123237010BD780000200000000037
:10012C00EC4D000808B5034B1BB103490348AFF372
:10013C00008008BD000000007C000020EC4D000891
:10014C0080B483B000AF00237B6011E00D4A7B6864
:10015C00002142F823100C4A7B68002142F823103E
:10016C000A4A7B68002142F823107B6801337B60CC
:10017C007B68022BEADD00BF00BF0C37BD4680BC9C
:10018C00704700BFA0000020AC00002094000020AD
:10019C0080B582B000AF78607B68022B00F0DD8008
:1001AC007B68022B00F310817B68002B03D07B68EB
:1001BC00012B72D008E1884A7B6852F82330032B5C
:1001CC0063D801A252F823F0E50100080F020008E1
:1001DC004F02000873020008804A7B6852F82330F3
:1001EC00002B0CD17E4B1B68042B02D0052B03D0AB
:1001FC0006E000F0ABFC03E001F04EFD00E000BFB8
:10020C004AE0764A7B6852F82330002B0CD1744BB1
:10021C001B68042B02D0052B03D011E000F096FCD8
:10022C000EE001F039FD0BE06C4A7B6852F823308C
:10023C00012B2CD16A4B03221A6000F055FF26E0EB
:10024C0025E0664A7B6852F82330012B05D0634ABF
:10025C007B6852F82330022B1BD1614B04221A60AD
:10026C0000F05CFD15E05D4A7B6852F82330022BF0
:10027C0005D05A4A7B6852F82330032B0BD1584BCC
:10028C0005221A6001F094FD05E000BF9DE000BF5F
:10029C009BE000BF99E000BF97E04F4A7B6852F8A3
:1002AC002330022B3ED0022B4FDC002B02D0012B33
:1002BC000DD04AE0494A7B6852F82330002B46D1D6
:1002CC00474B1B68052B42D101F088FD3FE0434AA8
:1002DC007B6852F82330002B06D1414B1B68052B51
:1002EC0037D101F07BFD34E03C4A7B6852F8233077
:1002FC00012B13D13A4B1B68052B0CD0052B0FDCB3
:10030C00032B02D0042B03D00AE000F0EDFE08E032
:10031C0000F01CFC05E001F061FD02E000BF18E0FC
:10032C0000BF16E02D4A7B6852F82330012B05D014
:10033C002A4A7B6852F82330022B0CD1284B1B68BD
:10034C00052B08D101F0ACFD05E000BF3DE000BF7E
:10035C003BE000BF39E000BF37E01F4A7B6852F832
:10036C002330012B02D0022B19D02CE01B4A7B68C6
:10037C0052F82330012B10D1194B1B68032B02D0E0
:10038C00042B05D00AE000F0C5FE00F0D9F905E019
:10039C0000F0D8FC00F016FA00E000BF13E00F4AA2
:1003AC007B6852F82330012B05D00C4A7B6852F83D
:1003BC002330022B06D10A4B02221A6000F062F99C
:1003CC0000F0A8F900BF00E000BFFFF7B9FE00BFC6
:1003DC000837BD4680BD00BFA0000020AC00002047
:1003EC005000002080B582B000AF00237B60BEE0DF
:1003FC00634A7B6852F8232062497B6841F82320CA
:10040C00614A7B6852F823205D497B6841F82320C0
:10041C005E4A7B6852F823205D497B6831F81330C3
:10042C001946104602F072FA03461946564A7B6882
:10043C0042F82310534A7B6852F8232050497B68BA
:10044C0051F823309A4240F08F804D4A7B6852F825
:10045C0023204D497B6851F823309A4240F0848028
:10046C004C4A7B6852F8232046497B6851F823306C
:10047C009A4231D0474A7B6852F82330002B02D085
:10048C00012B14D070E0434A7B68012142F8231001
:10049C00414A7B6852F823305A1C3F497B6841F82B
:1004AC0023203E4A7B680F2142F823105CE0394A36
:1004BC007B68002142F82310394A7B6852F82330BC
:1004CC005A1C37497B6841F82320364A7B684FF425
:1004DC00967142F8231047E02E4A7B6852F823307D
:1004EC00012B18D12D4A7B6852F82330002B3BDDB1
:1004FC002A4A7B6852F823305A1E28497B6841F8F7
:10050C002320264A7B6852F82330002B2CDC786899
:10051C00FFF73EFE28E0234A7B6852F82330002B7D
:10052C0022DD204A7B6852F823305A1E1D497B6815
:10053C0041F823201B4A7B6852F82330002B13DC34
:10054C007B68002B05D1174A7B684FF4967142F8F3
:10055C0023107B68012B04D1124A7B68142142F8CA
:10056C0023107868FFF714FE7B6801337B607B688F
:10057C00022B7FF73DAF00BF00BF0837BD4680BDE3
:10058C002C0000202000002038000020000000205B
:10059C000C00002014000020AC000020940000206F
:1005AC00A00000204400002080B483B000AF78602D
:1005BC0039603B68022B11D03B68022B12DC3B6884
:1005CC00002B03D03B68012B04D00BE0084A7B685E
:1005DC00136008E0064A7B68536004E0044A7B68B9
:1005EC00936000E000BF00BF0C37BD4680BC704775
:1005FC00B800002080B582B000AF78600021786828
:10060C00FFF7D2FF00BF0837BD4680BD80B582B072
:10061C0000AF786001217868FFF7C6FF00BF08378C
:10062C00BD4680BD80B582B000AF7860022178688D
:10063C00FFF7BAFF00BF0837BD4680BD80B500AFDD
:10064C000521082000F07AFD0521092000F076FD37
:10065C0000BF80BD80B500AF0321082000F06EFD07
:10066C000321092000F06AFD00BF80BD80B500AFFA
:10067C000421082000F062FD0421092000F05EFD39
:10068C0000BF80BD80B500AF0621082000F056FDEC
:10069C000621092000F052FD00BF80BD80B500AFDF
:1006AC000721082000F04AFD0721092000F046FD33
:1006BC0000BF80BD80B500AF0021082000F03EFDDA
:1006CC0000BF80BD80B500AF0221082000F036FDD0
:1006DC0000BF80BD80B500AF0121082000F02EFDC9
:1006EC0000BF80BD80B500AF0021092000F026FDC1
:1006FC0000BF80BD80B500AF0221092000F01EFDB7
:10070C0000BF80BD80B500AF0121092000F016FDAF
:10071C0000BF80BD80B500AF0A2000F0F1FD00BF26
:10072C0080BD80B500AF0B2000F0EAFD00BF80BD9E
:10073C0080B500AF0C2000F0E3FD00BF80BD0000D1
:10074C0080B500AF1C4B1B68032B26D0032B2EDC73
:10075C00012B02D0022B12D029E0184B1B68002B66
:10076C0004DC00F0CDFEFFF7D5FF22E0FFF7D9FF48
:10077C00134B1B68032B1CDC00F0B6FE19E00F4B6F
:10078C001B68002B04DCFFF7C5FF00F0B9FE11E07D
:10079C00FFF7CEFF00F0B4FE0CE0084B1B68002BFB
:1007AC0002DCFFF7B7FF05E0FFF7C2FF02E000BF76
:1007BC0000E000BF00BF80BD18010020C400002075
:1007CC002001002080B500AF1D4B1B68013B032BA3
:1007DC0032D801A252F823F0F507000831080008BE
:1007EC001D08000809080008164B1B68002B02DCCA
:1007FC00FFF790FF21E0FFF794FF1EE0114B1B6801
:10080C00002B02DCFFF786FF17E0FFF78AFF14E0EE
:10081C000C4B1B68002B02DCFFF77CFF0DE0FFF795
:10082C0087FF0AE0074B1B68002B02DCFFF772FF07
:10083C0003E0FFF776FF00E000BF00BF80BD00BF04
:10084C0014010020C400002080B500AF01F0B8FCFA
:10085C0000F03CF800F0C2F800F074F800F088FDED
:10086C0001F0B6FB134802F0F9FC01F079F8002115
:10087C00114802F09DFD01234FF47A724FF47A7106
:10088C000E4800F06BFE02234FF4FA724FF4FA712B
:10089C000B4800F063FE03230A220A21094800F0EA
:1008AC005DFE0423C822C821074800F057FE01F062
:1008BC002DF8FCE7CC00002038010020F9190008C5
:1008CC00151A00082D1A0008391A000880B590B0C6
:1008DC0000AF07F1180328220021184604F036FA5D
:1008EC003B1D00221A605A609A60DA601A6102237A
:1008FC00BB610123BB621023FB6200237B6307F106
:10090C001803184602F04AF80346002B01D000F0F9
:10091C000BF90F237B600023BB600023FB600023DB
:10092C003B6100237B613B1D0021184602F0B8FAA5
:10093C000346002B01D000F0F7F800BF4037BD464E
:10094C0080BD000080B586B000AF07F1080300221F
:10095C001A605A609A60DA603B4600221A605A604C
:10096C001D4B4FF080421A601B4B41F63F725A6090
:10097C00194B00229A60184B0922DA60164B0022A0
:10098C001A61154B00229A61134802F017FC0346BA
:10099C00002B01D000F0C8F84FF48053BB6007F176
:1009AC00080319460C4802F06FFF0346002B01D0D8
:1009BC0000F0BAF800233B6000237B603B461946ED
:1009CC00054803F0F1FA0346002B01D000F0ACF817
:1009DC0000BF1837BD4680BDCC00002080B588B064
:1009EC0000AF07F1100300221A605A609A60DA60B7
:1009FC00434B9B69424A43F004039361404B9B6910
:100A0C0003F00403FB60FB683D4B9B693C4A43F0DD
:100A1C00100393613A4B9B6903F01003BB60BB68F6
:100A2C00374B9B69364A43F020039361344B9B69E7
:100A3C0003F020037B607B68314B9B69304A43F0A9
:100A4C00080393612E4B9B6903F008033B603B68E2
:100A5C0001224FF420712B4801F06FFF01228021FD
:100A6C00294801F06AFF01227021284801F065FF36
:100A7C004FF420733B6101237B610023BB61032393
:100A8C00FB6107F1100319461E4801F0BBFD8023E2
:100A9C003B6101237B610023BB610323FB6107F1F5
:100AAC0010031946184801F0ADFD4FF4C0533B61DB
:100ABC0000237B610123BB6107F110031946124827
:100ACC0001F0A0FD04233B6100237B610123BB618A
:100ADC0007F1100319460E4801F094FD70233B6199
:100AEC0001237B610023BB610323FB6107F110032E
:100AFC001946064801F086FD00BF2037BD4680BD73
:100B0C00001002400008014000100140000C0140A0
:100B1C000014014080B582B000AF786000F002FD97
:100B2C0000BF0837BD4680BD80B400AF72B600BFB1
:100B3C00FEE7000080B400AF034B00221A6000BF38
:100B4C00BD4680BC704700BF1401002080B500AFCB
:100B5C006C4B1B68042B00F2CD8001A252F823F0E1
:100B6C00810B0008AF0B0008FF0B0008550C0008A8
:100B7C00AB0C0008634B01221A600220FFF752FDF8
:100B8C00FFF780FDFFF796FDFFF7BCFD5E4B1B6882
:100B9C001846FFF72FFD5D4B1B681846FFF736FD17
:100BAC00A9E0584B02221A60564B1A68584B1B6826
:100BBC009A420BD1574B1B68002B03DD554B1B681E
:100BCC00013B01E0534B1B68524A1360FFF7FAFDDF
:100BDC00FFF758FDFFF76EFDFFF78CFD4A4B1B68C6
:100BEC001846FFF707FD4C4B1B681846FFF70EFD28
:100BFC0081E0444B03221A60424B1A68444B1B6839
:100C0C009A420BD1434B1B68002B03DD414B1B68F5
:100C1C00013B01E03F4B1B683E4A1360FFF7D2FDDE
:100C2C000220FFF7FFFCFFF72DFDFFF753FDFFF749
:100C3C0059FD364B1B681846FFF7DCFC324B1B6822
:100C4C001846FFF7E3FC56E02E4B04221A602D4B9E
:100C5C001A682F4B1B689A420BD12E4B1B68002B2A
:100C6C0003DD2C4B1B68013B01E02A4B1B68294A16
:100C7C001360FFF7A7FD0220FFF7D4FCFFF702FD7E
:100C8C00FFF720FDFFF72EFD234B1B681846FFF7DF
:100C9C00B1FC1D4B1B681846FFF7B8FC2BE0194B39
:100CAC0001221A60174B1A68194B1B689A420BD118
:100CBC00184B1B68002B03DD164B1B68013B01E036
:100CCC00144B1B68134A1360FFF77CFD0220FFF7DF
:100CDC00A9FCFFF7D7FCFFF7EDFCFFF713FD0A4B60
:100CEC001B681846FFF786FC084B1B681846FFF775
:100CFC008DFC00E000BF01F0CFF901F093F900BFCB
:100D0C0080BD00BF140100206000002064000020A2
:100D1C00C8000020C40000206800002080B500AF8F
:100D2C00074B00221A6000F0EBFBFFF7F3FC0220EC
:100D3C00FFF778FCFFF7FEFEFFF708FF00BF80BD52
:100D4C00C400002080B400AF054B02221A60054B92
:100D5C001B68054A136000BFBD4680BC704700BFCE
:100D6C00C400002014010020C800002080B400AF93
:100D7C00044B00221A60044B00221A6000BFBD46CF
:100D8C0080BC7047180100201C01002080B500AF0A
:100D9C00964B1B68032B00F2D78001A252F823F06C
:100DAC00BD0D0008DF0D0008650E0008DD0E000803
:100DBC008F4B1B688F4A13608C4B01221A60FFF714
:100DCC0079FC8C4B1B681846FFF714FC01F064F996
:100DDC00C1E0884B1B68002B40F3B880854B1B6827
:100DEC00013B844A1360834B1B68002B24DC824B31
:100DFC001B68824A13607D4B02221A60804B1A6872
:100E0C007A4B1B689A420BD17E4B1B68002B03DD7F
:100E1C007C4B1B68013B01E07A4B1B68794A1360E1
:100E2C00FFF78EFCFFF756FC744B1B681846FFF758
:100E3C00E1FB01F031F989E06E4B1B68032B01D10A
:100E4C0000F00EFBFFF736FC6A4B1B681846FFF7E9
:100E5C00D1FB01F021F979E0684B1B68002B77DDA1
:100E6C00664B1B68013B654A1360644B1B68002B87
:100E7C0024DC654B1B68654A13605C4B03221A60CB
:100E8C005F4B1A68594B1B689A420BD15D4B1B6820
:100E9C00002B03DD5B4B1B68013B01E0594B1B68CE
:100EAC00584A1360FFF74CFCFFF70CFC574B1B68C0
:100EBC001846FFF79FFB01F0EFF849E0FFF70AFC3B
:100ECC004E4B1B681846FFF795FB01F0E5F83FE029
:100EDC004E4B1B68002B3DDD4C4B1B68013B4B4ABA
:100EEC0013604A4B1B68002B24DC414B1B68414AA6
:100EFC0013603E4B01221A60414B1A683B4B1B6836
:100F0C009A420BD13F4B1B68002B03DD3D4B1B68FA
:100F1C00013B01E03B4B1B683A4A1360FFF710FCA6
:100F2C00FFF7C8FB334B1B681846FFF763FB01F058
:100F3C00B3F80FE0FFF7C6FB344B1B681846FFF7FE
:100F4C0059FB01F0A9F805E000BF04E000BF02E086
:100F5C0000BF00E000BF2E4B1B68032B00F2AE80DD
:100F6C0001A252F823F000BF850F00087910000889
:100F7C00A70F000829100008254B02221A601E4BEF
:100F8C001B68244A1360FFF7BDFB224B1B681846F5
:100F9C00FFF73CFB01F046F897E01E4B1B68002B5B
:100FAC0040F38E801B4B1B68013B1A4A1360194B94
:100FBC001B68002B10DC144B1B68174A1360144B76
:100FCC0003221A60FFF796FB134B1B681846FFF7BA
:100FDC001DFB01F027F873E0FFF794FB0D4B1B682A
:100FEC001846FFF713FB01F01DF869E0180100200B
:100FFC006000002020010020640000202801002057
:10100C00C8000020C400002068000020300100202F
:10101C001C0100202C010020340100202C4B1B68EB
:10102C00002B4FDD2A4B1B68013B294A1360284BD0
:10103C001B68002B10DC274B1B68274A1360274BBF
:10104C0001221A60FFF74EFB234B1B681846FFF773
:10105C00DDFA00F0E7FF35E0FFF74CFB1C4B1B689B
:10106C001846FFF7D3FA00F0DDFF2BE01A4B1B6894
:10107C00002B29DD184B1B68013B174A1360164BDC
:10108C001B68002B10DC164B1B68164A1360134BA5
:10109C0002221A60FFF736FB124B1B681846FFF74B
:1010AC00B5FA00F0BFFF0FE0FFF71CFB0A4B1B6803
:1010BC001846FFF7ABFA00F0B5FF05E000BF04E0FF
:1010CC0000BF02E000BF00E000BF00BF80BD00BF5A
:1010DC003401002060000020240100201C010020AD
:1010EC00640000202C01002080B500AF084B0022CA
:1010FC001A6000F005FAFFF70DFBFFF7C3FA0120A9
:10110C00FFF790FAFFF732FEFFF740FE00BF80BDFD
:10111C00C400002080B400AF054B02221A60054BBE
:10112C001B68054A136000BFBD4680BC704700BFFA
:10113C00C400002018010020C800002080B582B037
:10114C0000AF786039607B68082B03D07B68092B73
:10115C0069D0CBE03B68072B63D801A252F823F08F
:10116C008D110008A5110008BD110008D51100084B
:10117C00F5110008E1110008FF1100081712000812
:10118C0001224FF400715B4801F0D7FB0022802153
:10119C00594801F0D2FB45E000224FF4007155484C
:1011AC0001F0CBFB01228021534801F0C6FB39E052
:1011BC0001224FF400714F4801F0BFFB0122802146
:1011CC004D4801F0BAFB2DE04FF40071494801F095
:1011DC00CCFB27E04FF40071464801F0C6FB8021A0
:1011EC00454801F0C2FB1DE08021434801F0BDFBE6
:1011FC0018E000224FF400713E4801F09EFB0022E3
:10120C0080213D4801F099FB0CE001224FF4007164
:10121C00384801F092FB01228021374801F08DFB08
:10122C0000E000BF62E03B68072B5DD801A252F8DA
:10123C0023F000BF61120008771200088D1200081D
:10124C00A3120008BF120008AD120008C912000852
:10125C00DF12000801224021284801F06EFB002219
:10126C008021244801F069FB3FE000224021234803
:10127C0001F063FB012280211E4801F05EFB34E08B
:10128C00012240211D4801F058FB01228021194800
:10129C0001F053FB29E04021184801F066FB24E0E3
:1012AC004021164801F061FB8021124801F05DFBE2
:1012BC001BE080210F4801F058FB16E00022402172
:1012CC000E4801F03AFB002280210A4801F035FB60
:1012DC000BE001224021094801F02FFB0122802163
:1012EC00044801F02AFB00E000BF00BF00BF083734
:1012FC00BD4680BD0008014000100140000C0140BB
:10130C0080B582B000AF78607B680C2B1ED07B68F8
:10131C000C2B26DC7B680A2B0DD07B680B2B20D189
:10132C0000222021114801F008FB012210210F4856
:10133C0001F003FB16E0002220210C4801F0FDFA1D
:10134C0000221021094801F0F8FA0BE001222021BB
:10135C00064801F0F2FA00221021044801F0EDFADF
:10136C0000E000BF00BF0837BD4680BD000C014047
:10137C0080B58EB000AF07F1280300221A605A60C6
:10138C009A60DA6007F1200300221A605A603B1D54
:10139C0000221A605A609A60DA601A615A619A6186
:1013AC002D4B2E4A1A602C4B40F28F125A602A4B4E
:1013BC0000229A60284B42F20F72DA60264B002210
:1013CC001A61254B00229A61234801F0F7FE03466F
:1013DC00002B01D0FFF7A8FB4FF48053BB6207F141
:1013EC00280319461C4802F04FFA0346002B01D083
:1013FC00FFF79AFB184801F083FF0346002B01D03E
:10140C00FFF792FB00233B6200237B6207F1200372
:10141C001946114802F0C8FD0346002B01D0FFF716
:10142C0083FB60237B6041F28833BB600023FB604D
:10143C0000237B613B1D00221946074802F062F92C
:10144C000346002B01D0FFF76FFB034800F05EFB57
:10145C0000BF3837BD4680BD380100200004004075
:10146C0080B400AF054B40F28F121A60044B4FF45E
:10147C00C8721A6000BFBD4680BC70478401002052
:10148C008801002080B400AF134B1B68012B09D1DD
:10149C00124B1A68124B1B689A62124B1A68104B4B
:1014AC001B685A630F4B1B6842F22732934205DCD0
:1014BC000C4B1B6803F5C8730A4A1360074B1B6877
:1014CC00002B04DD054B1B68193B044A136000BF5D
:1014DC00BD4680BC704700BF800100208401002005
:1014EC00380100208801002080B400AF034B01229A
:1014FC001A6000BFBD4680BC704700BF8001002051
:10150C0080B400AF054B00221A60054B1B6800220B
:10151C005A6300BFBD4680BC704700BF80010020ED
:10152C003801002080B400AF0B4B1B68002B0FD090
:10153C00094B5B68002B06D1074B1B7B0133DAB2DE
:10154C00054B1A7304E0044B5B68013B024A536081
:10155C0000BFBD4680BC70478C01002080B489B0B0
:10156C0000AFF860B9607A60FB700023FB61BB6868
:10157C00804AA2FB0323DB08BB6100237B612BE0C9
:10158C007D497A6913469B0013449B000B441B68EE
:10159C00002B1BD078497A6913469B0013449B009F
:1015AC000B4404331A68BB699A420CD8B969724867
:1015BC007A6913469B0013449B00034404331B6855
:1015CC00CB1ABB6105E07B69FB6108E07B69FB61C1
:1015DC0005E07B6901337B617B69272BD0DD2823F8
:1015EC003B616BE03B695A1E634913469B001344F5
:1015FC009B000B441B68002B5DD03B695A1E5E4957
:10160C0013469B0013449B000B4419685A483A69D3
:10161C0013469B0013449B00034419603B695A1EFC
:10162C00554913469B0013449B000B440433196823
:10163C0051483A6913469B0013449B0003440433FE
:10164C0019603B695A1E4C4913469B0013449B007E
:10165C000B440833196848483A6913469B001344F5
:10166C009B000344083319603B695A1E42491346D8
:10167C009B0013449B000B440C3318783E493A6989
:10168C0013469B0013449B000B440C3302461A7008
:10169C003B695A1E384913469B0013449B000B446C
:1016AC001033196834483A6913469B0013449B0065
:1016BC000344103319603B69013B3B613A69FB6998
:1016CC009A428FDCF9682C48FA6913469B00134444
:1016DC009B0003441960B9692748FA6913469B00BB
:1016EC0013449B000344043319602349FA691346DD
:1016FC009B0013449B000B4408337A681A601E4904
:10170C00FA6913469B0013449B000B440C330022D4
:10171C001A70F9781848FA6913469B0013449B0019
:10172C00034410331960FB695A1C134913469B0080
:10173C0013449B000B441B68002B15D0FB695A1CEF
:10174C000D4913469B0013449B000B44043319684A
:10175C00BB69FA690132C91A074813469B00134446
:10176C009B0003440433196000BF2437BD4680BC82
:10177C00704700BFCDCCCCCC8C01002080B483B0A2
:10178C0000AF0346FB71FA791A4913469B001344C8
:10179C009B000B44043300221A60FA791549134656
:1017AC009B0013449B000B44083300221A60FA7907
:1017BC00104913469B0013449B000B440C3300222E
:1017CC001A70FA790B4913469B0013449B000B4487
:1017DC0000221A60FA79074913469B0013449B00B8
:1017EC000B44103300221A6000BF0C37BD4680BC7E
:1017FC00704700BF8C01002080B584B000AF034659
:10180C00FB710023FB60FB791846FFF7B7FFFB79F0
:10181C00BB606DE0BB685A1C3B4913469B001344EC
:10182C009B000B4419683848BA6813469B00134454
:10183C009B0003441960BB685A1C334913469B0038
:10184C0013449B000B44043319682F48BA681346A1
:10185C009B0013449B00034404331960BB685A1C5F
:10186C00294913469B0013449B000B440833196809
:10187C002548BA6813469B0013449B000344083365
:10188C001960BB685A1C204913469B0013449B00EB
:10189C000B440C3318781C49BA6813469B0013444C
:1018AC009B000B440C3302461A70BB685A1C164939
:1018BC0013469B0013449B000B44103319681248C9
:1018CC00BA6813469B0013449B0003441033196001
:1018DC000D49BA6813469B0013449B000B441B68CC
:1018EC00002B02D1BB68FB6005E0BB680133BB6019
:1018FC00BB68272B8EDDFB68DBB21846FFF73EFF7B
:10190C0000BF1037BD4680BD8C01002080B500AFF4
:10191C00124B1B68002B1ED0104B1B7B002B1AD0BC
:10192C000E4B1B6898470D4B1B7B013BDAB20B4BE4
:10193C001A730A4B9B68002B0AD0084B1868074B8C
:10194C009968064B9A68054B1B69DBB2FFF706FEDC
:10195C000020FFF751FF00BF80BD00BF8C010020AD
:10196C0080B483B000AF0023FB7133E0FA791E49D9
:10197C0013469B0013449B000B44043300221A6053
:10198C00FA79194913469B0013449B000B44083306
:10199C0000221A60FA79144913469B0013449B00E9
:1019AC000B440C3300221A70FA790F4913469B0032
:1019BC0013449B000B4400221A60FA790A4913461F
:1019CC009B0013449B000B44103300221A60FB79DC
:1019DC000133FB71FB79272BC8D900BF00BF0C3733
:1019EC00BD4680BC704700BF8C01002080B500AFA5
:1019FC00044B1B68032B03D1FFF7C8F9FEF7A0FEBD
:101A0C0000BF80BD5000002080B500AF034B1B68A9
:101A1C00052B01D100F0BCFA00BF80BD50000020A6
:101A2C0080B500AFFEF7DEFC00BF80BD80B500AF17
:101A3C00FFF728FD00BF80BD80B485B000AF154B0B
:101A4C009B69144A43F001039361124B9B6903F0A9
:101A5C000103BB60BB680F4BDB690E4A43F080533C
:101A6C00D3610C4BDB6903F080537B607B680A4BC2
:101A7C005B68FB60FB6823F0E063FB60FB6843F092
:101A8C000073FB60044AFB68536000BF1437BD460B
:101A9C0080BC7047001002400000014080B584B04B
:101AAC0000AF78607B681B68B3F1804F14D1154B85
:101ABC00DB69144A43F00103D361124BDB6903F079
:101ACC000103FB60FB68002200211C2000F0B1FC2C
:101ADC001C2000F0CAFC10E07B681B680A4A934289
:101AEC000BD1084BDB69074A43F00203D361054B6A
:101AFC00DB6903F00203BB60BB6800BF1037BD4657
:101B0C0080BD00BF001002400004004080B588B0CA
:101B1C0000AF786007F1100300221A605A609A60D7
:101B2C00DA607B681B680F4A934217D10E4B9B6996
:101B3C000D4A43F0040393610B4B9B6903F00403C0
:101B4C00FB60FB6840233B6102237B610223FB614A
:101B5C0007F110031946054800F054FD00BF20376B
:101B6C00BD4680BD0004004000100240000801404A
:101B7C0080B588B000AF786007F1100300221A60BE
:101B8C005A609A60DA607B681B681F4A934237D1AF
:101B9C001E4BDB691D4A43F40033D3611B4BDB69DD
:101BAC0003F40033FB60FB68184B9B69174A43F046
:101BBC0004039361154B9B6903F00403BB60BB6882
:101BCC0004233B6102237B610323FB6107F11003B8
:101BDC0019460F4800F016FD08233B6100237B617A
:101BEC000023BB6107F110031946094800F00AFDF8
:101BFC0000220021262000F01CFC262000F035FCE1
:101C0C0000BF2037BD4680BD00440040001002409C
:101C1C000008014080B400AFFEE780B400AFFEE7DF
:101C2C0080B400AFFEE780B400AFFEE780B400AF35
:101C3C00FEE780B400AF00BFBD4680BC704780B4E7
:101C4C0000AF00BFBD4680BC704780B400AF00BF82
:101C5C00BD4680BC704780B500AF00F0F7FA00BFFE
:101C6C0080BD000080B500AF024801F043FC00BF0E
:101C7C0080BD00BFCC00002080B500AF024802F050
:101C8C00D7FA00BF80BD00BFB004002080B400AF05
:101C9C0000BFBD4680BC704780B500AF2B4B1B68A6
:101CAC00032B4BD801A252F823F000BFC91C00082B
:101CBC00E91C0008091D0008291D0008234B0122FE
:101CCC001A60FEF7DFFC224B1B681846FEF792FCED
:101CDC001F4B1B681846FEF799FC30E01B4B022289
:101CEC001A60FEF7CFFC1B4B1B681846FEF782FCF4
:101CFC00184B1B681846FEF789FC20E0134B032297
:101D0C001A60FEF7BFFC144B1B681846FEF772FCFA
:101D1C00114B1B681846FEF779FC10E00B4B0122A7
:101D2C001A60FEF7AFFC0A4B1B681846FEF762FC04
:101D3C00074B1B681846FEF769FC00E000BF00F07B
:101D4C00ABF900F06FF900BF80BD00BFAC04002000
:101D5C0060000020680000206400002080B400AF08
:101D6C00034B00221A6000BFBD4680BC704700BF09
:101D7C00AC04002080B400AF074B1B68074A13600B
:101D8C00074B1B68074A1360074B1B68074A136015
:101D9C0000BFBD4680BC7047640000205800002086
:101DAC006000002054000020680000205C0000202F
:101DBC0080B500AF084B00221A60FFF7A1FBFFF7BC
:101DCC00D9FFFEF7A7FCFFF7C9FF0320FEF72AFC9B
:101DDC00FFF762FF00BF80BDC400002080B500AFDC
:101DEC002B4B1B68032B34D0032B49DC012B02D06B
:101DFC00022B17D044E0274B1B680133254A136094
:101E0C00244B1B68632B02DD224B00221A60214BF2
:101E1C001B681846FEF7EEFB1E4B1B681846FEF7B8
:101E2C00F5FB2EE01C4B1B6801331B4A13601A4B4D
:101E3C001B68632B02DD184B00221A60164B1B68C3
:101E4C001846FEF7D7FB144B1B681846FEF7DEFB53
:101E5C0017E0124B1B680133104A13600F4B1B68C1
:101E6C00632B02DD0D4B00221A600C4B1B681846CD
:101E7C00FEF7C0FB094B1B681846FEF7C7FB00E0DA
:101E8C0000BF00F009F900F0CDF800BF80BD00BF25
:101E9C00AC040020540000205C00002058000020FE
:101EAC00B0B58AB000AF304B1A68304B1B681A447F
:101EBC002F4B1B689A4239D02E4B1B68032B17D122
:101ECC005820FEF797FB5820FEF7A0FB0820FEF7E2
:101EDC00A9FBFEF7E3FB284B1B68244A1360274B36
:101EEC001B68234A1360264B1B681F4A13600CE0C7
:101EFC00214B1B681D4A1360204B1B681C4A136046
:101F0C001F4B1B68184A136000BF1E4B07F11404CB
:101F1C001D460FCD0FC42B68236007F114014FF43D
:101F2C007A731422184802F0FFF819E00F4B1B6863
:101F3C00114A13600E4B1B68104A13600A4B1B6846
:101F4C000F4A1360114B3C461D460FCD0FC42B6836
:101F5C00236039464FF47A7314220B4802F0E4F8EC
:101F6C0000BF2837BD46B0BD5C00002058000020E3
:101F7C0054000020AC04002064000020600000200D
:101F8C0068000020044E0008B0040020184E000821
:101F9C0080B500AF0D4B1B68032B14D801A252F86F
:101FAC0023F000BFD31F0008C11F0008C71F000883
:101FBC00CD1F0008FEF74EFB06E0FEF73FFB03E0EB
:101FCC00FEF754FB00E000BF00BF80BDAC04002056
:101FDC0080B500AF114B124A1A60104B4FF4E1322E
:101FEC005A600E4B00229A600C4B0022DA600B4BAD
:101FFC0000221A61094B0C225A61084B00229A618B
:10200C00064B0022DA61054802F03EF80346002B2D
:10201C0001D0FEF789FD00BF80BD00BFB0040020D9
:10202C000044004080B588B000AF174A07F1180390
:10203C0092E8030018600433198002330A0C1A70FA
:10204C00124B7B61124B5B6839460A22184602F030
:10205C007BFE07F118014FF47A7307220D4802F04A
:10206C0063F839464FF47A7302220A4802F05CF89E
:10207C0007F114014FF47A730422064802F054F865
:10208C0000BF2037BD4680BD2C4E0008230A0A0035
:10209C00B8000020B004002080B590B000AF304AEA
:1020AC0007F1380392E803001860043319800233F7
:1020BC000A0C1A702B4A07F1300392E803001860DF
:1020CC000433198002330A0C1A70274A07F12C03C7
:1020DC001268114619800233120C1A70234B1B68BC
:1020EC0007F118010A22184602F02EFE1F4B9B68BE
:1020FC00391D0A22184602F027FE07F130014FF471
:10210C007A7307221A4802F00FF8391D4FF47A73CC
:10211C000222174802F008F807F12C014FF47A73E9
:10212C000322134802F000F807F138014FF47A73D8
:10213C0007220F4801F0F8FF07F118014FF47A73EA
:10214C0002220B4801F0F0FF07F12C014FF47A73D7
:10215C000322074801F0E8FF00BF4037BD4680BDB1
:10216C002C4E0008344E00083C4E0008B8000020ED
:10217C00B0040020FFF78AFD0B480C490C4A0023E1
:10218C0002E0D458C4500433C4188C42F9D3094A21
:10219C00094C002301E013600432A242FBD302F08D
:1021AC0097FDFEF751FB70470000002078000020DF
:1021BC00984E000878000020FC040020FEE7000088
:1021CC0080B500AF084B1B68074A43F0100313603F
:1021DC00032000F023F90F2000F008F8FFF72CFC87
:1021EC000023184680BD00BF0020024080B582B09D
:1021FC0000AF7860124B1A68124B1B7819464FF4DB
:10220C007A73B3FBF1F3B2FBF3F3184600F03BF92E
:10221C000346002B01D001230EE07B680F2B0AD85C
:10222C00002279684FF0FF3000F003F9064A7B6812
:10223C001360002300E0012318460837BD4680BD1B
:10224C006C000020740000207000002080B400AFEF
:10225C00054B1B781A46054B1B681344034A136045
:10226C0000BFBD4680BC704774000020F8040020FD
:10227C0080B400AF024B1B681846BD4680BC70474B
:10228C00F804002080B485B000AF78607B6803F060
:10229C000703FB600C4BDB68BB60BA684FF6FF03AF
:1022AC001340BB60FB681A02BB68134343F0BF6367
:1022BC0043F40033BB60044ABB68D36000BF1437DF
:1022CC00BD4680BC704700BF00ED00E080B400AF9D
:1022DC00044BDB681B0A03F007031846BD4680BCA1
:1022EC00704700BF00ED00E080B483B000AF034640
:1022FC00FB7197F90730002B0BDBFB7903F01F0206
:10230C00064997F907305B09012000FA02F241F8FF
:10231C00232000BF0C37BD4680BC704700E100E0B5
:10232C0080B483B000AF03463960FB7197F9073076
:10233C00002B0ADB3B68DAB20C4997F90730120123
:10234C00D2B20B4483F800230AE03B68DAB20849A6
:10235C00FB7903F00F03043B1201D2B20B441A7643
:10236C0000BF0C37BD4680BC704700BF00E100E0E9
:10237C0000ED00E080B489B000AFF860B9607A601D
:10238C00FB6803F00703FB61FB69C3F10703042B34
:10239C0028BF0423BB61FB690433062B02D9FB69FC
:1023AC00033B00E000237B614FF0FF32BB6902FA74
:1023BC0003F3DA43BB681A407B699A404FF0FF3154
:1023CC007B6901FA03F3D9437B680B40134318462E
:1023DC002437BD4680BC704780B582B000AF7860B2
:1023EC007B68013BB3F1807F01D301230FE00A4AE4
:1023FC007B68013B53600F214FF0FF30FFF790FFDC
:10240C00054B00229A60044B07221A6000231846E1
:10241C000837BD4680BD00BF10E000E080B582B03B
:10242C0000AF78607868FFF72DFF00BF0837BD4616
:10243C0080BD80B586B000AF0346B9607A60FB738F
:10244C0000237B61FFF742FF78617A68B96878698D
:10245C00FFF790FF024697F90F3011461846FFF729
:10246C005FFF00BF1837BD4680BD80B582B000AF9E
:10247C000346FB7197F907301846FFF735FF00BF8D
:10248C000837BD4680BD80B582B000AF78607868F3
:10249C00FFF7A2FF034618460837BD4680BD80B43F
:1024AC0085B000AF78600023FB737B6893F8213014
:1024BC00DBB2022B08D07B6804229A637B68002273
:1024CC0083F82020012320E07B681B681A687B6856
:1024DC001B6822F00E021A607B681B681A687B6806
:1024EC001B6822F001021A607B681A6C7B68DB6B3C
:1024FC00012101FA02F25A607B68012283F8212043
:10250C007B68002283F82020FB7B18461437BD46DD
:10251C0080BC704780B584B000AF78600023FB733B
:10252C007B6893F82130DBB2022B05D07B68042248
:10253C009A630123FB7351E07B681B681A687B6804
:10254C001B6822F00E021A607B681B681A687B6895
:10255C001B6822F001021A607B681B68224A9342B6
:10256C0029D07B681B68214A934222D07B681B6868
:10257C001F4A93421AD07B681B681E4A934212D0A2
:10258C007B681B681C4A93420AD07B681B681B4AF9
:10259C00934202D14FF480130EE04FF080730BE0A6
:1025AC004FF4803308E04FF4805305E04FF4807310
:1025BC0002E0102300E00123114A53607B680122E2
:1025CC0083F821207B68002283F820207B685B6BDA
:1025DC00002B03D07B685B6B78689847FB7B1846B5
:1025EC001037BD4680BD00BF080002401C000240F1
:1025FC003000024044000240580002406C0002408F
:10260C000000024080B48BB000AF786039600023CA
:10261C007B6200233B6269E101227B6A02FA03F3CD
:10262C00FB613B681B68FA691340BB61BA69FB69C3
:10263C009A4240F058813B685B689A4A93425ED05C
:10264C00984A934275D8984A934258D0964A9342E6
:10265C006FD8964A934252D0944A934269D8944A7E
:10266C0093424CD0924A934263D8924A934246D0BA
:10267C00904A93425DD8122B2AD8122B59D801A21A
:10268C0052F823F00B270008E5260008F72600086F
:10269C00392700083F2700083F2700083F2700087C
:1026AC003F2700083F2700083F2700083F27000866
:1026BC003F2700083F2700083F2700083F27000856
:1026CC003F2700083F270008ED26000801270008D7
:1026DC00794A934213D02CE03B68DB683B6229E0DB
:1026EC003B68DB6804333B6224E03B68DB680833FF
:1026FC003B621FE03B68DB680C333B621AE03B68D3
:10270C009B68002B02D104233B6213E03B689B685F
:10271C00012B05D108233B627B68FA691A6109E039
:10272C0008233B627B68FA695A6103E000233B6231
:10273C0000E000BFBB69FF2B01D87B6801E07B6820
:10274C0004337B61BB69FF2B02D87B6A9B0002E0E0
:10275C007B6A083B9B003B617B691A680F213B69D4
:10276C0001FA03F3DB431A40396A3B6901FA03F3BC
:10277C001A437B691A603B685B6803F08053002B3B
:10278C0000F0B1804D4B9B694C4A43F001039361BF
:10279C004A4B9B6903F00103BB60BB68484A7B6AE8
:1027AC009B08023352F82330FB607B6A03F003036F
:1027BC009B000F2202FA03F3DB43FA681340FB6021
:1027CC007B68404A934213D07B683F4A93420DD0BA
:1027DC007B683E4A934207D07B683D4A934201D1C5
:1027EC00032306E0042304E0022302E0012300E0BB
:1027FC0000237A6A02F0030292009340FA681343B2
:10280C00FB602F497B6A9B080233FA6841F823204E
:10281C003B685B6803F48013002B06D02D4B9A6841
:10282C002C49BB6913438B6006E02A4B9A68BB6941
:10283C00DB43284913408B603B685B6803F400134F
:10284C00002B06D0234BDA682249BB691343CB60BB
:10285C0006E0204BDA68BB69DB431E491340CB60B2
:10286C003B685B6803F40033002B06D0194B5A68A5
:10287C001849BB6913434B6006E0164B5A68BB6999
:10288C00DB43144913404B603B685B6803F48033B3
:10289C00002B21D00F4B1A680E49BB6913430B60F8
:1028AC0021E000BF000032100000311000002210A7
:1028BC000000211000001210000011100010024046
:1028CC000000014000080140000C014000100140D4
:1028DC0000140140000401400B4B1A68BB69DB4338
:1028EC00094913400B607B6A01337B623B681A68B1
:1028FC007B6A22FA03F3002B7FF48EAE00BF00BF7D
:10290C002C37BD4680BC70470004014080B485B0B4
:10291C0000AF78600B467B807B689A687B8813409D
:10292C00002B02D00123FB7301E00023FB73FB7B24
:10293C0018461437BD4680BC704780B483B000AFD6
:10294C0078600B467B8013467B707B78002B03D022
:10295C007A887B681A6103E07B881A047B681A61A9
:10296C0000BF0C37BD4680BC704780B485B000AF4B
:10297C0078600B467B807B68DB68FB607A88FB6841
:10298C0013401A04FB68D9437B880B401A437B68BD
:10299C001A6100BF1437BD4680BC704780B586B045
:1029AC0000AF78607B68002B01D1012372E27B6859
:1029BC001B6803F00103002B00F08780924B5B68CF
:1029CC0003F00C03042B0CD08F4B5B6803F00C034F
:1029DC00082B12D18C4B5B6803F48033B3F5803F2A
:1029EC000BD1894B1B6803F40033002B6CD07B6834
:1029FC005B68002B68D101234CE27B685B68B3F504
:102A0C00803F06D1804B1B687F4A43F480331360B0
:102A1C002EE07B685B68002B0CD17B4B1B687A4AE1
:102A2C0023F480331360784B1B68774A23F480239C
:102A3C0013601DE07B685B68B3F5A02F0CD1724B63
:102A4C001B68714A43F4802313606F4B1B686E4AFA
:102A5C0043F4803313600BE06B4B1B686A4A23F41E
:102A6C0080331360684B1B68674A23F48023136020
:102A7C007B685B68002B13D0FFF7FAFB386108E02A
:102A8C00FFF7F6FB02463B69D31A642B01D90323EB
:102A9C0000E25D4B1B6803F40033002BF0D014E014
:102AAC00FFF7E6FB386108E0FFF7E2FB02463B6903
:102ABC00D31A642B01D90323ECE1534B1B6803F4A9
:102ACC000033002BF0D100E000BF7B681B6803F0E3
:102ADC000203002B63D04C4B5B6803F00C03002B00
:102AEC000BD0494B5B6803F00C03082B1CD1464BF5
:102AFC005B6803F48033002B16D1434B1B6803F047
:102B0C000203002B05D07B681B69012B01D001232C
:102B1C00C0E13D4B1B6823F0F8027B685B69DB006E
:102B2C00394913430B603AE07B681B69002B20D0BA
:102B3C00364B01221A60FFF79BFB386108E0FFF768
:102B4C0097FB02463B69D31A022B01D90323A1E15F
:102B5C002D4B1B6803F00203002BF0D02A4B1B6893
:102B6C0023F0F8027B685B69DB00274913430B6099
:102B7C0015E0264B00221A60FFF77AFB386108E05B
:102B8C00FFF776FB02463B69D31A022B01D90323CC
:102B9C0080E11D4B1B6803F00203002BF0D17B6816
:102BAC001B6803F00803002B3AD07B689B69002B51
:102BBC0019D0174B01221A60FFF75AFB386108E055
:102BCC00FFF756FB02463B69D31A022B01D90323AC
:102BDC0060E10D4B5B6A03F00203002BF0D0012087
:102BEC0000F0CEFA1CE00A4B00221A60FFF740FB03
:102BFC0038610FE0FFF73CFB02463B69D31A022B0E
:102C0C0008D9032346E100BF0010024000004242F5
:102C1C0080044242924B5B6A03F00203002BE9D121
:102C2C007B681B6803F00403002B00F0A6800023D4
:102C3C00FB758B4BDB6903F08053002B0DD1884B5C
:102C4C00DB69874A43F08053D361854BDB6903F022
:102C5C008053BB60BB680123FB75824B1B6803F47C
:102C6C008073002B18D17F4B1B687E4A43F4807312
:102C7C001360FFF7FDFA386108E0FFF7F9FA024636
:102C8C003B69D31A642B01D9032303E1754B1B68F1
:102C9C0003F48073002BF0D07B68DB68012B06D12A
:102CAC006F4B1B6A6E4A43F0010313622DE07B6885
:102CBC00DB68002B0CD16A4B1B6A694A23F00103B9
:102CCC001362674B1B6A664A23F0040313621CE011
:102CDC007B68DB68052B0CD1614B1B6A604A43F0A7
:102CEC00040313625E4B1B6A5D4A43F001031362DB
:102CFC000BE05B4B1B6A5A4A23F001031362584BDF
:102D0C001B6A574A23F0040313627B68DB68002BB1
:102D1C0015D0FFF7ADFA38610AE0FFF7A9FA0246C1
:102D2C003B69D31A41F28832934201D90323B1E0B3
:102D3C004B4B1B6A03F00203002BEED014E0FFF7A1
:102D4C0097FA38610AE0FFF793FA02463B69D31A07
:102D5C0041F28832934201D903239BE0404B1B6A1A
:102D6C0003F00203002BEED1FB7D012B05D13C4B74
:102D7C00DB693B4A23F08053D3617B68DB69002B12
:102D8C0000F08780364B5B6803F00C03082B61D096
:102D9C007B68DB69022B46D1334B00221A60FFF7AC
:102DAC0067FA386108E0FFF763FA02463B69D31A09
:102DBC00022B01D903236DE0294B1B6803F0007330
:102DCC00002BF0D17B681B6AB3F5803F08D1244BF4
:102DDC005B6823F400327B689B68214913434B608A
:102DEC001F4B5B6823F474127B68196A7B685B6AFF
:102DFC000B431B4913434B601B4B01221A60FFF71B
:102E0C0037FA386108E0FFF733FA02463B69D31A08
:102E1C00022B01D903233DE0114B1B6803F0007317
:102E2C00002BF0D035E0104B00221A60FFF720FA8F
:102E3C00386108E0FFF71CFA02463B69D31A022BF3
:102E4C0001D9032326E0064B1B6803F00073002B0B
:102E5C00F0D11EE07B68DB69012B07D1012319E05F
:102E6C000010024000700040600042420B4B5B6857
:102E7C00FB60FB6803F480327B681B6A9A4206D1C4
:102E8C00FB6803F470127B685B6A9A4201D00123E1
:102E9C0000E0002318461837BD4680BD00100240E4
:102EAC0080B584B000AF786039607B68002B01D1AD
:102EBC000123D0E06A4B1B6803F007033A689A427F
:102ECC0010D9674B1B6823F0070265493B68134315
:102EDC000B60634B1B6803F007033A689A4201D0FE
:102EEC000123B8E07B681B6803F00203002B20D0A1
:102EFC007B681B6803F00403002B05D0594B5B68FF
:102F0C00584A43F4E06353607B681B6803F0080382
:102F1C00002B05D0534B5B68524A43F4605353600B
:102F2C00504B5B6823F0F0027B689B684D49134360
:102F3C004B607B681B6803F00103002B40D07B685F
:102F4C005B68012B07D1474B1B6803F40033002B44
:102F5C0015D101237FE07B685B68022B07D1414BC5
:102F6C001B6803F00073002B09D1012373E03D4B68
:102F7C001B6803F00203002B01D101236BE0394BDA
:102F8C005B6823F003027B685B68364913434B6034
:102F9C00FFF76EF9F8600AE0FFF76AF90246FB6882
:102FAC00D31A41F28832934201D9032353E02D4BBB
:102FBC005B6803F00C027B685B689B009A42EBD168
:102FCC00274B1B6803F007033A689A4210D2244B34
:102FDC001B6823F0070222493B6813430B60204B0C
:102FEC001B6803F007033A689A4201D0012332E0D0
:102FFC007B681B6803F00403002B08D0194B5B683B
:10300C0023F4E0627B68DB68164913434B607B68F2
:10301C001B6803F00803002B09D0124B5B6823F4E8
:10302C0060527B681B69DB000E4913434B6000F058
:10303C0021F802460B4B5B681B0903F00F030A498E
:10304C00CB5C22FA03F3094A1360094B1B68184640
:10305C00FFF7CCF8002318461037BD4680BD00BFE3
:10306C000020024000100240404E00086C0000207E
:10307C007000002080B487B000AF0023FB600023F9
:10308C00BB6000237B6100237B6000233B611E4BF4
:10309C005B68FB60FB6803F00C03042B02D0082B6D
:1030AC0003D027E0194B3B6127E0FB689B0C03F036
:1030BC000F03174AD35C7B60FB6803F48033002B4F
:1030CC0010D0114B5B685B0C03F00103114AD35C0D
:1030DC00BB607B680D4A03FB02F2BB68B2FBF3F3E7
:1030EC007B6104E07B680C4A02FB03F37B617B6928
:1030FC003B6102E0054B3B6100BF3B6918461C3746
:10310C00BD4680BC704700BF0010024000127A0020
:10311C00584E0008684E000800093D0080B400AF0E
:10312C00024B1B681846BD4680BC70476C000020E3
:10313C0080B500AFFFF7F2FF0246054B5B681B0A38
:10314C0003F007030349CB5C22FA03F3184680BD56
:10315C0000100240504E000880B500AFFFF7DEFFB4
:10316C000246054B5B68DB0A03F007030349CB5CA3
:10317C0022FA03F3184680BD00100240504E00089E
:10318C0080B485B000AF78600A4B1B680A4AA2FB7A
:10319C0003235B0A7A6802FB03F3FB6000BFFB6846
:1031AC005A1EFA60002BF9D100BF00BF1437BD4680
:1031BC0080BC70476C000020D34D621080B582B08B
:1031CC0000AF78607B68002B01D1012341E07B6864
:1031DC0093F83D30DBB2002B06D17B68002283F8DC
:1031EC003C207868FEF75AFC7B68022283F83D206D
:1031FC007B681A687B6804331946104600F030FC73
:10320C007B68012283F846207B68012283F83E20EC
:10321C007B68012283F83F207B68012283F84020E1
:10322C007B68012283F841207B68012283F84220CD
:10323C007B68012283F843207B68012283F84420B9
:10324C007B68012283F845207B68012283F83D20AE
:10325C00002318460837BD4680BD000080B485B0F9
:10326C0000AF78607B6893F83D30DBB2012B01D066
:10327C0001233AE07B68022283F83D207B681B68BF
:10328C00DA687B681B6842F00102DA607B681B68B5
:10329C00184A93420ED07B681B68B3F1804F09D05B
:1032AC007B681B68144A934204D07B681B68134AE2
:1032BC00934211D17B681B689B6803F00703FB608A
:1032CC00FB68062B10D07B681B681A687B681B6830
:1032DC0042F001021A6007E07B681B681A687B6881
:1032EC001B6842F001021A60002318461437BD46D1
:1032FC0080BC7047002C01400004004000080040D6
:10330C0080B582B000AF78607B68002B01D10123BF
:10331C0041E07B6893F83D30DBB2002B06D17B6833
:10332C00002283F83C20786800F039F87B68022290
:10333C0083F83D207B681A687B6804331946104675
:10334C0000F08EFB7B68012283F846207B6801220B
:10335C0083F83E207B68012283F83F207B680122A2
:10336C0083F840207B68012283F841207B6801228E
:10337C0083F842207B68012283F843207B6801227A
:10338C0083F844207B68012283F845207B68012266
:10339C0083F83D20002318460837BD4680BD80B415
:1033AC0083B000AF786000BF0C37BD4680BC70475F
:1033BC0080B584B000AF786039603B68002B09D1D0
:1033CC007B6893F83E30DBB2012B14BF0123002342
:1033DC00DBB222E03B68042B09D17B6893F83F30C9
:1033EC00DBB2012B14BF01230023DBB215E03B68D9
:1033FC00082B09D17B6893F84030DBB2012B14BF4A
:10340C0001230023DBB208E07B6893F84130DBB288
:10341C00012B14BF01230023DBB2002B01D00123AD
:10342C005EE03B68002B04D17B68022283F83E20CF
:10343C0013E03B68042B04D17B68022283F83F2005
:10344C000BE03B68082B04D17B68022283F84020F8
:10345C0003E07B68022283F841207B681B68012211
:10346C003968184600F07CFD7B681B681E4A934245
:10347C0007D17B681B685A6C7B681B6842F400425E
:10348C005A647B681B68184A93420ED07B681B6891
:10349C00B3F1804F09D07B681B68144A934204D067
:1034AC007B681B68124A934211D17B681B689B682E
:1034BC0003F00703FB60FB68062B10D07B681B68CE
:1034CC001A687B681B6842F001021A6007E07B688F
:1034DC001B681A687B681B6842F001021A600023A3
:1034EC0018461037BD4680BD002C0140000400403A
:1034FC000008004080B582B000AF78607B681B6824
:10350C001B6903F00203022B22D17B681B68DB686A
:10351C0003F00203022B1BD17B681B686FF00202C5
:10352C001A617B6801221A777B681B689B6903F020
:10353C000303002B03D0786800F076FA05E0786876
:10354C0000F069FA786800F078FA7B6800221A7744
:10355C007B681B681B6903F00403042B22D17B6876
:10356C001B68DB6803F00403042B1BD17B681B680E
:10357C006FF004021A617B6802221A777B681B6861
:10358C009B6903F44073002B03D0786800F04CFA6D
:10359C0005E0786800F03FFA786800F04EFA7B6836
:1035AC0000221A777B681B681B6903F00803082B41
:1035BC0022D17B681B68DB6803F00803082B1BD146
:1035CC007B681B686FF008021A617B6804221A770B
:1035DC007B681B68DB6903F00303002B03D078685E
:1035EC0000F022FA05E0786800F015FA786800F02F
:1035FC0024FA7B6800221A777B681B681B6903F02E
:10360C001003102B22D17B681B68DB6803F01003BE
:10361C00102B1BD17B681B686FF010021A617B6842
:10362C0008221A777B681B68DB6903F44073002B54
:10363C0003D0786800F0F8F905E0786800F0EBF951
:10364C00786800F0FAF97B6800221A777B681B68AF
:10365C001B6903F00103012B0ED17B681B68DB682F
:10366C0003F00103012B07D17B681B686FF001028B
:10367C001A617868FDF74EFA7B681B681B6903F0CA
:10368C008003802B0ED17B681B68DB6803F0800302
:10369C00802B07D17B681B686FF080021A617868F9
:1036AC0000F0E9FC7B681B681B6903F04003402BAE
:1036BC000ED17B681B68DB6803F04003402B07D1FD
:1036CC007B681B686FF040021A61786800F0BEF9E5
:1036DC007B681B681B6903F02003202B0ED17B68D1
:1036EC001B68DB6803F02003202B07D17B681B6869
:1036FC006FF020021A61786800F0B4FC00BF083744
:10370C00BD4680BD80B586B000AFF860B9607A6008
:10371C000023FB75FB6893F83C30012B01D102238D
:10372C00AEE0FB68012283F83C207B680C2B00F296
:10373C009F8001A252F823F0793700087D380008E9
:10374C007D3800087D380008B93700087D3800083E
:10375C007D3800087D380008FB3700087D380008EC
:10376C007D3800087D3800083B380008FB681B6872
:10377C00B968184600F0D6F9FB681B689A69FB68B3
:10378C001B6842F008029A61FB681B689A69FB6827
:10379C001B6822F004029A61FB681B689969BB687C
:1037AC001A69FB681B680A439A6164E0FB681B6832
:1037BC00B968184600F01CFAFB681B689A69FB682C
:1037CC001B6842F400629A61FB681B689A69FB688B
:1037DC001B6822F480629A61FB681B689969BB685C
:1037EC001B691A02FB681B680A439A6143E0FB6879
:1037FC001B68B968184600F065FAFB681B68DA6943
:10380C00FB681B6842F00802DA61FB681B68DA6926
:10381C00FB681B6822F00402DA61FB681B68D9693B
:10382C00BB681A69FB681B680A43DA6123E0FB6812
:10383C001B68B968184600F0AFFAFB681B68DA69B8
:10384C00FB681B6842F40062DA61FB681B68DA698A
:10385C00FB681B6822F48062DA61FB681B68D9691B
:10386C00BB681B691A02FB681B680A43DA6102E039
:10387C000123FB7500BFFB68002283F83C20FB7D15
:10388C0018461837BD4680BD80B584B000AF78604F
:10389C0039600023FB737B6893F83C30012B01D11A
:1038AC000223B4E07B68012283F83C207B6802226F
:1038BC0083F83D207B681B689B68BB60BB6823F06A
:1038CC007703BB60BB6823F47F43BB607B681B68DA
:1038DC00BA689A603B681B68B3F5005F3ED0B3F5DD
:1038EC00005F00F28780B3F5805F00F08680B3F54F
:1038FC00805F7FD8702B1AD0702B7BD8602B50D068
:10390C00602B77D8502B3CD0502B73D8402B58D0F1
:10391C00402B6FD8302B64D0302B6BD8202B60D041
:10392C00202B67D8002B5CD0102B5AD062E07B6820
:10393C0018683B6899683B685A683B68DB6800F01C
:10394C00F0FA7B681B689B68BB60BB6843F077032D
:10395C00BB607B681B68BA689A604FE07B6818682C
:10396C003B6899683B685A683B68DB6800F0D9FA99
:10397C007B681B689A687B681B6842F480429A607B
:10398C003CE07B6818683B6859683B68DB681A4602
:10399C0000F050FA7B681B685021184600F0A7FA1B
:1039AC002CE07B6818683B6859683B68DB681A46F2
:1039BC0000F06EFA7B681B686021184600F097FADD
:1039CC001CE07B6818683B6859683B68DB681A46E2
:1039DC0000F030FA7B681B684021184600F087FA2B
:1039EC000CE07B681A683B681B681946104600F0AF
:1039FC007EFA03E00123FB7300E000BF7B68012229
:103A0C0083F83D207B68002283F83C20FB7B184622
:103A1C001037BD4680BD80B483B000AF786000BF66
:103A2C000C37BD4680BC704780B483B000AF786063
:103A3C0000BF0C37BD4680BC704780B483B000AF6C
:103A4C00786000BF0C37BD4680BC704780B483B033
:103A5C0000AF786000BF0C37BD4680BC70470000DB
:103A6C0080B485B000AF786039607B681B68FB6000
:103A7C007B68294A93420BD07B68B3F1804F07D007
:103A8C007B68264A934203D07B68254A934208D12F
:103A9C00FB6823F07003FB603B685B68FA681343B8
:103AAC00FB607B681C4A93420BD07B68B3F1804F60
:103ABC0007D07B68194A934203D07B68184A93421B
:103ACC0008D1FB6823F44073FB603B68DB68FA6841
:103ADC001343FB60FB6823F080023B685B69134374
:103AEC00FB607B68FA681A603B689A687B68DA62EC
:103AFC003B681A687B689A627B68074A934203D1D9
:103B0C003B681A697B681A637B6801225A6100BFA3
:103B1C001437BD4680BC7047002C014000040040A7
:103B2C000008004080B487B000AF786039607B68D3
:103B3C001B6A7B617B681B6A23F001027B681A623B
:103B4C007B685B683B617B689B69FB60FB6823F06F
:103B5C007003FB60FB6823F00303FB603B681B688E
:103B6C00FA681343FB607B6923F002037B613B68BB
:103B7C009B687A6913437B617B681C4A93420CD126
:103B8C007B6923F008037B613B68DB687A6913432C
:103B9C007B617B6923F004037B617B68134A93424E
:103BAC0011D13B6923F480733B613B6923F40073AF
:103BBC003B613B685B693A6913433B613B689B69BA
:103BCC003A6913433B617B683A695A607B68FA68CF
:103BDC009A613B685A687B685A637B687A691A6297
:103BEC0000BF1C37BD4680BC704700BF002C014095
:103BFC0080B487B000AF786039607B681B6A7B61EA
:103C0C007B681B6A23F010027B681A627B685B6816
:103C1C003B617B689B69FB60FB6823F4E043FB60C2
:103C2C00FB6823F44073FB603B681B681B02FA685B
:103C3C001343FB607B6923F020037B613B689B682B
:103C4C001B017A6913437B617B681D4A93420DD13A
:103C5C007B6923F080037B613B68DB681B017A691D
:103C6C0013437B617B6923F040037B617B68144ABF
:103C7C00934213D13B6923F480633B613B6923F48A
:103C8C0000633B613B685B699B003A6913433B6192
:103C9C003B689B699B003A6913433B617B683A69BB
:103CAC005A607B68FA689A613B685A687B689A63C9
:103CBC007B687A691A6200BF1C37BD4680BC7047AE
:103CCC00002C014080B487B000AF786039607B680D
:103CDC001B6A7B617B681B6A23F480727B681A62A7
:103CEC007B685B683B617B68DB69FB60FB6823F08E
:103CFC007003FB60FB6823F00303FB603B681B68ED
:103D0C00FA681343FB607B6923F400737B613B68A7
:103D1C009B681B027A6913437B617B681D4A934243
:103D2C000DD17B6923F400637B613B68DB681B026C
:103D3C007A6913437B617B6923F480637B617B68C5
:103D4C00144A934213D13B6923F480533B613B6982
:103D5C0023F400533B613B685B691B013A691343D5
:103D6C003B613B689B691B013A6913433B617B6870
:103D7C003A695A607B68FA68DA613B685A687B6812
:103D8C00DA637B687A691A6200BF1C37BD4680BC57
:103D9C00704700BF002C014080B487B000AF786042
:103DAC0039607B681B6A3B617B681B6A23F4805219
:103DBC007B681A627B685B687B617B68DB69FB6094
:103DCC00FB6823F4E043FB60FB6823F44073FB6067
:103DDC003B681B681B02FA681343FB603B6923F4C6
:103DEC0000533B613B689B681B033A6913433B617F
:103DFC007B680F4A934209D17B6923F480437B6132
:103E0C003B685B699B017A6913437B617B687A69C8
:103E1C005A607B68FA68DA613B685A687B681A6496
:103E2C007B683A691A6200BF1C37BD4680BC70477C
:103E3C00002C014080B487B000AFF860B9607A60A4
:103E4C00FB681B6A7B61FB681B6A23F00102FB6841
:103E5C001A62FB689B693B613B6923F0F0033B6191
:103E6C007B681B013A6913433B617B6923F00A03AE
:103E7C007B617A69BB6813437B61FB683A699A6121
:103E8C00FB687A691A6200BF1C37BD4680BC70475C
:103E9C0080B487B000AFF860B9607A60FB681B6AC9
:103EAC007B61FB681B6A23F01002FB681A62FB68DB
:103EBC009B693B613B6923F470433B617B681B034B
:103ECC003A6913433B617B6923F0A0037B61BB68B8
:103EDC001B017A6913437B61FB683A699A61FB6841
:103EEC007A691A6200BF1C37BD4680BC704780B42B
:103EFC0085B000AF786039607B689B68FB60FB68BD
:103F0C0023F07003FB603A68FB68134343F007032C
:103F1C00FB607B68FA689A6000BF1437BD4680BCB2
:103F2C00704780B487B000AFF860B9607A603B60CE
:103F3C00FB689B687B617B6923F47F437B613B68F7
:103F4C001A027B681A43BB6813437A6913437B617B
:103F5C00FB687A699A6000BF1C37BD4680BC70470D
:103F6C0080B487B000AFF860B9607A60BB6803F0CA
:103F7C001F03012202FA03F37B61FB681A6A7B6957
:103F8C00DB431A40FB681A62FB681A6ABB6803F0D1
:103F9C001F03796801FA03F31A43FB681A6200BF26
:103FAC001C37BD4680BC704780B485B000AF7860CC
:103FBC0039607B6893F83C30012B01D1022346E039
:103FCC007B68012283F83C207B68022283F83D2029
:103FDC007B681B685B68FB607B681B689B68BB60CD
:103FEC00FB6823F07003FB603B681B68FA681343A3
:103FFC00FB607B681B68FA685A607B681B68164A12
:10400C0093420ED07B681B68B3F1804F09D07B685C
:10401C001B68124A934204D07B681B68104A934277
:10402C000CD1BB6823F08003BB603B685B68BA684B
:10403C001343BB607B681B68BA689A607B6801227B
:10404C0083F83D207B68002283F83C20002318462F
:10405C001437BD4680BC7047002C01400004004062
:10406C000008004080B483B000AF786000BF0C370C
:10407C00BD4680BC704780B483B000AF786000BF91
:10408C000C37BD4680BC704780B582B000AF7860FD
:10409C007B68002B01D1012342E07B6893F841300F
:1040AC00DBB2002B06D17B68002283F840207868B5
:1040BC00FDF75EFD7B68242283F841207B681B683A
:1040CC00DA687B681B6822F40052DA60786800F0CA
:1040DC0071FD7B681B681A697B681B6822F490422F
:1040EC001A617B681B685A697B681B6822F02A027C
:1040FC005A617B681B68DA687B681B6842F4005263
:10410C00DA607B6800225A647B68202283F84120A5
:10411C007B68202283F842207B6800225A630023AC
:10412C0018460837BD4680BD80B58AB002AFF8602E
:10413C00B9603B601346FB8000237B61FB6893F8FE
:10414C004130DBB2202B6DD1BB68002B02D0FB8839
:10415C00002B01D1012366E0FB6800225A64FB6846
:10416C00212283F84120FEF783F87861FB68FA88F6
:10417C009A84FB68FA88DA84FB689B68B3F5805FE5
:10418C0008D1FB681B69002B04D10023FB61BB68C1
:10419C00BB6103E0BB68FB610023BB612AE03B68A9
:1041AC0000937B6900228021F86800F0F9FA03463D
:1041BC00002B01D0032336E0FB69002B0BD1BB692C
:1041CC001B881A46FB681B68C2F308025A60BB695D
:1041DC000233BB6107E0FB691A78FB681B685A6005
:1041EC00FB690133FB61FB68DB8C9BB2013B9AB230
:1041FC00FB68DA84FB68DB8C9BB2002BCFD13B686D
:10420C0000937B6900224021F86800F0C9FA03464C
:10421C00002B01D0032306E0FB68202283F8412009
:10422C00002300E0022318462037BD4680BD000065
:10423C0080B5BAB000AF78607B681B681B68C7F8A4
:10424C00E4307B681B68DB68C7F8E0307B681B6870
:10425C005B69C7F8DC300023C7F8D8300023C7F8F7
:10426C00D430D7F8E43003F00F03C7F8D830D7F8C0
:10427C00D830002B0FD1D7F8E43003F02003002BFB
:10428C0009D0D7F8E03003F02003002B03D0786876
:10429C0000F0D1FB5BE2D7F8D830002B00F0DE80C9
:1042AC00D7F8DC3003F00103002B06D1D7F8E0304F
:1042BC0003F49073002B00F0D180D7F8E43003F0B6
:1042CC000103002B0BD0D7F8E03003F48073002BE4
:1042DC0005D07B685B6C43F001027B685A64D7F8AD
:1042EC00E43003F00403002B0BD0D7F8DC3003F0E0
:1042FC000103002B05D07B685B6C43F002027B68EA
:10430C005A64D7F8E43003F00203002B0BD0D7F833
:10431C00DC3003F00103002B05D07B685B6C43F0B1
:10432C0004027B685A64D7F8E43003F00803002BCE
:10433C0011D0D7F8E03003F02003002B05D1D7F8CB
:10434C00DC3003F00103002B05D07B685B6C43F081
:10435C0008027B685A647B685B6C002B00F0F2816E
:10436C00D7F8E43003F02003002B08D0D7F8E03066
:10437C0003F02003002B02D0786800F05CFB7B6814
:10438C001B685B6903F04003002B14BF012300235F
:10439C00DBB2C7F8D4307B685B6C03F00803002BEE
:1043AC0003D1D7F8D430002B4FD0786800F066FAE0
:1043BC007B681B685B6903F04003002B41D07B6872
:1043CC001B681433C7F89C30D7F89C3053E8003F77
:1043DC00C7F89830D7F8983023F04003C7F8D0309E
:1043EC007B681B681433D7F8D020C7F8A820C7F80F
:1043FC00A430D7F8A410D7F8A82041E80023C7F8B8
:10440C00A030D7F8A030002BD9D17B68DB6B002B08
:10441C0013D07B68DB6B7E4A5A637B68DB6B184678
:10442C00FEF778F80346002B16D07B68DB6B5B6BD2
:10443C007A68D26B104698470EE0786800F09CF9C9
:10444C000AE0786800F098F906E0786800F094F9D2
:10445C007B6800225A6475E100BF73E17B681B6BBB
:10446C00012B40F04F81D7F8E43003F01003002B00
:10447C0000F04881D7F8E03003F01003002B00F077
:10448C0041810023BB607B681B681B68BB607B6839
:10449C001B685B68BB60BB687B681B685B6903F06F
:1044AC004003002B00F0B6807B68DB6B1B685B68FD
:1044BC00A7F8BE30B7F8BE30002B00F045817B6802
:1044CC009B8DB7F8BE209A4280F03E817B68B7F88E
:1044DC00BE20DA857B68DB6B9B69202B00F0888023
:1044EC007B681B680C33C7F88830D7F8883053E8E2
:1044FC00003FC7F88430D7F8843023F48073C7F8B2
:10450C00B8307B681B680C33D7F8B820C7F89420F8
:10451C00C7F89030D7F89010D7F8942041E80023D2
:10452C00C7F88C30D7F88C30002BD9D17B681B683E
:10453C0014337B677B6F53E8003F3B673B6F23F083
:10454C000103C7F8B4307B681B681433D7F8B42068
:10455C00C7F88020FB67F96FD7F8802041E800236B
:10456C00BB67BB6F002BE1D17B681B6814333B66C8
:10457C003B6E53E8003FFB65FB6D23F04003C7F82F
:10458C00B0307B681B681433D7F8B020FA66BB6672
:10459C00B96EFA6E41E800237B667B6E002BE3D18B
:1045AC007B68202283F842207B6800221A637B6898
:1045BC001B680C33FB64FB6C53E8003FBB64BB6CA7
:1045CC0023F01003C7F8AC307B681B680C33D7F8AA
:1045DC00AC20BA657B65796DBA6D41E800233B650B
:1045EC003B6D002BE3D17B68DB6B1846FDF757FF67
:1045FC007B6802225A637B689A8D7B68DB8D9BB249
:10460C00D31A9BB21946786800F0BFF89CE000BF43
:10461C004D4900087B689A8D7B68DB8D9BB2D31A61
:10462C00A7F8CE307B68DB8D9BB2002B00F08E8020
:10463C00B7F8CE30002B00F089807B681B680C33F8
:10464C00BB63BB6B53E8003F7B637B6B23F49073C2
:10465C00C7F8C8307B681B680C33D7F8C8207A645D
:10466C003B64396C7A6C41E80023FB63FB6B002BD9
:10467C00E3D17B681B6814337B627B6A53E8003F91
:10468C003B623B6A23F00103C7F8C4307B681B68AC
:10469C001433D7F8C4203A63FB62F96A3A6B41E8E9
:1046AC000023BB62BB6A002BE3D17B68202283F81A
:1046BC0042207B6800221A637B681B680C333B61C9
:1046CC003B6953E8003FFB60FB6823F01003C7F81D
:1046DC00C0307B681B680C33D7F8C020FA61BB6113
:1046EC00B969FA6941E800237B617B69002BE3D14E
:1046FC007B6802225A63B7F8CE301946786800F00E
:10470C0044F823E0D7F8E43003F08003002B09D001
:10471C00D7F8E03003F08003002B03D0786800F06A
:10472C0023F914E0D7F8E43003F04003002B0ED04B
:10473C00D7F8E03003F04003002B08D0786800F085
:10474C0062F904E000BF02E000BF00E000BFE83700
:10475C00BD4680BD80B483B000AF786000BF0C371D
:10476C00BD4680BC704780B483B000AF786000BF9A
:10477C000C37BD4680BC704780B483B000AF786006
:10478C0000BF0C37BD4680BC704780B483B000AF0F
:10479C0078600B467B8000BF0C37BD4680BC7047F1
:1047AC0080B590B000AFF860B9603B601346FB7108
:1047BC0050E0BB6CB3F1FF3F4CD0BB6C002B07D06F
:1047CC00FDF756FD02463B68D31ABA6C9A4241D2A9
:1047DC00FB681B680C33BB62BB6A53E8003F7B620F
:1047EC007B6A23F4D073FB63FB681B680C33FA6B96
:1047FC007A633B63396B7A6B41E80023FB62FB6A9B
:10480C00002BE5D1FB681B6814337B617B6953E893
:10481C00003F3B613B6923F00103BB63FB681B68F2
:10482C001433BA6B3A62FB61F9693A6A41E80023C6
:10483C00BB61BB69002BE5D1FB68202283F84120CA
:10484C00FB68202283F84220FB68002283F840207A
:10485C0003230FE0FB681B681A68BB681340BA6837
:10486C009A420CBF01230023DBB21A46FB799A4211
:10487C009FD0002318464037BD4680BD80B495B00C
:10488C0000AF78607B681B680C337B637B6B53E8F1
:10489C00003F3B633B6B23F49073FB647B681B68AA
:1048AC000C33FA6C3A64FB63F96B3A6C41E8002305
:1048BC00BB63BB6B002BE5D17B681B6814333B627D
:1048CC003B6A53E8003FFB61FB6923F00103BB64C7
:1048DC007B681B681433BA6CFA62BB62B96AFA6AF9
:1048EC0041E800237B627B6A002BE5D17B681B6B64
:1048FC00012B19D17B681B680C33FB60FB6853E8F8
:10490C00003FBB60BB6823F010037B647B681B68B3
:10491C000C337A6CBA617B617969BA6941E800231E
:10492C003B613B69002BE5D17B68202283F8422058
:10493C007B6800221A6300BF5437BD4680BC7047A9
:10494C0080B584B000AF78607B685B6AFB60FB6805
:10495C000022DA85FB680022DA84F868FFF70CFF86
:10496C0000BF1037BD4680BD80B485B000AF786005
:10497C007B6893F84130DBB2212B3ED17B689B687E
:10498C00B3F5805F14D17B681B69002B10D17B6859
:10499C001B6AFB60FB681B881A467B681B68C2F3AA
:1049AC0008025A607B681B6A9A1C7B681A6208E0D2
:1049BC007B681B6A591C7A6811621A787B681B68C1
:1049CC005A607B68DB8C9BB2013B9BB27A681946C0
:1049DC00D184002B0FD17B681B68DA687B681B685D
:1049EC0022F08002DA607B681B68DA687B681B68DF
:1049FC0042F04002DA60002300E00223184614372C
:104A0C00BD4680BC704780B582B000AF78607B68D3
:104A1C001B68DA687B681B6822F04002DA607B68EE
:104A2C00202283F841207868FFF794FE0023184673
:104A3C000837BD4680BD80B58CB000AF78607B6810
:104A4C0093F84230DBB2222B40F0AE807B689B683F
:104A5C00B3F5805F17D17B681B69002B13D1002342
:104A6C00FB627B689B6ABB627B681B685B689BB262
:104A7C00C3F308039AB2BB6A1A807B689B6A9A1CC0
:104A8C007B689A6226E07B689B6AFB620023BB62B0
:104A9C007B689B68B3F5805F07D07B689B68002BB5
:104AAC000AD17B681B69002B06D17B681B685B688D
:104ABC00DAB2FB6A1A7008E07B681B685B68DBB2D1
:104ACC0003F07F03DAB2FB6A1A707B689B6A5A1C8C
:104ADC007B689A627B68DB8D9BB2013B9BB27A68E8
:104AEC001946D185002B5DD17B681B68DA687B6821
:104AFC001B6822F02002DA607B681B68DA687B682E
:104B0C001B6822F48072DA607B681B685A697B68C8
:104B1C001B6822F001025A617B68202283F8422034
:104B2C007B6800225A637B681B6B012B35D17B6839
:104B3C0000221A637B681B680C337B617B6953E82A
:104B4C00003F3B613B6923F010037B627B681B6871
:104B5C000C337A6A3A62FB61F9693A6A41E80023DC
:104B6C00BB61BB69002BE5D17B681B681B6803F03C
:104B7C001003102B0AD10023FB607B681B681B6899
:104B8C00FB607B681B685B68FB60FB687B689B8DCC
:104B9C0019467868FFF7F9FD02E07868FFF7E3FD46
:104BAC00002302E0002300E0022318463037BD4604
:104BBC0080BD000080B584B000AF78607B681B6856
:104BCC001B6923F440517B68DA687B681B680A43D5
:104BDC001A617B689A687B681B691A437B685B69FE
:104BEC001343BB607B681B68DB6823F4B05323F072
:104BFC000C037A681268B9680B43D3607B681B6836
:104C0C005B6923F440717B689A697B681B680A4373
:104C1C005A617B681B682C4A934203D1FEF79CFABD
:104C2C00F86002E0FEF784FAF860FA6813469B001D
:104C3C0013449A001A447B685B689B00B2FBF3F345
:104C4C00224AA2FB03235B091901FA6813469B0055
:104C5C0013449A001A447B685B689B00B2FBF3F226
:104C6C001A4BA3FB02035B09642000FB03F3D31A6A
:104C7C001B013233154AA2FB03235B0903F0F0033B
:104C8C001944FA6813469B0013449A001A447B6833
:104C9C005B689B00B2FBF3F20C4BA3FB02035B09BA
:104CAC00642000FB03F3D31A1B013233074AA2FB27
:104CBC0003235B0903F00F027B681B680A449A60AC
:104CCC0000BF1037BD4680BD003801401F85EB5139
:104CDC0070B500260C4D0D4C641BA410A64209D1D6
:104CEC0000F07EF800260A4D0A4C641BA410A64264
:104CFC0005D170BD55F8043B98470136EEE755F8E1
:104D0C00043B98470136F2E7904E0008904E00089D
:104D1C00904E0008944E0008931E222B10B50C46A2
:104D2C0004D900231C460B70204610BD0A2A09D159
:104D3C00002807DA2D230B7001214042214400F09A
:104D4C000DF8F1E70021F9E7FFF7E6BF034602444F
:104D5C00934200D1704703F8011BF9E7F0B58BB013
:104D6C0005460B466E461D4C04F1200C3746206858
:104D7C006168083403C764453E46F7D12179206841
:104D8C003971911E222938604FF0000104D9197035
:104D9C000B4618460BB0F0BD581E8446B5FBF2F717
:104DAC0002FB175628366E4416F8286C0C460CF885
:104DBC00016F2E46B2423D4601F10101EED90022AF
:104DCC005A541919A51AAA42E3DA10F8015F0E78A1
:104DDC000132067001F80159F4E700BF6A4E000871
:104DEC00F8B500BFF8BC08BC9E467047F8B500BFCC
:084DFC00F8BC08BC9E4670479C
:104E040021534156455F56414C55455F4641494CF7
:104E1400230A0A0021534156455F56414C55455FCC
:104E240050415353230A0A0021375345473A00009F
:104E3400214D4F44453A0000230A000000000000C1
:104E44000000000001020304060708090000000036
:104E54000102030402030405060708090A0B0C0DEA
:104E64000E0F1010010230313233343536373839F1
:104E74006162636465666768696A6B6C6D6E6F70A6
:0C4E84007172737475767778797A00008B
:044E900031010008E4
:044E94000D01000804
:104E980000100140001001400014014000100008FB
:104EA80004000000010000000100000001000000F3
:104EB80001000000010000000100000001000000E6
:104EC80001000000010000000100000001000000D6
:104ED80001000000C8000000C8000000C800000071
:104EE80002000000070000000500000002000000AA
:104EF8000500000003000000020000000024F40088
:084F0800100000000100000090
:04000005080021814D
:00000001FF
