:020000040800F2
:1000000000000220F9220008AD1F0008B31F0008FD
:10001000B91F0008BF1F0008C51F0008000000002E
:10002000000000000000000000000000CB1F0008DE
:10003000D91F000800000000E71F0008F51F000896
:1000400049230008492300084923000849230008E0
:1000500049230008492300084923000849230008D0
:1000600049230008492300084923000849230008C0
:1000700049230008492300084923000849230008B0
:1000800049230008492300084923000849230008A0
:100090004923000849230008492300084923000890
:1000A0004923000849230008492300084923000880
:1000B00001200008492300084923000849230008BB
:1000C0004923000849230008492300084923000860
:1000D0004923000815200008492300084923000887
:1000E0004923000849230008492300084923000840
:1000F0004923000849230008492300084923000830
:10010000492300084923000849230008492300081F
:10011000492300084923000849230008492300080F
:1001200049230008492300084923000849230008FF
:1001300049230008492300084923000849230008EF
:1001400049230008492300084923000849230008DF
:1001500049230008492300084923000849230008CF
:1001600049230008492300084923000849230008BF
:100170004923000849230008492300080000000023
:0801800049230008492300088F
:1001880010B5054C237833B9044B13B10448AFF3C9
:1001980000800123237010BD94000020000000009F
:1001A8009C4F000808B5034B1BB103490348AFF344
:1001B800008008BD00000000980000209C4F000847
:1001C80053B94AB9002908BF00281CBF4FF0FF31B6
:1001D8004FF0FF3000F06EB9ADF1080C6DE904CEB8
:1001E80000F006F8DDF804E0DDE9022304B070470A
:1001F8002DE9F047089D04468C46002B40F083808B
:100208008A42174647D9B2FA82F242B1C2F12000B7
:1002180024FA00F09140974040EA010C94404FEADC
:100228001748230CBCFBF8F61FFA87FE08FB16C11B
:1002380043EA014306FB0EF1994209D9FB1806F17E
:10024800FF3080F01981994240F21681023E3B440A
:100258005B1AA4B2B3FBF8F008FB103344EA03447A
:1002680000FB0EFEA64509D93C1900F1FF3380F0CA
:100278000581A64540F2028102383C4440EA064026
:10028800A4EB0E0400261DB1D4400023C5E90043A9
:100298003146BDE8F08702B9FFDEB2FA82F2002AE1
:1002A80050D1CB1B4FEA174E1FFA87F80126B3FB34
:1002B800FEFC210C0EFB1C3341EA034108FB0CF346
:1002C8008B4207D979180CF1FF3002D28B4200F229
:1002D800E9808446C91AA3B2B1FBFEF00EFB1011E7
:1002E80043EA014408FB00F8A04507D93C1900F18E
:1002F800FF3302D2A04500F2D9801846A4EB0804C7
:1003080040EA0C40BFE78B4209D9002D00F0B180CC
:100318000026C5E9000130463146BDE8F087B3FA4A
:1003280083F6002E4AD18B4202D3824200F2B88073
:10033800841A61EB030101208C46002DA8D0C5E981
:10034800004CA5E7C2F1200320FA03F6974001FA12
:1003580002F04FEA174ED9403043030CB1FBFEF6CA
:100368001FFA87F80EFB161143EA014306FB08F152
:10037800994204FA02F409D9FB1806F1FF3C80F00F
:100388008D80994240F28A80023E3B445B1A81B2DA
:10039800B3FBFEF00EFB103341EA034100FB08F308
:1003A8008B4207D9791800F1FF3C73D28B4271D97F
:1003B80002383944CB1A40EA064678E7C6F1200CE1
:1003C80003FA06F422FA0CF31C4320FA0CF701FA9C
:1003D80006F34FEA144E21FA0CF11F433B0CB1FB14
:1003E800FEF91FFA84F80EFB191143EA014109FBD3
:1003F80008FA8A4502FA06F200FA06F308D96118E3
:1004080009F1FF3048D28A4546D9A9F102092144A9
:10041800A1EB0A01BFB2B1FBFEF00EFB101147EAD7
:10042800014700FB08F8B84507D9E71900F1FF3183
:100438002ED2B8452CD90238274440EA0940A7EB08
:100448000807A0FB02894F45C64649461AD317D06C
:100458005DB1B3EB0E0267EB010707FA0CFCF24043
:100468004CEA0202F740C5E9002700263146BDE8FC
:10047800F0872E4628460BE70646E9E61846FDE6CD
:100488004345E5D2B8EB020E69EB04010138DFE71A
:100498000846D2E760468DE78146B9E7664675E7C4
:1004A80030464AE7ACF1020C394413E702383C44C1
:1004B80024E700BF704700BF80B483B000AF0023BB
:1004C8007B6011E00D4A7B68002142F823100C4A3A
:1004D8007B68002142F823100A4A7B68002142F811
:1004E80023107B6801337B607B68022BEADD00BF49
:1004F80000BF0C37BD465DF8047B7047C80000207C
:10050800BC000020B000002080B582B000AF786049
:100518007B68022B00F0AB807B68022B00F3EC8039
:100528007B68002B03D07B68012B5BD0E4E0764A24
:100538007B6852F82330032B52D801A252F823F0DB
:10054800590500087D050008A1050008C505000833
:100558006E4A7B6852F82330002B02D0012B04D05E
:1005680007E0FFF7A9FF0523CAE0FFF7A5FF0C2363
:10057800C6E036E0654A7B6852F82330002B02D08B
:10058800012B04D007E0FFF797FF0523B8E0FFF73A
:1005980093FF0223B4E024E05C4A7B6852F82330DE
:1005A800012B02D0022B04D007E0FFF785FF0323BD
:1005B800A6E0FFF781FF0323A2E012E0534A7B681D
:1005C80052F82330022B02D0032B04D007E0FFF7A8
:1005D80073FF042394E0FFF76FFF042390E000E02B
:1005E80000BF8DE0484A7B6852F82330022B2AD09E
:1005F800022B3ADC002B02D0012B12D035E0434A03
:100608007B6852F82330002B02D0012B04D007E07E
:10061800FFF752FF082373E0FFF74EFF0C236FE04C
:1006280024E03A4A7B6852F82330002B02D0012B91
:1006380004D007E0FFF740FF082361E0FFF73CFF25
:1006480006235DE012E0314A7B6852F82330012B23
:1006580002D0022B04D007E0FFF72EFF07234FE05C
:10066800FFF72AFF07234BE000E000BF48E0264AD7
:100678007B6852F82330022B2AD0022B3ADC002B5D
:1006880002D0012B12D035E0204A7B6852F8233083
:10069800002B02D0012B04D007E0FFF70DFF0B233E
:1006A8002EE0FFF709FF0C232AE024E0174A7B68B5
:1006B80052F82330002B02D0012B04D007E0FFF7BB
:1006C800FBFE0B231CE0FFF7F7FE092318E012E0FE
:1006D8000E4A7B6852F82330012B02D0022B04D03B
:1006E80007E0FFF7E9FE0A230AE0FFF7E5FE0A2321
:1006F80006E000E000BF03E0FFF7DEFE0C23FFE7A3
:1007080018460837BD4680BDBC000020C800002040
:1007180080B582B000AF00237B60C1E0654A7B688A
:1007280052F8232064497B6841F82320634A7B6898
:1007380052F823205F497B6841F82320604A7B6890
:1007480052F823205F497B6831F813301946104668
:1007580002F0AAF903461946584A7B6842F8231062
:10076800554A7B6852F8232052497B6851F8233058
:100778009A4240F092804F4A7B6852F823204F49B2
:100788007B6851F823309A4240F087804E4A7B6854
:1007980052F8232048497B6851F823309A4231D0D7
:1007A800494A7B6852F82330002B02D0012B14D021
:1007B80073E0454A7B68012142F82310434A7B686D
:1007C80052F823305A1C41497B6841F82320404A9B
:1007D8007B68142142F823105FE03B4A7B680021C4
:1007E80042F823103B4A7B6852F823305A1C394997
:1007F8007B6841F82320384A7B684FF4967142F8A9
:1008080023104AE0304A7B6852F82330012B19D173
:100818002F4A7B6852F82330002B3EDD2C4A7B6838
:1008280052F823305A1E2A497B6841F82320284A67
:100838007B6852F82330002B2FDC7868FFF764FEC2
:10084800034632E0244A7B6852F82330002B24DD2B
:10085800214A7B6852F823305A1E1F497B6841F8A9
:1008680023201D4A7B6852F82330002B15DC7B6857
:10087800002B05D1184A7B684FF4967142F8231073
:100888007B68012B04D1144A7B68142142F8231099
:100898007868FFF739FE034607E07B6801337B6021
:1008A8007B68022B7FF73AAF0C2318460837BD4602
:1008B80080BD00BF2C000020200000203800002050
:1008C800000000200C00002014000020C8000020B8
:1008D800B0000020BC0000204400002080B483B099
:1008E80000AF786039603B68032B39D03B68032B35
:1008F8003ADC3B68012B03D03B68022B18D033E06D
:100908007B681D4A82FB03129210DB17D31A1B4A1D
:1009180013607968184B83FB01239A10CB17D21AFE
:1009280013469B0013445B00CA1A144B5A601CE020
:100938007B68114A82FB03129210DB17D31A0F4A05
:10094800936079680C4B83FB01239A10CB17D21A5A
:1009580013469B0013445B00CA1A084BDA6004E094
:10096800064A7B68136100E000BF00BF0C37BD4634
:100978005DF8047B704700BF676666665C00002010
:1009880080B582B000AF786001217868FFF7A6FFD4
:1009980000BF0837BD4680BD80B582B000AF786023
:1009A80002217868FFF79AFF00BF0837BD4680BD6F
:1009B80080B582B000AF786003217868FFF78EFFBA
:1009C80000BF0837BD4680BD80B500AF00F06CFFA2
:1009D80000BF80BD80B500AF1B211E2001F00AF8C2
:1009E8001B211F2001F006F800BF80BD80B500AFB5
:1009F80019211E2000F0FEFF19211F2000F0FAFF28
:100A080000BF80BD80B500AF1A211E2000F0F2FFA4
:100A18001A211F2000F0EEFF00BF80BD80B500AF97
:100A28001C211E2000F0E6FF1C211F2000F0E2FF21
:100A380000BF80BD80B500AF1D211E2000F0DAFF89
:100A48001D211F2000F0D6FF00BF80BD80B500AF7C
:100A580016211E2000F0CEFF00BF80BD80B500AF7C
:100A680018211E2000F0C6FF00BF80BD80B500AF72
:100A780017211E2000F0BEFF00BF80BD80B500AF6B
:100A880016211F2000F0B6FF00BF80BD80B500AF63
:100A980018211F2000F0AEFF00BF80BD80B500AF59
:100AA80017211F2000F0A6FF00BF80BD80B500AF52
:100AB800202001F0A3F800BF80BD000080B500AF82
:100AC800184B1B68152B1ED0152B28DC132B02D0B6
:100AD800142B0CD023E0144B1B68002B03DC2020C4
:100AE80001F08CF81CE0212001F088F818E00E4B8A
:100AF8001B68002B03DC202001F080F810E0222086
:100B080001F07CF80CE0084B1B68002B03DC20206C
:100B180001F074F804E0222001F070F800E000BF52
:100B280000BF80BD54000020E000002080B500AF69
:100B3800234B1B680E3B032B3ED801A252F823F02F
:100B4800590B0008A70B00088D0B0008730B000851
:100B58001C4B1B68002B03D1202001F04FF803E049
:100B6800212001F04BF800BF27E0164B1B68002B33
:100B780003D1202001F042F803E0222001F03EF8E2
:100B880000BF1AE00F4B1B68002B03D1202001F097
:100B980035F803E0222001F031F800BF0DE0094BE1
:100BA8001B68002B03D1202001F028F803E0212046
:100BB80001F024F800BF00E000BF00BF80BD00BF07
:100BC80050000020E000002080B500AF01F0BAFB23
:100BD80000F0D2F800F01AFA00F02CF900F076F9DB
:100BE80000F0EAF95F4802F043FC012001F09CF8AC
:100BF800642001F0ADF8322001F0BEF85A4B1B68B2
:100C0800012B40F08D80012001F08EF8FFF780FD68
:100C18000346023B082B00F2858001A252F823F01C
:100C28004D0C0008590C0008650C0008710C0008F0
:100C38009B0C0008C70C0008E30C0008FF0C000818
:100C4800230D0008494B01221A6000F009FD6AE0F3
:100C5800464B02221A6000F041FB64E0434B03223A
:100C68001A6001F065FA5EE0404B1B68032B08D060
:100C7800032B0CDC002B07D0022B08D100F080FAE4
:100C880006E001F0DFF903E0FFF7C8FE00E000BF6F
:100C980049E0364B1B68032B0CD0032B0DDC012BD2
:100CA80002D0022B03D008E000F0DAFC06E000F0E6
:100CB80067FA03E001F04CFA00E000BF33E02B4B89
:100CC8001B68002B04D0032B05D101F09FFA03E029
:100CD800FFF7A4FE00E000BF25E0244B1B68002BB3
:100CE80004D0032B05D101F033FA03E0FFF796FE99
:100CF80000E000BF17E01D4B1B68012B02D0022B40
:100D080005D009E000F0C8FCFFF7D8FE04E000F0C9
:100D1800F5FAFFF70BFF00BF05E0FFF77FFE02E0E3
:100D280000BF00E000BF124B1B68012B0AD16420F2
:100D380001F00EF80D4B1B68012B03D100F004FBEA
:100D4800FFF7BCFE0B4B1B68012B7FF457AF32201B
:100D580001F012F8054B1B68032B7FF44FAF01F02D
:100D6800A7FA4BE774010020E4010020D40000201A
:100D7800DC010020EC01002080B594B000AF07F141
:100D8800200330220021184604F0FCF807F10C0378
:100D980000221A605A609A60DA601A610023BB6008
:100DA800224B1B6C214A43F0805313641F4B1B6C6E
:100DB80003F08053BB60BB6800237B601C4B1B683F
:100DC8001B4A43F480431360194B1B6803F48043A8
:100DD8007B607B6802233B620123FB6210233B6339
:100DE8000023BB6307F12003184601F0A9FE034660
:100DF800002B01D000F0B2F90F23FB6000233B6108
:100E080080237B610023BB610023FB6107F10C0396
:100E18000021184602F00CF90346002B01D000F01F
:100E28009DF900BF5037BD4680BD00BF0038024065
:100E38000070004080B586B000AF07F108030022BB
:100E48001A605A609A60DA603B4600221A605A605B
:100E58001D4B4FF080421A601B4B41F63F725A609F
:100E6800194B00229A60184B0922DA60164B0022AF
:100E78001A61154B00229A61134802F0A9FA034639
:100E8800002B01D000F06AF94FF48053BB6007F1E2
:100E9800080319460C4802F07FFD0346002B01D0D9
:100EA80000F05CF900233B6000237B603B46194659
:100EB800054803F04BF90346002B01D000F04EF92A
:100EC80000BF1837BD4680BD7401002080B58EB0C4
:100ED80000AF07F1280300221A605A609A60DA60AE
:100EE80007F1200300221A605A603B1D00221A6095
:100EF8005A609A60DA601A615A619A612C4B2D4ADD
:100F08001A602B4B41F63F725A60294B00229A60B7
:100F1800274B0922DA60264B00221A61244B002253
:100F28009A61234802F054FA0346002B01D000F0DE
:100F380015F94FF48053BB6207F1280319461C4882
:100F480002F02AFD0346002B01D000F007F91848EB
:100F580002F0FEFA0346002B01D000F0FFF8002350
:100F68003B6200237B6207F120031946104803F017
:100F7800EDF80346002B01D000F0F0F860237B6009
:100F88000023BB600023FB6000237B613B1D042220
:100F98001946074802F03EFC0346002B01D000F03A
:100FA800DDF8034800F074FF00BF3837BD4680BD48
:100FB800E80000200004004080B500AF104B114A43
:100FC8001A600F4B104A5A600D4B00229A600C4B66
:100FD8000022DA600A4B00221A61094B0C225A617E
:100FE800074B00229A61064B0022DA61044803F09D
:100FF8003DF90346002B01D000F0B0F800BF80BDDA
:1010080030010020001001400077010080B588B051
:1010180000AF07F10C0300221A605A609A60DA6088
:101028001A610023BB60444B1B6B434A43F0010326
:101038001363414B1B6B03F00103BB60BB680023C8
:101048007B603D4B1B6B3C4A43F0020313633A4BF6
:101058001B6B03F002037B607B6800233B60364B0D
:101068001B6B354A43F008031363334B1B6B03F0C8
:1010780008033B603B6800227F21304801F02CFDCB
:1010880001223F212E4801F027FD00224FF4F8519C
:101098002B4801F021FD00224FF4C061294801F0DE
:1010A8001BFD7F23FB6001233B6100237B61002341
:1010B800BB6107F10C031946204801F059FB3F2397
:1010C800FB6001233B6100237B610323BB6107F1C4
:1010D8000C0319461A4801F04BFB4FF4F853FB6018
:1010E80001233B6100237B610023BB6107F10C03F3
:1010F8001946134801F03CFB4FF4C063FB60012321
:101108003B6100237B610323BB6107F10C03194694
:101118000C4801F02DFB4FF4E063FB6000233B61BA
:1011280001237B6107F10C031946044801F020FBF9
:1011380000BF2037BD4680BD003802400000024095
:1011480000040240000C024080B582B000AF786015
:1011580000F092FD00BF0837BD4680BD80B400AFE7
:1011680072B600BFFEE7000080B400AF034B0D224B
:101178001A6000BFBD465DF8047B70475000002030
:1011880080B500AF524B1B680D3B042B00F29C80CE
:1011980001A252F823F000BFB5110008CF110008D2
:1011A8000B1200084D1200088F120008484B0E223F
:1011B8001A600220FFF7FCFBFFF730FCFFF746FC44
:1011C800FFF76CFC81E0424B0F221A60404B1A6813
:1011D800404B1B689A420BD13F4B1B68002B03DD29
:1011E8003D4B1B68013B01E03B4B1B683A4A1360CF
:1011F800FFF79CFCFFF712FCFFF728FCFFF746FC03
:1012080063E0334B10221A60314B1A68314B1B686C
:101218009A420BD1304B1B68002B03DD2E4B1B6809
:10122800013B01E02C4B1B682B4A1360FFF77EFC47
:101238000220FFF7BDFBFFF7F1FBFFF717FCFFF7F5
:101248001DFC42E0224B11221A60214B1A68214BE7
:101258001B689A420BD1204B1B68002B03DD1E4BE9
:101268001B68013B01E01C4B1B681B4A1360FFF71E
:101278005DFC0220FFF79CFBFFF7D0FBFFF7EEFBBE
:10128800FFF7FCFB21E0124B0E221A60104B1A6884
:10129800104B1B689A420BD10F4B1B68002B03DDC8
:1012A8000D4B1B68013B01E00B4B1B680A4A13609E
:1012B800FFF73CFC0220FFF77BFBFFF7AFFBFFF7D4
:1012C800C5FBFFF7EBFB00E000BF00BF80BD00BF20
:1012D80050000020E4000020E000002080B500AFAE
:1012E800054B00221A60FFF7E1FBFFF73DFFFFF710
:1012F80047FF00BF80BD00BFE000002080B400AF02
:10130800054B03221A60054B1B68054A136000BF92
:10131800BD465DF8047B7047E000002050000020C7
:10132800E400002080B400AF054B12221A60054B80
:1013380012221A6000BFBD465DF8047B704700BFEB
:10134800540000205800002080B500AF9C4B1B685B
:10135800123B032B00F2C48001A252F823F000BF15
:101368007913000897130008091400087914000875
:10137800944B1B68944A1360914B13221A60FFF731
:1013880065FB914B1B681846FFF7FAFAAFE08E4BE6
:101398001B68002B40F3A6808B4B1B68013B8A4AD5
:1013A8001360894B1B68002B22DC884B1B68884A1A
:1013B8001360834B14221A60864B1A68804B1B6893
:1013C8009A420BD1844B1B68002B03DD824B1B68B0
:1013D800013B01E0804B1B687F4A1360FFF76EFBFF
:1013E800FFF744FB7A4B1B681846FFF7C9FA79E008
:1013F800FFF72CFB744B1B681846FFF7C1FA71E026
:10140800734B1B68002B6FDD714B1B68013B704AE7
:1014180013606F4B1B68002B22DC704B1B68704AF3
:101428001360674B15221A606A4B1A68644B1B6875
:101438009A420BD1684B1B68002B03DD664B1B6877
:10144800013B01E0644B1B68634A1360FFF736FBFE
:10145800FFF704FB624B1B681846FFF791FA43E05D
:10146800FFF704FB5A4B1B681846FFF789FA3BE065
:101478005B4B1B68002B39DD594B1B68013B584AF5
:101488001360574B1B68002B22DC4E4B1B684E4ADF
:1014980013604B4B13221A604E4B1A68484B1B685B
:1014A8009A420BD14C4B1B68002B03DD4A4B1B683F
:1014B800013B01E0484B1B68474A1360FFF7FEFAFF
:1014C800FFF7C4FA404B1B681846FFF759FA0DE0BE
:1014D800FFF7C4FA424B1B681846FFF751FA05E0BC
:1014E80000BF04E000BF02E000BF00E000BF3D4BCA
:1014F8001B68123B032B00F2A18001A252F823F0D3
:1015080019150008FD150008371500088115000891
:10151800344B14221A602D4B1B68334A1360FFF7B3
:10152800BDFA314B1B681846FFF736FA8DE02E4B93
:101538001B68002B40F384802B4B1B68013B2A4A15
:101548001360294B1B68002B0EDC244B1B68274AB1
:101558001360244B15221A60FFF798FA234B1B6877
:101568001846FFF719FA6BE0FFF798FA1E4B1B684D
:101578001846FFF711FA63E01C4B1B68002B61DD6E
:101588001A4B1B68013B194A1360184B1B68002B48
:101598000EDC0C4B1B68164A1360124B13221A60A0
:1015A800FFF76CFA124B1B681846FFF7F5F949E08C
:1015B800FFF76CFA0D4B1B681846FFF7EDF941E091
:1015C8005400002080000020D0010020840000206A
:1015D800C0010020E4000020E00000208800002076
:1015E800C401002058000020CC010020C8010020C0
:1015F800BC010020164B1B68002B25DD144B1B6813
:10160800013B134A1360124B1B68002B0EDC114B75
:101618001B68114A1360114B14221A60FFF73EFA37
:101628000D4B1B681846FFF7B7F90DE0FFF726FAD0
:10163800074B1B681846FFF7AFF905E000BF04E049
:1016480000BF02E000BF00E000BF00BF80BD00BFD8
:10165800BC01002084000020CC010020580000209C
:1016680080B500AF0B4B00221A60FFF71FFAFFF797
:10167800D5F9FFF757FEFFF767FE642000F068FB17
:101688000120FFF795F9FFF79FF90A2000F088FB82
:1016980000BF80BDE000002080B400AF054B0322EE
:1016A8001A60054B1B68054A136000BFBD465DF80C
:1016B800047B7047E000002054000020E400002074
:1016C80090B583B000AF0446084611461A46234633
:1016D800FB710346BB710B467B7113463B71FB796B
:1016E8001A460121154801F0F7F9BB791A4602217B
:1016F800124801F0F1F97B791A4604210F4801F0EC
:10170800EBF93B791A4608210C4801F0E5F93B7ED4
:101718001A461021094801F0DFF93B7F1A462021BB
:10172800064801F0D9F997F820301A4640210348B5
:1017380001F0D2F900BF0C37BD4690BD0000024051
:1017480080B586B004AF78607B68092B00F29A8078
:1017580001A252F823F000BF89170008A317000858
:10176800BD170008D7170008F11700080B18000864
:10177800251800083F1800085918000873180008B1
:1017880001230293002301930023009300230022E6
:1017980000210020FFF794FF81E001230293012339
:1017A8000193012300930123002200210120FFF768
:1017B80087FF74E000230293012301930023009321
:1017C8000023012200210020FFF77AFF67E00023B1
:1017D8000293012301930123009300230022002197
:1017E8000020FFF76DFF5AE00023029300230193C6
:1017F800012300930123002200210120FFF760FF4D
:101808004DE000230293002301930123009300235A
:10181800002201210020FFF753FF40E0002302933C
:1018280000230193002300930023002201210020BC
:10183800FFF746FF33E001230293012301930123BD
:1018480000930123002200210020FFF739FF26E042
:101858000023029300230193002300930023002216
:1018680000210020FFF72CFF19E00023029300233A
:101878000193012300930023002200210020FFF799
:101888001FFF0CE000230293002301930123009320
:101898000023002200210020FFF712FF00BF00BF35
:1018A8000837BD4680BD00BF80B500AF4E4B1B68F2
:1018B800052B00F2958001A252F823F0DD180008EC
:1018C8002B19000851190008771900089D190008FC
:1018D800C319000800224FF48071444801F0FCF855
:1018E80001224FF40071414801F0F6F801224FF44B
:1018F80080613E4801F0F0F801224FF400613B4856
:1019080001F0EAF801224FF48051384801F0E4F878
:10191800374B1B681846FFF713FF334B01221A6039
:101928005FE04FF48071314801F0EFF84FF4007137
:101938002E4801F0EAF82E4B5B681846FFF700FFC7
:10194800294B02221A604CE04FF40071274801F03D
:10195800DCF84FF48061254801F0D7F8244B9B68E8
:101968001846FFF7EDFE204B03221A6039E04FF4CA
:1019780080611E4801F0C9F84FF400611B4801F06E
:10198800C4F8194B04221A60194BDB681846FFF794
:10199800D7FE26E04FF40061144801F0B6F84FF482
:1019A8008051124801F0B1F80F4B05221A60104B14
:1019B8001B691846FFF7C4FE13E04FF480510B482B
:1019C80001F0A3F84FF48071084801F09EF8064B27
:1019D80001221A60064B1B681846FFF7B1FE00E0AB
:1019E80000BF00BF80BD00BFD80000200004024037
:1019F8005C00002080B582B000AF786039607B68F9
:101A08001E2B03D07B681F2B79D0F0E03B68163B78
:101A1800072B72D801A252F823F000BF451A00081C
:101A2800651A0008851A0008A51A0008B91A0008DE
:101A3800AF1A0008C31A0008E31A0008012201219E
:101A48006D4801F049F8002204216B4801F044F880
:101A580000220221684801F03FF84FE000220121EE
:101A6800654801F039F800220421634801F034F890
:101A780001220221604801F02FF83FE000220121F5
:101A88005D4801F029F8012204215B4801F024F89F
:101A980000220221584801F01FF82FE00121564882
:101AA80001F033F82AE00421534801F02EF825E02C
:101AB8000221514801F029F820E0002201214E4876
:101AC80001F00AF8002204214B4801F005F8002231
:101AD8000221494801F000F810E00122012146489E
:101AE80000F0FAFF01220421434800F0F5FF01222B
:101AF8000221414800F0F0FF00E000BF77E03B68BA
:101B0800163B072B71D801A252F823F0351B0008A9
:101B1800551B0008751B0008951B0008A91B000829
:101B28009F1B0008B31B0008D31B000801220821D3
:101B3800314800F0D1FF002220212F4800F0CCFFCF
:101B4800002210212C4800F0C7FF4FE00022082196
:101B5800294800F0C1FF00222021274800F0BCFFDF
:101B680001221021244800F0B7FF3FE0002208219D
:101B7800214800F0B1FF012220211F4800F0ACFFEE
:101B8800002210211C4800F0A7FF2FE008211A4866
:101B980000F0BBFF2AE02021174800F0B6FF25E03F
:101BA8001021154800F0B1FF20E00022082112485A
:101BB80000F092FF002220210F4800F08DFF002244
:101BC80010210D4800F088FF10E0012208210A4882
:101BD80000F082FF01222021074800F07DFF01224A
:101BE8001021054800F078FF00E000BF00BF00BFEB
:101BF8000837BD4680BD00BF0004024080B582B0F2
:101C080000AF78607B68222B22D07B68222B2CDCEB
:101C18007B68202B0FD07B68212B26D101224FF423
:101C28000071144800F058FF00224FF480611148F9
:101C380000F052FF1AE000224FF400710D4800F046
:101C48004BFF00224FF480610A4800F045FF0DE089
:101C580000224FF40071074800F03EFF01224FF4C4
:101C68008061044800F038FF00E000BF00BF08377B
:101C7800BD4680BD000C024080B400AF224B1B68FB
:101C8800002B0BDD204B1B68013B1F4A13601E4BCA
:101C98001B68002B02DC1D4B01221A601C4B1B68C1
:101CA800002B0BDD1A4B1B68013B194A1360184BBC
:101CB8001B68002B02DC174B01221A60164B1B68AD
:101CC800002B0BDD144B1B68013B134A1360124BAE
:101CD8001B68002B02DC114B01221A60104B1B6899
:101CE800002B0BDD0E4B1B68013B0D4A13600C4BA0
:101CF8001B68002B02DC0B4B01221A6000BFBD469B
:101D08005DF8047B704700BFD8010020E401002083
:101D1800F0010020DC010020D4010020EC010020AB
:101D2800E8010020E001002080B483B000AF7860B3
:101D3800054A7B681360054B00221A6000BF0C3708
:101D4800BD465DF8047B7047D8010020E4010020FF
:101D580080B483B000AF7860054A7B681360054B98
:101D680000221A6000BF0C37BD465DF8047B70473F
:101D7800F0010020DC01002080B483B000AF78605F
:101D8800054A7B681360054B00221A6000BF0C37B8
:101D9800BD465DF8047B7047D4010020EC010020AB
:101DA80080B483B000AF7860054A7B681360054B48
:101DB80000221A6000BF0C37BD465DF8047B7047EF
:101DC800E8010020E001002080B483B000AF0023C8
:101DD8007B60104B5B6C0F4A43F4804353640D4B9C
:101DE8005B6C03F480437B607B6800233B60094B9A
:101DF8001B6C084A43F080531364064B1B6C03F0BA
:101E080080533B603B6800BF0C37BD465DF8047BE0
:101E1800704700BF0038024080B584B000AF7860DA
:101E28007B681B68B3F1804F16D10023FB60164B0B
:101E38001B6C154A43F001031364134B1B6C03F02E
:101E48000103FB60FB68002200211C2000F0C7FB97
:101E58001C2000F0E0FB12E07B681B680B4A9342F1
:101E68000DD10023BB60084B1B6C074A43F00203EB
:101E78001364054B1B6C03F00203BB60BB6800BF17
:101E88001037BD4680BD00BF003802400004004046
:101E980080B588B000AF786007F10C0300221A60A3
:101EA8005A609A60DA601A617B681B68124A93422A
:101EB8001DD10023BB60114B1B6B104A43F001037B
:101EC80013630E4B1B6B03F00103BB60BB688023DD
:101ED800FB6002233B6100237B610023BB6102237B
:101EE800FB6107F10C031946054800F041FC00BFEF
:101EF8002037BD4680BD00BF0004004000380240C6
:101F08000000024080B58AB000AF786007F1140382
:101F180000221A605A609A60DA601A617B681B684E
:101F28001D4A934233D100233B611C4B5B6C1B4A17
:101F380043F010035364194B5B6C03F010033B61CF
:101F48003B690023FB60154B1B6B144A43F00203EB
:101F58001363124B1B6B03F00203FB60FB68C02387
:101F68007B610223BB610023FB6103233B620723E0
:101F78007B6207F114031946094800F0F9FB0022B7
:101F88000021252000F02BFB252000F044FB00BF9A
:101F98002837BD4680BD00BF001001400038024010
:101FA8000004024080B400AFFEE780B400AFFEE753
:101FB80080B400AFFEE780B400AFFEE780B400AFA6
:101FC800FEE780B400AF00BFBD465DF8047B7047F4
:101FD80080B400AF00BFBD465DF8047B704780B495
:101FE80000AF00BFBD465DF8047B704780B500AF09
:101FF80000F0FAF900BF80BD80B500AF024801F0DB
:1020080000FB00BF80BD00BF7401002080B500AF99
:10201800024802F079F900BF80BD00BF30010020FE
:1020280080B400AF064BD3F88830054A43F47003F8
:10203800C2F8883000BFBD465DF8047B704700BF1A
:1020480000ED00E080B500AF2F4B1B68032B57D87D
:1020580001A252F823F000BF712000089720000861
:10206800BD200008E3200008274B01221A60FEF774
:10207800D5FC264B1B681846FEF782FC234B1B68D1
:102088001846FEF789FC0320FEF792FC39E01E4B48
:1020980002221A60FEF7C2FC1D4B1B681846FEF7A9
:1020A8006FFC1B4B1B681846FEF776FC0320FEF7F7
:1020B8007FFC26E0144B03221A60FEF7AFFC154B99
:1020C8001B681846FEF75CFC124B1B681846FEF7A7
:1020D80063FC0320FEF76CFC13E00B4B01221A6033
:1020E800FEF79CFC094B1B681846FEF749FC074B9A
:1020F8001B681846FEF750FC0320FEF759FC00E069
:1021080000BF00BF80BD00BFDC00002080000020B1
:10211800880000208400002080B400AF034B002218
:102128001A6000BFBD465DF8047B7047DC000020E4
:1021380080B500AF054B00221A60FEF7B7FCFFF729
:10214800EBFFFFF77FFF00BF80BD00BFE00000206E
:1021580080B500AF294B1B68032B34D0032B49DC17
:10216800012B02D0022B17D044E0254B1B6801330A
:10217800234A1360224B1B68632B02DD204B00228D
:102188001A601F4B1B681846FEF7FAFB1C4B1B68AE
:102198001846FEF701FC2EE01A4B1B680133194A5A
:1021A8001360184B1B68632B02DD164B00221A6064
:1021B800144B1B681846FEF7E3FB124B1B681846C6
:1021C800FEF7EAFB17E0104B1B6801330E4A136059
:1021D8000D4B1B68632B02DD0B4B00221A600A4B68
:1021E8001B681846FEF7CCFB074B1B681846FEF722
:1021F800D3FB00E000BF00BF80BD00BFDC000020B3
:10220800740000207C0000207800002080B500AF1A
:10221800204B1A68204B1B681A44204B1B689A42B3
:1022280028D01F4B1B68032B17D15820FEF7A8FB9B
:102238005820FEF7B1FB0820FEF7BAFBFEF7FAFBC1
:10224800184B1B68144A1360174B1B68134A13601A
:10225800164B1B680F4A136019E0124B1B680E4A95
:102268001360114B1B680D4A1360104B1B68094A19
:1022780013600CE0084B1B680A4A1360074B1B6885
:10228800094A1360034B1B68084A136000BF00BF6C
:1022980080BD00BF7C000020780000207400002072
:1022A800DC0000208400002080000020880000203E
:1022B80080B500AF0D4B1B68032B14D801A252F850
:1022C80023F000BFEF220008DD220008E322000807
:1022D800E9220008FEF78AFB06E0FEF77BFB03E035
:1022E800FEF790FB00E000BF00BF80BDDC000020CF
:1022F800DFF834D00D480E490E4A002302E0D458C6
:10230800C4500433C4188C42F9D30B4A0B4C002335
:1023180001E013600432A242FBD3FFF781FE02F012
:102328000DFEFEF751FC704700000220000000205F
:1023380094000020DC4F000894000020F8010020E1
:10234800FEE7000080B500AF0E4B1B680D4A43F452
:10235800007313600B4B1B680A4A43F480631360D5
:10236800084B1B68074A43F480731360032000F08E
:102378002BF90F2000F008F8FFF726FD0023184678
:1023880080BD00BF003C024080B582B000AF7860DD
:10239800124B1A68124B1B7819464FF47A73B3FB29
:1023A800F1F3B2FBF3F3184600F043F90346002BB0
:1023B80001D001230EE07B680F2B0AD80022796830
:1023C8004FF0FF3000F00BF9064A7B6813600023DA
:1023D80000E0012318460837BD4680BD7000002084
:1023E800900000208C00002080B400AF064B1B78C2
:1023F8001A46064B1B681344044A136000BFBD46C7
:102408005DF8047B704700BF90000020F4010020B5
:1024180080B400AF034B1B681846BD465DF8047BCB
:10242800704700BFF401002080B485B000AF786029
:102438007B6803F00703FB600C4BDB68BB60BA6882
:102448004FF6FF031340BB60FB681A02BB681343D7
:1024580043F0BF6343F40033BB60044ABB68D360F6
:1024680000BF1437BD465DF8047B704700ED00E0FF
:1024780080B400AF044BDB681B0A03F0070318465F
:10248800BD465DF8047B704700ED00E080B483B082
:1024980000AF0346FB7197F90730002B0BDBFB7984
:1024A80003F01F02074997F907305B09012000FA7A
:1024B80002F241F8232000BF0C37BD465DF8047BCB
:1024C800704700BF00E100E080B483B000AF03466E
:1024D8003960FB7197F90730002B0ADB3B68DAB2E9
:1024E8000C4997F907301201D2B20B4483F8002344
:1024F8000AE03B68DAB20849FB7903F00F03043BB2
:102508001201D2B20B441A7600BF0C37BD465DF8F3
:10251800047B704700E100E000ED00E080B489B082
:1025280000AFF860B9607A60FB6803F00703FB61ED
:10253800FB69C3F10703042B28BF0423BB61FB69B4
:102548000433062B02D9FB69033B00E000237B61BF
:102558004FF0FF32BB6902FA03F3DA43BB681A4053
:102568007B699A404FF0FF317B6901FA03F3D94345
:102578007B680B40134318462437BD465DF8047B3F
:102588007047000080B582B000AF78607B68013B7F
:10259800B3F1807F01D301230FE00A4A7B68013B36
:1025A80053600F214FF0FF30FFF78EFF054B0022DD
:1025B8009A60044B07221A60002318460837BD4664
:1025C80080BD00BF10E000E080B582B000AF786049
:1025D8007868FFF729FF00BF0837BD4680BD80B582
:1025E80086B000AF0346B9607A60FB7300237B6155
:1025F800FFF73EFF78617A68B9687869FFF78EFF60
:10260800024697F90F3011461846FFF75DFF00BFE5
:102618001837BD4680BD80B582B000AF0346FB7158
:1026280097F907301846FFF731FF00BF0837BD4656
:1026380080BD80B582B000AF78607868FFF7A2FFF0
:10264800034618460837BD4680BD80B584B000AF44
:1026580078607B689B6DFB60FFF7DAFEB8607B688B
:1026680093F83530DBB2022B08D07B6880225A659C
:102678007B68002283F83420012352E07B681B68C2
:102688001A687B681B6822F016021A607B681B6850
:102698005A697B681B6822F080025A617B681B6C50
:1026A800002B03D17B689B6C002B07D07B681B68D1
:1026B8001A687B681B6822F008021A607B681B682E
:1026C8001A687B681B6822F001021A6013E0FFF7A2
:1026D8009FFE0246BB68D31A052B0CD97B682022C3
:1026E8005A657B68032283F835207B68002283F8CB
:1026F8003420032315E07B681B681B6803F0010383
:10270800002BE4D17B68DB6D3F229A40FB689A601E
:102718007B68012283F835207B68002283F8342007
:10272800002318461037BD4680BD80B483B000AF83
:1027380078607B6893F83530DBB2022B04D07B6875
:1027480080225A6501230CE07B68052283F8352036
:102758007B681B681A687B681B6822F001021A6094
:10276800002318460C37BD465DF8047B704700000F
:1027780080B489B000AF7860396000237B610023A2
:102788003B610023BB610023FB616BE10122FB6914
:1027980002FA03F37B613B681B687A6913403B616B
:1027A8003A697B699A4240F05A813B685B6803F05A
:1027B8000303012B05D03B685B6803F00303022B7E
:1027C80030D17B689B68BB61FB695B00032202FA1E
:1027D80003F3DB43BA691340BB613B68DA68FB6902
:1027E8005B0002FA03F3BA691343BB617B68BA69F9
:1027F8009A607B685B68BB610122FB6902FA03F39C
:10280800DB43BA691340BB613B685B681B0903F093
:102818000102FB6902FA03F3BA691343BB617B68DF
:10282800BA695A603B685B6803F00303032B17D04F
:102838007B68DB68BB61FB695B00032202FA03F378
:10284800DB43BA691340BB613B689A68FB695B006C
:1028580002FA03F3BA691343BB617B68BA69DA60A9
:102868003B685B6803F00303022B23D1FB69DA089A
:102878007B68083253F82230BB61FB6903F0070319
:102888009B000F2202FA03F3DB43BA691340BB61D2
:102898003B681A69FB6903F007039B0002FA03F31C
:1028A800BA691343BB61FB69DA087B680832B96906
:1028B80043F822107B681B68BB61FB695B0003223D
:1028C80002FA03F3DB43BA691340BB613B685B68F8
:1028D80003F00302FB695B0002FA03F3BA691343CE
:1028E800BB617B68BA691A603B685B6803F4403374
:1028F800002B00F0B4800023FB60604B5B6C5F4AE8
:1029080043F4804353645D4B5B6C03F48043FB608A
:10291800FB685B4AFB699B08023352F82330BB61B2
:10292800FB6903F003039B000F2202FA03F3DB4366
:10293800BA691340BB617B68524A93422BD07B68CB
:10294800514A934225D07B68504A93421FD07B68F6
:102958004F4A934219D07B684E4A934213D07B6802
:102968004D4A93420DD07B684C4A934207D07B680E
:102978004B4A934201D107230EE008230CE00623BB
:102988000AE0052308E0042306E0032304E0022309
:1029980002E0012300E00023FA6902F0030292003A
:1029A8009340BA691343BB613549FB699B080233FD
:1029B800BA6941F823203B4B1B68BB613B69DB4389
:1029C800BA691340BB613B685B6803F48033002B32
:1029D80003D0BA693B691343BB61324ABB691360D0
:1029E800304B5B68BB613B69DB43BA691340BB6131
:1029F8003B685B6803F40033002B03D0BA693B697A
:102A08001343BB61274ABB695360264B9B68BB6174
:102A18003B69DB43BA691340BB613B685B6803F4FD
:102A28008013002B03D0BA693B691343BB611D4A6D
:102A3800BB6993601B4BDB68BB613B69DB43BA69CD
:102A48001340BB613B685B6803F40013002B03D0A1
:102A5800BA693B691343BB61124ABB69D360FB691E
:102A68000133FB61FB690F2B7FF690AE00BF00BFFF
:102A78002437BD465DF8047B704700BF003802402C
:102A880000380140000002400004024000080240F3
:102A9800000C0240001002400014024000180240DE
:102AA800001C0240003C014080B485B000AF786053
:102AB8000B467B807B681A697B881340002B02D009
:102AC8000123FB7301E00023FB73FB7B18461437DB
:102AD800BD465DF8047B704780B483B000AF786072
:102AE8000B467B8013467B707B78002B03D07A885B
:102AF8007B689A6103E07B881A047B689A6100BF4F
:102B08000C37BD465DF8047B704780B485B000AFD4
:102B180078600B467B807B685B69FB607A88FB6822
:102B280013401A04FB68D9437B880B401A437B681F
:102B38009A6100BF1437BD465DF8047B70470000FA
:102B480080B586B000AF78607B68002B01D1012387
:102B580064E27B681B6803F00103002B75D0A34B6C
:102B68009B6803F00C03042B0CD0A04B9B6803F06C
:102B78000C03082B12D19D4B5B6803F48003B3F55B
:102B8800800F0BD1994B1B6803F40033002B5BD0EB
:102B98007B685B68002B57D101233FE27B685B6849
:102BA800B3F5803F06D1914B1B68904A43F48033BC
:102BB80013601DE07B685B68B3F5A02F0CD18B4BCD
:102BC8001B688A4A43F480231360884B1B68874A32
:102BD80043F4803313600BE0844B1B68834A23F46F
:102BE80080331360814B1B68804A23F48023136071
:102BF8007B685B68002B13D0FFF70AFC386108E09C
:102C0800FFF706FC02463B69D31A642B01D903235C
:102C180004E2764B1B6803F40033002BF0D014E079
:102C2800FFF7F6FB386108E0FFF7F2FB02463B6965
:102C3800D31A642B01D90323F0E16C4B1B6803F40E
:102C48000033002BF0D100E000BF7B681B6803F065
:102C58000203002B63D0654B9B6803F00C03002B29
:102C68000BD0624B9B6803F00C03082B1CD15F4B05
:102C78005B6803F48003002B16D15C4B1B6803F0E0
:102C88000203002B05D07B68DB68012B01D00123F0
:102C9800C4E1564B1B6823F0F8027B681B69DB0014
:102CA800524913430B603AE07B68DB68002B20D065
:102CB8004F4B01221A60FFF7ABFB386108E0FFF7C2
:102CC800A7FB02463B69D31A022B01D90323A5E1CE
:102CD800464B1B6803F00203002BF0D0434B1B68E4
:102CE80023F0F8027B681B69DB00404913430B6043
:102CF80015E03F4B00221A60FFF78AFB386108E0B5
:102D0800FFF786FB02463B69D31A022B01D903233E
:102D180084E1364B1B6803F00203002BF0D17B687B
:102D28001B6803F00803002B30D07B685B69002B1D
:102D380016D0304B01221A60FFF76AFB386108E0B1
:102D4800FFF766FB02463B69D31A022B01D903231E
:102D580064E1264B5B6F03F00203002BF0D015E013
:102D6800244B00221A60FFF753FB386108E0FFF795
:102D78004FFB02463B69D31A022B01D903234DE1CD
:102D88001A4B5B6F03F00203002BF0D17B681B68C2
:102D980003F00403002B00F0A0800023FB75134B05
:102DA8001B6C03F08053002B0FD10023BB600F4B2B
:102DB8001B6C0E4A43F0805313640C4B1B6C03F0DE
:102DC8008053BB60BB680123FB750B4B1B6803F486
:102DD8008073002B21D1084B1B68074A43F480738A
:102DE8001360FFF715FB386111E000BF003802409F
:102DF80000004742800E474200700040FFF708FB82
:102E080002463B69D31A022B01D9032306E1854BFD
:102E18001B6803F48073002BF0D07B689B68012B40
:102E280006D1814B1B6F804A43F0010313671CE0F6
:102E38007B689B68052B0CD17B4B1B6F7A4A43F050
:102E480004031367784B1B6F774A43F0010313673A
:102E58000BE0754B1B6F744A23F001031367724B29
:102E68001B6F714A23F0040313677B689B68002B70
:102E780015D0FFF7CDFA38610AE0FFF7C9FA024624
:102E88003B69D31A41F28832934201D90323C5E042
:102E9800654B1B6F03F00203002BEED014E0FFF725
:102EA800B7FA38610AE0FFF7B3FA02463B69D31A6A
:102EB80041F28832934201D90323AFE05A4B1B6F8A
:102EC80003F00203002BEED1FB7D012B05D1564BFD
:102ED8001B6C554A23F0805313647B689B69002B55
:102EE80000F09B80504B9B6803F00C03082B5CD0D0
:102EF8007B689B69022B41D14C4B00221A60FFF77B
:102F080087FA386108E0FFF783FA02463B69D31A6B
:102F1800022B01D9032381E0434B1B6803F00073A4
:102F2800002BF0D17B68DA697B681B6A1A437B68DF
:102F38005B6A9B011A437B689B6A5B08013B1B0425
:102F48001A437B68DB6A1B06374913434B60374BD0
:102F580001221A60FFF75CFA386108E0FFF758FAB7
:102F680002463B69D31A022B01D9032356E02E4BA4
:102F78001B6803F00073002BF0D04EE02B4B0022AF
:102F88001A60FFF745FA386108E0FFF741FA024690
:102F98003B69D31A022B01D903233FE0224B1B685C
:102FA80003F00073002BF0D137E07B689B69012B9D
:102FB80001D1012332E01C4B5B68FB607B689B6995
:102FC800012B28D0FB6803F480027B68DB699A42F6
:102FD80021D1FB6803F03F027B681B6A9A421AD131
:102FE800FA6847F6C07313407A68526A92019342AE
:102FF80011D1FB6803F440327B689B6A5B08013B94
:103008001B049A4207D1FB6803F070627B68DB6A95
:103018001B069A4201D0012300E000231846183706
:10302800BD4680BD00700040003802406000474245
:1030380080B584B000AF786039607B68002B01D11F
:103048000123CCE0684B1B6803F007033A689A42F7
:103058000CD9654B3A68D2B21A70634B1B6803F0FF
:1030680007033A689A4201D00123B8E07B681B68DD
:1030780003F00203002B20D07B681B6803F00403D5
:10308800002B05D0594B9B68584A43F4E053936092
:103098007B681B6803F00803002B05D0534B9B6823
:1030A800524A43F460439360504B9B6823F0F0020C
:1030B8007B689B684D4913438B607B681B6803F0F2
:1030C8000103002B44D07B685B68012B07D1474B79
:1030D8001B6803F40033002B19D101237FE07B68C0
:1030E8005B68022B03D07B685B68032B07D13F4BDF
:1030F8001B6803F00073002B09D101236FE03B4BE1
:103108001B6803F00203002B01D1012367E0374B52
:103118009B6823F003027B685B68344913438B6028
:10312800FFF776F9F8600AE0FFF772F90246FB68E4
:10313800D31A41F28832934201D903234FE02B4B33
:103148009B6803F00C027B685B689B009A42EBD19A
:10315800254B1B6803F007033A689A420CD2224BAE
:103168003A68D2B21A70204B1B6803F007033A681A
:103178009A4201D0012332E07B681B6803F0040304
:10318800002B08D0194B9B6823F4E0527B68DB685E
:10319800164913438B607B681B6803F00803002BF8
:1031A80009D0124B9B6823F460427B681B69DB00E3
:1031B8000E4913438B6000F021F802460B4B9B68C5
:1031C8001B0903F00F030A49CB5C22FA03F3094AEF
:1031D8001360094B1B681846FFF7D6F800231846FA
:1031E8001037BD4680BD00BF003C02400038024099
:1031F800B44F0008700000208C000020B0B584B0E7
:1032080000AF002179600021F960002139600021B8
:10321800B9605249896801F00C0108290DD00829C4
:1032280000F29480002902D0042903D08EE04C4B90
:10323800BB608EE04B4BBB608BE04849496801F0AE
:103248003F0179604549496801F48001002924D08B
:1032580042494968890908464FF0000140F2FF14C5
:103268004FF0000500EA040201EA05033D4901FBAD
:1032780003F0002101FB02F144183A49A2FB0101C5
:10328800631819467B681A464FF00003FCF798FF4D
:1032980002460B461346FB604AE0304B5B689B09CD
:1032A8001A464FF0000340F2FF104FF0000102EA07
:1032B800000403EA0105204629464FF000024FF0BA
:1032C80000034B0143EAD063420110461946001B34
:1032D80061EB05014FF000024FF000038B0143EA58
:1032E80090638201121A63EB01034FF000004FF064
:1032F8000001D90041EA5271D00002460B4612196A
:1033080045EB03034FF000004FF00001990241EA3A
:103318009251900202460B46104619467B681A469F
:103328004FF00003FCF74CFF02460B461346FB60C8
:103338000A4B5B681B0C03F0030301335B003B6023
:10334800FA683B68B2FBF3F3BB6002E0044BBB6076
:1033580000BFBB6818461037BD46B0BD00380240F4
:103368000024F40040787D0180B400AF034B1B6853
:103378001846BD465DF8047B704700BF700000200A
:1033880080B500AFFFF7F0FF0246054B9B689B0A2C
:1033980003F007030349CB5C22FA03F3184680BD08
:1033A80000380240C44F000880B500AFFFF7DCFFCB
:1033B8000246054B9B685B0B03F007030349CB5C94
:1033C80022FA03F3184680BD00380240C44F0008B3
:1033D80080B582B000AF78607B68002B01D10123F3
:1033E80041E07B6893F83D30DBB2002B06D17B6867
:1033F800002283F83C207868FEF70EFD7B680222E5
:1034080083F83D207B681A687B68043319461046A8
:1034180000F0B2FB7B68012283F846207B6801221A
:1034280083F83E207B68012283F83F207B680122D5
:1034380083F840207B68012283F841207B680122C1
:1034480083F842207B68012283F843207B680122AD
:1034580083F844207B68012283F845207B68012299
:1034680083F83D20002318460837BD4680BD00007C
:1034780080B485B000AF78607B6893F83D30DBB2EC
:10348800012B01D001234EE07B68022283F83D2006
:103498007B681B68DA687B681B6842F00102DA60A7
:1034A8007B681B68234A934222D07B681B68B3F170
:1034B800804F1DD07B681B681F4A934218D07B68D9
:1034C8001B681E4A934213D07B681B681C4A9342B0
:1034D8000ED07B681B681B4A934209D07B681B6827
:1034E800194A934204D07B681B68184A934211D149
:1034F8007B681B689B6803F00703FB60FB68062B6F
:1035080010D07B681B681A687B681B6842F0010250
:103518001A6007E07B681B681A687B681B6842F0C2
:1035280001021A60002318461437BD465DF8047B73
:10353800704700BF00000140000400400008004040
:10354800000C004000040140004001400018004009
:1035580080B582B000AF78607B68002B01D1012371
:1035680041E07B6893F83D30DBB2002B06D17B68E5
:10357800002283F83C20786800F039F87B68022242
:1035880083F83D207B681A687B6804331946104627
:1035980000F0F2FA7B68012283F846207B6801225A
:1035A80083F83E207B68012283F83F207B68012254
:1035B80083F840207B68012283F841207B68012240
:1035C80083F842207B68012283F843207B6801222C
:1035D80083F844207B68012283F845207B68012218
:1035E80083F83D20002318460837BD4680BD80B4C7
:1035F80083B000AF786000BF0C37BD465DF8047B30
:10360800704780B582B000AF78607B681B681B6923
:1036180003F00203022B22D17B681B68DB6803F0EE
:103628000203022B1BD17B681B686FF002021A6130
:103638007B6801221A777B681B689B6903F0030388
:10364800002B03D0786800F078FA05E0786800F07D
:103658006AFA786800F07BFA7B6800221A777B6840
:103668001B681B6903F00403042B22D17B681B68C9
:10367800DB6803F00403042B1BD17B681B686FF025
:1036880004021A617B6802221A777B681B689B69AF
:1036980003F44073002B03D0786800F04EFA05E07D
:1036A800786800F040FA786800F051FA7B680022E8
:1036B8001A777B681B681B6903F00803082B22D163
:1036C8007B681B68DB6803F00803082B1BD17B6849
:1036D8001B686FF008021A617B6804221A777B68FE
:1036E8001B68DB6903F00303002B03D0786800F044
:1036F80024FA05E0786800F016FA786800F027FAEE
:103708007B6800221A777B681B681B6903F010032B
:10371800102B22D17B681B68DB6803F01003102B89
:103728001BD17B681B686FF010021A617B68082246
:103738001A777B681B68DB6903F44073002B03D09E
:10374800786800F0FAF905E0786800F0ECF9786834
:1037580000F0FDF97B6800221A777B681B681B69FB
:1037680003F00103012B0ED17B681B68DB6803F0B3
:103778000103012B07D17B681B686FF001021A61F6
:103788007868FDF7E1FC7B681B681B6903F0800320
:10379800802B0ED17B681B68DB6803F08003802BCD
:1037A80007D17B681B686FF080021A61786800F0A7
:1037B80053FD7B681B681B6903F04003402B0ED147
:1037C8007B681B68DB6803F04003402B07D17B68EC
:1037D8001B686FF040021A61786800F0C2F97B68D4
:1037E8001B681B6903F02003202B0ED17B681B6824
:1037F800DB6803F02003202B07D17B681B686FF080
:1038080020021A61786800F01DFD00BF0837BD4628
:1038180080BD000080B586B000AFF860B9607A60FE
:103828000023FB75FB6893F83C30012B01D1022380
:10383800AEE0FB68012283F83C207B680C2B00F289
:103848009F8001A252F823F08538000889390008C2
:103858008939000889390008C538000889390008FD
:1038680089390008893900080739000889390008AA
:10387800893900088939000847390008FB681B683E
:10388800B968184600F018FAFB681B689A69FB6863
:103898001B6842F008029A61FB681B689A69FB681A
:1038A8001B6822F004029A61FB681B689969BB686F
:1038B8001A69FB681B680A439A6164E0FB681B6825
:1038C800B968184600F068FAFB681B689A69FB68D3
:1038D8001B6842F400629A61FB681B689A69FB687E
:1038E8001B6822F480629A61FB681B689969BB684F
:1038F8001B691A02FB681B680A439A6143E0FB686C
:103908001B68B968184600F0BDFAFB681B68DA69DD
:10391800FB681B6842F00802DA61FB681B68DA6919
:10392800FB681B6822F00402DA61FB681B68D9692E
:10393800BB681A69FB681B680A43DA6123E0FB6805
:103948001B68B968184600F011FBFB681B68DA6948
:10395800FB681B6842F40062DA61FB681B68DA697D
:10396800FB681B6822F48062DA61FB681B68D9690E
:10397800BB681B691A02FB681B680A43DA6102E02C
:103988000123FB7500BFFB68002283F83C20FB7D08
:1039980018461837BD4680BD80B584B000AF786042
:1039A80039600023FB737B6893F83C30012B01D10D
:1039B8000223B4E07B68012283F83C207B68022262
:1039C80083F83D207B681B689B68BB60BB6823F05D
:1039D8007703BB60BB6823F47F43BB607B681B68CD
:1039E800BA689A603B681B68B3F5005F3ED0B3F5D0
:1039F800005F00F28780B3F5805F00F08680B3F542
:103A0800805F7FD8702B1AD0702B7BD8602B50D05A
:103A1800602B77D8502B3CD0502B73D8402B58D0E4
:103A2800402B6FD8302B64D0302B6BD8202B60D034
:103A3800202B67D8002B5CD0102B5AD062E07B6813
:103A480018683B6899683B685A683B68DB6800F00F
:103A58005DFB7B681B689B68BB60BB6843F07703B2
:103A6800BB607B681B68BA689A604FE07B6818681F
:103A78003B6899683B685A683B68DB6800F046FB1E
:103A88007B681B689A687B681B6842F480429A606E
:103A98003CE07B6818683B6859683B68DB681A46F5
:103AA80000F0BAFA7B681B685021184600F013FB37
:103AB8002CE07B6818683B6859683B68DB681A46E5
:103AC80000F0D9FA7B681B686021184600F003FBF8
:103AD8001CE07B6818683B6859683B68DB681A46D5
:103AE80000F09AFA7B681B684021184600F0F3FA48
:103AF8000CE07B681A683B681B681946104600F0A2
:103B0800EAFA03E00123FB7300E000BF7B680122AF
:103B180083F83D207B68002283F83C20FB7B184615
:103B28001037BD4680BD80B483B000AF786000BF59
:103B38000C37BD465DF8047B704780B483B000AF96
:103B4800786000BF0C37BD465DF8047B704780B4D1
:103B580083B000AF786000BF0C37BD465DF8047BCA
:103B6800704780B483B000AF786000BF0C37BD46A3
:103B78005DF8047B7047000080B485B000AF7860C2
:103B880039607B681B68FB607B68404A934213D0AE
:103B98007B68B3F1804F0FD07B683D4A93420BD0CE
:103BA8007B683C4A934207D07B683B4A934203D0E8
:103BB8007B683A4A934208D1FB6823F07003FB60A4
:103BC8003B685B68FA681343FB607B682F4A934243
:103BD8002BD07B68B3F1804F27D07B682C4A934267
:103BE80023D07B682B4A93421FD07B682A4A934292
:103BF8001BD07B68294A934217D07B68284A934296
:103C080013D07B68274A93420FD07B68264A934299
:103C18000BD07B68254A934207D07B68244A93429D
:103C280003D07B68234A934208D1FB6823F440738E
:103C3800FB603B68DB68FA681343FB60FB6823F0B2
:103C480080023B685B691343FB607B68FA681A6013
:103C58003B689A687B68DA623B681A687B689A6294
:103C68007B680A4A934203D07B680C4A934203D18B
:103C78003B681A697B681A637B6801225A6100BF36
:103C88001437BD465DF8047B704700BF0000014053
:103C98000004004000080040000C004000040140FF
:103CA8000040014000440140004801400018004025
:103CB800001C00400020004080B487B000AF78604E
:103CC80039607B681B6A23F001027B681A627B6893
:103CD8001B6A7B617B685B683B617B689B69FB60F7
:103CE800FB6823F07003FB60FB6823F00303FB60B1
:103CF8003B681B68FA681343FB607B6923F0020387
:103D08007B613B689B687A6913437B617B68204AC7
:103D1800934203D07B681F4A93420CD17B6923F0FE
:103D280008037B613B68DB687A6913437B617B69C5
:103D380023F004037B617B68154A934203D07B68B8
:103D4800144A934211D13B6923F480733B613B6968
:103D580023F400733B613B685B693A6913433B6139
:103D68003B689B693A6913433B617B683A695A60CF
:103D78007B68FA689A613B685A687B685A637B6813
:103D88007A691A6200BF1C37BD465DF8047B70472C
:103D9800000001400004014080B487B000AF7860A3
:103DA80039607B681B6A23F010027B681A627B68A3
:103DB8001B6A7B617B685B683B617B689B69FB6016
:103DC800FB6823F4E043FB60FB6823F44073FB606B
:103DD8003B681B681B02FA681343FB607B6923F08E
:103DE80020037B613B689B681B017A6913437B61F5
:103DF8007B68224A934203D07B68214A93420DD1C3
:103E08007B6923F080037B613B68DB681B017A696F
:103E180013437B617B6923F040037B617B68174A0E
:103E2800934203D07B68164A934213D13B6923F42B
:103E380080633B613B6923F400633B613B685B69DA
:103E48009B003A6913433B613B689B699B003A6955
:103E580013433B617B683A695A607B68FA689A61E8
:103E68003B685A687B689A637B687A691A6200BF04
:103E78001C37BD465DF8047B704700BF0000014059
:103E88000004014080B487B000AF786039607B6877
:103E98001B6A23F480727B681A627B681B6A7B61E9
:103EA8007B685B683B617B68DB69FB60FB6823F0D0
:103EB8007003FB60FB6823F00303FB603B681B682F
:103EC800FA681343FB607B6923F400737B613B68EA
:103ED8009B681B027A6913437B617B68214A934282
:103EE80003D07B68204A93420DD17B6923F4006399
:103EF8007B613B68DB681B027A6913437B617B69E2
:103F080023F480637B617B68164A934203D07B6805
:103F1800154A934213D13B6923F480533B613B69B3
:103F280023F400533B613B685B691B013A69134307
:103F38003B613B689B691B013A6913433B617B68A2
:103F48003A695A607B68FA68DA613B685A687B6844
:103F5800DA637B687A691A6200BF1C37BD465DF870
:103F6800047B7047000001400004014080B487B022
:103F780000AF786039607B681B6A23F480527B68E5
:103F88001A627B681B6A3B617B685B687B617B6844
:103F9800DB69FB60FB6823F4E043FB60FB6823F408
:103FA8004073FB603B681B681B02FA681343FB60A5
:103FB8003B6923F400533B613B689B681B033A69E8
:103FC80013433B617B68124A934203D07B68114AD2
:103FD800934209D17B6923F480437B613B685B6929
:103FE8009B017A6913437B617B687A695A607B68B5
:103FF800FA68DA613B685A687B681A647B683A69D0
:104008001A6200BF1C37BD465DF8047B704700BFCD
:10401800000001400004014080B487B000AFF860A0
:10402800B9607A60FB681B6A7B61FB681B6A23F0D6
:104038000102FB681A62FB689B693B613B6923F0DC
:10404800F0033B617B681B013A6913433B617B6961
:1040580023F00A037B617A69BB6813437B61FB68C1
:104068003A699A61FB687A691A6200BF1C37BD46D3
:104078005DF8047B704780B487B000AFF860B96022
:104088007A60FB681B6A23F01002FB681A62FB68FF
:104098009B697B61FB681B6A3B617B6923F4704306
:1040A8007B617B681B037A6913437B613B6923F05F
:1040B800A0033B61BB681B013A6913433B61FB6882
:1040C8007A699A61FB683A691A6200BF1C37BD4673
:1040D8005DF8047B704780B485B000AF78603960C4
:1040E8007B689B68FB60FB6823F07003FB603A68A1
:1040F800FB68134343F00703FB607B68FA689A6028
:1041080000BF1437BD465DF8047B704780B487B0A4
:1041180000AFF860B9607A603B60FB689B687B61C0
:104128007B6923F47F437B613B681A027B681A43EF
:10413800BB6813437A6913437B61FB687A699A60A9
:1041480000BF1C37BD465DF8047B704780B485B05E
:1041580000AF786039607B6893F83C30012B01D15F
:1041680002235AE07B68012283F83C207B68022204
:1041780083F83D207B681B685B68FB607B681B6875
:104188009B68BB60FB6823F07003FB603B681B689F
:10419800FA681343FB607B681B68FA685A607B689F
:1041A8001B68214A934222D07B681B68B3F1804F79
:1041B8001DD07B681B681D4A934218D07B681B681A
:1041C8001B4A934213D07B681B681A4A93420ED04D
:1041D8007B681B68184A934209D07B681B68174A9A
:1041E800934204D07B681B68154A93420CD1BB6884
:1041F80023F08003BB603B685B68BA681343BB600D
:104208007B681B68BA689A607B68012283F83D2046
:104218007B68002283F83C20002318461437BD46EB
:104228005DF8047B704700BF0000014000040040B7
:1042380000080040000C004000040140004001401C
:104248000018004080B483B000AF786000BF0C371E
:10425800BD465DF8047B704780B483B000AF7860DA
:1042680000BF0C37BD465DF8047B704780B582B04F
:1042780000AF78607B68002B01D101233FE07B68A9
:1042880093F83D30DBB2002B06D17B68002283F81F
:104298003C207868FDF736FE7B68242283F83D20B1
:1042A8007B681B68DA687B681B6822F40052DA6056
:1042B800786800F07BFC7B681B681A697B681B6860
:1042C80022F490421A617B681B685A697B681B68F4
:1042D80022F02A025A617B681B68DA687B681B68CF
:1042E80042F40052DA607B6800221A647B6820225C
:1042F80083F83D207B68202283F83E20002318465F
:104308000837BD4680BD000080B5BAB000AF786000
:104318007B681B681B68C7F8E4307B681B68DB6830
:10432800C7F8E0307B681B685B69C7F8DC3000239E
:10433800C7F8D8300023C7F8D430D7F8E43003F0F2
:104348000F03C7F8D830D7F8D830002B0FD1D7F8DB
:10435800E43003F02003002B09D0D7F8E03003F055
:104368002003002B03D0786800F065FB56E2D7F8ED
:10437800D830002B00F0DE80D7F8DC3003F00103E2
:10438800002B06D1D7F8E03003F49073002B00F02F
:10439800D180D7F8E43003F00103002B0BD0D7F815
:1043A800E03003F48073002B05D07B681B6C43F06E
:1043B80001027B681A64D7F8E43003F00403002B89
:1043C8000BD0D7F8DC3003F00103002B05D07B6855
:1043D8001B6C43F002027B681A64D7F8E43003F0E0
:1043E8000203002B0BD0D7F8DC3003F00103002BBD
:1043F80005D07B681B6C43F004027B681A64D7F80D
:10440800E43003F00803002B11D0D7F8E03003F0B4
:104418002003002B05D1D7F8DC3003F00103002B73
:1044280005D07B681B6C43F008027B681A647B68C4
:104438001B6C002B00F0ED81D7F8E43003F020036B
:10444800002B08D0D7F8E03003F02003002B02D06F
:10445800786800F0F0FA7B681B685B6903F040033A
:10446800402B0CBF01230023DBB2C7F8D4307B6894
:104478001B6C03F00803002B03D1D7F8D430002BB2
:104488004FD0786800F0F8F97B681B685B6903F027
:104498004003402B41D17B681B681433C7F89C301C
:1044A800D7F89C3053E8003FC7F89830D7F89830D1
:1044B80023F04003C7F8D0307B681B681433D7F863
:1044C800D020C7F8A820C7F8A430D7F8A410D7F888
:1044D800A82041E80023C7F8A030D7F8A030002B67
:1044E800D9D17B689B6B002B13D07B689B6B7D4A73
:1044F8001A657B689B6B1846FEF717F90346002B75
:1045080016D07B689B6B1B6D7A68926B1046984738
:104518000EE0786800F09AF90AE0786800F096F9F9
:1045280006E0786800F092F97B6800221A6470E16E
:1045380000BF6EE17B681B6B012B40F04A81D7F806
:10454800E43003F01003002B00F04381D7F8E0308B
:1045580003F01003002B00F03C810023BB607B6854
:104568001B681B68BB607B681B685B68BB60BB68BB
:104578007B681B685B6903F04003402B40F0B48004
:104588007B689B6B1B685B68A7F8BE30B7F8BE30CA
:10459800002B00F040817B689B8DB7F8BE209A42C3
:1045A80080F039817B68B7F8BE20DA857B689B6B21
:1045B800DB69B3F5807F00F088807B681B680C336B
:1045C800C7F88830D7F8883053E8003FC7F88430F8
:1045D800D7F8843023F48073C7F8B8307B681B6839
:1045E8000C33D7F8B820C7F89420C7F89030D7F81C
:1045F8009010D7F8942041E80023C7F88C30D7F8FA
:104608008C30002BD9D17B681B6814337B677B6F98
:1046180053E8003F3B673B6F23F00103C7F8B43012
:104628007B681B681433D7F8B420C7F88020FB6771
:10463800F96FD7F8802041E80023BB67BB6F002BD8
:10464800E1D17B681B6814333B663B6E53E8003F3F
:10465800FB65FB6D23F04003C7F8B0307B681B682F
:104668001433D7F8B020FA66BB66B96EFA6E41E823
:1046780000237B667B6E002BE3D17B68202283F8C6
:104688003E207B6800221A637B681B680C33FB643E
:10469800FB6C53E8003FBB64BB6C23F01003C7F806
:1046A800AC307B681B680C33D7F8AC20BA657B65E7
:1046B800796DBA6D41E800233B653B6D002BE3D172
:1046C8007B689B6B1846FDF7C0FF7B689A8D7B68FB
:1046D800DB8D9BB2D31A9BB21946786800F0C0F8FC
:1046E80099E000BF474900087B689A8D7B68DB8D9D
:1046F8009BB2D31AA7F8CE307B68DB8D9BB2002B18
:1047080000F08B80B7F8CE30002B00F086807B68F5
:104718001B680C33BB63BB6B53E8003F7B637B6B4D
:1047280023F49073C7F8C8307B681B680C33D7F83C
:10473800C8207A643B64396C7A6C41E80023FB63D7
:10474800FB6B002BE3D17B681B6814337B627B6AAD
:1047580053E8003F3B623B6A23F00103C7F8C430CB
:104768007B681B681433D7F8C4203A63FB62F96A84
:104778003A6B41E80023BB62BB6A002BE3D17B683C
:10478800202283F83E207B6800221A637B681B681E
:104798000C333B613B6953E8003FFB60FB6823F047
:1047A8001003C7F8C0307B681B680C33D7F8C020EB
:1047B800FA61BB61B969FA6941E800237B617B69E9
:1047C800002BE3D1B7F8CE301946786800F048F8E6
:1047D80023E0D7F8E43003F08003002B09D0D7F8A2
:1047E800E03003F08003002B03D0786800F0BBF8BA
:1047F80014E0D7F8E43003F04003002B0ED0D7F8CC
:10480800E03003F04003002B08D0786800F0FBF894
:1048180004E000BF02E000BF00E000BFE837BD468B
:1048280080BD00BF80B483B000AF786000BF0C3794
:10483800BD465DF8047B704780B483B000AF7860F4
:1048480000BF0C37BD465DF8047B704780B483B069
:1048580000AF786000BF0C37BD465DF8047B704739
:1048680080B483B000AF78600B467B8000BF0C3704
:10487800BD465DF8047B704780B495B000AF7860A2
:104888007B681B680C337B637B6B53E8003F3B639F
:104898003B6B23F49073FB647B681B680C33FA6CE6
:1048A8003A64FB63F96B3A6C41E80023BB63BB6B6A
:1048B800002BE5D17B681B6814333B623B6A53E8E5
:1048C800003FFB61FB6923F00103BB647B681B6845
:1048D8001433BA6CFA62BB62B96AFA6A41E8002317
:1048E8007B627B6A002BE5D17B681B6B012B19D19E
:1048F8007B681B680C33FB60FB6853E8003FBB60B8
:10490800BB6823F010037B647B681B680C337A6CEC
:10491800BA617B617969BA6941E800233B613B6907
:10492800002BE5D17B68202283F83E207B6800229B
:104938001A6300BF5437BD465DF8047B704780B5E5
:1049480084B000AF78607B689B6BFB60FB680022DB
:10495800DA85FB680022DA84F868FFF777FF00BF82
:104968001037BD4680BD80B485B000AF78607B68E5
:1049780093F83D30DBB2212B3ED17B689B68B3F5C1
:10498800805F14D17B681B69002B10D17B681B6A80
:10499800FB60FB681B881A467B681B68C2F3080229
:1049A8005A607B681B6A9A1C7B681A6208E07B68FD
:1049B8001B6A591C7A6811621A787B681B685A60EE
:1049C8007B68DB8C9BB2013B9BB27A681946D18429
:1049D800002B0FD17B681B68DA687B681B6822F0A4
:1049E8008002DA607B681B68DA687B681B6842F0C3
:1049F8004002DA60002300E0022318461437BD465F
:104A08005DF8047B704780B582B000AF78607B6842
:104A18001B68DA687B681B6822F04002DA607B68F2
:104A2800202283F83D207868FFF7FCFE0023184613
:104A38000837BD4680BD80B58CB000AF78607B6814
:104A480093F83E30DBB2222B40F0AB807B689B684A
:104A5800B3F5805F17D17B681B69002B13D1002346
:104A6800FB627B689B6ABB627B681B685B689BB266
:104A7800C3F308039AB2BB6A1A807B689B6A9A1CC4
:104A88007B689A6226E07B689B6AFB620023BB62B4
:104A98007B689B68B3F5805F07D07B689B68002BB9
:104AA8000AD17B681B69002B06D17B681B685B6891
:104AB800DAB2FB6A1A7008E07B681B685B68DBB2D5
:104AC80003F07F03DAB2FB6A1A707B689B6A5A1C90
:104AD8007B689A627B68DB8D9BB2013B9BB27A68EC
:104AE8001946D185002B5AD17B681B68DA687B6828
:104AF8001B6822F02002DA607B681B68DA687B6832
:104B08001B6822F48072DA607B681B685A697B68CC
:104B18001B6822F001025A617B68202283F83E203C
:104B28007B681B6B012B35D17B6800221A637B687D
:104B38001B680C337B617B6953E8003F3B613B6931
:104B480023F010037B627B681B680C337A6A3A6235
:104B5800FB61F9693A6A41E80023BB61BB69002B34
:104B6800E5D17B681B681B6803F01003102B0AD182
:104B78000023FB607B681B681B68FB607B681B6805
:104B88005B68FB60FB687B689B8D19467868FFF75C
:104B980067FE02E07868FFF74FFE002302E000237B
:104BA80000E0022318463037BD4680BD2DE9F04F9E
:104BB8009FB000AFF866FB6E1B681B6923F440507A
:104BC800FB6ED968FB6E1A6840EA01031361FB6E3D
:104BD8009A68FB6E1B691A43FB6E5B691A43FB6E8E
:104BE800DB6913433B67FB6E1B68DB6823F41641E4
:104BF80021F00C01FB6E1A683B6F0B43D360FB6E10
:104C08001B685B6923F44070FB6E9969FB6E1A6838
:104C180040EA01035361FB6E1A68C54B9A4204D0FF
:104C2800FB6E1A68C34B9A4203D1FEF7BDFB786747
:104C380002E0FEF7A5FB7867FB6EDB69B3F5004F72
:104C480040F0B6807B6F1C464FF0000522462B468D
:104C5800911839645B417B64D7E91023121945EB3D
:104C680003034FF000004FF00001D90041EA5271F0
:104C7800D00002460B46111939666B417B66FB6E04
:104C88005B681A464FF000039118B9635B41FB63F8
:104C9800D7E90E23D7E91801FBF792FA02460B462B
:104CA800A54BA3FB02235B091E017B6F1C464FF03B
:104CB800000522462B46911839635B417B63D7E98F
:104CC8000C23121945EB03034FF000004FF00001CD
:104CD800D90041EA5271D00002460B461119B96554
:104CE8006B41FB65FB6E5B681A464FF00003911839
:104CF800B9625B41FB62D7E90A23D7E91601FBF7E2
:104D08005FFA02460B468C4BA3FB02135B09642136
:104D180001FB03F3D31ADB003233874AA2FB0323D8
:104D28005B095B0003F4F8731E447B6F18464FF071
:104D3800000102460B4694183C625B417B62D7E94E
:104D48000823121841EB03034FF000044FF000054D
:104D5800DD0045EA5275D40022462B4614183C65FE
:104D68004B417B65FB6E5B681A464FF00003911858
:104D7800B9615B41FB61D7E90623D7E91401FBF769
:104D88001FFA02460B466C4BA3FB02135B09642116
:104D980001FB03F3D31ADB003233674AA2FB032378
:104DA8005B0903F00702FB6E1B6832449A60B9E0A6
:104DB8007B6F1C464FF0000522462B46911839613F
:104DC8005B417B61D7E90423121945EB03034FF0DC
:104DD80000004FF00001D90041EA5271D0000246AC
:104DE8000B4612EB040843EB0509FB6E5B6818469B
:104DF8004FF000014FF000024FF000038B0043EA30
:104E08009073820040464946FBF7DAF902460B46A2
:104E1800494BA3FB02235B091E017B6F18464FF029
:104E2800000102460B469418BC605B41FB60D7E961
:104E38000223121841EB03034FF000044FF0000562
:104E4800DD0045EA5275D40022462B461418BC648E
:104E58004B41FB64FB6E5B6818464FF000014FF056
:104E680000024FF000038B0043EA90738200D7E9F9
:104E78001201FBF7A5F902460B462F4BA3FB0213C1
:104E88005B09642101FB03F3D31A1B0132332A4A5D
:104E9800A2FB03235B0903F0F0031E447B6F184653
:104EA8004FF0000102460B4694183C605B417B6062
:104EB800D7E90023121841EB03034FF000044FF029
:104EC8000005DD0045EA5275D40022462B4612EB58
:104ED800000A43EB010BFB6E5B6818464FF00001BC
:104EE8004FF000024FF000038B0043EA90738200FA
:104EF80050465946FBF764F902460B460E4BA3FB96
:104F080002135B09642101FB03F3D31A1B0132333B
:104F1800094AA2FB03235B0903F00F02FB6E1B681F
:104F280032449A6000BF7C37BD46BDE8F08F00BFB1
:104F380000100140001401401F85EB5170B50D4D64
:104F48000D4C641BA4100026A64209D10B4D0C4C35
:104F580000F020F8641BA4100026A64205D170BDFD
:104F680055F8043B98470136EEE755F8043B984757
:104F78000136F2E7D44F0008D44F0008D44F000898
:104F8800D84F000802440346934200D1704703F803
:104F9800011BF9E7F8B500BFF8BC08BC9E4670478E
:0C4FA800F8B500BFF8BC08BC9E4670477E
:104FB40000000000000000000102030406070809C5
:084FC4000000000001020304DB
:084FCC002CB2FF7F0100000080
:044FD400AD01000823
:044FD8008901000843
:104FDC0000000240000002400000024000010002FC
:104FEC0000040000010000000100000001000000AE
:104FFC0001000000010000000100000001000000A1
:10500C000100000001000000010000000100000090
:10501C0001000000C8000000C8000000C80000002B
:10502C000D00000012000000120000000100000042
:10503C00020000000300000004000000010000005A
:10504C000024F4000700000005000000020000002E
:10505C00050000000300000002000000100000002A
:04506C00010000003F
:04000005080022F9D4
:00000001FF
