:020000040800F2
:1000000000000220ED200008E51B0008EB1B0008A3
:10001000F11B0008F71B0008FD1B00080000000092
:10002000000000000000000000000000031C0008A9
:10003000111C0008000000001F1C00082D1C0008F7
:100040003D2100083D2100083D2100083D21000818
:100050003D2100083D2100083D2100083D21000808
:100060003D2100083D2100083D2100083D210008F8
:100070003D2100083D2100083D2100083D210008E8
:100080003D2100083D2100083D2100083D210008D8
:100090003D2100083D2100083D2100083D210008C8
:1000A0003D2100083D2100083D2100083D210008B8
:1000B000391C00084D1C00083D2100083D210008A6
:1000C0003D2100083D2100083D2100083D21000898
:1000D0003D210008611C00083D2100083D21000869
:1000E0003D2100083D2100083D2100083D21000878
:1000F0003D2100083D2100083D2100083D21000868
:100100003D2100083D2100083D2100083D21000857
:100110003D2100083D2100083D2100083D21000847
:100120003D2100083D2100083D2100083D21000837
:100130003D2100083D2100083D2100083D21000827
:100140003D2100083D2100083D2100083D21000817
:100150003D2100083D2100083D2100083D21000807
:100160003D2100083D2100083D2100083D210008F7
:100170003D2100083D2100083D210008000000004D
:080180003D2100083D210008AB
:1001880010B5054C237833B9044B13B10448AFF3C9
:1001980000800123237010BD7800002000000000BB
:1001A8002452000808B5034B1BB103490348AFF3B9
:1001B800008008BD000000007C00002024520008D8
:1001C80053B94AB9002908BF00281CBF4FF0FF31B6
:1001D8004FF0FF3000F06EB9ADF1080C6DE904CEB8
:1001E80000F006F8DDF804E0DDE9022304B070470A
:1001F8002DE9F047089D04468C46002B40F083808B
:100208008A42174647D9B2FA82F242B1C2F12000B7
:1002180024FA00F09140974040EA010C94404FEADC
:100228001748230CBCFBF8F61FFA87FE08FB16C11B
:1002380043EA014306FB0EF1994209D9FB1806F17E
:10024800FF3080F01981994240F21681023E3B440A
:100258005B1AA4B2B3FBF8F008FB103344EA03447A
:1002680000FB0EFEA64509D93C1900F1FF3380F0CA
:100278000581A64540F2028102383C4440EA064026
:10028800A4EB0E0400261DB1D4400023C5E90043A9
:100298003146BDE8F08702B9FFDEB2FA82F2002AE1
:1002A80050D1CB1B4FEA174E1FFA87F80126B3FB34
:1002B800FEFC210C0EFB1C3341EA034108FB0CF346
:1002C8008B4207D979180CF1FF3002D28B4200F229
:1002D800E9808446C91AA3B2B1FBFEF00EFB1011E7
:1002E80043EA014408FB00F8A04507D93C1900F18E
:1002F800FF3302D2A04500F2D9801846A4EB0804C7
:1003080040EA0C40BFE78B4209D9002D00F0B180CC
:100318000026C5E9000130463146BDE8F087B3FA4A
:1003280083F6002E4AD18B4202D3824200F2B88073
:10033800841A61EB030101208C46002DA8D0C5E981
:10034800004CA5E7C2F1200320FA03F6974001FA12
:1003580002F04FEA174ED9403043030CB1FBFEF6CA
:100368001FFA87F80EFB161143EA014306FB08F152
:10037800994204FA02F409D9FB1806F1FF3C80F00F
:100388008D80994240F28A80023E3B445B1A81B2DA
:10039800B3FBFEF00EFB103341EA034100FB08F308
:1003A8008B4207D9791800F1FF3C73D28B4271D97F
:1003B80002383944CB1A40EA064678E7C6F1200CE1
:1003C80003FA06F422FA0CF31C4320FA0CF701FA9C
:1003D80006F34FEA144E21FA0CF11F433B0CB1FB14
:1003E800FEF91FFA84F80EFB191143EA014109FBD3
:1003F80008FA8A4502FA06F200FA06F308D96118E3
:1004080009F1FF3048D28A4546D9A9F102092144A9
:10041800A1EB0A01BFB2B1FBFEF00EFB101147EAD7
:10042800014700FB08F8B84507D9E71900F1FF3183
:100438002ED2B8452CD90238274440EA0940A7EB08
:100448000807A0FB02894F45C64649461AD317D06C
:100458005DB1B3EB0E0267EB010707FA0CFCF24043
:100468004CEA0202F740C5E9002700263146BDE8FC
:10047800F0872E4628460BE70646E9E61846FDE6CD
:100488004345E5D2B8EB020E69EB04010138DFE71A
:100498000846D2E760468DE78146B9E7664675E7C4
:1004A80030464AE7ACF1020C394413E702383C44C1
:1004B80024E700BF704700BF80B483B000AF0023BB
:1004C8007B6011E00D4A7B68002142F823100C4A3A
:1004D8007B68002142F823100A4A7B68002142F811
:1004E80023107B6801337B607B68022BEADD00BF49
:1004F80000BF0C37BD465DF8047B7047AC00002098
:10050800A00000209400002080B582B000AF786081
:100518007B68022B00F0AB807B68022B00F3EC8039
:100528007B68002B03D07B68012B5BD0E4E0764A24
:100538007B6852F82330032B52D801A252F823F0DB
:10054800590500087D050008A1050008C505000833
:100558006E4A7B6852F82330002B02D0012B04D05E
:1005680007E0FFF7A9FF0523CAE0FFF7A5FF0C2363
:10057800C6E036E0654A7B6852F82330002B02D08B
:10058800012B04D007E0FFF797FF0523B8E0FFF73A
:1005980093FF0223B4E024E05C4A7B6852F82330DE
:1005A800012B02D0022B04D007E0FFF785FF0323BD
:1005B800A6E0FFF781FF0323A2E012E0534A7B681D
:1005C80052F82330022B02D0032B04D007E0FFF7A8
:1005D80073FF042394E0FFF76FFF042390E000E02B
:1005E80000BF8DE0484A7B6852F82330022B2AD09E
:1005F800022B3ADC002B02D0012B12D035E0434A03
:100608007B6852F82330002B02D0012B04D007E07E
:10061800FFF752FF082373E0FFF74EFF0C236FE04C
:1006280024E03A4A7B6852F82330002B02D0012B91
:1006380004D007E0FFF740FF082361E0FFF73CFF25
:1006480006235DE012E0314A7B6852F82330012B23
:1006580002D0022B04D007E0FFF72EFF07234FE05C
:10066800FFF72AFF07234BE000E000BF48E0264AD7
:100678007B6852F82330022B2AD0022B3ADC002B5D
:1006880002D0012B12D035E0204A7B6852F8233083
:10069800002B02D0012B04D007E0FFF70DFF0B233E
:1006A8002EE0FFF709FF0C232AE024E0174A7B68B5
:1006B80052F82330002B02D0012B04D007E0FFF7BB
:1006C800FBFE0B231CE0FFF7F7FE092318E012E0FE
:1006D8000E4A7B6852F82330012B02D0022B04D03B
:1006E80007E0FFF7E9FE0A230AE0FFF7E5FE0A2321
:1006F80006E000E000BF03E0FFF7DEFE0C23FFE7A3
:1007080018460837BD4680BDA0000020AC00002078
:1007180080B582B000AF00237B60C1E0654A7B688A
:1007280052F8232064497B6841F82320634A7B6898
:1007380052F823205F497B6841F82320604A7B6890
:1007480052F823205F497B6831F813301946104668
:1007580002F0A4F803461946584A7B6842F8231069
:10076800554A7B6852F8232052497B6851F8233058
:100778009A4240F092804F4A7B6852F823204F49B2
:100788007B6851F823309A4240F087804E4A7B6854
:1007980052F8232048497B6851F823309A4231D0D7
:1007A800494A7B6852F82330002B02D0012B14D021
:1007B80073E0454A7B68012142F82310434A7B686D
:1007C80052F823305A1C41497B6841F82320404A9B
:1007D8007B680A2142F823105FE03B4A7B680021CE
:1007E80042F823103B4A7B6852F823305A1C394997
:1007F8007B6841F82320384A7B684FF4967142F8A9
:1008080023104AE0304A7B6852F82330012B19D173
:100818002F4A7B6852F82330002B3EDD2C4A7B6838
:1008280052F823305A1E2A497B6841F82320284A67
:100838007B6852F82330002B2FDC7868FFF764FEC2
:10084800034632E0244A7B6852F82330002B24DD2B
:10085800214A7B6852F823305A1E1F497B6841F8A9
:1008680023201D4A7B6852F82330002B15DC7B6857
:10087800002B05D1184A7B684FF4967142F8231073
:100888007B68012B04D1144A7B68142142F8231099
:100898007868FFF739FE034607E07B6801337B6021
:1008A8007B68022B7FF73AAF0C2318460837BD4602
:1008B80080BD00BF2C000020200000203800002050
:1008C800000000200C00002014000020AC000020D4
:1008D80094000020A00000204400002080B483B0D1
:1008E80000AF786039603B68022B11D03B68022B5F
:1008F80012DC3B68002B03D03B68012B04D00BE0D3
:10090800094A7B68136008E0074A7B68536004E083
:10091800054A7B68936000E000BF00BF0C37BD4606
:100928005DF8047B704700BFB800002080B582B036
:1009380000AF786000217868FFF7D0FF00BF083764
:10094800BD4680BD80B582B000AF7860012178686F
:10095800FFF7C4FF00BF0837BD4680BD80B582B031
:1009680000AF786002217868FFF7B8FF00BF08374A
:10097800BD4680BD80B500AF0521082000F064FEAB
:100988000521092000F060FE00BF80BD80B500AFE2
:100998000321082000F058FE0321092000F054FE2E
:1009A80000BF80BD80B500AF0421082000F04CFED8
:1009B8000421092000F048FE00BF80BD80B500AFCB
:1009C8000621082000F040FE0621092000F03CFE28
:1009D80000BF80BD80B500AF0721082000F034FEBD
:1009E8000721092000F030FE00BF80BD80B500AFB0
:1009F8000021082000F028FE00BF80BD80B500AFB0
:100A08000221082000F020FE00BF80BD80B500AFA5
:100A18000121082000F018FE00BF80BD80B500AF9E
:100A28000021092000F010FE00BF80BD80B500AF96
:100A38000221092000F008FE00BF80BD80B500AF8C
:100A48000121092000F000FE00BF80BD80B500AF85
:100A58000A2000F0FBFE00BF80BD80B500AF0B2070
:100A680000F0F4FE00BF80BD80B500AF0C2000F0A0
:100A7800EDFE00BF80BD000080B500AF154B1B68C0
:100A8800032B1AD0032B22DC012B02D0022B0AD015
:100A98001DE0114B1B68002B02DCFFF7D7FF17E0A6
:100AA800FFF7DBFF14E00C4B1B68002B02DCFFF7A1
:100AB800CDFF0DE0FFF7D8FF0AE0074B1B68002BBE
:100AC80002DCFFF7C3FF03E0FFF7CEFF00E000BF43
:100AD80000BF80BDC8000020D400002080B500AF52
:100AE8001D4B1B68013B032B32D801A252F823F09F
:100AF800090B0008450B0008310B00081D0B000806
:100B0800164B1B68002B02DCFFF7A0FF21E0FFF764
:100B1800A4FF1EE0114B1B68002B02DCFFF796FFB9
:100B280017E0FFF7A1FF14E00C4B1B68002B02DC59
:100B3800FFF78CFF0DE0FFF797FF0AE0074B1B68F4
:100B4800002B02DCFFF782FF03E0FFF786FF00E0DF
:100B580000BF00BF80BD00BFC4000020D40000203B
:100B680080B500AF01F0E8FA00F0DEF800F0FCF91B
:100B780000F038F900F082F901F0DAF9644802F07F
:100B880071FB0421634802F037FC012000F0F4FEF9
:100B9800642000F005FF322000F016FF5E4B1B6852
:100BA800012B40F09280012000F0E6FEFFF7B0FD37
:100BB8000346023B082B00F28A8001A252F823F078
:100BC800ED0B0008F90B0008050C0008110C0008D3
:100BD8003B0C0008670C0008830C00089F0C0008F9
:100BE800C30C00084D4B06221A6000F001FD6FE0AF
:100BF8004A4B07221A6000F01DFB69E0474B0822A8
:100C08001A6001F0B3F863E0444B1B68082B08D066
:100C1800082B0CDC052B07D0072B08D100F05EFA57
:100C280006E001F035F803E0FFF7C8FE00E000BF7A
:100C38004EE03A4B1B68082B0CD0082B0DDC062B1A
:100C480002D0072B03D008E000F0D2FC06E000F049
:100C580045FA03E001F09CF800E000BF38E02F4BB4
:100C68001B68052B04D0082B05D101F0EFF803E031
:100C7800FFF7A4FE00E000BF2AE0284B1B68052B05
:100C880004D0082B05D101F083F803E0FFF796FEA6
:100C980000E000BF1CE0214B1B68062B02D0072B8D
:100CA80005D009E000F0BCFCFFF7E6FE04E000F028
:100CB800D1FAFFF713FF00BF0AE0184B05221A60AC
:100CC800FFF77CFEFFF7C2FE02E000BF00E000BFB6
:100CD800134B1B68012B0AD1642000F061FE0F4BF7
:100CE8001B68062B03D100F0DBFAFFF7C5FE0D4B9E
:100CF8001B68012B7FF452AF322000F065FE074BD2
:100D08001B68082B7FF44AAF01F0F2F846E700BFF2
:100D180024010020DC00002094010020680000204D
:100D28008C0100209C01002080B594B000AF07F131
:100D3800200330220021184604F026FA07F10C039C
:100D480000221A605A609A60DA601A610023BB6058
:100D5800224B1B6C214A43F0805313641F4B1B6CBE
:100D680003F08053BB60BB6800237B601C4B1B688F
:100D78001B4A43F480431360194B1B6803F48043F8
:100D88007B607B6802233B620123FB6210233B6389
:100D98000023BB6307F12003184601F0CBFD03468F
:100DA800002B01D000F088F90F23FB6000233B6182
:100DB80080237B610023BB610023FB6107F10C03E7
:100DC8000021184602F02EF80346002B01D000F04F
:100DD80073F900BF5037BD4680BD00BF00380240E0
:100DE8000070004080B586B000AF07F1080300220C
:100DF8001A605A609A60DA603B4600221A605A60AC
:100E08001D4B4FF080421A601B4B41F63F725A60EF
:100E1800194B00229A60184B0922DA60164B0022FF
:100E28001A61154B00229A61134802F0CBF9034668
:100E3800002B01D000F040F94FF48053BB6007F15C
:100E4800080319460C4802F069FD0346002B01D03F
:100E580000F032F900233B6000237B603B461946D3
:100E6800054803F05BF90346002B01D000F024F994
:100E780000BF1837BD4680BD2401002080B58EB064
:100E880000AF07F1280300221A605A609A60DA60FE
:100E980007F1200300221A605A603B1D00221A60E5
:100EA8005A609A60DA601A615A619A612C4B2D4A2D
:100EB8001A602B4B07225A60294B00229A60284B54
:100EC80040F22B12DA60264B00221A61244B0022D2
:100ED8009A61234802F076F90346002B01D000F00E
:100EE800EBF84FF48053BB6207F1280319461C48FE
:100EF80002F014FD0346002B01D000F0DDF818487D
:100F080002F020FA0346002B01D000F0D5F80023A8
:100F18003B6200237B6207F120031946104803F067
:100F2800FDF80346002B01D000F0C6F860237B6073
:100F3800C823BB600023FB6000237B613B1D0422A8
:100F48001946074802F028FC0346002B01D000F0A0
:100F5800B3F8034800F0B8FD00BF3837BD4680BD80
:100F6800DC0000200004004080B588B000AF07F125
:100F78000C0300221A605A609A60DA601A61002332
:100F8800BB60444B1B6B434A43F001031363414B63
:100F98001B6B03F00103BB60BB6800237B603D4B08
:100FA8001B6B3C4A43F0020313633A4B1B6B03F081
:100FB80002037B607B6800233B60364B1B6B354A22
:100FC80043F008031363334B1B6B03F008033B60C8
:100FD8003B6800227F21304801F078FC01223F2144
:100FE8002E4801F073FC00224FF4F8512B4801F011
:100FF8006DFC00224FF4C061294801F067FC7F2393
:10100800FB6001233B6100237B610023BB6107F187
:101018000C031946204801F0A5FA3F23FB60012381
:101028003B6100237B610323BB6107F10C03194675
:101038001A4801F097FA4FF4F853FB6001233B611B
:1010480000237B610023BB6107F10C031946134899
:1010580001F088FA4FF4C063FB6001233B61002371
:101068007B610323BB6107F10C0319460C4801F0AF
:1010780079FA4FF4E063FB6000233B6101237B6155
:1010880007F10C031946044801F06CFA00BF203739
:10109800BD4680BD00380240000002400004024006
:1010A800000C024080B582B000AF786000F00CFC04
:1010B80000BF0837BD4680BD80B400AF72B600BF20
:1010C800FEE7000080B400AF034B00221A6000BFA7
:1010D800BD465DF8047B7047C400002080B500AFB2
:1010E800514B1B68042B00F29B8001A252F823F09D
:1010F8000D1100082711000863110008A511000848
:10110800E7110008484B01221A600220FFF726FC6D
:10111800FFF754FCFFF76AFCFFF790FC81E0424BB5
:1011280002221A60404B1A68404B1B689A420BD146
:101138003F4B1B68002B03DD3D4B1B68013B01E067
:101148003B4B1B683A4A1360FFF7C8FCFFF736FCB5
:10115800FFF74CFCFFF76AFC63E0334B03221A608D
:10116800314B1A68314B1B689A420BD1304B1B68C4
:10117800002B03DD2E4B1B68013B01E02C4B1B6849
:101188002B4A1360FFF7AAFC0220FFF7E7FBFFF7E3
:1011980015FCFFF73BFCFFF741FC42E0224B042221
:1011A8001A60214B1A68214B1B689A420BD1204BBD
:1011B8001B68002B03DD1E4B1B68013B01E01C4B29
:1011C8001B681B4A1360FFF789FC0220FFF7C6FB68
:1011D800FFF7F4FBFFF712FCFFF720FC21E0124BAE
:1011E80001221A60104B1A68104B1B689A420BD1E7
:1011F8000F4B1B68002B03DD0D4B1B68013B01E007
:101208000B4B1B680A4A1360FFF768FC0220FFF7C4
:10121800A5FBFFF7D3FBFFF7E9FBFFF70FFC00E0A7
:1012280000BF00BF80BD00BFC4000020D800002060
:10123800D400002080B500AF054B00221A60FFF7EC
:1012480005FCFFF73FFFFFF749FF00BF80BD00BF68
:10125800D400002080B400AF054B03221A60054B70
:101268001B68054A136000BFBD465DF8047B7047E4
:10127800D4000020C4000020D800002080B400AFB3
:10128800054B00221A60054B00221A6000BFBD46BC
:101298005DF8047B704700BFC8000020CC00002028
:1012A80080B500AFA24B1B68032B00F2D18001A2CE
:1012B80052F823F0CD120008EF1200086913000855
:1012C800E11300089B4B1B689B4A1360984B012253
:1012D8001A60FFF78BFB984B1B681846FFF726FB35
:1012E80000F092FEBBE0944B1B68002B40F3B280E9
:1012F800914B1B68013B904A13608F4B1B68002B76
:1013080024DC8E4B1B688E4A1360894B02221A60BC
:101318008C4B1A68864B1B689A420BD18A4B1B6808
:10132800002B03DD884B1B68013B01E0864B1B68E3
:10133800854A1360FFF7A0FBFFF768FB804B1B682B
:101348001846FFF7F3FA00F05FFE83E0FFF74EFB65
:10135800794B1B681846FFF7E9FA00F055FE79E06B
:10136800774B1B68002B77DD754B1B68013B744A74
:101378001360734B1B68002B24DC744B1B68744A86
:1013880013606B4B03221A606E4B1A68684B1B681C
:101398009A420BD16C4B1B68002B03DD6A4B1B6810
:1013A800013B01E0684B1B68674A1360FFF764FB69
:1013B800FFF724FB664B1B681846FFF7B7FA00F0E7
:1013C80023FE49E0FFF722FB5D4B1B681846FFF739
:1013D800ADFA00F019FE3FE05D4B1B68002B3DDDC8
:1013E8005B4B1B68013B5A4A1360594B1B68002B27
:1013F80024DC504B1B68504A13604D4B01221A6085
:10140800504B1A684A4B1B689A420BD14E4B1B68CB
:10141800002B03DD4C4B1B68013B01E04A4B1B686A
:10142800494A1360FFF728FBFFF7E0FA424B1B68B5
:101438001846FFF77BFA00F0E7FD0FE0FFF7DEFA4A
:10144800434B1B681846FFF771FA00F0DDFD05E015
:1014580000BF04E000BF02E000BF00E000BF3D4B5A
:101468001B68032B00F2B08001A252F823F000BFE2
:101478008914000881150008AB140008FD14000841
:10148800344B02221A602D4B1B68334A1360FFF756
:10149800D5FA314B1B681846FFF754FA00F072FD75
:1014A80099E02D4B1B68002B40F390802A4B1B685A
:1014B800013B294A1360284B1B68002B10DC234B87
:1014C8001B68264A1360234B03221A60FFF7AEFA03
:1014D800224B1B681846FFF735FA00F053FD75E0FC
:1014E800FFF7ACFA1C4B1B681846FFF72BFA00F005
:1014F80049FD6BE0194B1B68002B69DD174B1B6816
:10150800013B164A1360154B1B68002B2ADC094B5C
:101518001B68134A13600F4B01221A60FFF77EFA0B
:101528000F4B1B681846FFF70DFA00F02BFD4FE034
:10153800C80000205C00002080010020600000201E
:1015480070010020D8000020D40000206400002092
:1015580074010020CC0000207C01002078010020CC
:101568006C010020FFF762FA1C4B1B681846FFF756
:10157800E9F900F007FD2BE0194B1B68002B29DD6A
:10158800174B1B68013B164A1360154B1B68002B51
:1015980010DC144B1B68144A1360144B02221A60A7
:1015A800FFF74CFA104B1B681846FFF7CBF900F011
:1015B800E9FC0FE0FFF732FA094B1B681846FFF702
:1015C800C1F900F0DFFC05E000BF04E000BF02E065
:1015D80000BF00E000BF00BF80BD00BF7801002051
:1015E8006C010020600000207C010020CC0000205D
:1015F80080B500AF094B00221A60FFF727FAFFF702
:10160800DDF90120FFF7AAF9FFF738FEFFF748FEDA
:10161800642000F0C5F900BF80BD00BFD4000020E1
:1016280080B400AF054B03221A60054B1B68054ABE
:10163800136000BFBD465DF8047B7047D4000020EE
:10164800C8000020D800002080B582B000AF7860C4
:1016580039607B68082B03D07B68092B77D0EEE0D4
:101668003B68072B71D801A252F823F095160008A1
:10167800B5160008D5160008F51600080917000861
:10168800FF1600081317000833170008012201216C
:101698006D4801F01BF9002204216B4801F016F98E
:1016A80000220221684801F011F94FE000220121CF
:1016B800654801F00BF900220421634801F006F99E
:1016C80001220221604801F001F93FE000220121D6
:1016D8005D4801F0FBF8012204215B4801F0F6F8AF
:1016E80000220221584801F0F1F82FE00121564864
:1016F80001F005F92AE00421534801F000F925E03A
:101708000221514801F0FBF820E0002201214E4857
:1017180001F0DCF8002204214B4801F0D7F8002240
:101728000221494801F0D2F810E00122012146487F
:1017380001F0CCF801220421434801F0C7F8012246
:101748000221414801F0C2F800E000BF77E03B68A1
:10175800072B72D801A252F823F000BF85170008A2
:10176800A5170008C5170008E5170008F9170008AD
:10177800EF170008031800082318000801220821A1
:10178800314801F0A3F8002220212F4801F09EF8EB
:10179800002210212C4801F099F84FE0002208217E
:1017A800294801F093F800222021274801F08EF8FB
:1017B80001221021244801F089F83FE00022082185
:1017C800214801F083F8012220211F4801F07EF80A
:1017D800002210211C4801F079F82FE008211A484E
:1017E80001F08DF82AE02021174801F088F825E05B
:1017F8001021154801F083F820E000220821124842
:1018080001F064F8002220210F4801F05FF800225F
:1018180010210D4801F05AF810E0012208210A4869
:1018280001F054F801222021074801F04FF8012265
:101838001021054801F04AF800E000BF00BF00BFD2
:101848000837BD4680BD00BF0004024080B582B0A5
:1018580000AF78607B680C2B22D07B680C2B2CDCCB
:101868007B680A2B0FD07B680B2B26D101224FF403
:101878000071144801F02AF800224FF480611148E1
:1018880001F024F81AE000224FF400710D4801F02D
:101898001DF800224FF480610A4801F017F80DE0A6
:1018A80000224FF40071074801F010F801224FF4AC
:1018B8008061044801F00AF800E000BF00BF083763
:1018C800BD4680BD000C024080B400AF224B1B68AF
:1018D800002B0BDD204B1B68013B1F4A13601E4B7E
:1018E8001B68002B02DC1D4B01221A601C4B1B6875
:1018F800002B0BDD1A4B1B68013B194A1360184B70
:101908001B68002B02DC174B01221A60164B1B6860
:10191800002B0BDD144B1B68013B134A1360124B61
:101928001B68002B02DC114B01221A60104B1B684C
:10193800002B0BDD0E4B1B68013B0D4A13600C4B53
:101948001B68002B02DC0B4B01221A6000BFBD464E
:101958005DF8047B704700BF8801002094010020D7
:10196800A00100208C010020840100209C0100209F
:10197800980100209001002080B483B000AF786007
:10198800054A7B681360054B00221A6000BF0C37BC
:10199800BD465DF8047B7047880100209401002053
:1019A80080B483B000AF7860054A7B681360054B4C
:1019B80000221A6000BF0C37BD465DF8047B7047F3
:1019C800A00100208C01002080B483B000AF7860B3
:1019D800054A7B681360054B00221A6000BF0C376C
:1019E800BD465DF8047B7047840100209C010020FF
:1019F80080B483B000AF00237B60104B5B6C0F4A50
:101A080043F4804353640D4B5B6C03F480437B6069
:101A18007B6800233B60094B1B6C084A43F08053EA
:101A28001364064B1B6C03F080533B603B6800BF9C
:101A38000C37BD465DF8047B704700BF0038024094
:101A480080B584B000AF78607B681B68B3F1804FC5
:101A580016D10023FB601A4B1B6C194A43F0010393
:101A68001364174B1B6C03F00103FB60FB68002237
:101A780000211C2000F0ADFC1C2000F0C6FC1AE080
:101A88007B681B680F4A934215D10023BB600C4B3F
:101A98001B6C0B4A43F002031364094B1B6C03F0E5
:101AA8000203BB60BB68002200211D2000F091FCEE
:101AB8001D2000F0AAFC00BF1037BD4680BD00BF46
:101AC800003802400004004080B588B000AF78605C
:101AD80007F10C0300221A605A609A60DA601A61F2
:101AE8007B681B68124A93421DD10023BB60114BCF
:101AF8001B6B104A43F0010313630E4B1B6B03F07F
:101B08000103BB60BB688023FB6002233B610023A9
:101B18007B610023BB610223FB6107F10C031946BB
:101B2800054800F01FFD00BF2037BD4680BD00BF3F
:101B380000040040003802400000024080B58AB02E
:101B480000AF786007F1140300221A605A609A60A7
:101B5800DA601A617B681B681D4A934233D10023FF
:101B68003B611C4B5B6C1B4A43F010035364194BDD
:101B78005B6C03F010033B613B690023FB60154B72
:101B88001B6B144A43F002031363124B1B6B03F0E5
:101B98000203FB60FB68C0237B610223BB61002357
:101BA800FB6103233B6207237B6207F11403194699
:101BB800094800F0D7FC00220021252000F009FC8C
:101BC800252000F022FC00BF2837BD4680BD00BF9D
:101BD80000100140003802400004024080B400AF09
:101BE800FEE780B400AFFEE780B400AFFEE780B444
:101BF80000AFFEE780B400AFFEE780B400AF00BFDF
:101C0800BD465DF8047B704780B400AF00BFBD4699
:101C18005DF8047B704780B400AF00BFBD465DF837
:101C2800047B704780B500AF00F0D8FA00BF80BDD4
:101C380080B500AF024801F0A7FC00BF80BD00BF1F
:101C48002401002080B500AF024801F09DFC00BFD0
:101C580080BD00BFDC00002080B500AF024802F064
:101C6800CDFB00BF80BD00BFA401002080B400AF41
:101C7800064BD3F88830054A43F47003C2F888301D
:101C880000BFBD465DF8047B704700BF00ED00E073
:101C980080B500AF2B4B1B68032B4BD801A252F821
:101CA80023F000BFBD1C0008DD1C0008FD1C000857
:101CB8001D1D0008234B01221A60FEF77FFE224BF0
:101CC8001B681846FEF732FE1F4B1B681846FEF7C6
:101CD80039FE30E01B4B02221A60FEF76FFE1B4BE9
:101CE8001B681846FEF722FE184B1B681846FEF7BD
:101CF80029FE20E0134B03221A60FEF75FFE144B07
:101D08001B681846FEF712FE114B1B681846FEF7B3
:101D180019FE10E00B4B01221A60FEF74FFE0A4B2A
:101D28001B681846FEF702FE074B1B681846FEF7AD
:101D380009FE00E000BF00F067F900F023F900BFDA
:101D480080BD00BFD00000205C000020640000209F
:101D58006000002080B400AF034B00221A6000BF6F
:101D6800BD465DF8047B7047D000002080B500AF09
:101D7800064B00221A60FEF769FEFFF7EBFF03200F
:101D8800FEF7ECFDFFF784FF00BF80BDD400002004
:101D980080B500AF294B1B68032B34D0032B49DCDB
:101DA800012B02D0022B17D044E0254B1B680133CE
:101DB800234A1360224B1B68632B02DD204B002251
:101DC8001A601F4B1B681846FEF7B0FD1C4B1B68BA
:101DD8001846FEF7B7FD2EE01A4B1B680133194A67
:101DE8001360184B1B68632B02DD164B00221A6028
:101DF800144B1B681846FEF799FD124B1B681846D2
:101E0800FEF7A0FD17E0104B1B6801330E4A136064
:101E18000D4B1B68632B02DD0B4B00221A600A4B2B
:101E28001B681846FEF782FD074B1B681846FEF72D
:101E380089FD00E000BF00BF80BD00BFD0000020CA
:101E480050000020580000205400002080B500AF4A
:101E5800204B1A68204B1B681A44204B1B689A4277
:101E680028D01F4B1B68032B17D15820FEF75EFDA7
:101E78005820FEF767FD0820FEF770FDFEF7AAFD63
:101E8800184B1B68144A1360174B1B68134A1360DE
:101E9800164B1B680F4A136019E0124B1B680E4A59
:101EA8001360114B1B680D4A1360104B1B68094ADD
:101EB80013600CE0084B1B680A4A1360074B1B6849
:101EC800094A1360034B1B68084A136000BF00BF30
:101ED80080BD00BF580000205400002050000020A2
:101EE800D0000020600000205C000020640000207A
:101EF80080B500AF0D4B1B68032B14D801A252F814
:101F080023F000BF2F1F00081D1F0008231F000813
:101F1800291F0008FEF73AFD06E0FEF72BFD03E057
:101F2800FEF740FD00E000BF00BF80BDD0000020EC
:101F380080B500AF104B114A1A600F4B104A5A6017
:101F48000D4B00229A600C4B0022DA600A4B0022EB
:101F58001A61094B0C225A61074B00229A61064B01
:101F68000022DA61044802F069F90346002B01D027
:101F7800FFF7A2F800BF80BDA401002000100140B7
:101F88000077010080B586B000AF1B4A07F1100347
:101F980092E8030018600433198002330A0C1A709F
:101FA800164A07F10C031268114619800233120C05
:101FB8001A70134B5B6839460A22184603F0E2F898
:101FC80007F110014FF47A7307220E4802F083F9E3
:101FD80039464FF47A730A220A4802F07CF907F16D
:101FE8000C014FF47A730322064802F074F900BF1B
:101FF8001837BD4680BD00BF3C5200084452000857
:10200800B8000020A401002080B58CB000AF304A91
:1020180007F1280392E8030018600433198002339B
:102028000A0C1A702B4A07F1200392E80300186083
:102038000433198002330A0C1A70274A07F11C036B
:102048001268114619800233120C1A70234B1B6850
:1020580007F110010A22184603F094F81F4B9B68F9
:10206800391D0A22184603F08DF807F120014FF4B4
:102078007A7307221A4802F02EF9391D4FF47A7341
:102088000A22174802F027F907F11C014FF47A7366
:102098000322134802F01FF907F128014FF47A735D
:1020A80007220F4802F017F907F110014FF47A736D
:1020B8000A220B4802F00FF907F11C014FF47A735A
:1020C8000322074802F007F900BF3037BD4680BD3C
:1020D8003C5200084852000844520008B80000204A
:1020E800A4010020DFF834D00D480E490E4A002321
:1020F80002E0D458C4500433C4188C42F9D30B4AB4
:102108000B4C002301E013600432A242FBD3FFF71B
:10211800ADFD02F0FBFFFEF723FD70470000022033
:102128000000002078000020A0520008780000205D
:10213800EC010020FEE7000080B500AF0E4B1B68E5
:102148000D4A43F4007313600B4B1B680A4A43F4AF
:1021580080631360084B1B68074A43F4807313605D
:10216800032000F02BF90F2000F008F8FFF740FCDF
:102178000023184680BD00BF003C024080B582B0F5
:1021880000AF7860124B1A68124B1B7819464FF44F
:102198007A73B3FBF1F3B2FBF3F3184600F043F99B
:1021A8000346002B01D001230EE07B680F2B0AD8D1
:1021B800002279684FF0FF3000F00BF9064A7B687F
:1021C8001360002300E0012318460837BD4680BD90
:1021D8006C000020740000207000002080B400AF64
:1021E800064B1B781A46064B1B681344044A1360B7
:1021F80000BFBD465DF8047B704700BF7400002037
:10220800E801002080B400AF034B1B681846BD46A8
:102218005DF8047B704700BFE801002080B485B0FA
:1022280000AF78607B6803F00703FB600C4BDB684A
:10223800BB60BA684FF6FF031340BB60FB681A0225
:10224800BB68134343F0BF6343F40033BB60044AE5
:10225800BB68D36000BF1437BD465DF8047B704788
:1022680000ED00E080B400AF044BDB681B0A03F00C
:1022780007031846BD465DF8047B704700ED00E093
:1022880080B483B000AF0346FB7197F90730002B89
:102298000BDBFB7903F01F02074997F907305B094D
:1022A800012000FA02F241F8232000BF0C37BD4696
:1022B8005DF8047B704700BF00E100E080B483B0A4
:1022C80000AF03463960FB7197F90730002B0ADB32
:1022D8003B68DAB20C4997F907301201D2B20B44C5
:1022E80083F800230AE03B68DAB20849FB7903F077
:1022F8000F03043B1201D2B20B441A7600BF0C370D
:10230800BD465DF8047B704700E100E000ED00E0A9
:1023180080B489B000AFF860B9607A60FB6803F0F8
:102328000703FB61FB69C3F10703042B28BF0423E0
:10233800BB61FB690433062B02D9FB69033B00E050
:1023480000237B614FF0FF32BB6902FA03F3DA43E3
:10235800BB681A407B699A404FF0FF317B6901FAEC
:1023680003F3D9437B680B40134318462437BD4613
:102378005DF8047B7047000080B582B000AF7860DC
:102388007B68013BB3F1807F01D301230FE00A4A48
:102398007B68013B53600F214FF0FF30FFF78EFF42
:1023A800054B00229A60044B07221A600023184646
:1023B8000837BD4680BD00BF10E000E080B582B0A0
:1023C80000AF78607868FFF729FF00BF0837BD467F
:1023D80080BD80B586B000AF0346B9607A60FB73F4
:1023E80000237B61FFF73EFF78617A68B9687869F6
:1023F800FFF78EFF024697F90F3011461846FFF790
:102408005DFF00BF1837BD4680BD80B582B000AF04
:102418000346FB7197F907301846FFF731FF00BFF5
:102428000837BD4680BD80B582B000AF7860786857
:10243800FFF7A2FF034618460837BD4680BD80B5A2
:1024480084B000AF78607B689B6DFB60FFF7DAFEB5
:10245800B8607B6893F83530DBB2022B08D07B6814
:1024680080225A657B68002283F83420012352E0D9
:102478007B681B681A687B681B6822F016021A6062
:102488007B681B685A697B681B6822F080025A6166
:102498007B681B6C002B03D17B689B6C002B07D0DF
:1024A8007B681B681A687B681B6822F008021A6040
:1024B8007B681B681A687B681B6822F001021A6037
:1024C80013E0FFF79FFE0246BB68D31A052B0CD911
:1024D8007B6820225A657B68032283F835207B6855
:1024E800002283F83420032315E07B681B681B68EF
:1024F80003F00103002BE4D17B68DB6D3F229A4097
:10250800FB689A607B68012283F835207B6800228B
:1025180083F83420002318461037BD4680BD80B4A8
:1025280083B000AF78607B6893F83530DBB2022B5C
:1025380004D07B6880225A6501230CE07B68052261
:1025480083F835207B681B681A687B681B6822F053
:1025580001021A60002318460C37BD465DF8047B5B
:102568007047000080B489B000AF786039600023FC
:102578007B6100233B610023BB610023FB616BE1AE
:102588000122FB6902FA03F37B613B681B687A69E5
:1025980013403B613A697B699A4240F05A813B6833
:1025A8005B6803F00303012B05D03B685B6803F00D
:1025B8000303022B30D17B689B68BB61FB695B001E
:1025C800032202FA03F3DB43BA691340BB613B6899
:1025D800DA68FB695B0002FA03F3BA691343BB616B
:1025E8007B68BA699A607B685B68BB610122FB699A
:1025F80002FA03F3DB43BA691340BB613B685B68CB
:102608001B0903F00102FB6902FA03F3BA691343D9
:10261800BB617B68BA695A603B685B6803F0030377
:10262800032B17D07B68DB68BB61FB695B00032267
:1026380002FA03F3DB43BA691340BB613B689A684B
:10264800FB695B0002FA03F3BA691343BB617B6859
:10265800BA69DA603B685B6803F00303022B23D195
:10266800FB69DA087B68083253F82230BB61FB69E2
:1026780003F007039B000F2202FA03F3DB43BA6956
:102688001340BB613B681A69FB6903F007039B00B1
:1026980002FA03F3BA691343BB61FB69DA087B6882
:1026A8000832B96943F822107B681B68BB61FB6973
:1026B8005B00032202FA03F3DB43BA691340BB61F0
:1026C8003B685B6803F00302FB695B0002FA03F3F3
:1026D800BA691343BB617B68BA691A603B685B6877
:1026E80003F44033002B00F0B4800023FB60604B00
:1026F8005B6C5F4A43F4804353645D4B5B6C03F44B
:102708008043FB60FB685B4AFB699B08023352F815
:102718002330BB61FB6903F003039B000F2202FA1D
:1027280003F3DB43BA691340BB617B68524A9342A7
:102738002BD07B68514A934225D07B68504A9342FC
:102748001FD07B684F4A934219D07B684E4A934208
:1027580013D07B684D4A93420DD07B684C4A934214
:1027680007D07B684B4A934201D107230EE0082328
:102778000CE006230AE0052308E0042306E003230F
:1027880004E0022302E0012300E00023FA6902F0DA
:10279800030292009340BA691343BB613549FB6950
:1027A8009B080233BA6941F823203B4B1B68BB6185
:1027B8003B69DB43BA691340BB613B685B6803F460
:1027C8008033002B03D0BA693B691343BB61324A9B
:1027D800BB691360304B5B68BB613B69DB43BA691B
:1027E8001340BB613B685B6803F40033002B03D0E4
:1027F800BA693B691343BB61274ABB695360264BDF
:102808009B68BB613B69DB43BA691340BB613B68AA
:102818005B6803F48013002B03D0BA693B69134348
:10282800BB611D4ABB6993601B4BDB68BB613B699D
:10283800DB43BA691340BB613B685B6803F4001370
:10284800002B03D0BA693B691343BB61124ABB69C9
:10285800D360FB690133FB61FB690F2B7FF690AEF8
:1028680000BF00BF2437BD465DF8047B704700BF3A
:1028780000380240003801400000024000040240D5
:1028880000080240000C0240001002400014024000
:1028980000180240001C0240003C014080B485B092
:1028A80000AF78600B467B807B681A697B88134091
:1028B800002B02D00123FB7301E00023FB73FB7B99
:1028C80018461437BD465DF8047B704780B483B062
:1028D80000AF78600B467B8013467B707B78002BBB
:1028E80003D07A887B689A6103E07B881A047B6846
:1028F8009A6100BF0C37BD465DF8047B704780B411
:1029080085B000AF78600B467B807B685B69FB60B5
:102918007A88FB6813401A04FB68D9437B880B400C
:102928001A437B689A6100BF1437BD465DF8047B83
:102938007047000080B586B000AF78607B68002BD8
:1029480001D1012364E27B681B6803F00103002BBB
:1029580075D0A34B9B6803F00C03042B0CD0A04B41
:102968009B6803F00C03082B12D19D4B5B6803F4A2
:102978008003B3F5800F0BD1994B1B6803F4003328
:10298800002B5BD07B685B68002B57D101233FE2AB
:102998007B685B68B3F5803F06D1914B1B68904A12
:1029A80043F4803313601DE07B685B68B3F5A02FA8
:1029B8000CD18B4B1B688A4A43F480231360884BE5
:1029C8001B68874A43F4803313600BE0844B1B6811
:1029D800834A23F480331360814B1B68804A23F4B5
:1029E800802313607B685B68002B13D0FFF70AFC19
:1029F800386108E0FFF706FC02463B69D31A642BEE
:102A080001D9032304E2764B1B6803F40033002B3F
:102A1800F0D014E0FFF7F6FB386108E0FFF7F2FBAF
:102A280002463B69D31A642B01D90323F0E16C4BAE
:102A38001B6803F40033002BF0D100E000BF7B6873
:102A48001B6803F00203002B63D0654B9B6803F0FF
:102A58000C03002B0BD0624B9B6803F00C03082B74
:102A68001CD15F4B5B6803F48003002B16D15C4BD1
:102A78001B6803F00203002B05D07B68DB68012B81
:102A880001D00123C4E1564B1B6823F0F8027B6890
:102A98001B69DB00524913430B603AE07B68DB6833
:102AA800002B20D04F4B01221A60FFF7ABFB386197
:102AB80008E0FFF7A7FB02463B69D31A022B01D9AE
:102AC8000323A5E1464B1B6803F00203002BF0D05B
:102AD800434B1B6823F0F8027B681B69DB00404905
:102AE80013430B6015E03F4B00221A60FFF78AFB87
:102AF800386108E0FFF786FB02463B69D31A022BD0
:102B080001D9032384E1364B1B6803F00203002B31
:102B1800F0D17B681B6803F00803002B30D07B687A
:102B28005B69002B16D0304B01221A60FFF76AFB55
:102B3800386108E0FFF766FB02463B69D31A022BAF
:102B480001D9032364E1264B5B6F03F00203002BDA
:102B5800F0D015E0244B00221A60FFF753FB3861D0
:102B680008E0FFF74FFB02463B69D31A022B01D955
:102B780003234DE11A4B5B6F03F00203002BF0D1E6
:102B88007B681B6803F00403002B00F0A08000237F
:102B9800FB75134B1B6C03F08053002B0FD10023E4
:102BA800BB600F4B1B6C0E4A43F0805313640C4BF5
:102BB8001B6C03F08053BB60BB680123FB750B4B98
:102BC8001B6803F48073002B21D1084B1B68074A4C
:102BD80043F480731360FFF715FB386111E000BF01
:102BE8000038024000004742800E47420070004013
:102BF800FFF708FB02463B69D31A022B01D90323CE
:102C080006E1854B1B6803F48073002BF0D07B68CA
:102C18009B68012B06D1814B1B6F804A43F001034F
:102C280013671CE07B689B68052B0CD17B4B1B6FE3
:102C38007A4A43F004031367784B1B6F774A43F0D3
:102C4800010313670BE0754B1B6F744A23F00103F4
:102C58001367724B1B6F714A23F0040313677B6879
:102C68009B68002B15D0FFF7CDFA38610AE0FFF713
:102C7800C9FA02463B69D31A41F28832934201D914
:102C88000323C5E0654B1B6F03F00203002BEED056
:102C980014E0FFF7B7FA38610AE0FFF7B3FA024623
:102CA8003B69D31A41F28832934201D90323AFE03A
:102CB8005A4B1B6F03F00203002BEED1FB7D012B57
:102CC80005D1564B1B6C554A23F0805313647B681F
:102CD8009B69002B00F09B80504B9B6803F00C0312
:102CE800082B5CD07B689B69022B41D14C4B00229E
:102CF8001A60FFF787FA386108E0FFF783FA02469F
:102D08003B69D31A022B01D9032381E0434B1B688B
:102D180003F00073002BF0D17B68DA697B681B6ACB
:102D28001A437B685B6A9B011A437B689B6A5B0852
:102D3800013B1B041A437B68DB6A1B0637491343B4
:102D48004B60374B01221A60FFF75CFA386108E0E4
:102D5800FFF758FA02463B69D31A022B01D903231D
:102D680056E02E4B1B6803F00073002BF0D04EE0AA
:102D78002B4B00221A60FFF745FA386108E0FFF78D
:102D880041FA02463B69D31A022B01D903233FE0DB
:102D9800224B1B6803F00073002BF0D137E07B68EF
:102DA8009B69012B01D1012332E01C4B5B68FB605E
:102DB8007B689B69012B28D0FB6803F480027B6841
:102DC800DB699A4221D1FB6803F03F027B681B6AEA
:102DD8009A421AD1FA6847F6C07313407A68526A61
:102DE8009201934211D1FB6803F440327B689B6ADD
:102DF8005B08013B1B049A4207D1FB6803F0706231
:102E08007B68DB6A1B069A4201D0012300E000239D
:102E180018461837BD4680BD007000400038024093
:102E28006000474280B584B000AF786039607B6845
:102E3800002B01D10123CCE0684B1B6803F007038A
:102E48003A689A420CD9654B3A68D2B21A70634B09
:102E58001B6803F007033A689A4201D00123B8E0DF
:102E68007B681B6803F00203002B20D07B681B687B
:102E780003F00403002B05D0594B9B68584A43F4D0
:102E8800E05393607B681B6803F00803002B05D0B0
:102E9800534B9B68524A43F460439360504B9B6882
:102EA80023F0F0027B689B684D4913438B607B6875
:102EB8001B6803F00103002B44D07B685B68012B7F
:102EC80007D1474B1B6803F40033002B19D10123AA
:102ED8007FE07B685B68022B03D07B685B68032B11
:102EE80007D13F4B1B6803F00073002B09D1012366
:102EF8006FE03B4B1B6803F00203002B01D1012359
:102F080067E0374B9B6823F003027B685B683449B2
:102F180013438B60FFF776F9F8600AE0FFF772F960
:102F28000246FB68D31A41F28832934201D903233F
:102F38004FE02B4B9B6803F00C027B685B689B009F
:102F48009A42EBD1254B1B6803F007033A689A4273
:102F58000CD2224B3A68D2B21A70204B1B6803F08D
:102F680007033A689A4201D0012332E07B681B6864
:102F780003F00403002B08D0194B9B6823F4E0529C
:102F88007B68DB68164913438B607B681B6803F01A
:102F98000803002B09D0124B9B6823F460427B681E
:102FA8001B69DB000E4913438B6000F021F80246D1
:102FB8000B4B9B681B0903F00F030A49CB5C22FAF1
:102FC80003F3094A1360094B1B681846FFF7D6F844
:102FD800002318461037BD4680BD00BF003C0240A4
:102FE80000380240505200086C0000207000002099
:102FF800B0B584B000AF002179600021F9600021EC
:1030080039600021B9605249896801F00C0108292A
:103018000DD0082900F29480002902D0042903D099
:103028008EE04C4BBB608EE04B4BBB608BE048495D
:10303800496801F03F0179604549496801F4800118
:10304800002924D042494968890908464FF00001FF
:1030580040F2FF144FF0000500EA040201EA0503FC
:103068003D4901FB03F0002101FB02F144183A49F4
:10307800A2FB0101631819467B681A464FF000034A
:10308800FDF79EF802460B461346FB604AE0304BBC
:103098005B689B091A464FF0000340F2FF104FF09F
:1030A800000102EA000403EA0105204629464FF020
:1030B80000024FF000034B0143EAD063420110467F
:1030C8001946001B61EB05014FF000024FF00003A9
:1030D8008B0143EA90638201121A63EB01034FF0FC
:1030E80000004FF00001D90041EA5271D0000246B9
:1030F8000B46121945EB03034FF000004FF0000197
:10310800990241EA9251900202460B46104619462E
:103118007B681A464FF00003FDF752F802460B464B
:103128001346FB600A4B5B681B0C03F00303013377
:103138005B003B60FA683B68B2FBF3F3BB6002E0FC
:10314800044BBB6000BFBB6818461037BD46B0BD16
:10315800003802400024F40040787D0180B400AFBC
:10316800034B1B681846BD465DF8047B704700BFDB
:103178006C00002080B500AFFFF7F0FF0246054B5A
:103188009B689B0A03F007030349CB5C22FA03F30D
:10319800184680BD003802406052000880B500AF74
:1031A800FFF7DCFF0246054B9B685B0B03F0070348
:1031B8000349CB5C22FA03F3184680BD003802406D
:1031C8006052000880B582B000AF78607B68002B41
:1031D80001D1012341E07B6893F83D30DBB2002B3D
:1031E80006D17B68002283F83C207868FEF728FC2B
:1031F8007B68022283F83D207B681A687B68043369
:103208001946104600F07AFC7B68012283F84620B4
:103218007B68012283F83E207B68012283F83F20E7
:103228007B68012283F840207B68012283F84120D3
:103238007B68012283F842207B68012283F84320BF
:103248007B68012283F844207B68012283F84520AB
:103258007B68012283F83D20002318460837BD46C5
:1032680080BD000080B485B000AF78607B6893F8BB
:103278003D30DBB2012B01D001234EE07B680222F6
:1032880083F83D207B681B68DA687B681B6842F01E
:103298000102DA607B681B68234A934222D07B686C
:1032A8001B68B3F1804F1DD07B681B681F4A93428F
:1032B80018D07B681B681E4A934213D07B681B6832
:1032C8001C4A93420ED07B681B681B4A934209D064
:1032D8007B681B68194A934204D07B681B68184AAC
:1032E800934211D17B681B689B6803F00703FB605E
:1032F800FB68062B10D07B681B681A687B681B6804
:1033080042F001021A6007E07B681B681A687B6854
:103318001B6842F001021A60002318461437BD46A4
:103328005DF8047B704700BF0000014000040040C6
:1033380000080040000C004000040140004001402B
:103348000018004080B582B000AF78607B68002B21
:1033580001D1012341E07B6893F83D30DBB2002BBB
:1033680006D17B68002283F83C20786800F039F8A1
:103378007B68022283F83D207B681A687B680433E7
:103388001946104600F0BAFB7B68012283F84620F4
:103398007B68012283F83E207B68012283F83F2066
:1033A8007B68012283F840207B68012283F8412052
:1033B8007B68012283F842207B68012283F843203E
:1033C8007B68012283F844207B68012283F845202A
:1033D8007B68012283F83D20002318460837BD4644
:1033E80080BD80B483B000AF786000BF0C37BD46A5
:1033F8005DF8047B7047000080B584B000AF78604A
:1034080039603B68002B09D17B6893F83E30DBB20A
:10341800012B14BF01230023DBB222E03B68042BFD
:1034280009D17B6893F83F30DBB2012B14BF01232D
:103438000023DBB215E03B68082B09D17B6893F8C1
:103448004030DBB2012B14BF01230023DBB208E0BC
:103458007B6893F84130DBB2012B14BF01230023B2
:10346800DBB2002B01D001237CE03B68002B04D1A8
:103478007B68022283F83E2013E03B68042B04D1CA
:103488007B68022283F83F200BE03B68082B04D1BD
:103498007B68022283F8402003E07B68022283F8DD
:1034A80041207B681B6801223968184600F010FE2D
:1034B8007B681B682D4A934204D07B681B682C4AA2
:1034C800934201D1012300E00023002B07D07B6841
:1034D8001B685A6C7B681B6842F400425A647B681C
:1034E8001B68224A934222D07B681B68B3F1804F45
:1034F8001DD07B681B681F4A934218D07B681B68E5
:103508001D4A934213D07B681B681C4A93420ED015
:103518007B681B68164A934209D07B681B68184A67
:10352800934204D07B681B68164A934211D17B688A
:103538001B689B6803F00703FB60FB68062B10D031
:103548007B681B681A687B681B6842F001021A6076
:1035580007E07B681B681A687B681B6842F00102F9
:103568001A60002318461037BD4680BD0000014090
:10357800000401400004004000080040000C004026
:10358800004001400018004080B582B000AF78606C
:103598007B681B681B6903F00203022B22D17B683E
:1035A8001B68DB6803F00203022B1BD17B681B68D6
:1035B8006FF002021A617B6801221A777B681B6828
:1035C8009B6903F00303002B03D0786800F077FAB7
:1035D80005E0786800F069FA786800F07AFA7B68A4
:1035E80000221A777B681B681B6903F00403042B0D
:1035F80022D17B681B68DB6803F00403042B1BD112
:103608007B681B686FF004021A617B6802221A77D4
:103618007B681B689B6903F44073002B03D07868B0
:1036280000F04DFA05E0786800F03FFA786800F09D
:1036380050FA7B6800221A777B681B681B6903F0C5
:103648000803082B22D17B681B68DB6803F008039A
:10365800082B1BD17B681B686FF008021A617B6816
:1036680004221A777B681B68DB6903F00303002BCD
:1036780003D0786800F023FA05E0786800F015FABE
:10368800786800F026FA7B6800221A777B681B6846
:103698001B6903F01003102B22D17B681B68DB68C1
:1036A80003F01003102B1BD17B681B686FF010020E
:1036B8001A617B6808221A777B681B68DB6903F448
:1036C8004073002B03D0786800F0F9F905E07868BA
:1036D80000F0EBF9786800F0FCF97B6800221A77B3
:1036E8007B681B681B6903F00103012B0ED17B6803
:1036F8001B68DB6803F00103012B07D17B681B689B
:103708006FF001021A617868FDF7CCFC7B681B68D2
:103718001B6903F08003802B0ED17B681B68DB6874
:1037280003F08003802B07D17B681B686FF0800251
:103738001A61786800F078FD7B681B681B6903F0E4
:103748004003402B0ED17B681B68DB6803F0400305
:10375800402B07D17B681B686FF040021A617868BC
:1037680000F0C1F97B681B681B6903F02003202B5C
:103778000ED17B681B68DB6803F02003202B07D180
:103788007B681B686FF020021A61786800F042FDC0
:1037980000BF0837BD4680BD80B586B000AFF86071
:1037A800B9607A600023FB75FB6893F83C30012B05
:1037B80001D10223AEE0FB68012283F83C207B683C
:1037C8000C2B00F29F8001A252F823F00938000860
:1037D8000D3900080D3900080D390008493800086E
:1037E8000D3900080D3900080D3900088B3800081C
:1037F8000D3900080D3900080D390008CB380008CC
:10380800FB681B68B968184600F018FAFB681B6863
:103818009A69FB681B6842F008029A61FB681B689A
:103828009A69FB681B6822F004029A61FB681B68AE
:103838009969BB681A69FB681B680A439A6164E066
:10384800FB681B68B968184600F068FAFB681B68D3
:103858009A69FB681B6842F400629A61FB681B68FE
:103868009A69FB681B6822F480629A61FB681B688E
:103878009969BB681B691A02FB681B680A439A614D
:1038880043E0FB681B68B968184600F0BDFAFB689E
:103898001B68DA69FB681B6842F00802DA61FB689A
:1038A8001B68DA69FB681B6822F00402DA61FB68AE
:1038B8001B68D969BB681A69FB681B680A43DA6127
:1038C80023E0FB681B68B968184600F011FBFB6829
:1038D8001B68DA69FB681B6842F40062DA61FB68FE
:1038E8001B68DA69FB681B6822F48062DA61FB688E
:1038F8001B68D969BB681B691A02FB681B680A4305
:10390800DA6102E00123FB7500BFFB68002283F83F
:103918003C20FB7D18461837BD4680BD80B584B075
:1039280000AF786039600023FB737B6893F83C3004
:10393800012B01D10223B4E07B68012283F83C20EB
:103948007B68022283F83D207B681B689B68BB600C
:10395800BB6823F07703BB60BB6823F47F43BB607D
:103968007B681B68BA689A603B681B68B3F5005FA0
:103978003ED0B3F5005F00F28780B3F5805F00F0BA
:103988008680B3F5805F7FD8702B1AD0702B7BD8D8
:10399800602B50D0602B77D8502B3CD0502B73D84D
:1039A800402B58D0402B6FD8302B64D0302B6BD89D
:1039B800202B60D0202B67D8002B5CD0102B5AD03E
:1039C80062E07B6818683B6899683B685A683B689E
:1039D800DB6800F05DFB7B681B689B68BB60BB68AD
:1039E80043F07703BB607B681B68BA689A604FE056
:1039F8007B6818683B6899683B685A683B68DB686D
:103A080000F046FB7B681B689A687B681B6842F479
:103A180080429A603CE07B6818683B6859683B685C
:103A2800DB681A4600F0BAFA7B681B685021184612
:103A380000F013FB2CE07B6818683B6859683B680A
:103A4800DB681A4600F0D9FA7B681B6860211846C3
:103A580000F003FB1CE07B6818683B6859683B680A
:103A6800DB681A4600F09AFA7B681B684021184602
:103A780000F0F3FA0CE07B681A683B681B6819468B
:103A8800104600F0EAFA03E00123FB7300E000BFF0
:103A98007B68012283F83D207B68002283F83C2064
:103AA800FB7B18461037BD4680BD80B483B000AF9D
:103AB800786000BF0C37BD465DF8047B704780B462
:103AC80083B000AF786000BF0C37BD465DF8047B5B
:103AD800704780B483B000AF786000BF0C37BD4634
:103AE8005DF8047B704780B483B000AF786000BF96
:103AF8000C37BD465DF8047B7047000080B485B084
:103B080000AF786039607B681B68FB607B68404A5F
:103B1800934213D07B68B3F1804F0FD07B683D4A46
:103B280093420BD07B683C4A934207D07B683B4A60
:103B3800934203D07B683A4A934208D1FB6823F04A
:103B48007003FB603B685B68FA681343FB607B6843
:103B58002F4A93422BD07B68B3F1804F27D07B68E4
:103B68002C4A934223D07B682B4A93421FD07B6810
:103B78002A4A93421BD07B68294A934217D07B6814
:103B8800284A934213D07B68274A93420FD07B6818
:103B9800264A93420BD07B68254A934207D07B681C
:103BA800244A934203D07B68234A934208D1FB6896
:103BB80023F44073FB603B68DB68FA681343FB60DF
:103BC800FB6823F080023B685B691343FB607B68FA
:103BD800FA681A603B689A687B68DA623B681A6818
:103BE8007B689A627B680A4A934203D07B680C4AD6
:103BF800934203D13B681A697B681A637B68012288
:103C08005A6100BF1437BD465DF8047B704700BF9A
:103C1800000001400004004000080040000C004083
:103C280000040140004001400044014000480140B8
:103C380000180040001C00400020004080B487B0FD
:103C480000AF786039607B681B6A23F001027B68EB
:103C58001A627B681B6A7B617B685B683B617B6877
:103C68009B69FB60FB6823F07003FB60FB6823F033
:103C78000303FB603B681B68FA681343FB607B69BE
:103C880023F002037B613B689B687A6913437B617D
:103C98007B68204A934203D07B681F4A93420CD129
:103CA8007B6923F008037B613B68DB687A6913430F
:103CB8007B617B6923F004037B617B68154A93422F
:103CC80003D07B68144A934211D13B6923F4807373
:103CD8003B613B6923F400733B613B685B693A696C
:103CE80013433B613B689B693A6913433B617B68BB
:103CF8003A695A607B68FA689A613B685A687B68D7
:103D08005A637B687A691A6200BF1C37BD465DF842
:103D1800047B7047000001400004014080B487B074
:103D280000AF786039607B681B6A23F010027B68FB
:103D38001A627B681B6A7B617B685B683B617B6896
:103D48009B69FB60FB6823F4E043FB60FB6823F49A
:103D58004073FB603B681B681B02FA681343FB60F7
:103D68007B6923F020037B613B689B681B017A69B0
:103D780013437B617B68224A934203D07B68214AC4
:103D880093420DD17B6923F080037B613B68DB683C
:103D98001B017A6913437B617B6923F040037B61D4
:103DA8007B68174A934203D07B68164A934213D123
:103DB8003B6923F480633B613B6923F400633B6107
:103DC8003B685B699B003A6913433B613B689B69AD
:103DD8009B003A6913433B617B683A695A607B6888
:103DE800FA689A613B685A687B689A637B687A6963
:103DF8001A6200BF1C37BD465DF8047B704700BFE0
:103E0800000001400004014080B487B000AF786032
:103E180039607B681B6A23F480727B681A627B684E
:103E28001B6A7B617B685B683B617B68DB69FB6065
:103E3800FB6823F07003FB60FB6823F00303FB605F
:103E48003B681B68FA681343FB607B6923F40073C3
:103E58007B613B689B681B027A6913437B617B68C3
:103E6800214A934203D07B68204A93420DD17B6953
:103E780023F400637B613B68DB681B027A691343A8
:103E88007B617B6923F480637B617B68164A93427C
:103E980003D07B68154A934213D13B6923F48053BE
:103EA8003B613B6923F400533B613B685B691B0141
:103EB8003A6913433B613B689B691B013A691343A9
:103EC8003B617B683A695A607B68FA68DA613B68EB
:103ED8005A687B68DA637B687A691A6200BF1C37A4
:103EE800BD465DF8047B70470000014000040140B6
:103EF80080B487B000AF786039607B681B6A23F4B0
:103F080080527B681A627B681B6A3B617B685B68CE
:103F18007B617B68DB69FB60FB6823F4E043FB6043
:103F2800FB6823F44073FB603B681B681B02FA685C
:103F38001343FB603B6923F400533B613B689B6878
:103F48001B033A6913433B617B68124A934203D0CF
:103F58007B68114A934209D17B6923F480437B61D2
:103F68003B685B699B017A6913437B617B687A696B
:103F78005A607B68FA68DA613B685A687B681A6439
:103F88007B683A691A6200BF1C37BD465DF8047B3E
:103F9800704700BF000001400004014080B487B0B2
:103FA80000AFF860B9607A60FB681B6A7B61FB68E8
:103FB8001B6A23F00102FB681A62FB689B693B617C
:103FC8003B6923F0F0033B617B681B013A691343AB
:103FD8003B617B6923F00A037B617A69BB68134301
:103FE8007B61FB683A699A61FB687A691A6200BF6B
:103FF8001C37BD465DF8047B704780B487B000AFBE
:10400800F860B9607A60FB681B6A23F01002FB68ED
:104018001A62FB689B697B61FB681B6A3B617B6971
:1040280023F470437B617B681B037A6913437B61CC
:104038003B6923F0A0033B61BB681B013A6913434A
:104048003B61FB687A699A61FB683A691A6200BF4A
:104058001C37BD465DF8047B704780B485B000AF5F
:10406800786039607B689B68FB60FB6823F07003AD
:10407800FB603A68FB68134343F00703FB607B6807
:10408800FA689A6000BF1437BD465DF8047B704734
:1040980080B487B000AFF860B9607A603B60FB68B5
:1040A8009B687B617B6923F47F437B613B681A02D1
:1040B8007B681A43BB6813437A6913437B61FB68C7
:1040C8007A699A6000BF1C37BD465DF8047B70476B
:1040D80080B487B000AFF860B9607A60BB6803F05D
:1040E8001F03012202FA03F37B61FB681A6A7B69EA
:1040F800DB431A40FB681A62FB681A6ABB6803F064
:104108001F03796801FA03F31A43FB681A6200BFB8
:104118001C37BD465DF8047B7047000080B485B04D
:1041280000AF786039607B6893F83C30012B01D18F
:1041380002235AE07B68012283F83C207B68022234
:1041480083F83D207B681B685B68FB607B681B68A5
:104158009B68BB60FB6823F07003FB603B681B68CF
:10416800FA681343FB607B681B68FA685A607B68CF
:104178001B68214A934222D07B681B68B3F1804FA9
:104188001DD07B681B681D4A934218D07B681B684A
:104198001B4A934213D07B681B681A4A93420ED07D
:1041A8007B681B68184A934209D07B681B68174ACA
:1041B800934204D07B681B68154A93420CD1BB68B4
:1041C80023F08003BB603B685B68BA681343BB603D
:1041D8007B681B68BA689A607B68012283F83D2077
:1041E8007B68002283F83C20002318461437BD461C
:1041F8005DF8047B704700BF0000014000040040E8
:1042080000080040000C004000040140004001404C
:104218000018004080B483B000AF786000BF0C374E
:10422800BD465DF8047B704780B483B000AF78600A
:1042380000BF0C37BD465DF8047B704780B582B07F
:1042480000AF78607B68002B01D101233FE07B68D9
:1042580093F83D30DBB2002B06D17B68002283F84F
:104268003C207868FDF76AFC7B68242283F83D20AF
:104278007B681B68DA687B681B6822F40052DA6086
:10428800786800F07BFD7B681B681A697B681B688F
:1042980022F490421A617B681B685A697B681B6824
:1042A80022F02A025A617B681B68DA687B681B68FF
:1042B80042F40052DA607B6800221A647B6820228C
:1042C80083F83D207B68202283F83E20002318468F
:1042D8000837BD4680BD80B58AB002AFF860B960C6
:1042E8003B601346FB8000237B61FB6893F83D30FD
:1042F800DBB2202B7CD1BB68002B02D0FB88002BC3
:1043080001D1012375E0FB6893F83C30012B01D102
:1043180002236EE0FB68012283F83C20FB68002240
:104328001A64FB68212283F83D20FDF76BFF786152
:10433800FB68FA889A84FB68FA88DA84FB689B68C9
:10434800B3F5805F08D1FB681B69002B04D10023FB
:10435800FB61BB68BB6103E0BB68FB610023BB6119
:10436800FB68002283F83C202AE03B6800937B69C5
:1043780000228021F86800F0F9FA0346002B01D0EA
:10438800032336E0FB69002B0BD1BB691B881A4657
:10439800FB681B68C2F308025A60BB690233BB6141
:1043A80007E0FB691A78FB681B685A60FB690133F0
:1043B800FB61FB68DB8C9BB2013B9AB2FB68DA8439
:1043C800FB68DB8C9BB2002BCFD13B6800937B69E9
:1043D80000224021F86800F0C9FA0346002B01D0FA
:1043E800032306E0FB68202283F83D20002300E039
:1043F800022318462037BD4680BD000080B5BAB0FC
:1044080000AF78607B681B681B68C7F8E4307B687E
:104418001B68DB68C7F8E0307B681B685B69C7F816
:10442800DC300023C7F8D8300023C7F8D430D7F8D9
:10443800E43003F00F03C7F8D830D7F8D830002B92
:104448000FD1D7F8E43003F02003002B09D0D7F8B8
:10445800E03003F02003002B03D0786800F0D3FB92
:1044680056E2D7F8D830002B00F0DE80D7F8DC30E1
:1044780003F00103002B06D1D7F8E03003F4907362
:10448800002B00F0D180D7F8E43003F00103002BB3
:104498000BD0D7F8E03003F48073002B05D07B688D
:1044A8001B6C43F001027B681A64D7F8E43003F010
:1044B8000403002B0BD0D7F8DC3003F00103002BEA
:1044C80005D07B681B6C43F002027B681A64D7F83E
:1044D800E43003F00203002B0BD0D7F8DC3003F0F4
:1044E8000103002B05D07B681B6C43F004027B683A
:1044F8001A64D7F8E43003F00803002B11D0D7F87A
:10450800E03003F02003002B05D1D7F8DC3003F0AE
:104518000103002B05D07B681B6C43F008027B6805
:104528001A647B681B6C002B00F0ED81D7F8E4302F
:1045380003F02003002B08D0D7F8E03003F0200365
:10454800002B02D0786800F05EFB7B681B685B6913
:1045580003F04003402B0CBF01230023DBB2C7F854
:10456800D4307B681B6C03F00803002B03D1D7F809
:10457800D430002B4FD0786800F066FA7B681B684F
:104588005B6903F04003402B41D17B681B681433FF
:10459800C7F89C30D7F89C3053E8003FC7F89830EC
:1045A800D7F8983023F04003C7F8D0307B681B68F1
:1045B8001433D7F8D020C7F8A820C7F8A430D7F804
:1045C800A410D7F8A82041E80023C7F8A030D7F8EE
:1045D800A030002BD9D17B689B6B002B13D07B6854
:1045E8009B6B7D4A1A657B689B6B1846FDF797FFA6
:1045F8000346002B16D07B689B6B1B6D7A68926B09
:10460800104698470EE0786800F09AF90AE0786852
:1046180000F096F906E0786800F092F97B680022CD
:104628001A6470E100BF6EE17B681B6B012B40F0E0
:104638004A81D7F8E43003F01003002B00F04381DF
:10464800D7F8E03003F01003002B00F03C81002382
:10465800BB607B681B681B68BB607B681B685B680A
:10466800BB60BB687B681B685B6903F04003402B39
:1046780040F0B4807B689B6B1B685B68A7F8BE3012
:10468800B7F8BE30002B00F040817B689B8DB7F8EF
:10469800BE209A4280F039817B68B7F8BE20DA855F
:1046A8007B689B6BDB69B3F5807F00F088807B6853
:1046B8001B680C33C7F88830D7F8883053E8003FB8
:1046C800C7F88430D7F8843023F48073C7F8B8303B
:1046D8007B681B680C33D7F8B820C7F89420C7F854
:1046E8009030D7F89010D7F8942041E80023C7F805
:1046F8008C30D7F88C30002BD9D17B681B681433E9
:104708007B677B6F53E8003F3B673B6F23F00103F8
:10471800C7F8B4307B681B681433D7F8B420C7F8DF
:104728008020FB67F96FD7F8802041E80023BB673A
:10473800BB6F002BE1D17B681B6814333B663B6E73
:1047480053E8003FFB65FB6D23F04003C7F8B0302A
:104758007B681B681433D7F8B020FA66BB66B96E5D
:10476800FA6E41E800237B667B6E002BE3D17B6801
:10477800202283F83E207B6800221A637B681B682E
:104788000C33FB64FB6C53E8003FBB64BB6C23F049
:104798001003C7F8AC307B681B680C33D7F8AC2023
:1047A800BA657B65796DBA6D41E800233B653B6D61
:1047B800002BE3D17B689B6B1846FDF740FE7B68B6
:1047C8009A8D7B68DB8D9BB2D31A9BB219467868A9
:1047D80000F0C0F899E000BF174B00087B689A8D7D
:1047E8007B68DB8D9BB2D31AA7F8CE307B68DB8D54
:1047F8009BB2002B00F08B80B7F8CE30002B00F076
:1048080086807B681B680C33BB63BB6B53E8003F37
:104818007B637B6B23F49073C7F8C8307B681B6895
:104828000C33D7F8C8207A643B64396C7A6C41E859
:104838000023FB63FB6B002BE3D17B681B681433FD
:104848007B627B6A53E8003F3B623B6A23F00103CB
:10485800C7F8C4307B681B681433D7F8C4203A63A0
:10486800FB62F96A3A6B41E80023BB62BB6A002B22
:10487800E3D17B68202283F83E207B6800221A63FC
:104888007B681B680C333B613B6953E8003FFB6066
:10489800FB6823F01003C7F8C0307B681B680C3333
:1048A800D7F8C020FA61BB61B969FA6941E8002309
:1048B8007B617B69002BE3D1B7F8CE301946786865
:1048C80000F048F823E0D7F8E43003F08003002B29
:1048D80009D0D7F8E03003F08003002B03D07868C4
:1048E80000F029F914E0D7F8E43003F04003002B76
:1048F8000ED0D7F8E03003F04003002B08D07868DA
:1049080000F069F904E000BF02E000BF00E000BF6A
:10491800E837BD4680BD00BF80B483B000AF786083
:1049280000BF0C37BD465DF8047B704780B483B088
:1049380000AF786000BF0C37BD465DF8047B704758
:1049480080B483B000AF786000BF0C37BD465DF817
:10495800047B704780B483B000AF78600B467B80DF
:1049680000BF0C37BD465DF8047B704780B590B03A
:1049780000AFF860B9603B601346FB7150E0BB6C58
:10498800B3F1FF3F4CD0BB6C002B07D0FDF73AFCCE
:1049980002463B68D31ABA6C9A4241D2FB681B683C
:1049A8000C33BB62BB6A53E8003F7B627B6A23F42B
:1049B800D073FB63FB681B680C33FA6B7A633B6349
:1049C800396B7A6B41E80023FB62FB6A002BE5D167
:1049D800FB681B6814337B617B6953E8003F3B61CC
:1049E8003B6923F00103BB63FB681B681433BA6B94
:1049F8003A62FB61F9693A6A41E80023BB61BB6925
:104A0800002BE5D1FB68202283F83D20FB6820229B
:104A180083F83E20FB68002283F83C2003230FE044
:104A2800FB681B681A68BB681340BA689A420CBFD7
:104A380001230023DBB21A46FB799A429FD0002358
:104A480018464037BD4680BD80B495B000AF786049
:104A58007B681B680C337B637B6B53E8003F3B63CD
:104A68003B6B23F49073FB647B681B680C33FA6C14
:104A78003A64FB63F96B3A6C41E80023BB63BB6B98
:104A8800002BE5D17B681B6814333B623B6A53E813
:104A9800003FFB61FB6923F00103BB647B681B6873
:104AA8001433BA6CFA62BB62B96AFA6A41E8002345
:104AB8007B627B6A002BE5D17B681B6B012B19D1CC
:104AC8007B681B680C33FB60FB6853E8003FBB60E6
:104AD800BB6823F010037B647B681B680C337A6C1B
:104AE800BA617B617969BA6941E800233B613B6936
:104AF800002BE5D17B68202283F83E207B680022CA
:104B08001A6300BF5437BD465DF8047B704780B513
:104B180084B000AF78607B689B6BFB60FB68002209
:104B2800DA85FB680022DA84F868FFF709FF00BF1E
:104B38001037BD4680BD80B485B000AF78607B6813
:104B480093F83D30DBB2212B3ED17B689B68B3F5EF
:104B5800805F14D17B681B69002B10D17B681B6AAE
:104B6800FB60FB681B881A467B681B68C2F3080257
:104B78005A607B681B6A9A1C7B681A6208E07B682B
:104B88001B6A591C7A6811621A787B681B685A601C
:104B98007B68DB8C9BB2013B9BB27A681946D18457
:104BA800002B0FD17B681B68DA687B681B6822F0D2
:104BB8008002DA607B681B68DA687B681B6842F0F1
:104BC8004002DA60002300E0022318461437BD468D
:104BD8005DF8047B704780B582B000AF78607B6871
:104BE8001B68DA687B681B6822F04002DA607B6821
:104BF800202283F83D207868FFF78EFE00231846B0
:104C08000837BD4680BD80B58CB000AF78607B6842
:104C180093F83E30DBB2222B40F0AB807B689B6878
:104C2800B3F5805F17D17B681B69002B13D1002374
:104C3800FB627B689B6ABB627B681B685B689BB294
:104C4800C3F308039AB2BB6A1A807B689B6A9A1CF2
:104C58007B689A6226E07B689B6AFB620023BB62E2
:104C68007B689B68B3F5805F07D07B689B68002BE7
:104C78000AD17B681B69002B06D17B681B685B68BF
:104C8800DAB2FB6A1A7008E07B681B685B68DBB203
:104C980003F07F03DAB2FB6A1A707B689B6A5A1CBE
:104CA8007B689A627B68DB8D9BB2013B9BB27A681A
:104CB8001946D185002B5AD17B681B68DA687B6856
:104CC8001B6822F02002DA607B681B68DA687B6860
:104CD8001B6822F48072DA607B681B685A697B68FB
:104CE8001B6822F001025A617B68202283F83E206B
:104CF8007B681B6B012B35D17B6800221A637B68AC
:104D08001B680C337B617B6953E8003F3B613B695F
:104D180023F010037B627B681B680C337A6A3A6263
:104D2800FB61F9693A6A41E80023BB61BB69002B62
:104D3800E5D17B681B681B6803F01003102B0AD1B0
:104D48000023FB607B681B681B68FB607B681B6833
:104D58005B68FB60FB687B689B8D19467868FFF78A
:104D6800F9FD02E07868FFF7E1FD002302E0002387
:104D780000E0022318463037BD4680BD2DE9F04FCC
:104D88009FB000AFF866FB6E1B681B6923F44050A8
:104D9800FB6ED968FB6E1A6840EA01031361FB6E6B
:104DA8009A68FB6E1B691A43FB6E5B691A43FB6EBC
:104DB800DB6913433B67FB6E1B68DB6823F4164112
:104DC80021F00C01FB6E1A683B6F0B43D360FB6E3E
:104DD8001B685B6923F44070FB6E9969FB6E1A6867
:104DE80040EA01035361FB6E1A68C54B9A4204D02E
:104DF800FB6E1A68C34B9A4203D1FEF7CFF9786766
:104E080002E0FEF7B7F97867FB6EDB69B3F5004F90
:104E180040F0B6807B6F1C464FF0000522462B46BB
:104E2800911839645B417B64D7E91023121945EB6B
:104E380003034FF000004FF00001D90041EA52711E
:104E4800D00002460B46111939666B417B66FB6E32
:104E58005B681A464FF000039118B9635B41FB6326
:104E6800D7E90E23D7E91801FBF7AAF902460B4642
:104E7800A54BA3FB02235B091E017B6F1C464FF069
:104E8800000522462B46911839635B417B63D7E9BD
:104E98000C23121945EB03034FF000004FF00001FB
:104EA800D90041EA5271D00002460B461119B96582
:104EB8006B41FB65FB6E5B681A464FF00003911867
:104EC800B9625B41FB62D7E90A23D7E91601FBF710
:104ED80077F902460B468C4BA3FB02135B0964214E
:104EE80001FB03F3D31ADB003233874AA2FB032307
:104EF8005B095B0003F4F8731E447B6F18464FF0A0
:104F0800000102460B4694183C625B417B62D7E97C
:104F18000823121841EB03034FF000044FF000057B
:104F2800DD0045EA5275D40022462B4614183C652C
:104F38004B417B65FB6E5B681A464FF00003911886
:104F4800B9615B41FB61D7E90623D7E91401FBF797
:104F580037F902460B466C4BA3FB02135B0964212D
:104F680001FB03F3D31ADB003233674AA2FB0323A6
:104F78005B0903F00702FB6E1B6832449A60B9E0D4
:104F88007B6F1C464FF0000522462B46911839616D
:104F98005B417B61D7E90423121945EB03034FF00A
:104FA80000004FF00001D90041EA5271D0000246DA
:104FB8000B4612EB040843EB0509FB6E5B681846C9
:104FC8004FF000014FF000024FF000038B0043EA5E
:104FD8009073820040464946FBF7F2F802460B46BA
:104FE800494BA3FB02235B091E017B6F18464FF058
:104FF800000102460B469418BC605B41FB60D7E990
:105008000223121841EB03034FF000044FF0000590
:10501800DD0045EA5275D40022462B461418BC64BC
:105028004B41FB64FB6E5B6818464FF000014FF084
:1050380000024FF000038B0043EA90738200D7E927
:105048001201FBF7BDF802460B462F4BA3FB0213D8
:105058005B09642101FB03F3D31A1B0132332A4A8B
:10506800A2FB03235B0903F0F0031E447B6F184681
:105078004FF0000102460B4694183C605B417B6090
:10508800D7E90023121841EB03034FF000044FF057
:105098000005DD0045EA5275D40022462B4612EB86
:1050A800000A43EB010BFB6E5B6818464FF00001EA
:1050B8004FF000024FF000038B0043EA9073820028
:1050C80050465946FBF77CF802460B460E4BA3FBAD
:1050D80002135B09642101FB03F3D31A1B0132336A
:1050E800094AA2FB03235B0903F00F02FB6E1B684E
:1050F80032449A6000BF7C37BD46BDE8F08F00BFE0
:1051080000100140001401401F85EB5170B50D4D92
:105118000D4C641BA4100026A64209D10B4D0C4C63
:1051280000F07CF8641BA4100026A64205D170BDCF
:1051380055F8043B98470136EEE755F8043B984785
:105148000136F2E798520008985200089852000871
:105158009C520008931E222B10B50C4604D900233C
:105168000B701C46204610BD0A2A09D1002807DA10
:105178002D230B7040420121214400F00DF8F1E786
:105188000021F9E7FFF7E6BF02440346934200D146
:10519800704703F8011BF9E7F0B51F4C8BB00546C3
:1051A8000B466E4604F1200C20686168374603C739
:1051B800083464453E46F7D121793971911E20683B
:1051C800386022294FF0000104D919700B4618469F
:1051D8000BB0F0BD581E8446B5FBF2F70DF1280E52
:1051E80002FB175676440C4616F8286C0CF8016F2B
:1051F8002E46B24201F101013D46EDD900225A5432
:105208001919A51AAA42E2DA10F8015F0E78067099
:10521800013201F80159F4E768520008F8B500BFF7
:10522800F8BC08BC9E467047F8B500BFF8BC08BC7F
:045238009E467047D7
:10523C0021375345473A0000230D0000214D4F44C0
:10524C00453A0000000000000000000001020304C9
:10525C000607080900000000010203043031323354
:10526C003435363738396162636465666768696AF4
:10527C006B6C6D6E6F707172737475767778797AFA
:04528C00000000001E
:0852900068AFFF7F0100000080
:04529800AD0100085C
:04529C00890100087C
:1052A0000000024000000240000002400001000235
:1052B00000040000010000000100000001000000E7
:1052C00001000000010000000100000001000000DA
:1052D00001000000010000000100000001000000CA
:1052E00001000000C8000000C8000000C800000065
:1052F000070000000500000002000000050000009B
:105300000300000002000000050000000024F4007B
:08531000100000000100000084
:04000005080020EDE2
:00000001FF
