:020000040800F2
:100000000000022041240008391F00083F1F00089B
:10001000451F00084B1F0008511F0008000000008A
:10002000000000000000000000000000571F000852
:10003000651F000800000000731F0008811F0008F2
:1000400091240008912400089124000891240008BC
:1000500091240008912400089124000891240008AC
:10006000912400089124000891240008912400089C
:10007000912400089124000891240008912400088C
:10008000912400089124000891240008912400087C
:10009000912400089124000891240008912400086C
:1000A000912400089124000891240008912400085C
:1000B0008D1F0008A11F000891240008912400084A
:1000C000912400089124000891240008912400083C
:1000D00091240008B51F000891240008912400080D
:1000E000912400089124000891240008912400081C
:1000F000912400089124000891240008912400080C
:1001000091240008912400089124000891240008FB
:1001100091240008912400089124000891240008EB
:1001200091240008912400089124000891240008DB
:1001300091240008912400089124000891240008CB
:1001400091240008912400089124000891240008BB
:1001500091240008912400089124000891240008AB
:10016000912400089124000891240008912400089B
:100170009124000891240008912400080000000048
:080180009124000891240008FD
:1001880010B5054C237833B9044B13B10448AFF3C9
:1001980000800123237010BD7800002000000000BB
:1001A800F056000808B5034B1BB103490348AFF3E9
:1001B800008008BD000000007C000020F056000808
:1001C80053B94AB9002908BF00281CBF4FF0FF31B6
:1001D8004FF0FF3000F074B9ADF1080C6DE904CEB2
:1001E80000F006F8DDF804E0DDE9022304B070470A
:1001F8002DE9F047089D04468E46002B4DD18A42D2
:10020800944669D9B2FA82F252B101FA02F3C2F104
:10021800200120FA01F10CFA02FC41EA030E944095
:100228004FEA1C48210CBEFBF8F61FFA8CF708FBB6
:1002380016E341EA034306FB07F199420AD91CEB8E
:10024800030306F1FF3080F01F81994240F21C81C0
:10025800023E63445B1AA4B2B3FBF8F008FB103308
:1002680044EA034400FB07F7A7420AD91CEB04043D
:1002780000F1FF3380F00A81A74240F2078164440D
:10028800023840EA0640E41B00261DB1D440002392
:10029800C5E900433146BDE8F0878B4209D9002DF6
:1002A80000F0EF800026C5E9000130463146BDE880
:1002B800F087B3FA83F6002E4AD18B4202D38242EA
:1002C80000F2F980841A61EB030301209E46002D99
:1002D800E0D0C5E9004EDDE702B9FFDEB2FA82F2EE
:1002E800002A40F09280A1EB0C014FEA1C471FFA4C
:1002F8008CFE0126200CB1FBF7F307FB131140EA33
:1003080001410EFB03F0884208D91CEB010103F1FF
:10031800FF3802D2884200F2CB804346091AA4B2C1
:10032800B1FBF7F007FB101144EA01440EFB00FE95
:10033800A64508D91CEB040400F1FF3102D2A645FA
:1003480000F2BB800846A4EB0E0440EA03409CE799
:10035800C6F12007B34022FA07FC4CEA030C20FA46
:1003680007F401FA06F31C43F9404FEA1C4900FA66
:1003780006F3B1FBF9F8200C1FFA8CFE09FB1811E3
:1003880040EA014108FB0EF0884202FA06F20BD956
:100398001CEB010108F1FF3A80F08880884240F2A6
:1003A8008580A8F102086144091AA4B2B1FBF9F0EA
:1003B80009FB101144EA014100FB0EFE8E4508D9E5
:1003C8001CEB010100F1FF346CD28E456AD902386A
:1003D800614440EA0840A0FB0294A1EB0E01A1424F
:1003E800C846A64656D353D05DB1B3EB080261EBBD
:1003F8000E0101FA07F722FA06F3F1401F43C5E997
:10040800007100263146BDE8F087C2F12003D840CC
:100418000CFA02FC21FA03F3914001434FEA1C470E
:100428001FFA8CFEB3FBF7F007FB10360B0C43EA00
:10043800064300FB0EF69E4204FA02F408D91CEBB0
:10044800030300F1FF382FD29E422DD902386344AE
:100458009B1B89B2B3FBF7F607FB163341EA03414E
:1004680006FB0EF38B4208D91CEB010106F1FF389D
:1004780016D28B4214D9023E6144C91A46EA004694
:1004880038E72E46284605E70646E3E61846F8E626
:100498004B45A9D2B9EB020864EB0C0E0138A3E76F
:1004A8004646EAE7204694E74046D1E7D0467BE750
:1004B800023B614432E7304609E76444023842E7C8
:1004C800704700BF80B489B000AFF860B9607A6047
:1004D800FB700023FB61BB68804AA2FB0323DB0897
:1004E800BB6100237B612BE07D497A6913469B0041
:1004F80013449B000B441B68002B1BD078497A6976
:1005080013469B0013449B000B4404331A68BB69D1
:100518009A420CD8B96972487A6913469B00134409
:100528009B00034404331B68CB1ABB6105E07B695D
:10053800FB6108E07B69FB6105E07B6901337B6156
:100548007B69272BD0DD28233B616BE03B695A1E72
:10055800634913469B0013449B000B441B68002B04
:100568005DD03B695A1E5E4913469B0013449B00AD
:100578000B4419685A483A6913469B0013449B0078
:10058800034419603B695A1E554913469B0013449E
:100598009B000B440433196851483A6913469B0081
:1005A80013449B000344043319603B695A1E4C49A9
:1005B80013469B0013449B000B44083319684848B2
:1005C8003A6913469B0013449B000344083319609F
:1005D8003B695A1E424913469B0013449B000B4437
:1005E8000C3318783E493A6913469B0013449B0024
:1005F8000B440C3302461A703B695A1E384913469D
:100608009B0013449B000B441033196834483A6923
:1006180013469B0013449B000344103319603B6945
:10062800013B3B613A69FB699A428FDCF9682C48C7
:10063800FA6913469B0013449B0003441960B96987
:100648002748FA6913469B0013449B00034404336C
:1006580019602349FA6913469B0013449B000B4415
:1006680008337A681A601E49FA6913469B001344D6
:100678009B000B440C3300221A70F9781848FA6969
:1006880013469B0013449B00034410331960FB6915
:100698005A1C134913469B0013449B000B441B68C8
:1006A800002B15D0FB695A1C0D4913469B001344B7
:1006B8009B000B4404331968BB69FA690132C91AF3
:1006C800074813469B0013449B00034404331960F6
:1006D80000BF2437BD465DF8047B7047CDCCCCCC39
:1006E8009400002080B483B000AF0346FB71FA7910
:1006F8001A4913469B0013449B000B440433002201
:100708001A60FA79154913469B0013449B000B4461
:10071800083300221A60FA79104913469B001344E3
:100728009B000B440C3300221A70FA790B491346CC
:100738009B0013449B000B4400221A60FA79074976
:1007480013469B0013449B000B44103300221A608D
:1007580000BF0C37BD465DF8047B7047940000204D
:1007680080B584B000AF0346FB710023FB6014E042
:100778000D49FA6813469B0013449B000B44103341
:100788001A68FB799A4205D1FB68DBB21846FFF775
:10079800A9FF05E0FB680133FB60FB68272BE7DD59
:1007A8001037BD4680BD00BF9400002080B483B0E0
:1007B80000AF0023FB7133E0FA791E4913469B0012
:1007C80013449B000B44043300221A60FA79194938
:1007D80013469B0013449B000B44083300221A6005
:1007E800FA79144913469B0013449B000B440C33BD
:1007F80000221A70FA790F4913469B0013449B0094
:100808000B4400221A60FA790A4913469B001344E4
:100818009B000B44103300221A60FB790133FB71F3
:10082800FB79272BC8D900BF00BF0C37BD465DF840
:10083800047B70479400002080B500AF044B1B6810
:10084800062B03D100F0F4FE00F0F0FA00BF80BDE3
:100858006C00002080B500AF034B1B68082B01D14A
:1008680001F0F0FC00BF80BD6C00002080B483B0B4
:1008780000AF00237B6011E00D4A7B68002142F83D
:1008880023100C4A7B68002142F823100A4A7B682F
:10089800002142F823107B6801337B607B68022BC0
:1008A800EADD00BF00BF0C37BD465DF8047B70472A
:1008B800CC030020C0030020B403002080B582B020
:1008C80000AF78607B68022B00F0AB807B68022B5E
:1008D80000F3EC807B68002B03D07B68012B5BD096
:1008E800E4E0764A7B6852F82330032B52D801A201
:1008F80052F823F00D0900083109000855090008CD
:10090800790900086E4A7B6852F82330002B02D020
:10091800012B04D007E0FFF7A9FF0523CAE0FFF782
:10092800A5FF0C23C6E036E0654A7B6852F8233001
:10093800002B02D0012B04D007E0FFF797FF052317
:10094800B8E0FFF793FF0223B4E024E05C4A7B6839
:1009580052F82330012B02D0022B04D007E0FFF716
:1009680085FF0323A6E0FFF781FF0323A2E012E03F
:10097800534A7B6852F82330022B02D0032B04D051
:1009880007E0FFF773FF042394E0FFF76FFF0423EA
:1009980090E000E000BF8DE0484A7B6852F82330C1
:1009A800022B2AD0022B3ADC002B02D0012B12D0CA
:1009B80035E0434A7B6852F82330002B02D0012BE4
:1009C80004D007E0FFF752FF082373E0FFF74EFF5C
:1009D8000C236FE024E03A4A7B6852F82330002B5E
:1009E80002D0012B04D007E0FFF740FF082361E0A5
:1009F800FFF73CFF06235DE012E0314A7B6852F8BE
:100A08002330012B02D0022B04D007E0FFF72EFF82
:100A180007234FE0FFF72AFF07234BE000E000BF62
:100A280048E0264A7B6852F82330022B2AD0022B52
:100A38003ADC002B02D0012B12D035E0204A7B682B
:100A480052F82330002B02D0012B04D007E0FFF727
:100A58000DFF0B232EE0FFF709FF0C232AE024E00B
:100A6800174A7B6852F82330002B02D0012B04D0A0
:100A780007E0FFF7FBFE0B231CE0FFF7F7FE092357
:100A880018E012E00E4A7B6852F82330012B02D09E
:100A9800022B04D007E0FFF7E9FE0A230AE0FFF77C
:100AA800E5FE0A2306E000E000BF03E0FFF7DEFEF4
:100AB8000C23FFE718460837BD4680BDC003002059
:100AC800CC03002080B582B000AF00237B60C1E07A
:100AD800654A7B6852F8232064497B6841F82320E3
:100AE800634A7B6852F823205F497B6841F82320DA
:100AF800604A7B6852F823205F497B6831F81330DD
:100B08001946104602F074F803461946584A7B689D
:100B180042F82310554A7B6852F8232052497B68D3
:100B280051F823309A4240F092804F4A7B6852F83D
:100B380023204F497B6851F823309A4240F0878040
:100B48004E4A7B6852F8232048497B6851F8233085
:100B58009A4231D0494A7B6852F82330002B02D0A0
:100B6800012B14D073E0454A7B68012142F8231019
:100B7800434A7B6852F823305A1C41497B6841F844
:100B88002320404A7B680A2142F823105FE03B4A51
:100B98007B68002142F823103B4A7B6852F82330D7
:100BA8005A1C39497B6841F82320384A7B684FF43E
:100BB800967142F823104AE0304A7B6852F8233095
:100BC800012B19D12F4A7B6852F82330002B3EDDC8
:100BD8002C4A7B6852F823305A1E2A497B6841F810
:100BE8002320284A7B6852F82330002B2FDC7868B2
:100BF800FFF764FE034632E0244A7B6852F823304C
:100C0800002B24DD214A7B6852F823305A1E1F49E5
:100C18007B6841F823201D4A7B6852F82330002B5B
:100C280015DC7B68002B05D1184A7B684FF4967158
:100C380042F823107B68012B04D1144A7B681421E5
:100C480042F823107868FFF739FE034607E07B680F
:100C580001337B607B68022B7FF73AAF0C23184681
:100C68000837BD4680BD00BF2C00002020000020B2
:100C780038000020000000200C0000201400002094
:100C8800CC030020B4030020C0030020440000204F
:100C980080B483B000AF786039603B68022B11D014
:100CA8003B68022B12DC3B68002B03D03B68012B0E
:100CB80004D00BE0094A7B68136008E0074A7B68A8
:100CC800536004E0054A7B68936000E000BF00BF02
:100CD8000C37BD465DF8047B704700BFD803002081
:100CE80080B582B000AF786000217868FFF7D0FF48
:100CF80000BF0837BD4680BD80B582B000AF7860C0
:100D080001217868FFF7C4FF00BF0837BD4680BDE2
:100D180080B582B000AF786002217868FFF7B8FF2D
:100D280000BF0837BD4680BD80B500AF052108204B
:100D380000F05CFE0521092000F058FE00BF80BDD0
:100D480080B500AF0321082000F050FE03210920E0
:100D580000F04CFE00BF80BD80B500AF0421082024
:100D680000F044FE0421092000F040FE00BF80BDD1
:100D780080B500AF0621082000F038FE06210920C2
:100D880000F034FE00BF80BD80B500AF0721082009
:100D980000F02CFE0721092000F028FE00BF80BDCE
:100DA80080B500AF0021082000F020FE00BF80BD04
:100DB80080B500AF0221082000F018FE00BF80BDFA
:100DC80080B500AF0121082000F010FE00BF80BDF3
:100DD80080B500AF0021092000F008FE00BF80BDEB
:100DE80080B500AF0221092000F000FE00BF80BDE1
:100DF80080B500AF0121092000F0F8FD00BF80BDDB
:100E080080B500AF0A2000F0F3FE00BF80BD80B5BA
:100E180000AF0B2000F0ECFE00BF80BD80B500AF36
:100E28000C2000F0E5FE00BF80BD000080B500AFDB
:100E3800154B1B68032B1AD0032B22DC012B02D085
:100E4800022B0AD01DE0114B1B68002B02DCFFF7B8
:100E5800D7FF17E0FFF7DBFF14E00C4B1B68002BF4
:100E680002DCFFF7CDFF0DE0FFF7D8FF0AE0074BE4
:100E78001B68002B02DCFFF7C3FF03E0FFF7CEFF80
:100E880000E000BF00BF80BD80040020E403002014
:100E980080B500AF1D4B1B68013B032B32D801A264
:100EA80052F823F0BD0E0008F90E0008E50E000800
:100EB800D10E0008164B1B68002B02DCFFF7A0FFC1
:100EC80021E0FFF7A4FF1EE0114B1B68002B02DC9A
:100ED800FFF796FF17E0FFF7A1FF14E00C4B1B6824
:100EE800002B02DCFFF78CFF0DE0FFF797FF0AE00D
:100EF800074B1B68002B02DCFFF782FF03E0FFF7BC
:100F080086FF00E000BF00BF80BD00BF7C0400205A
:100F1800E403002080B500AF01F0B8FA00F0CCF887
:100F280000F0EAF900F026F900F070F901F0AAF9EA
:100F38005B4802F051FB04215A4802F017FCFFF706
:100F480035FC012000F0EAFE01234FF47A724FF4D9
:100F58007A715548FFF7B6FA02234FF4FA724FF444
:100F6800FA715248FFF7AEFA514B1B68012B40F05B
:100F78009280012000F0D2FEFFF7A4FD0346023B59
:100F8800082B00F28A8001A252F823F0B90F00085A
:100F9800C50F0008D10F0008DD0F00080710000872
:100FA800331000084F1000086B1000088F1000085D
:100FB800404B06221A6000F0E3FC6FE03D4B07222D
:100FC8001A6000F0FFFA69E03A4B08221A6001F053
:100FD80077F863E0374B1B68082B08D0082B0CDC2C
:100FE800052B07D0072B08D100F040FA06E000F0E7
:100FF800F9FF03E0FFF7BCFE00E000BF4EE02D4B19
:101008001B68082B0CD0082B0DDC062B02D0072BF5
:1010180003D008E000F0B4FC06E000F027FA03E093
:1010280001F060F800E000BF38E0224B1B68052B98
:1010380004D0082B05D101F0B3F803E0FFF798FEC0
:1010480000E000BF2AE01B4B1B68052B04D0082BCF
:1010580005D101F047F803E0FFF78AFE00E000BF82
:101068001CE0144B1B68062B02D0072B05D009E0A7
:1010780000F0A8FCFFF7DAFE04E000F0B3FAFFF78F
:1010880007FF00BF0AE00B4B05221A60FFF770FE4E
:10109800FFF7B6FE02E000BF66E700BF64E700BFE7
:1010A800EC03002034040020410800085D08000813
:1010B800A40400206C00002080B594B000AF07F1B4
:1010C800200330220021184604F0C4FA07F10C036B
:1010D80000221A605A609A60DA601A610023BB60C5
:1010E800224B1B6C214A43F0805313641F4B1B6C2B
:1010F80003F08053BB60BB6800237B601C4B1B68FC
:101108001B4A43F480431360194B1B6803F4804364
:101118007B607B6802233B620123FB6210233B63F5
:101128000023BB6307F12003184601F0ADFD034619
:10113800002B01D000F088F90F23FB6000233B61EE
:1011480080237B610023BB610023FB6107F10C0353
:101158000021184602F010F80346002B01D000F0D9
:1011680073F900BF5037BD4680BD00BF003802404C
:101178000070004080B586B000AF07F10803002278
:101188001A605A609A60DA603B4600221A605A6018
:101198001D4B4FF080421A601B4B41F63F725A605C
:1011A800194B00229A60184B0922DA60164B00226C
:1011B8001A61154B00229A61134802F0BDF90346E3
:1011C800002B01D000F040F94FF48053BB6007F1C9
:1011D800080319460C4802F05BFD0346002B01D0BA
:1011E80000F032F900233B6000237B603B46194640
:1011F800054803F04DF90346002B01D000F024F90F
:1012080000BF1837BD4680BDEC03002080B58EB006
:1012180000AF07F1280300221A605A609A60DA606A
:1012280007F1200300221A605A603B1D00221A6051
:101238005A609A60DA601A615A619A612C4B2D4A99
:101248001A602B4B07225A60294B00229A60284BC0
:1012580040F22B12DA60264B00221A61244B00223E
:101268009A61234802F068F90346002B01D000F088
:10127800EBF84FF48053BB6207F1280319461C486A
:1012880002F006FD0346002B01D000F0DDF81848F7
:1012980002F012FA0346002B01D000F0D5F8002323
:1012A8003B6200237B6207F120031946104803F0D4
:1012B800EFF80346002B01D000F0C6F860237B60EE
:1012C800C823BB600023FB6000237B613B1D042215
:1012D8001946074802F01AFC0346002B01D000F01B
:1012E800B3F8034800F09AFD00BF3837BD4680BD0B
:1012F800340400200004004080B588B000AF07F136
:101308000C0300221A605A609A60DA601A6100239E
:10131800BB60444B1B6B434A43F001031363414BCF
:101328001B6B03F00103BB60BB6800237B603D4B74
:101338001B6B3C4A43F0020313633A4B1B6B03F0ED
:1013480002037B607B6800233B60364B1B6B354A8E
:1013580043F008031363334B1B6B03F008033B6034
:101368003B6800227F21304801F05AFC01223F21CE
:101378002E4801F055FC00224FF4F8512B4801F09B
:101388004FFC00224FF4C061294801F049FC7F233B
:10139800FB6001233B6100237B610023BB6107F1F4
:1013A8000C031946204801F087FA3F23FB6001230C
:1013B8003B6100237B610323BB6107F10C031946E2
:1013C8001A4801F079FA4FF4F853FB6001233B61A6
:1013D80000237B610023BB6107F10C031946134806
:1013E80001F06AFA4FF4C063FB6001233B610023FC
:1013F8007B610323BB6107F10C0319460C4801F01C
:101408005BFA4FF4E063FB6000233B6101237B61DF
:1014180007F10C031946044801F04EFA00BF2037C3
:10142800BD4680BD00380240000002400004024072
:10143800000C024080B582B000AF786000F016FC66
:1014480000BF0837BD4680BD80B400AF72B600BF8C
:10145800FEE7000080B400AF034B00221A6000BF13
:10146800BD465DF8047B70477C04002080B500AF62
:10147800514B1B68042B00F29B8001A252F823F009
:101488009D140008B7140008F31400083515000867
:1014980077150008484B01221A600220FFF738FC34
:1014A800FFF766FCFFF77CFCFFF7A2FC81E0424BEC
:1014B80002221A60404B1A68404B1B689A420BD1B3
:1014C8003F4B1B68002B03DD3D4B1B68013B01E0D4
:1014D8003B4B1B683A4A1360FFF7DAFCFFF748FCFE
:1014E800FFF75EFCFFF77CFC63E0334B03221A60D6
:1014F800314B1A68314B1B689A420BD1304B1B6831
:10150800002B03DD2E4B1B68013B01E02C4B1B68B5
:101518002B4A1360FFF7BCFC0220FFF7F9FBFFF72B
:1015280027FCFFF74DFCFFF753FC42E0224B042257
:101538001A60214B1A68214B1B689A420BD1204B29
:101548001B68002B03DD1E4B1B68013B01E01C4B95
:101558001B681B4A1360FFF79BFC0220FFF7D8FBB0
:10156800FFF706FCFFF724FCFFF732FC21E0124BE3
:1015780001221A60104B1A68104B1B689A420BD153
:101588000F4B1B68002B03DD0D4B1B68013B01E073
:101598000B4B1B680A4A1360FFF77AFC0220FFF71F
:1015A800B7FBFFF7E5FBFFF7FBFBFFF721FC00E0CC
:1015B80000BF00BF80BD00BF7C040020E8030020FE
:1015C800E403002080B500AF054B00221A60FFF746
:1015D80017FCFFF73FFFFFF749FF00BF80BD00BFC3
:1015E800E403002080B400AF054B03221A60054BCA
:1015F8001B68054A136000BFBD465DF8047B704751
:10160800E40300207C040020E803002080B400AF3D
:10161800054B00221A60054B00221A6000BFBD4628
:101628005DF8047B704700BF80040020840400201C
:1016380080B500AF934B1B68032B00F2D18001A249
:1016480052F823F05D1600087F160008F916000806
:10165800711700088C4B1B688C4A1360894B012258
:101668001A60FFF79DFB894B1B681846FFF738FB8C
:1016780000F074FEBBE0854B1B68002B40F3B28082
:10168800824B1B68013B814A1360804B1B68002B0F
:1016980024DC7F4B1B687F4A13607A4B02221A6056
:1016A8007D4B1A68774B1B689A420BD17B4B1B68A2
:1016B800002B03DD794B1B68013B01E0774B1B686E
:1016C800764A1360FFF7B2FBFFF77AFB714B1B6892
:1016D8001846FFF705FB00F041FE83E0FFF760FBCB
:1016E8006A4B1B681846FFF7FBFA00F037FE79E0F3
:1016F800684B1B68002B77DD664B1B68013B654A0E
:101708001360644B1B68002B24DC654B1B68654A1F
:1017180013605C4B03221A605F4B1A68594B1B68B5
:101728009A420BD15D4B1B68002B03DD5B4B1B689A
:10173800013B01E0594B1B68584A1360FFF776FBE1
:10174800FFF736FB574B1B681846FFF7C9FA00F03E
:1017580005FE49E0FFF734FB4E4B1B681846FFF7C0
:10176800BFFA00F0FBFD3FE04E4B1B68002B3DDD50
:101778004C4B1B68013B4B4A13604A4B1B68002BC0
:1017880024DC414B1B68414A13603E4B01221A601E
:10179800414B1A683B4B1B689A420BD13F4B1B6865
:1017A800002B03DD3D4B1B68013B01E03B4B1B68F5
:1017B8003A4A1360FFF73AFBFFF7F2FA334B1B681C
:1017C8001846FFF78DFA00F0C9FD0FE0FFF7F0FAB1
:1017D800344B1B681846FFF783FA00F0BFFD05E09D
:1017E80000BF04E000BF02E000BF00E000BF2E4BD6
:1017F8001B68032B00F2AE8001A252F823F000BF51
:10180800191800080D1900083B180008BD18000831
:10181800254B02221A601E4B1B68244A1360FFF7EF
:10182800E7FA224B1B681846FFF766FA00F054FDEA
:1018380097E01E4B1B68002B40F38E801B4B1B68E8
:10184800013B1A4A1360194B1B68002B10DC144B20
:101858001B68174A1360144B03221A60FFF7C0FA7B
:10186800134B1B681846FFF747FA00F035FD73E085
:10187800FFF7BEFA0D4B1B681846FFF73DFA00F05C
:101888002BFD69E0800400205C0000208804002013
:101898006000002090040020E8030020E4030020FA
:1018A8006400002098040020840400209404002090
:1018B8009C0400202C4B1B68002B4FDD2A4B1B6817
:1018C800013B294A1360284B1B68002B10DC274B6F
:1018D8001B68274A1360274B01221A60FFF778FA22
:1018E800234B1B681846FFF707FA00F0F5FC35E0B4
:1018F800FFF776FA1C4B1B681846FFF7FDF900F056
:10190800EBFC2BE01A4B1B68002B29DD184B1B68DE
:10191800013B174A1360164B1B68002B10DC164B53
:101928001B68164A1360134B02221A60FFF760FA0D
:10193800124B1B681846FFF7DFF900F0CDFC0FE0EB
:10194800FFF746FA0A4B1B681846FFF7D5F900F06F
:10195800C3FC05E000BF04E000BF02E000BF00E0F8
:1019680000BF00BF80BD00BF9C0400205C000020B9
:101978008C040020840400206000002094040020CF
:1019880080B500AF0D4B00221A60FFF739FAFFF758
:10199800EFF90120FFF7BCF9FFF738FEFFF748FE23
:1019A8000220FEF7DDFE02234FF47A724FF47A71BB
:1019B8000348FEF787FD00BF80BD00BFE403002099
:1019C8005D08000880B400AF054B03221A60054B80
:1019D8001B68054A136000BFBD465DF8047B70476D
:1019E800E403002080040020E803002080B582B0D2
:1019F80000AF786039607B68082B03D07B68092BBF
:101A080077D0EEE03B68072B71D801A252F823F09B
:101A1800391A0008591A0008791A0008991A000892
:101A2800AD1A0008A31A0008B71A0008D71A000848
:101A3800012201216D4801F0F3F8002204216B48CE
:101A480001F0EEF800220221684801F0E9F84FE0C1
:101A580000220121654801F0E3F8002204216348CF
:101A680001F0DEF801220221604801F0D9F83FE0D8
:101A7800002201215D4801F0D3F8012204215B48CE
:101A880001F0CEF800220221584801F0C9F82FE0F1
:101A98000121564801F0DDF82AE00421534801F0FD
:101AA800D8F825E00221514801F0D3F820E00022BF
:101AB80001214E4801F0B4F8002204214B4801F0FE
:101AC800AFF800220221494801F0AAF810E00122EB
:101AD8000121464801F0A4F801220421434801F0FD
:101AE8009FF801220221414801F09AF800E000BF66
:101AF80077E03B68072B72D801A252F823F000BFA9
:101B0800291B0008491B0008691B0008891B0008DD
:101B18009D1B0008931B0008A71B0008C71B000893
:101B280001220821314801F07BF8002220212F48AA
:101B380001F076F8002210212C4801F071F84FE0EE
:101B480000220821294801F06BF8002220212748AB
:101B580001F066F801221021244801F061F83FE005
:101B680000220821214801F05BF8012220211F48AA
:101B780001F056F8002210211C4801F051F82FE01E
:101B880008211A4801F065F82AE02021174801F0D9
:101B980060F825E01021154801F05BF820E00022EC
:101BA8000821124801F03CF8002220210F4801F0DA
:101BB80037F8002210210D4801F032F810E0012218
:101BC80008210A4801F02CF801222021074801F0D9
:101BD80027F801221021054801F022F800E000BF93
:101BE80000BF00BF0837BD4680BD00BF00040240EB
:101BF80080B582B000AF78607B680C2B22D07B6800
:101C08000C2B2CDC7B680A2B0FD07B680B2B26D186
:101C180001224FF40071144801F002F800224FF439
:101C28008061114800F0FCFF1AE000224FF40071B7
:101C38000D4800F0F5FF00224FF480610A4800F0DB
:101C4800EFFF0DE000224FF40071074800F0E8FFB5
:101C580001224FF48061044800F0E2FF00E000BF79
:101C680000BF0837BD4680BD000C024080B400AFFD
:101C7800224B1B68002B0BDD204B1B68013B1F4AC6
:101C880013601E4B1B68002B02DC1D4B01221A60DF
:101C98001C4B1B68002B0BDD1A4B1B68013B194AB8
:101CA8001360184B1B68002B02DC174B01221A60CB
:101CB800164B1B68002B0BDD144B1B68013B134AAA
:101CC8001360124B1B68002B02DC114B01221A60B7
:101CD800104B1B68002B0BDD0E4B1B68013B0D4A9C
:101CE80013600C4B1B68002B02DC0B4B01221A60A3
:101CF80000BFBD465DF8047B704700BFA00400200C
:101D0800A4040020A8040020AC040020B004002093
:101D1800B4040020B8040020BC04002080B483B0C0
:101D280000AF7860054A7B681360054B00221A6093
:101D380000BF0C37BD465DF8047B7047A004002047
:101D4800A404002080B483B000AF00237B60104B54
:101D58005B6C0F4A43F4804353640D4B5B6C03F494
:101D680080437B607B6800233B60094B1B6C084AFF
:101D780043F080531364064B1B6C03F080533B60A5
:101D88003B6800BF0C37BD465DF8047B704700BF59
:101D98000038024080B584B000AF78607B681B686B
:101DA800B3F1804F16D10023FB601A4B1B6C194A04
:101DB80043F001031364174B1B6C03F00103FB6032
:101DC800FB68002200211C2000F0ADFC1C2000F064
:101DD800C6FC1AE07B681B680F4A934215D10023A2
:101DE800BB600C4B1B6C0B4A43F002031364094B9A
:101DF8001B6C03F00203BB60BB68002200211D209E
:101E080000F091FC1D2000F0AAFC00BF1037BD4671
:101E180080BD00BF003802400004004080B588B093
:101E280000AF786007F10C0300221A605A609A60CC
:101E3800DA601A617B681B68124A93421DD100233D
:101E4800BB60114B1B6B104A43F0010313630E4B2D
:101E58001B6B03F00103BB60BB688023FB6002239C
:101E68003B6100237B610023BB610223FB6107F117
:101E78000C031946054800F01FFD00BF2037BD467A
:101E880080BD00BF0004004000380240000002404E
:101E980080B58AB000AF786007F1140300221A6099
:101EA8005A609A60DA601A617B681B681D4A93421F
:101EB80033D100233B611C4B5B6C1B4A43F010037E
:101EC8005364194B5B6C03F010033B613B690023BF
:101ED800FB60154B1B6B144A43F002031363124B50
:101EE8001B6B03F00203FB60FB68C0237B610223CA
:101EF800BB610023FB6103233B6207237B6207F17D
:101F080014031946094800F0D7FC002200212520B7
:101F180000F009FC252000F022FC00BF2837BD4650
:101F280080BD00BF0010014000380240000402409C
:101F380080B400AFFEE780B400AFFEE780B400AF26
:101F4800FEE780B400AFFEE780B400AFFEE780B4E0
:101F580000AF00BFBD465DF8047B704780B400AF9A
:101F680000BFBD465DF8047B704780B400AF00BF7A
:101F7800BD465DF8047B704780B500AF00F0D8FA25
:101F880000BF80BD80B500AF024801F0B7FC00BFBC
:101F980080BD00BFEC03002080B500AF024801F00F
:101FA800ADFC00BF80BD00BF3404002080B500AF89
:101FB800024802F0DDFB00BF80BD00BFC404002062
:101FC80080B400AF064BD3F88830054A43F4700359
:101FD800C2F8883000BFBD465DF8047B704700BF7B
:101FE80000ED00E080B500AF2B4B1B68032B4BD8EE
:101FF80001A252F823F000BF112000083120000888
:102008005120000871200008234B01221A60FEF7B6
:10201800AFFE224B1B681846FEF762FE1F4B1B687B
:102028001846FEF769FE30E01B4B02221A60FEF7E5
:102038009FFE1B4B1B681846FEF752FE184B1B6889
:102048001846FEF759FE20E0134B03221A60FEF7EC
:102058008FFE144B1B681846FEF742FE114B1B6897
:102068001846FEF749FE10E00B4B01221A60FEF7F6
:102078007FFE0A4B1B681846FEF732FE074B1B68AB
:102088001846FEF739FE00E000BF00F067F900F0DF
:1020980023F900BF80BD00BFC00400205C00002001
:1020A800640000206000002080B400AF034B0022D1
:1020B8001A6000BFBD465DF8047B7047C00400206D
:1020C80080B500AF064B00221A60FEF799FEFFF7B5
:1020D800EBFF0320FEF71CFEFFF784FF00BF80BD67
:1020E800E403002080B500AF294B1B68032B34D0D4
:1020F800032B49DC012B02D0022B17D044E0254BDF
:102108001B680133234A1360224B1B68632B02DDD3
:10211800204B00221A601F4B1B681846FEF7E0FD93
:102128001C4B1B681846FEF7E7FD2EE01A4B1B6890
:102138000133194A1360184B1B68632B02DD164BD9
:1021480000221A60144B1B681846FEF7C9FD124B93
:102158001B681846FEF7D0FD17E0104B1B680133CB
:102168000E4A13600D4B1B68632B02DD0B4B0022DC
:102178001A600A4B1B681846FEF7B2FD074B1B682E
:102188001846FEF7B9FD00E000BF00BF80BD00BFE4
:10219800C0040020500000205800002054000020F7
:1021A80080B500AF204B1A68204B1B681A44204B9F
:1021B8001B689A4228D01F4B1B68032B17D1582045
:1021C800FEF78EFD5820FEF797FD0820FEF7A0FDCC
:1021D800FEF7DAFD184B1B68144A1360174B1B688F
:1021E800134A1360164B1B680F4A136019E0124B11
:1021F8001B680E4A1360114B1B680D4A1360104B85
:102208001B68094A13600CE0084B1B680A4A1360F4
:10221800074B1B68094A1360034B1B68084A136085
:1022280000BF00BF80BD00BF580000205400002040
:1022380050000020C0040020600000205C00002046
:102248006400002080B500AF0D4B1B68032B14D829
:1022580001A252F823F000BF83220008712200086F
:10226800772200087D220008FEF76AFD06E0FEF7E7
:102278005BFD03E0FEF770FD00E000BF00BF80BD1E
:10228800C004002080B500AF104B114A1A600F4BF4
:10229800104A5A600D4B00229A600C4B0022DA60FB
:1022A8000A4B00221A61094B0C225A61074B002283
:1022B8009A61064B0022DA61044802F079F9034674
:1022C800002B01D0FFF7C0F800BF80BDC404002078
:1022D800001001400077010080B586B000AF1B4AAE
:1022E80007F1100392E803001860043319800233E1
:1022F8000A0C1A70164A07F10C0312681146198065
:102308000233120C1A70134B5B6839460A221846BE
:1023180003F09EF907F110014FF47A7307220E4873
:1023280002F093F939464FF47A730A220A4802F008
:102338008CF907F10C014FF47A730322064802F076
:1023480084F900BF1837BD4680BD00BF0857000894
:1023580010570008D8030020C404002080B58CB0B2
:1023680000AF304A07F1280392E8030018600433ED
:10237800198002330A0C1A702B4A07F1200392E8DD
:10238800030018600433198002330A0C1A70274AB4
:1023980007F11C031268114619800233120C1A70D7
:1023A800234B1B6807F110010A22184603F050F965
:1023B8001F4B9B68391D0A22184603F049F907F19B
:1023C80020014FF47A7307221A4802F03EF9391DAA
:1023D8004FF47A730A22174802F037F907F11C0103
:1023E8004FF47A730322134802F02FF907F12801FA
:1023F8004FF47A7307220F4802F027F907F110010A
:102408004FF47A730A220B4802F01FF907F11C01F6
:102418004FF47A730322074802F017F900BF3037E8
:10242800BD4680BD0857000814570008105700081B
:10243800D8030020C4040020DFF834D00D480E492A
:102448000E4A002302E0D458C4500433C4188C4206
:10245800F9D30B4A0B4C002301E013600432A2426B
:10246800FBD3FFF7ADFD03F0B7F8FEF753FD704758
:102478000000022000000020780000206C570008AF
:10248800780000200C050020FEE7000080B500AFB2
:102498000E4B1B680D4A43F4007313600B4B1B680B
:1024A8000A4A43F480631360084B1B68074A43F4E5
:1024B80080731360032000F02BF90F2000F008F858
:1024C800FFF740FC0023184680BD00BF003C0240D7
:1024D80080B582B000AF7860124B1A68124B1B7837
:1024E80019464FF47A73B3FBF1F3B2FBF3F31846D2
:1024F80000F043F90346002B01D001230EE07B686E
:102508000F2B0AD8002279684FF0FF3000F00BF942
:10251800064A7B681360002300E001231846083749
:10252800BD4680BD680000207400002070000020B7
:1025380080B400AF064B1B781A46064B1B68134441
:10254800044A136000BFBD465DF8047B704700BFB6
:10255800740000200805002080B400AF034B1B68FE
:102568001846BD465DF8047B704700BF080500208B
:1025780080B485B000AF78607B6803F00703FB6028
:102588000C4BDB68BB60BA684FF6FF031340BB60B7
:10259800FB681A02BB68134343F0BF6343F400337C
:1025A800BB60044ABB68D36000BF1437BD465DF802
:1025B800047B704700ED00E080B400AF044BDB689B
:1025C8001B0A03F007031846BD465DF8047B7047F5
:1025D80000ED00E080B483B000AF0346FB7197F9CB
:1025E8000730002B0BDBFB7903F01F02074997F933
:1025F80007305B09012000FA02F241F8232000BFEE
:102608000C37BD465DF8047B704700BF00E100E071
:1026180080B483B000AF03463960FB7197F9073087
:10262800002B0ADB3B68DAB20C4997F90730120134
:10263800D2B20B4483F800230AE03B68DAB20849B7
:10264800FB7903F00F03043B1201D2B20B441A7654
:1026580000BF0C37BD465DF8047B704700E100E021
:1026680000ED00E080B489B000AFF860B9607A602E
:10267800FB6803F00703FB61FB69C3F10703042B45
:1026880028BF0423BB61FB690433062B02D9FB690D
:10269800033B00E000237B614FF0FF32BB6902FA85
:1026A80003F3DA43BB681A407B699A404FF0FF3165
:1026B8007B6901FA03F3D9437B680B40134318463F
:1026C8002437BD465DF8047B7047000080B582B0B2
:1026D80000AF78607B68013BB3F1807F01D30123B1
:1026E8000FE00A4A7B68013B53600F214FF0FF302F
:1026F800FFF78EFF054B00229A60044B07221A60F1
:10270800002318460837BD4680BD00BF10E000E032
:1027180080B582B000AF78607868FFF729FF00BF06
:102728000837BD4680BD80B586B000AF0346B960A6
:102738007A60FB7300237B61FFF73EFF78617A685C
:10274800B9687869FFF78EFF024697F90F3011468E
:102758001846FFF75DFF00BF1837BD4680BD80B53E
:1027680082B000AF0346FB7197F907301846FFF7B0
:1027780031FF00BF0837BD4680BD80B582B000AFCD
:1027880078607868FFF7A2FF034618460837BD4609
:1027980080BD80B584B000AF78607B689B6DFB60BE
:1027A800FFF7DAFEB8607B6893F83530DBB2022BAE
:1027B80008D07B6880225A657B68002283F8342021
:1027C800012352E07B681B681A687B681B6822F04B
:1027D80016021A607B681B685A697B681B6822F0BE
:1027E80080025A617B681B6C002B03D17B689B6C51
:1027F800002B07D07B681B681A687B681B6822F06F
:1028080008021A607B681B681A687B681B6822F0DC
:1028180001021A6013E0FFF79FFE0246BB68D31A55
:10282800052B0CD97B6820225A657B68032283F824
:1028380035207B68002283F83420032315E07B6869
:102848001B681B6803F00103002BE4D17B68DB6D78
:102858003F229A40FB689A607B68012283F8352002
:102868007B68002283F83420002318461037BD46C1
:1028780080BD80B483B000AF78607B6893F8353052
:10288800DBB2022B04D07B6880225A6501230CE05E
:102898007B68052283F835207B681B681A687B688B
:1028A8001B6822F001021A60002318460C37BD4647
:1028B8005DF8047B7047000080B489B000AF786091
:1028C800396000237B6100233B610023BB61002347
:1028D800FB616BE10122FB6902FA03F37B613B6850
:1028E8001B687A6913403B613A697B699A4240F0F8
:1028F8005A813B685B6803F00303012B05D03B68F2
:102908005B6803F00303022B30D17B689B68BB61D3
:10291800FB695B00032202FA03F3DB43BA69134045
:10292800BB613B68DA68FB695B0002FA03F3BA69CA
:102938001343BB617B68BA699A607B685B68BB615B
:102948000122FB6902FA03F3DB43BA691340BB6156
:102958003B685B681B0903F00102FB6902FA03F399
:10296800BA691343BB617B68BA695A603B685B68A4
:1029780003F00303032B17D07B68DB68BB61FB699B
:102988005B00032202FA03F3DB43BA691340BB611D
:102998003B689A68FB695B0002FA03F3BA69134360
:1029A800BB617B68BA69DA603B685B6803F0030364
:1029B800022B23D1FB69DA087B68083253F82230EE
:1029C800BB61FB6903F007039B000F2202FA03F3C4
:1029D800DB43BA691340BB613B681A69FB6903F0C2
:1029E80007039B0002FA03F3BA691343BB61FB694F
:1029F800DA087B680832B96943F822107B681B68DB
:102A0800BB61FB695B00032202FA03F3DB43BA698B
:102A18001340BB613B685B6803F00302FB695B0022
:102A280002FA03F3BA691343BB617B68BA691A6097
:102A38003B685B6803F44033002B00F0B48000234C
:102A4800FB60604B5B6C5F4A43F4804353645D4BAF
:102A58005B6C03F48043FB60FB685B4AFB699B0883
:102A6800023352F82330BB61FB6903F003039B0078
:102A78000F2202FA03F3DB43BA691340BB617B6898
:102A8800524A93422BD07B68514A934225D07B68A7
:102A9800504A93421FD07B684F4A934219D07B68B3
:102AA8004E4A934213D07B684D4A93420DD07B68BF
:102AB8004C4A934207D07B684B4A934201D1072383
:102AC8000EE008230CE006230AE0052308E00423AF
:102AD80006E0032304E0022302E0012300E00023D0
:102AE800FA6902F0030292009340BA691343BB618A
:102AF8003549FB699B080233BA6941F823203B4BEF
:102B08001B68BB613B69DB43BA691340BB613B6827
:102B18005B6803F48033002B03D0BA693B69134325
:102B2800BB61324ABB691360304B5B68BB613B6970
:102B3800DB43BA691340BB613B685B6803F400334D
:102B4800002B03D0BA693B691343BB61274ABB69B1
:102B58005360264B9B68BB613B69DB43BA691340F2
:102B6800BB613B685B6803F48013002B03D0BA6930
:102B78003B691343BB611D4ABB6993601B4BDB6810
:102B8800BB613B69DB43BA691340BB613B685B6867
:102B980003F40013002B03D0BA693B691343BB61EC
:102BA800124ABB69D360FB690133FB61FB690F2BD8
:102BB8007FF690AE00BF00BF2437BD465DF8047BAA
:102BC800704700BF00380240003801400000024052
:102BD8000004024000080240000C024000100240BD
:102BE8000014024000180240001C0240003C014052
:102BF80080B485B000AF78600B467B807B681A692B
:102C08007B881340002B02D00123FB7301E00023D3
:102C1800FB73FB7B18461437BD465DF8047B704791
:102C280080B483B000AF78600B467B8013467B701E
:102C38007B78002B03D07A887B689A6103E07B88D5
:102C48001A047B689A6100BF0C37BD465DF8047BA7
:102C5800704780B485B000AF78600B467B807B6896
:102C68005B69FB607A88FB6813401A04FB68D943E8
:102C78007B880B401A437B689A6100BF1437BD46B6
:102C88005DF8047B7047000080B586B000AF7860BF
:102C98007B68002B01D1012367E27B681B6803F086
:102CA8000103002B75D0884B9B6803F00C03042BA1
:102CB8000CD0854B9B6803F00C03082B12D1824B78
:102CC8005B6803F48003B3F5800F0BD17E4B1B6860
:102CD80003F40033002B5BD07B685B68002B57D173
:102CE800012342E27B685B68B3F5803F06D1764BEF
:102CF8001B68754A43F4803313601DE07B685B688A
:102D0800B3F5A02F0CD1704B1B686F4A43F4802396
:102D180013606D4B1B686C4A43F4803313600BE0FF
:102D2800694B1B68684A23F480331360664B1B6841
:102D3800654A23F4802313607B685B68002B13D0FB
:102D4800FFF70AFC386108E0FFF706FC02463B691A
:102D5800D31A642B01D9032307E25B4B1B6803F4E6
:102D68000033002BF0D014E0FFF7F6FB386108E0E1
:102D7800FFF7F2FB02463B69D31A642B01D9032300
:102D8800F3E1514B1B6803F40033002BF0D100E052
:102D980000BF7B681B6803F00203002B63D04A4B1B
:102DA8009B6803F00C03002B0BD0474B9B6803F088
:102DB8000C03082B1CD1444B5B6803F48003002BE5
:102DC80016D1414B1B6803F00203002B05D07B682A
:102DD800DB68012B01D00123C7E13B4B1B6823F0C3
:102DE800F8027B681B69DB00374913430B603AE044
:102DF8007B68DB68002B20D0344B01221A60FFF778
:102E0800ABFB386108E0FFF7A7FB02463B69D31A22
:102E1800022B01D90323A8E12B4B1B6803F0020303
:102E2800002BF0D0284B1B6823F0F8027B681B6945
:102E3800DB00254913430B6015E0244B00221A6080
:102E4800FFF78AFB386108E0FFF786FB02463B691B
:102E5800D31A022B01D9032387E11B4B1B6803F00C
:102E68000203002BF0D17B681B6803F00803002BDA
:102E780036D07B685B69002B16D0154B01221A608F
:102E8800FFF76AFB386108E0FFF766FB02463B691B
:102E9800D31A022B01D9032367E10B4B5B6F03F0B5
:102EA8000203002BF0D01BE0094B00221A60FFF749
:102EB80053FB38610EE0FFF74FFB02463B69D31A1C
:102EC800022B07D9032350E1003802400000474293
:102ED800800E4742884B5B6F03F00203002BEAD158
:102EE8007B681B6803F00403002B00F09780002325
:102EF800FB75814B1B6C03F08053002B0FD1002313
:102F0800BB607D4B1B6C7C4A43F0805313647A4B47
:102F18001B6C03F08053BB60BB680123FB75774BC8
:102F28001B6803F48073002B18D1744B1B68734A19
:102F380043F480731360FFF70FFB386108E0FFF775
:102F48000BFB02463B69D31A022B01D903230CE180
:102F58006A4B1B6803F48073002BF0D07B689B6876
:102F6800012B06D1644B1B6F634A43F001031367BF
:102F78001CE07B689B68052B0CD15F4B1B6F5E4A7E
:102F880043F0040313675C4B1B6F5B4A43F0010378
:102F980013670BE0584B1B6F574A23F00103136765
:102FA800554B1B6F544A23F0040313677B689B68D7
:102FB800002B15D0FFF7D0FA38610AE0FFF7CCFAFA
:102FC80002463B69D31A41F28832934201D903235E
:102FD800CBE0494B1B6F03F00203002BEED014E04B
:102FE800FFF7BAFA38610AE0FFF7B6FA02463B691A
:102FF800D31A41F28832934201D90323B5E03E4BFC
:103008001B6F03F00203002BEED1FB7D012B05D1D2
:10301800394B1B6C384A23F0805313647B689B69D7
:10302800002B00F0A180344B9B6803F00C03082BA5
:103038005CD07B689B69022B41D1314B00221A601E
:10304800FFF78AFA386108E0FFF786FA02463B691B
:10305800D31A022B01D9032387E0274B1B6803F0FF
:103068000073002BF0D17B68DA697B681B6A1A430E
:103078007B685B6A9B011A437B689B6A5B08013B20
:103088001B041A437B68DB6A1B061B4913434B600E
:103098001B4B01221A60FFF75FFA386108E0FFF75F
:1030A8005BFA02463B69D31A022B01D903235CE081
:1030B800114B1B6803F00073002BF0D054E0104B49
:1030C80000221A60FFF748FA386108E0FFF744FA6F
:1030D80002463B69D31A022B01D9032345E0064B6C
:1030E8001B6803F00073002BF0D13DE07B689B69FF
:1030F800012B07D1012338E000380240007000405E
:10310800600047421B4B5B68FB607B689B69012B37
:1031180028D0FB6803F480027B68DB699A4221D1DE
:10312800FB6803F03F027B681B6A9A421AD1FA686F
:1031380047F6C07313407A68526A9201934211D1DC
:10314800FB6803F440327B689B6A5B08013B1B0405
:103158009A4207D1FB6803F070627B68DB6A1B0642
:103168009A4201D0012300E0002318461837BD46D3
:1031780080BD00BF0038024080B584B000AF7860E1
:1031880039607B68002B01D10123CCE0684B1B68B8
:1031980003F007033A689A420CD9654B3A68D2B2F1
:1031A8001A70634B1B6803F007033A689A4201D010
:1031B8000123B8E07B681B6803F00203002B20D0D2
:1031C8007B681B6803F00403002B05D0594B9B68F0
:1031D800584A43F4E05393607B681B6803F0080384
:1031E800002B05D0534B9B68524A43F460439360CD
:1031F800504B9B6823F0F0027B689B684D49134352
:103208008B607B681B6803F00103002B44D07B684C
:103218005B68012B07D1474B1B6803F40033002B75
:1032280019D101237FE07B685B68022B03D07B68A0
:103238005B68032B07D13F4B1B6803F00073002B1F
:1032480009D101236FE03B4B1B6803F00203002BFD
:1032580001D1012367E0374B9B6823F003027B68A9
:103268005B68344913438B60FFF776F9F8600AE02E
:10327800FFF772F90246FB68D31A41F2883293428B
:1032880001D903234FE02B4B9B6803F00C027B68AA
:103298005B689B009A42EBD1254B1B6803F0070340
:1032A8003A689A420CD2224B3A68D2B21A70204B32
:1032B8001B6803F007033A689A4201D0012332E001
:1032C8007B681B6803F00403002B08D0194B9B682C
:1032D80023F4E0527B68DB68164913438B607B68F4
:1032E8001B6803F00803002B09D0124B9B6823F4DA
:1032F80060427B681B69DB000E4913438B6000F05A
:1033080021F802460B4B9B681B0903F00F030A497F
:10331800CB5C22FA03F3094A1360094B1B68184671
:10332800FFF7D6F8002318461037BD4680BD00BF0A
:10333800003C0240003802401C570008680000208A
:10334800700000202DE9B04F90B000AF00237B63E0
:103358000023FB6300233B630023BB63594B9B683B
:1033680003F00C03082B0DD0082B00F2A180002BD2
:1033780002D0042B03D09BE0534BBB639BE0534B21
:10338800BB6398E04F4B5B6803F03F037B634D4B97
:103398005B6803F48003002B28D04A4B5B689B09C9
:1033A80000223B627A623B6AC3F308000021474B64
:1033B80003FB01F2002300FB03F31344434AA0FB81
:1033C8000212FA620A46BA62FA6A1344FB627B6B1B
:1033D8000022BB61FA61D7E90623D7E90A01FCF7A5
:1033E800EFFE02460B461346FB6353E0354B5B6822
:1033F8009B0900223B617A613B69C3F3080A4FF0DD
:10340800000B52465B464FF000004FF00001590197
:1034180041EAD261500102460B46B2EB0A0863EB5F
:103428000B094FF000024FF000034FEA891343EAFB
:1034380098634FEA8812B2EB080463EB09054FF072
:1034480000024FF00003EB0043EA5473E200144615
:103458001D4614EB0A033B6045EB0B037B604FF002
:1034680000024FF00003D7E9004529468B022146A8
:1034780043EA915321468A02104619467B6B002283
:10348800BB60FA60D7E90223FCF79AFE02460B46B6
:103498001346FB630B4B5B681B0C03F00303013300
:1034A8005B003B63FA6B3B6BB2FBF3F3BB6302E07D
:1034B800054BBB6300BFBB6B18464037BD46BDE834
:1034C800B08F00BF003802400024F40040787D012E
:1034D80080B400AF034B1B681846BD465DF8047BFB
:1034E800704700BF6800002080B500AFFFF7F0FF0D
:1034F8000246054B9B689B0A03F007030349CB5C14
:1035080022FA03F3184680BD003802402C57000801
:1035180080B500AFFFF7DCFF0246054B9B685B0BED
:1035280003F007030349CB5C22FA03F3184680BD76
:10353800003802402C57000880B582B000AF786090
:103548007B68002B01D1012341E07B6893F83D3073
:10355800DBB2002B06D17B68002283F83C20786818
:10356800FEF718FC7B68022283F83D207B681A6806
:103578007B6804331946104600F07AFC7B68012208
:1035880083F846207B68012283F83E207B6801226D
:1035980083F83F207B68012283F840207B68012262
:1035A80083F841207B68012283F842207B6801224E
:1035B80083F843207B68012283F844207B6801223A
:1035C80083F845207B68012283F83D2000231846B4
:1035D8000837BD4680BD000080B485B000AF786074
:1035E8007B6893F83D30DBB2012B01D001234EE01C
:1035F8007B68022283F83D207B681B68DA687B6859
:103608001B6842F00102DA607B681B68234A934218
:1036180022D07B681B68B3F1804F1DD07B681B6884
:103628001F4A934218D07B681B681E4A934213D0E6
:103638007B681B681C4A93420ED07B681B681B4A38
:10364800934209D07B681B68194A934204D07B686F
:103658001B68184A934211D17B681B689B6803F06A
:103668000703FB60FB68062B10D07B681B681A6891
:103678007B681B6842F001021A6007E07B681B68E0
:103688001A687B681B6842F001021A60002318461A
:103698001437BD465DF8047B704700BF0000014049
:1036A8000004004000080040000C004000040140F5
:1036B800004001400018004080B582B000AF78603B
:1036C8007B68002B01D1012341E07B6893F83D30F2
:1036D800DBB2002B06D17B68002283F83C20786897
:1036E80000F039F87B68022283F83D207B681A686D
:1036F8007B6804331946104600F0BAFB7B68012248
:1037080083F846207B68012283F83E207B680122EB
:1037180083F83F207B68012283F840207B680122E0
:1037280083F841207B68012283F842207B680122CC
:1037380083F843207B68012283F844207B680122B8
:1037480083F845207B68012283F83D200023184632
:103758000837BD4680BD80B483B000AF786000BF35
:103768000C37BD465DF8047B7047000080B584B017
:1037780000AF786039603B68002B09D17B6893F80B
:103788003E30DBB2012B14BF01230023DBB222E061
:103798003B68042B09D17B6893F83F30DBB2012BDF
:1037A80014BF01230023DBB215E03B68082B09D1C5
:1037B8007B6893F84030DBB2012B14BF0123002350
:1037C800DBB208E07B6893F84130DBB2012B14BF11
:1037D80001230023DBB2002B01D001237CE03B68EE
:1037E800002B04D17B68022283F83E2013E03B685B
:1037F800042B04D17B68022283F83F200BE03B684E
:10380800082B04D17B68022283F8402003E07B6800
:10381800022283F841207B681B6801223968184618
:1038280000F010FE7B681B682D4A934204D07B6829
:103838001B682C4A934201D1012300E00023002B8E
:1038480007D07B681B685A6C7B681B6842F400428F
:103858005A647B681B68224A934222D07B681B68A3
:10386800B3F1804F1DD07B681B681F4A934218D064
:103878007B681B681D4A934213D07B681B681C4AEF
:1038880093420ED07B681B68164A934209D07B6826
:103898001B68184A934204D07B681B68164A9342F7
:1038A80011D17B681B689B6803F00703FB60FB680A
:1038B800062B10D07B681B681A687B681B6842F06F
:1038C80001021A6007E07B681B681A687B681B683E
:1038D80042F001021A60002318461037BD4680BD29
:1038E80000000140000401400004004000080040BE
:1038F800000C0040004001400018004080B582B034
:1039080000AF78607B681B681B6903F00203022B19
:1039180022D17B681B68DB6803F00203022B1BD1F2
:103928007B681B686FF002021A617B6801221A77B4
:103938007B681B689B6903F00303002B03D078683E
:1039480000F077FA05E0786800F069FA786800F026
:103958007AFA7B6800221A777B681B681B6903F078
:103968000403042B22D17B681B68DB6803F0040383
:10397800042B1BD17B681B686FF004021A617B68FB
:1039880002221A777B681B689B6903F44073002B3B
:1039980003D0786800F04DFA05E0786800F03FFA47
:1039A800786800F050FA7B6800221A777B681B68F9
:1039B8001B6903F00803082B22D17B681B68DB68AE
:1039C80003F00803082B1BD17B681B686FF0080203
:1039D8001A617B6804221A777B681B68DB6903F02D
:1039E8000303002B03D0786800F023FA05E0786819
:1039F80000F015FA786800F026FA7B6800221A773A
:103A08007B681B681B6903F01003102B22D17B68AD
:103A18001B68DB6803F01003102B1BD17B681B6845
:103A28006FF010021A617B6808221A777B681B689E
:103A3800DB6903F44073002B03D0786800F0F9F9D0
:103A480005E0786800F0EBF9786800F0FCF97B682D
:103A580000221A777B681B681B6903F00103012B9E
:103A68000ED17B681B68DB6803F00103012B07D1CB
:103A78007B681B686FF001021A617868FDF7DAFC51
:103A88007B681B681B6903F08003802B0ED17B6861
:103A98001B68DB6803F08003802B07D17B681B68F9
:103AA8006FF080021A61786800F078FD7B681B6807
:103AB8001B6903F04003402B0ED17B681B68DB6851
:103AC80003F04003402B07D17B681B686FF040026E
:103AD8001A61786800F0C1F97B681B681B6903F0FC
:103AE8002003202B0ED17B681B68DB6803F02003C2
:103AF800202B07D17B681B686FF020021A61786859
:103B080000F042FD00BF0837BD4680BD80B586B0D5
:103B180000AFF860B9607A600023FB75FB6893F822
:103B28003C30012B01D10223AEE0FB68012283F86F
:103B38003C207B680C2B00F29F8001A252F823F0F6
:103B48007D3B0008813C0008813C0008813C00085E
:103B5800BD3B0008813C0008813C0008813C00080E
:103B6800FF3B0008813C0008813C0008813C0008BC
:103B78003F3C0008FB681B68B968184600F018FA53
:103B8800FB681B689A69FB681B6842F008029A6127
:103B9800FB681B689A69FB681B6822F004029A613B
:103BA800FB681B689969BB681A69FB681B680A434C
:103BB8009A6164E0FB681B68B968184600F068FA07
:103BC800FB681B689A69FB681B6842F400629A618B
:103BD800FB681B689A69FB681B6822F480629A611B
:103BE800FB681B689969BB681B691A02FB681B683C
:103BF8000A439A6143E0FB681B68B968184600F0FD
:103C0800BDFAFB681B68DA69FB681B6842F00802AA
:103C1800DA61FB681B68DA69FB681B6822F004023A
:103C2800DA61FB681B68D969BB681A69FB681B689D
:103C38000A43DA6123E0FB681B68B968184600F09C
:103C480011FBFB681B68DA69FB681B6842F40062B9
:103C5800DA61FB681B68DA69FB681B6822F480621A
:103C6800DA61FB681B68D969BB681B691A02FB68C3
:103C78001B680A43DA6102E00123FB7500BFFB6899
:103C8800002283F83C20FB7D18461837BD4680BDCE
:103C980080B584B000AF786039600023FB737B681F
:103CA80093F83C30012B01D10223B4E07B68012258
:103CB80083F83C207B68022283F83D207B681B68E0
:103CC8009B68BB60BB6823F07703BB60BB6823F4C9
:103CD8007F43BB607B681B68BA689A603B681B6857
:103CE800B3F5005F3ED0B3F5005F00F28780B3F50F
:103CF800805F00F08680B3F5805F7FD8702B1AD084
:103D0800702B7BD8602B50D0602B77D8502B3CD0B1
:103D1800502B73D8402B58D0402B6FD8302B64D001
:103D2800302B6BD8202B60D0202B67D8002B5CD091
:103D3800102B5AD062E07B6818683B6899683B682A
:103D48005A683B68DB6800F05DFB7B681B689B6812
:103D5800BB60BB6843F07703BB607B681B68BA68CD
:103D68009A604FE07B6818683B6899683B685A68B6
:103D78003B68DB6800F046FB7B681B689A687B68D9
:103D88001B6842F480429A603CE07B6818683B6894
:103D980059683B68DB681A4600F0BAFA7B681B680A
:103DA8005021184600F013FB2CE07B6818683B682C
:103DB80059683B68DB681A4600F0D9FA7B681B68CB
:103DC8006021184600F003FB1CE07B6818683B681C
:103DD80059683B68DB681A4600F09AFA7B681B68EA
:103DE8004021184600F0F3FA0CE07B681A683B683B
:103DF8001B681946104600F0EAFA03E00123FB733A
:103E080000E000BF7B68012283F83D207B68002228
:103E180083F83C20FB7B18461037BD4680BD80B434
:103E280083B000AF786000BF0C37BD465DF8047BF7
:103E3800704780B483B000AF786000BF0C37BD46D0
:103E48005DF8047B704780B483B000AF786000BF32
:103E58000C37BD465DF8047B704780B483B000AF73
:103E6800786000BF0C37BD465DF8047B70470000E2
:103E780080B485B000AF786039607B681B68FB60F0
:103E88007B68404A934213D07B68B3F1804F0FD0D0
:103E98007B683D4A93420BD07B683C4A934207D0EB
:103EA8007B683B4A934203D07B683A4A934208D1E5
:103EB800FB6823F07003FB603B685B68FA68134398
:103EC800FB607B682F4A93422BD07B68B3F1804F0D
:103ED80027D07B682C4A934223D07B682B4A934295
:103EE8001FD07B682A4A93421BD07B68294A934299
:103EF80017D07B68284A934213D07B68274A93429D
:103F08000FD07B68264A93420BD07B68254A9342A0
:103F180007D07B68244A934203D07B68234A9342A4
:103F280008D1FB6823F44073FB603B68DB68FA68E0
:103F38001343FB60FB6823F080023B685B69134313
:103F4800FB607B68FA681A603B689A687B68DA628B
:103F58003B681A687B689A627B680A4A934203D076
:103F68007B680C4A934203D13B681A697B681A63E1
:103F78007B6801225A6100BF1437BD465DF8047B97
:103F8800704700BF000001400004004000080040E6
:103F9800000C004000040140004001400044014082
:103FA8000048014000180040001C0040002000406C
:103FB80080B487B000AF786039607B681B6A23F0F3
:103FC80001027B681A627B681B6A7B617B685B689D
:103FD8003B617B689B69FB60FB6823F07003FB60B7
:103FE800FB6823F00303FB603B681B68FA68134314
:103FF800FB607B6923F002037B613B689B687A69FD
:1040080013437B617B68204A934203D07B681F4A35
:1040180093420CD17B6923F008037B613B68DB6822
:104028007A6913437B617B6923F004037B617B68B6
:10403800154A934203D07B68144A934211D13B69D5
:1040480023F480733B613B6923F400733B613B6855
:104058005B693A6913433B613B689B693A6913435F
:104068003B617B683A695A607B68FA689A613B6889
:104078005A687B685A637B687A691A6200BF1C3782
:10408800BD465DF8047B7047000001400004014014
:1040980080B487B000AF786039607B681B6A23F012
:1040A80010027B681A627B681B6A7B617B685B68AD
:1040B8003B617B689B69FB60FB6823F4E043FB6022
:1040C800FB6823F44073FB603B681B681B02FA68BB
:1040D8001343FB607B6923F020037B613B689B688B
:1040E8001B017A6913437B617B68224A934203D0A0
:1040F8007B68214A93420DD17B6923F080037B6161
:104108003B68DB681B017A6913437B617B6923F099
:1041180040037B617B68174A934203D07B68164A49
:10412800934213D13B6923F480633B613B6923F4D9
:1041380000633B613B685B699B003A6913433B61E1
:104148003B689B699B003A6913433B617B683A690A
:104158005A607B68FA689A613B685A687B689A6318
:104168007B687A691A6200BF1C37BD465DF8047B1C
:10417800704700BF000001400004014080B487B0D0
:1041880000AF786039607B681B6A23F480727B68B3
:104198001A627B681B6A7B617B685B683B617B6832
:1041A800DB69FB60FB6823F07003FB60FB6823F0AE
:1041B8000303FB603B681B68FA681343FB607B6979
:1041C80023F400737B613B689B681B027A69134385
:1041D8007B617B68214A934203D07B68204A9342E3
:1041E8000DD17B6923F400637B613B68DB681B02AC
:1041F8007A6913437B617B6923F480637B617B6805
:10420800164A934203D07B68154A934213D13B69FF
:1042180023F480533B613B6923F400533B613B68C3
:104228005B691B013A6913433B613B689B691B014E
:104238003A6913433B617B683A695A607B68FA685C
:10424800DA613B685A687B68DA637B687A691A6264
:1042580000BF1C37BD465DF8047B70470000014075
:104268000004014080B487B000AF786039607B6893
:104278001B6A23F480527B681A627B681B6A3B6165
:104288007B685B687B617B68DB69FB60FB6823F4A8
:10429800E043FB60FB6823F44073FB603B681B68EA
:1042A8001B02FA681343FB603B6923F400533B612C
:1042B8003B689B681B033A6913433B617B68124A5E
:1042C800934203D07B68114A934209D17B6923F456
:1042D80080437B613B685B699B017A6913437B611F
:1042E8007B687A695A607B68FA68DA613B685A6861
:1042F8007B681A647B683A691A6200BF1C37BD463E
:104308005DF8047B704700BF0000014000040140D5
:1043180080B487B000AFF860B9607A60FB681B6A48
:104328007B61FB681B6A23F00102FB681A62FB6869
:104338009B693B613B6923F0F0033B617B681B0190
:104348003A6913433B617B6923F00A037B617A690D
:10435800BB6813437B61FB683A699A61FB687A69B9
:104368001A6200BF1C37BD465DF8047B704780B4F5
:1043780087B000AFF860B9607A60FB681B6A23F009
:104388001002FB681A62FB689B697B61FB681B6A09
:104398003B617B6923F470437B617B681B037A690B
:1043A80013437B613B6923F0A0033B61BB681B019E
:1043B8003A6913433B61FB687A699A61FB683A6919
:1043C8001A6200BF1C37BD465DF8047B704780B495
:1043D80085B000AF786039607B689B68FB60FB68DC
:1043E80023F07003FB603A68FB68134343F007034C
:1043F800FB607B68FA689A6000BF1437BD465DF8B9
:10440800047B704780B487B000AFF860B9607A6009
:104418003B60FB689B687B617B6923F47F437B611E
:104428003B681A027B681A43BB6813437A691343D3
:104438007B61FB687A699A6000BF1C37BD465DF8EE
:10444800047B704780B487B000AFF860B9607A60C9
:10445800BB6803F01F03012202FA03F37B61FB68C8
:104468001A6A7B69DB431A40FB681A62FB681A6A9E
:10447800BB6803F01F03796801FA03F31A43FB686A
:104488001A6200BF1C37BD465DF8047B7047000008
:1044980080B485B000AF786039607B6893F83C30B1
:1044A800012B01D102235AE07B68012283F83C20CA
:1044B8007B68022283F83D207B681B685B68FB6091
:1044C8007B681B689B68BB60FB6823F07003FB601C
:1044D8003B681B68FA681343FB607B681B68FA68D3
:1044E8005A607B681B68214A934222D07B681B680C
:1044F800B3F1804F1DD07B681B681D4A934218D0CA
:104508007B681B681B4A934213D07B681B681A4A56
:1045180093420ED07B681B68184A934209D07B6887
:104528001B68174A934204D07B681B68154A93425C
:104538000CD1BB6823F08003BB603B685B68BA683A
:104548001343BB607B681B68BA689A607B6801226A
:1045580083F83D207B68002283F83C20002318461E
:104568001437BD465DF8047B704700BF000001406A
:104578000004004000080040000C00400004014016
:10458800004001400018004080B483B000AF78605C
:1045980000BF0C37BD465DF8047B704780B483B01C
:1045A80000AF786000BF0C37BD465DF8047B7047EC
:1045B80080B582B000AF78607B68002B01D1012301
:1045C8003FE07B6893F83D30DBB2002B06D17B6877
:1045D800002283F83C207868FDF75AFC7B68242287
:1045E80083F83D207B681B68DA687B681B6822F4C7
:1045F8000052DA60786800F07BFD7B681B681A69F6
:104608007B681B6822F490421A617B681B685A69B0
:104618007B681B6822F02A025A617B681B68DA688B
:104628007B681B6842F40052DA607B6800221A64D7
:104638007B68202283F83D207B68202283F83E2077
:10464800002318460837BD4680BD80B58AB002AF42
:10465800F860B9603B601346FB8000237B61FB6810
:1046680093F83D30DBB2202B7CD1BB68002B02D005
:10467800FB88002B01D1012375E0FB6893F83C30DF
:10468800012B01D102236EE0FB68012283F83C2054
:10469800FB6800221A64FB68212283F83D20FDF79D
:1046A8005BFF7861FB68FA889A84FB68FA88DA8489
:1046B800FB689B68B3F5805F08D1FB681B69002B1A
:1046C80004D10023FB61BB68BB6103E0BB68FB61ED
:1046D8000023BB61FB68002283F83C202AE03B688A
:1046E80000937B6900228021F86800F0F9FA0346FC
:1046F800002B01D0032336E0FB69002B0BD1BB69EB
:104708001B881A46FB681B68C2F308025A60BB691B
:104718000233BB6107E0FB691A78FB681B685A60C3
:10472800FB690133FB61FB68DB8C9BB2013B9AB2EE
:10473800FB68DA84FB68DB8C9BB2002BCFD13B682B
:1047480000937B6900224021F86800F0C9FA03460B
:10475800002B01D0032306E0FB68202283F83D20CC
:10476800002300E0022318462037BD4680BD000024
:1047780080B5BAB000AF78607B681B681B68C7F863
:10478800E4307B681B68DB68C7F8E0307B681B682F
:104798005B69C7F8DC300023C7F8D8300023C7F8B6
:1047A800D430D7F8E43003F00F03C7F8D830D7F87F
:1047B800D830002B0FD1D7F8E43003F02003002BBA
:1047C80009D0D7F8E03003F02003002B03D0786835
:1047D80000F0D3FB56E2D7F8D830002B00F0DE808B
:1047E800D7F8DC3003F00103002B06D1D7F8E0300E
:1047F80003F49073002B00F0D180D7F8E43003F075
:104808000103002B0BD0D7F8E03003F48073002BA2
:1048180005D07B681B6C43F001027B681A64D7F8EB
:10482800E43003F00403002B0BD0D7F8DC3003F09E
:104838000103002B05D07B681B6C43F002027B68E8
:104848001A64D7F8E43003F00203002B0BD0D7F832
:10485800DC3003F00103002B05D07B681B6C43F0B0
:1048680004027B681A64D7F8E43003F00803002BCD
:1048780011D0D7F8E03003F02003002B05D1D7F88A
:10488800DC3003F00103002B05D07B681B6C43F080
:1048980008027B681A647B681B6C002B00F0ED81B2
:1048A800D7F8E43003F02003002B08D0D7F8E03025
:1048B80003F02003002B02D0786800F05EFB7B68D1
:1048C8001B685B6903F04003402B0CBF01230023E6
:1048D800DBB2C7F8D4307B681B6C03F00803002BED
:1048E80003D1D7F8D430002B4FD0786800F066FA9F
:1048F8007B681B685B6903F04003402B41D17B68F0
:104908001B681433C7F89C30D7F89C3053E8003F35
:10491800C7F89830D7F8983023F04003C7F8D0305C
:104928007B681B681433D7F8D020C7F8A820C7F8CD
:10493800A430D7F8A410D7F8A82041E80023C7F876
:10494800A030D7F8A030002BD9D17B689B6B002B07
:1049580013D07B689B6B7D4A1A657B689B6B1846F6
:10496800FDF787FF0346002B16D07B689B6B1B6DFA
:104978007A68926B104698470EE0786800F09AF9CA
:104988000AE0786800F096F906E0786800F092F995
:104998007B6800221A6470E100BF6EE17B681B6BC4
:1049A800012B40F04A81D7F8E43003F01003002BC4
:1049B80000F04381D7F8E03003F01003002B00F03B
:1049C8003C810023BB607B681B681B68BB607B68FD
:1049D8001B685B68BB60BB687B681B685B6903F02E
:1049E8004003402B40F0B4807B689B6B1B685B687E
:1049F800A7F8BE30B7F8BE30002B00F040817B68C6
:104A08009B8DB7F8BE209A4280F039817B68B7F851
:104A1800BE20DA857B689B6BDB69B3F5807F00F08D
:104A280088807B681B680C33C7F88830D7F88830D3
:104A380053E8003FC7F88430D7F8843023F48073F4
:104A4800C7F8B8307B681B680C33D7F8B820C7F8AC
:104A58009420C7F89030D7F89010D7F8942041E800
:104A68000023C7F88C30D7F88C30002BD9D17B685D
:104A78001B6814337B677B6F53E8003F3B673B6FD2
:104A880023F00103C7F8B4307B681B681433D7F8E8
:104A9800B420C7F88020FB67F96FD7F8802041E879
:104AA8000023BB67BB6F002BE1D17B681B68143305
:104AB8003B663B6E53E8003FFB65FB6D23F040030C
:104AC800C7F8B0307B681B681433D7F8B020FA6693
:104AD800BB66B96EFA6E41E800237B667B6E002BDD
:104AE800E3D17B68202283F83E207B6800221A638A
:104AF8007B681B680C33FB64FB6C53E8003FBB64AA
:104B0800BB6C23F01003C7F8AC307B681B680C3310
:104B1800D7F8AC20BA657B65796DBA6D41E800239A
:104B28003B653B6D002BE3D17B689B6B1846FDF71B
:104B380030FE7B689A8D7B68DB8D9BB2D31A9BB263
:104B48001946786800F0C0F899E000BF8B4E00085D
:104B58007B689A8D7B68DB8D9BB2D31AA7F8CE3021
:104B68007B68DB8D9BB2002B00F08B80B7F8CE30D2
:104B7800002B00F086807B681B680C33BB63BB6B23
:104B880053E8003F7B637B6B23F49073C7F8C8300E
:104B98007B681B680C33D7F8C8207A643B64396C8F
:104BA8007A6C41E80023FB63FB6B002BE3D17B6845
:104BB8001B6814337B627B6A53E8003F3B623B6AA5
:104BC80023F00103C7F8C4307B681B681433D7F897
:104BD800C4203A63FB62F96A3A6B41E80023BB627E
:104BE800BB6A002BE3D17B68202283F83E207B68D8
:104BF80000221A637B681B680C333B613B6953E8EE
:104C0800003FFB60FB6823F01003C7F8C0307B68E7
:104C18001B680C33D7F8C020FA61BB61B969FA691F
:104C280041E800237B617B69002BE3D1B7F8CE30E4
:104C38001946786800F048F823E0D7F8E43003F024
:104C48008003002B09D0D7F8E03003F08003002B55
:104C580003D0786800F029F914E0D7F8E43003F0BD
:104C68004003002B0ED0D7F8E03003F04003002BB0
:104C780008D0786800F069F904E000BF02E000BFDE
:104C880000E000BFE837BD4680BD00BF80B483B0F8
:104C980000AF786000BF0C37BD465DF8047B7047F5
:104CA80080B483B000AF786000BF0C37BD465DF8B4
:104CB800047B704780B483B000AF786000BF0C37C6
:104CC800BD465DF8047B704780B483B000AF786060
:104CD8000B467B8000BF0C37BD465DF8047B7047F0
:104CE80080B590B000AFF860B9603B601346FB71C7
:104CF80050E0BB6CB3F1FF3F4CD0BB6C002B07D02E
:104D0800FDF72AFC02463B68D31ABA6C9A4241D294
:104D1800FB681B680C33BB62BB6A53E8003F7B62CD
:104D28007B6A23F4D073FB63FB681B680C33FA6B54
:104D38007A633B63396B7A6B41E80023FB62FB6A59
:104D4800002BE5D1FB681B6814337B617B6953E852
:104D5800003F3B613B6923F00103BB63FB681B68B1
:104D68001433BA6B3A62FB61F9693A6A41E8002385
:104D7800BB61BB69002BE5D1FB68202283F83D208D
:104D8800FB68202283F83E20FB68002283F83C2041
:104D980003230FE0FB681B681A68BB681340BA68F6
:104DA8009A420CBF01230023DBB21A46FB799A42D0
:104DB8009FD0002318464037BD4680BD80B495B0CB
:104DC80000AF78607B681B680C337B637B6B53E8B0
:104DD800003F3B633B6B23F49073FB647B681B6869
:104DE8000C33FA6C3A64FB63F96B3A6C41E80023C4
:104DF800BB63BB6B002BE5D17B681B6814333B623C
:104E08003B6A53E8003FFB61FB6923F00103BB6485
:104E18007B681B681433BA6CFA62BB62B96AFA6AB7
:104E280041E800237B627B6A002BE5D17B681B6B22
:104E3800012B19D17B681B680C33FB60FB6853E8B6
:104E4800003FBB60BB6823F010037B647B681B6872
:104E58000C337A6CBA617B617969BA6941E80023DD
:104E68003B613B69002BE5D17B68202283F83E201B
:104E78007B6800221A6300BF5437BD465DF8047B87
:104E8800704780B584B000AF78607B689B6BFB602F
:104E9800FB680022DA85FB680022DA84F868FFF7ED
:104EA80009FF00BF1037BD4680BD80B485B000AF94
:104EB80078607B6893F83D30DBB2212B3ED17B686C
:104EC8009B68B3F5805F14D17B681B69002B10D1F8
:104ED8007B681B6AFB60FB681B881A467B681B683B
:104EE800C2F308025A607B681B6A9A1C7B681A62C4
:104EF80008E07B681B6A591C7A6811621A787B681B
:104F08001B685A607B68DB8C9BB2013B9BB27A685A
:104F18001946D184002B0FD17B681B68DA687B683F
:104F28001B6822F08002DA607B681B68DA687B689D
:104F38001B6842F04002DA60002300E002231846B2
:104F48001437BD465DF8047B704780B582B000AF6A
:104F580078607B681B68DA687B681B6822F040020F
:104F6800DA607B68202283F83D207868FFF78EFEA0
:104F7800002318460837BD4680BD80B58CB000AF09
:104F880078607B6893F83E30DBB2222B40F0AB8030
:104F98007B689B68B3F5805F17D17B681B69002B22
:104FA80013D10023FB627B689B6ABB627B681B682A
:104FB8005B689BB2C3F308039AB2BB6A1A807B682A
:104FC8009B6A9A1C7B689A6226E07B689B6AFB62F4
:104FD8000023BB627B689B68B3F5805F07D07B6862
:104FE8009B68002B0AD17B681B69002B06D17B6864
:104FF8001B685B68DAB2FB6A1A7008E07B681B689A
:105008005B68DBB203F07F03DAB2FB6A1A707B6875
:105018009B6A5A1C7B689A627B68DB8D9BB2013B5A
:105028009BB27A681946D185002B5AD17B681B68D8
:10503800DA687B681B6822F02002DA607B681B68EC
:10504800DA687B681B6822F48072DA607B681B6808
:105058005A697B681B6822F001025A617B6820222A
:1050680083F83E207B681B6B012B35D17B680022BF
:105078001A637B681B680C337B617B6953E8003FCC
:105088003B613B6923F010037B627B681B680C3330
:105098007A6A3A62FB61F9693A6A41E80023BB61BE
:1050A800BB69002BE5D17B681B681B6803F0100304
:1050B800102B0AD10023FB607B681B681B68FB6010
:1050C8007B681B685B68FB60FB687B689B8D194687
:1050D8007868FFF7F9FD02E07868FFF7E1FD002343
:1050E80002E0002300E0022318463037BD4680BDA9
:1050F8002DE9B04FC0B000AFC7F8F400D7F8F430CE
:105108001B681B6923F44050D7F8F430D968D7F8E6
:10511800F4301A6840EA01031361D7F8F4309A684A
:10512800D7F8F4301B691A43D7F8F4305B691A438F
:10513800D7F8F430DB691343C7F8F830D7F8F43000
:105148001B68DB6823F4164121F00C01D7F8F43012
:105158001A68D7F8F8300B43D360D7F8F4301B68D7
:105168005B6923F44070D7F8F4309969D7F8F430C4
:105178001A6840EA01035361D7F8F4301A688F4B74
:105188009A4205D0D7F8F4301A688D4B9A4204D168
:10519800FEF7BEF9C7F8FC0003E0FEF7A5F9C7F86B
:1051A800FC00D7F8F430DB69B3F5004F40F00C8110
:1051B800D7F8FC300022C7F8E830C7F8EC20D7E968
:1051C8003A4522462B469118B9655B41FB65D7E9FC
:1051D8001623214612EB0108294643EB01094FF03B
:1051E80000024FF000034FEAC90343EA58734FEA3D
:1051F800C80290469946234618EB0303C7F8E030E7
:105208002B4649EB0303C7F8E430D7F8F4305B6862
:105218000022C7F8D830C7F8DC20D7E936120B4689
:10522800DB183B65134642EB03037B65D7E9142380
:10523800D7E93801FAF7C4FF02460B46614BA3FBD6
:1052480002235B091C01D7F8FC300022C7F8D030D4
:10525800C7F8D420D7E9348942464B469118B96437
:105268005B41FB64D7E91223414612EB010A494628
:1052780043EB010B4FF000024FF000034FEACB0362
:1052880043EA5A734FEACA0292469B4643461AEBD0
:105298000303C7F8C8304B464BEB0303C7F8CC30C1
:1052A800D7F8F4305B680022C7F8C030C7F8C420CC
:1052B800D7E930120B46DB183B64134642EB030375
:1052C8007B64D7E91023D7E93201FAF779FF024660
:1052D8000B4611463B4BA3FB01235B09642202FBEF
:1052E80003F3CB1ADB0003F13202364BA3FB022394
:1052F8005B095B0003F4F8731C44D7F8FC30002208
:10530800C7F8B830C7F8BC20D7E92E8942464B46C3
:105318009118B9635B41FB63D7E90E2341465118E5
:10532800396349464B417B634FF000024FF000035D
:10533800D7E90CAB5946CB00514643EA5173514665
:10534800CA0010461946034642469B18C7F8B030B3
:105358004B460A4642EB0303C7F8B430D7F8F4309B
:105368005B680022C7F8A830C7F8AC20D7E92A1232
:105378000B46DB18BB62134642EB0303FB62D7E91B
:105388000A23D7E92C01FAF71BFF02460B460D4BFF
:10539800A3FB02135B09642101FB03F3D31ADB00AF
:1053A8003233084AA2FB03235B0903F00702D7F84C
:1053B800F4301B6822449A6005E100BF00100140E8
:1053C800001401401F85EB51D7F8FC300022C7F8C4
:1053D800A030C7F8A420D7E9288942464B4691183F
:1053E80039625B417B62D7E9082341465418494634
:1053F80043EB01054FF000024FF00003EB0043EAD6
:105408005473E20014461D464346E318C7F8983023
:105418004B4645EB0303C7F89C30D7F8F4305B687C
:105428000022C7F89030C7F894204FF000024FF0E0
:105438000003D7E9244529468B00214643EA9173A6
:1054480021468A00D7E92601FAF7BAFE02460B463A
:10545800604BA3FB02235B091C01D7F8FC30002238
:10546800C7F88830C7F88C20D7E9228942464B46CE
:105478009118B9615B41FB61D7E906234146511890
:10548800396149464B417B614FF000024FF0000300
:10549800D7E904AB5946CB00514643EA517351460C
:1054A800CA0010461946034642469B18C7F8803082
:1054B8004B460A4642EB0303C7F88430D7F8F4306A
:1054C8005B680022BB67FA674FF000024FF00003E9
:1054D800D7E91E8949468B00414643EA9173414604
:1054E8008A00D7E92001FAF76BFE02460B46394BD2
:1054F800A3FB02135B09642101FB03F3D31A1B010D
:105508003233344AA2FB03235B0903F0F0031C4443
:10551800D7F8FC3000223B677A67D7E91C894246F6
:105528004B469118B9605B41FB60D7E902234146BD
:105538005118396049464B417B604FF000024FF0EB
:105548000003D7E900AB5946CB00514643EA5173F3
:105558005146CA0010461946034642469B18BB6688
:105568004B460A4642EB0303FB66D7F8F4305B6808
:1055780000223B667A664FF000024FF00003D7E93D
:10558800188949468B00414643EA917341468A008F
:10559800D7E91A01FAF714FE02460B460D4BA3FB96
:1055A80002135B09642101FB03F3D31A1B01323395
:1055B800084AA2FB03235B0903F00F02D7F8F43073
:1055C8001B6822449A6000BF07F58077BD46BDE896
:1055D800B08F00BF1F85EB5170B50D4D0D4C641B8E
:1055E800A4100026A64209D10B4D0C4C00F07CF803
:1055F800641BA4100026A64205D170BD55F8043BD3
:1056080098470136EEE755F8043B98470136F2E72C
:105618006457000864570008645700086857000872
:10562800931E222B10B50C4604D900230B701C4680
:10563800204610BD0A2A09D1002807DA2D230B704D
:1056480040420121214400F00DF8F1E70021F9E77B
:10565800FFF7E6BF02440346934200D1704703F8C0
:10566800011BF9E7F0B51F4C8BB005460B466E469B
:1056780004F1200C20686168374603C70834644584
:105688003E46F7D121793971911E20683860222968
:105698004FF0000104D919700B4618460BB0F0BD45
:1056A800581E8446B5FBF2F702FB175628366E449F
:1056B8000C4616F8286C0CF8016F2E46B24201F120
:1056C80001013D46EED900225A541919A51AAA42D9
:1056D800E3DA10F8015F0E780670013201F801591B
:1056E800F4E700BF34570008F8B500BFF8BC08BCA1
:1056F8009E467047F8B500BFF8BC08BC9E46704788
:1057080021375345473A0000230D0000214D4F44EF
:10571800453A0000000000000000000001020304F8
:105728000607080900000000010203043031323383
:105738003435363738396162636465666768696A23
:105748006B6C6D6E6F707172737475767778797A29
:04575800000000004D
:08575C009CAAFF7F0100000080
:04576400AD0100088B
:0457680089010008AB
:10576C000000024000000240000002400001000264
:10577C000004000001000000010000000100000016
:10578C000100000001000000010000000100000009
:10579C0001000000010000000100000001000000F9
:1057AC0001000000C8000000C8000000C800000094
:1057BC0007000000050000000200000005000000CA
:1057CC0003000000020000000024F40005000000AB
:0857DC001000000001000000B4
:04000005080024418A
:00000001FF
