:020000040800F2
:100000000000022001260008812000088720000847
:100010008D200008932000089920000800000000AF
:100020000000000000000000000000009F20000809
:10003000AD20000800000000BB200008C920000817
:1000400051260008512600085126000851260008B4
:1000500051260008512600085126000851260008A4
:100060005126000851260008512600085126000894
:100070005126000851260008512600085126000884
:100080005126000851260008512600085126000874
:100090005126000851260008512600085126000864
:1000A0005126000851260008512600085126000854
:1000B000D5200008512600085126000851260008C6
:1000C0005126000851260008512600085126000834
:1000D00051260008E9200008512600085126000892
:1000E0005126000851260008512600085126000814
:1000F0005126000851260008512600085126000804
:1001000051260008512600085126000851260008F3
:1001100051260008512600085126000851260008E3
:1001200051260008512600085126000851260008D3
:1001300051260008512600085126000851260008C3
:1001400051260008512600085126000851260008B3
:1001500051260008512600085126000851260008A3
:100160005126000851260008512600085126000893
:100170005126000851260008512600080000000002
:08018000512600085126000879
:1001880010B5054C237833B9044B13B10448AFF3C9
:1001980000800123237010BD7800002000000000BB
:1001A8003857000808B5034B1BB103490348AFF3A0
:1001B800008008BD000000007C00002038570008BF
:1001C80053B94AB9002908BF00281CBF4FF0FF31B6
:1001D8004FF0FF3000F06EB9ADF1080C6DE904CEB8
:1001E80000F006F8DDF804E0DDE9022304B070470A
:1001F8002DE9F047089D04468C46002B40F083808B
:100208008A42174647D9B2FA82F242B1C2F12000B7
:1002180024FA00F09140974040EA010C94404FEADC
:100228001748230CBCFBF8F61FFA87FE08FB16C11B
:1002380043EA014306FB0EF1994209D9FB1806F17E
:10024800FF3080F01981994240F21681023E3B440A
:100258005B1AA4B2B3FBF8F008FB103344EA03447A
:1002680000FB0EFEA64509D93C1900F1FF3380F0CA
:100278000581A64540F2028102383C4440EA064026
:10028800A4EB0E0400261DB1D4400023C5E90043A9
:100298003146BDE8F08702B9FFDEB2FA82F2002AE1
:1002A80050D1CB1B4FEA174E1FFA87F80126B3FB34
:1002B800FEFC210C0EFB1C3341EA034108FB0CF346
:1002C8008B4207D979180CF1FF3002D28B4200F229
:1002D800E9808446C91AA3B2B1FBFEF00EFB1011E7
:1002E80043EA014408FB00F8A04507D93C1900F18E
:1002F800FF3302D2A04500F2D9801846A4EB0804C7
:1003080040EA0C40BFE78B4209D9002D00F0B180CC
:100318000026C5E9000130463146BDE8F087B3FA4A
:1003280083F6002E4AD18B4202D3824200F2B88073
:10033800841A61EB030101208C46002DA8D0C5E981
:10034800004CA5E7C2F1200320FA03F6974001FA12
:1003580002F04FEA174ED9403043030CB1FBFEF6CA
:100368001FFA87F80EFB161143EA014306FB08F152
:10037800994204FA02F409D9FB1806F1FF3C80F00F
:100388008D80994240F28A80023E3B445B1A81B2DA
:10039800B3FBFEF00EFB103341EA034100FB08F308
:1003A8008B4207D9791800F1FF3C73D28B4271D97F
:1003B80002383944CB1A40EA064678E7C6F1200CE1
:1003C80003FA06F422FA0CF31C4320FA0CF701FA9C
:1003D80006F34FEA144E21FA0CF11F433B0CB1FB14
:1003E800FEF91FFA84F80EFB191143EA014109FBD3
:1003F80008FA8A4502FA06F200FA06F308D96118E3
:1004080009F1FF3048D28A4546D9A9F102092144A9
:10041800A1EB0A01BFB2B1FBFEF00EFB101147EAD7
:10042800014700FB08F8B84507D9E71900F1FF3183
:100438002ED2B8452CD90238274440EA0940A7EB08
:100448000807A0FB02894F45C64649461AD317D06C
:100458005DB1B3EB0E0267EB010707FA0CFCF24043
:100468004CEA0202F740C5E9002700263146BDE8FC
:10047800F0872E4628460BE70646E9E61846FDE6CD
:100488004345E5D2B8EB020E69EB04010138DFE71A
:100498000846D2E760468DE78146B9E7664675E7C4
:1004A80030464AE7ACF1020C394413E702383C44C1
:1004B80024E700BF704700BF80B483B000AF0023BB
:1004C8007B6011E00D4A7B68002142F823100C4A3A
:1004D8007B68002142F823100A4A7B68002142F811
:1004E80023107B6801337B607B68022BEADD00BF49
:1004F80000BF0C37BD465DF8047B7047A0000020A4
:10050800AC0000209400002080B582B000AF786075
:100518007B68022B00F0DD807B68022B00F31081E2
:100528007B68002B03D07B68012B72D008E1884AD6
:100538007B6852F82330032B63D801A252F823F0CA
:100548005905000883050008C3050008E7050008E9
:10055800804A7B6852F82330002B0CD17E4B1B68F5
:10056800042B02D0052B03D006E000F0EFFC03E0DB
:1005780001F0D2FD00E000BF4AE0764A7B6852F8FD
:100588002330002B0CD1744B1B68042B02D0052B95
:1005980003D011E000F0DAFC0EE001F0BDFD0BE045
:1005A8006C4A7B6852F82330012B2CD16A4B03220A
:1005B8001A6000F09BFF26E025E0664A7B6852F847
:1005C8002330012B05D0634A7B6852F82330022B75
:1005D8001BD1614B04221A6000F0A0FD15E05D4AB2
:1005E8007B6852F82330022B05D05A4A7B6852F8B0
:1005F8002330032B0BD1584B05221A6001F01AFE49
:1006080005E000BF9DE000BF9BE000BF99E000BF90
:1006180097E04F4A7B6852F82330022B3ED0022BDA
:100628004FDC002B02D0012B0DD04AE0494A7B68F1
:1006380052F82330002B46D1474B1B68052B42D17B
:1006480001F00EFE3FE0434A7B6852F82330002B4E
:1006580006D1414B1B68052B37D101F001FE34E070
:100668003C4A7B6852F82330012B13D13A4B1B6864
:10067800052B0CD0052B0FDC032B02D0042B03D049
:100688000AE000F033FF08E000F060FC05E001F04C
:10069800E7FD02E000BF18E000BF16E02D4A7B68C6
:1006A80052F82330012B05D02A4A7B6852F82330B0
:1006B800022B0CD1284B1B68052B08D101F032FE08
:1006C80005E000BF3DE000BF3BE000BF39E000BFF0
:1006D80037E01F4A7B6852F82330012B02D0022BE7
:1006E80019D02CE01B4A7B6852F82330012B10D11B
:1006F800194B1B68032B02D0042B05D00AE000F02D
:100708000BFF00F0DBF905E000F01CFD00F018FA23
:1007180000E000BF13E00F4A7B6852F82330012B3A
:1007280005D00C4A7B6852F82330022B06D10A4BBD
:1007380002221A6000F064F900F0AAF900BF00E094
:1007480000BFFFF7B9FE00BF0837BD4680BD00BF38
:10075800A0000020AC0000205000002080B582B02E
:1007680000AF00237B60BEE0634A7B6852F8232019
:1007780062497B6841F82320614A7B6852F823204C
:100788005D497B6841F823205E4A7B6852F8232044
:100798005D497B6831F813301946104602F008FBB2
:1007A80003461946564A7B6842F82310534A7B6829
:1007B80052F8232050497B6851F823309A4240F080
:1007C8008F804D4A7B6852F823204D497B6851F849
:1007D80023309A4240F084804C4A7B6852F82320A8
:1007E80046497B6851F823309A4231D0474A7B68A2
:1007F80052F82330002B02D0012B14D070E0434A6A
:100808007B68012142F82310414A7B6852F8233063
:100818005A1C3F497B6841F823203E4A7B680F21D8
:1008280042F823105CE0394A7B68002142F8231023
:10083800394A7B6852F823305A1C37497B6841F89B
:100848002320364A7B684FF4967142F8231047E01C
:100858002E4A7B6852F82330012B18D12D4A7B6829
:1008680052F82330002B3BDD2A4A7B6852F82330AC
:100878005A1E28497B6841F82320264A7B6852F88B
:100888002330002B2CDC7868FFF73EFE28E0234A53
:100898007B6852F82330002B22DD204A7B6852F80F
:1008A80023305A1E1D497B6841F823201B4A7B6868
:1008B80052F82330002B13DC7B68002B05D1174A34
:1008C8007B684FF4967142F823107B68012B04D1A2
:1008D800124A7B68142142F823107868FFF714FE47
:1008E8007B6801337B607B68022B7FF73DAF00BFDD
:1008F80000BF0837BD4680BD2C0000202000002026
:1009080038000020000000200C0000201400002007
:10091800AC00002094000020A0000020440000202B
:1009280080B483B000AF786039603B68022B11D087
:100938003B68022B12DC3B68002B03D03B68012B81
:1009480004D00BE0094A7B68136008E0074A7B681B
:10095800536004E0054A7B68936000E000BF00BF75
:100968000C37BD465DF8047B704700BFB800002017
:1009780080B582B000AF786000217868FFF7D0FFBB
:1009880000BF0837BD4680BD80B582B000AF786033
:1009980001217868FFF7C4FF00BF0837BD4680BD56
:1009A80080B582B000AF786002217868FFF7B8FFA1
:1009B80000BF0837BD4680BD80B500AF05210820BF
:1009C80000F0BEFD0521092000F0BAFD00BF80BD82
:1009D80080B500AF0321082000F0B2FD03210920F3
:1009E80000F0AEFD00BF80BD80B500AF0421082037
:1009F80000F0A6FD0421092000F0A2FD00BF80BD83
:100A080080B500AF0621082000F09AFD06210920D4
:100A180000F096FD00BF80BD80B500AF072108201B
:100A280000F08EFD0721092000F08AFD00BF80BD7F
:100A380080B500AF0021082000F082FD00BF80BD16
:100A480080B500AF0221082000F07AFD00BF80BD0C
:100A580080B500AF0121082000F072FD00BF80BD05
:100A680080B500AF0021092000F06AFD00BF80BDFD
:100A780080B500AF0221092000F062FD00BF80BDF3
:100A880080B500AF0121092000F05AFD00BF80BDEC
:100A980080B500AF0A2000F055FE00BF80BD80B5CC
:100AA80000AF0B2000F04EFE00BF80BD80B500AF48
:100AB8000C2000F047FE00BF80BD000080B500AFED
:100AC8001C4B1B68032B26D0032B2EDC012B02D0DA
:100AD800022B12D029E0184B1B68002B04DC00F015
:100AE8003FFFFFF7D5FF22E0FFF7D9FF134B1B6845
:100AF800032B1CDC00F022FF19E00F4B1B68002BB6
:100B080004DCFFF7C5FF00F02BFF11E0FFF7CEFF75
:100B180000F026FF0CE0084B1B68002B02DCFFF7F7
:100B2800B7FF05E0FFF7C2FF02E000BF00E000BF2B
:100B380000BF80BDC8000020E00000204401002064
:100B480080B500AF1D4B1B68013B032B32D801A2B7
:100B580052F823F06D0B0008A90B0008950B00084C
:100B6800810B0008164B1B68002B02DCFFF790FF77
:100B780021E0FFF794FF1EE0114B1B68002B02DCFD
:100B8800FFF786FF17E0FFF78AFF14E00C4B1B689E
:100B9800002B02DCFFF77CFF0DE0FFF787FF0AE080
:100BA800074B1B68002B02DCFFF772FF03E0FFF71F
:100BB80076FF00E000BF00BF80BD00BFC40000207A
:100BC800E000002080B500AF01F040FD00F03CF8E7
:100BD80000F0E4F800F096F801F03CFC00F0F0FDBD
:100BE800134802F0C9FD01F0EDF80421114802F0A4
:100BF8008DFE01234FF47A724FF47A710E4800F09B
:100C0800DFFE02234FF4FA724FF4FA710B4800F03A
:100C1800D7FE03230A220A21094800F0D1FE042343
:100C2800C822C821074800F0CBFE01F0A1F8FCE774
:100C3800E800002048010020591E0008751E000821
:100C48008D1E0008991E000880B594B000AF07F10A
:100C5800200330220021184604F020FD07F10C0380
:100C680000221A605A609A60DA601A610023BB6039
:100C7800224B1B6C214A43F0805313641F4B1B6C9F
:100C880003F08053BB60BB6800237B601C4B1B6870
:100C98001B4A43F480431360194B1B6803F48043D9
:100CA8007B607B6802233B620123FB6210233B636A
:100CB8000023BB6307F12003184602F0C5F803467A
:100CC800002B01D000F030F90F23FB6000233B61BB
:100CD80080237B610023BB610023FB6107F10C03C8
:100CE8000021184602F028FB0346002B01D000F033
:100CF8001BF900BF5037BD4680BD00BF0038024019
:100D08000070004080B586B000AF07F108030022EC
:100D18001A605A609A60DA603B4600221A605A608C
:100D28001D4B4FF080421A601B4B41F63F725A60D0
:100D3800194B00229A60184B0922DA60164B0022E0
:100D48001A61154B00229A61134802F0C5FC03464C
:100D5800002B01D000F0E8F84FF48053BB6007F196
:100D6800080319460C4803F063F80346002B01D02A
:100D780000F0DAF800233B6000237B603B4619460D
:100D8800054803F055FC0346002B01D000F0CCF8D1
:100D980000BF1837BD4680BDE800002080B58AB086
:100DA80000AF07F1140300221A605A609A60DA60F3
:100DB8001A6100233B61524B1B6B514A43F00103FC
:100DC80013634F4B1B6B03F001033B613B6900232B
:100DD800FB604B4B1B6B4A4A43F002031363484BBF
:100DE8001B6B03F00203FB60FB680023BB60444BF2
:100DF8001B6B434A43F008031363414B1B6B03F01F
:100E08000803BB60BB6800237B603D4B1B6B3C4AFF
:100E180043F0040313633A4B1B6B03F004037B603A
:100E28007B6800227F21374801F0DAFF01223F2149
:100E3800354801F0D5FF00224FF4F851324801F04F
:100E4800CFFF01224FF4C061304801F0C9FF7F2372
:100E58007B610123BB610023FB6100233B6207F137
:100E680014031946274801F007FE3F237B6101233D
:100E7800BB610023FB6103233B6207F1140319469E
:100E8800214801F0F9FD4FF4F8537B610123BB6160
:100E98000023FB6100233B6207F1140319461A483B
:100EA80001F0EAFD4FF4C0637B610123BB610023BD
:100EB800FB6103233B6207F114031946134801F051
:100EC800DBFD4FF480737B610023BB610123FB6171
:100ED80007F1140319460E4801F0CEFD4FF4A06344
:100EE8007B610023BB610123FB6107F114031946F1
:100EF800044801F0C1FD00BF2837BD4680BD00BFD2
:100F0800003802400000024000040240000C024089
:100F18000008024080B582B000AF786000F032FD72
:100F280000BF0837BD4680BD80B400AF72B600BFB1
:100F3800FEE7000080B400AF034B00221A6000BF38
:100F4800BD465DF8047B7047C400002080B500AF43
:100F58006C4B1B68042B00F2CD8001A252F823F0E1
:100F68007D0F0008AB0F0008FB0F000851100008A8
:100F7800A7100008634B01221A600220FFF710FD3A
:100F8800FFF73EFDFFF754FDFFF77AFD5E4B1B6848
:100F98001846FFF7EDFC5D4B1B681846FFF7F4FC9D
:100FA800A9E0584B02221A60564B1A68584B1B6826
:100FB8009A420BD1574B1B68002B03DD554B1B681E
:100FC800013B01E0534B1B68524A1360FFF7B8FD21
:100FD800FFF716FDFFF72CFDFFF74AFD4A4B1B688C
:100FE8001846FFF7C5FC4C4B1B681846FFF7CCFCAE
:100FF80081E0444B03221A60424B1A68444B1B6839
:101008009A420BD1434B1B68002B03DD414B1B68F5
:10101800013B01E03F4B1B683E4A1360FFF790FD20
:101028000220FFF7BDFCFFF7EBFCFFF711FDFFF710
:1010380017FD364B1B681846FFF79AFC324B1B68A6
:101048001846FFF7A1FC56E02E4B04221A602D4BE0
:101058001A682F4B1B689A420BD12E4B1B68002B2A
:1010680003DD2C4B1B68013B01E02A4B1B68294A16
:101078001360FFF765FD0220FFF792FCFFF7C0FC45
:10108800FFF7DEFCFFF7ECFC234B1B681846FFF765
:101098006FFC1D4B1B681846FFF776FC2BE0194BBD
:1010A80001221A60174B1A68194B1B689A420BD118
:1010B800184B1B68002B03DD164B1B68013B01E036
:1010C800144B1B68134A1360FFF73AFD0220FFF721
:1010D80067FCFFF795FCFFF7ABFCFFF7D1FC0A4B69
:1010E8001B681846FFF744FC084B1B681846FFF7B7
:1010F8004BFC00E000BF01F011FA01F0D5F900BF88
:1011080080BD00BFC40000206000002064000020F3
:10111800E4000020E00000206800002080B500AF57
:10112800074B00221A6000F01BFCFFF7B1FC0220FD
:10113800FFF736FCFFF7FEFEFFF708FF00BF80BD94
:10114800E000002080B400AF054B02221A60054B76
:101158001B68054A136000BFBD465DF8047B7047F5
:10116800E0000020C4000020E400002080B400AFAC
:10117800054B00221A60054B00221A6000BFBD46CD
:101188005DF8047B704700BFC8000020CC00002039
:1011980080B500AF964B1B68032B00F2D78001A2E5
:1011A80052F823F0BD110008DF110008651200088D
:1011B800DD1200088F4B1B688F4A13608C4B01228D
:1011C8001A60FFF735FC8C4B1B681846FFF7D0FBFD
:1011D80001F0A4F9C1E0884B1B68002B40F3B880EC
:1011E800854B1B68013B844A1360834B1B68002BAB
:1011F80024DC824B1B68824A13607D4B02221A60F2
:10120800804B1A687A4B1B689A420BD17E4B1B683D
:10121800002B03DD7C4B1B68013B01E07A4B1B680C
:10122800794A1360FFF74AFCFFF712FC744B1B68FE
:101238001846FFF79DFB01F071F989E06E4B1B68BA
:10124800032B01D100F034FBFFF7F2FB6A4B1B685C
:101258001846FFF78DFB01F061F979E0684B1B68D0
:10126800002B77DD664B1B68013B654A1360644BB6
:101278001B68002B24DC654B1B68654A13605C4BBC
:1012880003221A605F4B1A68594B1B689A420BD1AC
:101298005D4B1B68002B03DD5B4B1B68013B01E0CA
:1012A800594B1B68584A1360FFF708FCFFF7C8FB47
:1012B800574B1B681846FFF75BFB01F02FF949E015
:1012C800FFF7C6FB4E4B1B681846FFF751FB01F0B2
:1012D80025F93FE04E4B1B68002B3DDD4C4B1B684E
:1012E800013B4B4A13604A4B1B68002B24DC414BE3
:1012F8001B68414A13603E4B01221A60414B1A6831
:101308003B4B1B689A420BD13F4B1B68002B03DDFC
:101318003D4B1B68013B01E03B4B1B683A4A13609D
:10132800FFF7CCFBFFF784FB334B1B681846FFF72E
:101338001FFB01F0F3F80FE0FFF782FB344B1B684B
:101348001846FFF715FB01F0E9F805E000BF04E0D7
:1013580000BF02E000BF00E000BF2E4B1B68032B5C
:1013680000F2AE8001A252F823F000BF85130008F6
:1013780079140008A713000829140008254B022235
:101388001A601E4B1B68244A1360FFF779FB224B37
:101398001B681846FFF7F8FA01F086F897E01E4B2D
:1013A8001B68002B40F38E801B4B1B68013B1A4ABD
:1013B8001360194B1B68002B10DC144B1B68174A71
:1013C8001360144B03221A60FFF752FB134B1B6880
:1013D8001846FFF7D9FA01F067F873E0FFF750FBFA
:1013E8000D4B1B681846FFF7CFFA01F05DF869E06E
:1013F800C800002060000020440100206400002094
:1014080034010020E4000020E000002068000020F3
:1014180038010020CC000020400100203C010020C1
:101428002C4B1B68002B4FDD2A4B1B68013B294ABC
:101438001360284B1B68002B10DC274B1B68274ABE
:101448001360274B01221A60FFF70AFB234B1B6826
:101458001846FFF799FA01F027F835E0FFF708FB7F
:101468001C4B1B681846FFF78FFA01F01DF82BE09C
:101478001A4B1B68002B29DD184B1B68013B174AC8
:101488001360164B1B68002B10DC164B1B68164AA2
:101498001360134B02221A60FFF7F2FA124B1B6813
:1014A8001846FFF771FA00F0FFFF0FE0FFF7D8FAD0
:1014B8000A4B1B681846FFF767FA00F0F5FF05E0CE
:1014C80000BF04E000BF02E000BF00E000BF00BFB3
:1014D80080BD00BF3C0100206000002030010020DA
:1014E800CC000020640000204001002080B500AF3F
:1014F800084B00221A6000F033FAFFF7C9FAFFF729
:101508007FFA0120FFF74CFAFFF730FEFFF740FEA5
:1015180000BF80BDE000002080B400AF054B022270
:101528001A60054B1B68054A136000BFBD465DF88D
:10153800047B7047E0000020C8000020E400002081
:1015480080B582B000AF786039607B68082B03D023
:101558007B68092B77D0EEE03B68072B71D801A296
:1015680052F823F08D150008AD150008CD150008B8
:10157800ED15000801160008F71500080B160008FD
:101588002B160008012201216D4801F029FC0022D8
:1015980004216B4801F024FC00220221684801F074
:1015A8001FFC4FE000220121654801F019FC0022D0
:1015B8000421634801F014FC01220221604801F073
:1015C8000FFC3FE0002201215D4801F009FC0122E7
:1015D80004215B4801F004FC00220221584801F074
:1015E800FFFB2FE00121564801F013FC2AE00421FB
:1015F800534801F00EFC25E00221514801F009FC96
:1016080020E0002201214E4801F0EAFB00220421DB
:101618004B4801F0E5FB00220221494801F0E0FBBC
:1016280010E001220121464801F0DAFB01220421E1
:10163800434801F0D5FB01220221414801F0D0FBCB
:1016480000E000BF77E03B68072B72D801A252F890
:1016580023F000BF7D1600089D160008BD1600087F
:10166800DD160008F1160008E7160008FB1600084A
:101678001B17000801220821314801F0B1FB0022A4
:1016880020212F4801F0ACFB002210212C4801F04A
:10169800A7FB4FE000220821294801F0A1FB002206
:1016A8002021274801F09CFB01221021244801F049
:1016B80097FB3FE000220821214801F091FB01221D
:1016C80020211F4801F08CFB002210211C4801F04A
:1016D80087FB2FE008211A4801F09BFB2AE0202114
:1016E800174801F096FB25E01021154801F091FB01
:1016F80020E000220821124801F072FB002220217C
:101708000F4801F06DFB002210210D4801F068FB25
:1017180010E0012208210A4801F062FB0122202181
:10172800074801F05DFB01221021054801F058FB34
:1017380000E000BF00BF00BF0837BD4680BD00BF46
:101748000004024080B582B000AF78607B680C2B43
:1017580022D07B680C2B2CDC7B680A2B0FD07B6893
:101768000B2B26D101224FF40071144801F038FBED
:1017780000224FF48061114801F032FB1AE0002288
:101788004FF400710D4801F02BFB00224FF48061EB
:101798000A4801F025FB0DE000224FF400710748CC
:1017A80001F01EFB01224FF48061044801F018FB90
:1017B80000E000BF00BF0837BD4680BD000C0240F6
:1017C80080B58EB000AF07F1280300221A605A6076
:1017D8009A60DA6007F1200300221A605A603B1D04
:1017E80000221A605A609A60DA601A615A619A6136
:1017F8002D4B2E4A1A602C4B40F28F125A602A4BFE
:1018080000229A60284B42F20F72DA60264B0022BF
:101818001A61254B00229A61234801F05DFF0346B7
:10182800002B01D0FFF780FB4FF48053BB6207F118
:10183800280319461C4802F0FBFA0346002B01D086
:10184800FFF772FB184802F007F80346002B01D097
:10185800FFF76AFB00233B6200237B6207F120034A
:101868001946114802F0E4FE0346002B01D0FFF7A9
:101878005BFB60237B6041F28833BB600023FB6025
:1018880000237B613B1D04221946074802F00EFA2B
:101898000346002B01D0FFF747FB034800F062FB2B
:1018A80000BF3837BD4680BD480100200004004015
:1018B80080B400AF064B40F28F121A60054B4FF40C
:1018C800C8721A6000BFBD465DF8047B704700BF50
:1018D800D4000020D800002080B400AF134B1B6850
:1018E800012B09D1124B1A68124B1B689A62124BD2
:1018F8001A68104B1B689A630F4B1B6842F2273219
:10190800934205DC0C4B1B6803F5C8730A4A136045
:10191800074B1B68002B04DD054B1B68193B044A69
:10192800136000BFBD465DF8047B7047D0000020FF
:10193800D400002048010020D800002080B400AF67
:10194800064B1B68012B03D0044B01221A6000E0F0
:1019580000BFBD465DF8047B704700BFD000002083
:1019680080B400AF054B00221A60054B1B680022AB
:101978009A6300BFBD465DF8047B7047D000002025
:101988004801002080B400AF0C4B1B68002B0FD01F
:101998000A4B5B68002B06D1084B1B7B0133DAB27C
:1019A800064B1A7304E0054B5B68013B034A53601E
:1019B80000BFBD465DF8047B704700BF9001002062
:1019C80080B489B000AFF860B9607A60FB7000231A
:1019D800FB61BB68804AA2FB0323DB08BB610023D1
:1019E8007B612BE07D497A6913469B0013449B0079
:1019F8000B441B68002B1BD078497A6913469B005F
:101A080013449B000B4404331A68BB699A420CD8F0
:101A1800B96972487A6913469B0013449B000344D2
:101A280004331B68CB1ABB6105E07B69FB6108E0E6
:101A38007B69FB6105E07B6901337B617B69272B4F
:101A4800D0DD28233B616BE03B695A1E634913468E
:101A58009B0013449B000B441B68002B5DD03B6923
:101A68005A1E5E4913469B0013449B000B44196899
:101A78005A483A6913469B0013449B000344196073
:101A88003B695A1E554913469B0013449B000B445F
:101A98000433196851483A6913469B0013449B0064
:101AA8000344043319603B695A1E4C4913469B0092
:101AB80013449B000B440833196848483A69134695
:101AC8009B0013449B000344083319603B695A1E6A
:101AD800424913469B0013449B000B440C3318786F
:101AE8003E493A6913469B0013449B000B440C3350
:101AF80002461A703B695A1E384913469B00134424
:101B08009B000B441033196834483A6913469B000C
:101B180013449B000344103319603B69013B3B614C
:101B28003A69FB699A428FDCF9682C48FA691346CE
:101B38009B0013449B0003441960B9692748FA695C
:101B480013469B0013449B00034404331960234944
:101B5800FA6913469B0013449B000B4408337A68C8
:101B68001A601E49FA6913469B0013449B000B44F4
:101B78000C3300221A70F9781848FA6913469B004A
:101B880013449B00034410331960FB695A1C134922
:101B980013469B0013449B000B441B68002B15D075
:101BA800FB695A1C0D4913469B0013449B000B44C8
:101BB80004331968BB69FA690132C91A0748134620
:101BC8009B0013449B0003440433196000BF24376F
:101BD800BD465DF8047B7047CDCCCCCC900100208D
:101BE80080B483B000AF0346FB71FA791A491346F3
:101BF8009B0013449B000B44043300221A60FA79BB
:101C0800154913469B0013449B000B4408330022DC
:101C18001A60FA79104913469B0013449B000B4441
:101C28000C3300221A70FA790B4913469B001344AF
:101C38009B000B4400221A60FA79074913469B005F
:101C480013449B000B44103300221A6000BF0C376A
:101C5800BD465DF8047B70479001002080B584B0D4
:101C680000AF0346FB710023FB60FB791846FFF7C2
:101C7800B7FFFB79BB606DE0BB685A1C3B49134654
:101C88009B0013449B000B4419683848BA681346F4
:101C98009B0013449B0003441960BB685A1C3349DA
:101CA80013469B0013449B000B44043319682F48C8
:101CB800BA6813469B0013449B000344043319601D
:101CC800BB685A1C294913469B0013449B000B44CC
:101CD800083319682548BA6813469B0013449B00CB
:101CE800034408331960BB685A1C204913469B00FB
:101CF80013449B000B440C3318781C49BA681346EC
:101D08009B0013449B000B440C3302461A70BB68BB
:101D18005A1C164913469B0013449B000B4410336E
:101D280019681248BA6813469B0013449B00034481
:101D3800103319600D49BA6813469B0013449B0081
:101D48000B441B68002B02D1BB68FB6005E0BB6835
:101D58000133BB60BB68272B8EDDFB68DBB21846FE
:101D6800FFF73EFF00BF1037BD4680BD9001002041
:101D780080B500AF124B1B68002B1ED0104B1B7B8D
:101D8800002B1AD00E4B1B6898470D4B1B7B013B51
:101D9800DAB20B4B1A730A4B9B68002B0AD0084B1C
:101DA8001868074B9968064B9A68054B1B69DBB2A4
:101DB800FFF706FE0020FFF751FF00BF80BD00BF00
:101DC8009001002080B483B000AF0023FB7133E0A2
:101DD800FA791E4913469B0013449B000B440433B5
:101DE80000221A60FA79194913469B0013449B0094
:101DF8000B44083300221A60FA79144913469B00F1
:101E080013449B000B440C3300221A70FA790F49D3
:101E180013469B0013449B000B4400221A60FA7976
:101E28000A4913469B0013449B000B4410330022BD
:101E38001A60FB790133FB71FB79272BC8D900BFE6
:101E480000BF0C37BD465DF8047B70479001002049
:101E580080B500AF044B1B68032B03D1FFF798F93B
:101E6800FEF72CFE00BF80BD5000002080B500AFFB
:101E7800034B1B68052B01D100F0CCFA00BF80BDD5
:101E88005000002080B500AFFEF768FC00BF80BDA1
:101E980080B500AFFFF720FD00BF80BD80B483B0E0
:101EA80000AF00237B60104B5B6C0F4A43F4804308
:101EB80053640D4B5B6C03F480437B607B680023A9
:101EC8003B60094B1B6C084A43F080531364064B74
:101ED8001B6C03F080533B603B6800BF0C37BD466A
:101EE8005DF8047B704700BF0038024080B584B0BD
:101EF80000AF78607B681B68B3F1804F16D1002370
:101F0800FB60164B1B6C154A43F001031364134B1B
:101F18001B6C03F00103FB60FB68002200211C20FE
:101F280000F0E1FC1C2000F0FAFC12E07B681B6862
:101F38000B4A93420DD10023BB60084B1B6C074A28
:101F480043F002031364054B1B6C03F00203BB60F0
:101F5800BB6800BF1037BD4680BD00BF00380240D7
:101F68000004004080B588B000AF786007F10C032A
:101F780000221A605A609A60DA601A617B681B68EE
:101F8800124A93421DD10023BB60114B1B6B104AB0
:101F980043F0010313630E4B1B6B03F00103BB609B
:101FA800BB688023FB6002233B6100237B61002325
:101FB800BB610223FB6107F10C031946054800F0D9
:101FC8005BFD00BF2037BD4680BD00BF0004004058
:101FD800003802400000024080B58AB000AF786047
:101FE80007F1140300221A605A609A60DA601A61D5
:101FF8007B681B681D4A934233D100233B611C4B0D
:102008005B6C1B4A43F010035364194B5B6C03F081
:1020180010033B613B690023FB60154B1B6B144AA3
:1020280043F002031363124B1B6B03F00203FB60C4
:10203800FB68C0237B610223BB610023FB61032390
:102048003B6207237B6207F114031946094800F035
:1020580013FD00220021252000F045FC252000F07A
:102068005EFC00BF2837BD4680BD00BF00100140A0
:10207800003802400004024080B400AFFEE780B49C
:1020880000AFFEE780B400AFFEE780B400AFFEE724
:1020980080B400AFFEE780B400AF00BFBD465DF876
:1020A800047B704780B400AF00BFBD465DF8047B79
:1020B800704780B400AF00BFBD465DF8047B704731
:1020C80080B500AF00F014FB00BF80BD80B500AF45
:1020D800024801F0E3FC00BF80BD00BFE80000201B
:1020E80080B500AF024802F013FC00BF80BD00BFFE
:1020F800B004002080B400AF064BD3F88830054AFE
:1021080043F47003C2F8883000BFBD465DF8047B15
:10211800704700BF00ED00E080B500AF2B4B1B6897
:10212800032B4BD801A252F823F000BF4521000829
:102138006521000885210008A5210008234B0122FC
:102148001A60FEF75DFC224B1B681846FEF710FC70
:102158001F4B1B681846FEF717FC30E01B4B02228A
:102168001A60FEF74DFC1B4B1B681846FEF700FC77
:10217800184B1B681846FEF707FC20E0134B032298
:102188001A60FEF73DFC144B1B681846FEF7F0FB7F
:10219800114B1B681846FEF7F7FB10E00B4B0122AA
:1021A8001A60FEF72DFC0A4B1B681846FEF7E0FB89
:1021B800074B1B681846FEF7E7FB00E000BF00F07E
:1021C800ADF900F071F900BF80BD00BFDC00002050
:1021D80060000020680000206400002080B400AF88
:1021E800034B00221A6000BFBD465DF8047B7047B0
:1021F800DC00002080B400AF084B1B68084A13605D
:10220800084B1B68084A1360084B1B68084A136090
:1022180000BFBD465DF8047B704700BF6400002026
:1022280058000020600000205400002068000020B2
:102238005C00002080B500AF084B00221A60FFF751
:102248008FFBFFF7D7FFFEF723FCFFF7C7FF03203D
:10225800FEF7A6FBFFF760FF00BF80BDE00000208F
:1022680080B500AF2B4B1B68032B34D0032B49DC04
:10227800012B02D0022B17D044E0274B1B680133F7
:10228800254A1360244B1B68632B02DD224B002276
:102298001A60214B1B681846FEF76AFB1E4B1B6829
:1022A8001846FEF771FB2EE01C4B1B6801331B4AD6
:1022B80013601A4B1B68632B02DD184B00221A604F
:1022C800164B1B681846FEF753FB144B1B68184641
:1022D800FEF75AFB17E0124B1B680133104A1360D4
:1022E8000F4B1B68632B02DD0D4B00221A600C4B51
:1022F8001B681846FEF73CFB094B1B681846FEF79F
:1023080043FB00E000BF00F009F900F0CDF800BF82
:1023180080BD00BFDC000020540000205C000020CD
:1023280058000020B0B58AB000AF304B1A68304B67
:102338001B681A442F4B1B689A4239D02E4B1B68D6
:10234800032B17D15820FEF713FB5820FEF71CFB70
:102358000820FEF725FBFEF75FFB284B1B68244A85
:102368001360274B1B68234A1360264B1B681F4AC0
:1023780013600CE0214B1B681D4A1360204B1B683F
:102388001C4A13601F4B1B68184A136000BF1E4B82
:1023980007F114041D460FCD0FC42B68236007F105
:1023A80014014FF47A731422184802F01EFA19E047
:1023B8000F4B1B68114A13600E4B1B68104A1360C1
:1023C8000A4B1B680F4A1360114B3C461D460FCD44
:1023D8000FC42B68236039464FF47A7314220B48D4
:1023E80002F003FA00BF2837BD46B0BD5C000020EC
:1023F8005800002054000020DC0000206400002069
:10240800600000206800002050570008B004002039
:102418006457000880B500AF0D4B1B68032B14D818
:1024280001A252F823F000BF5324000841240008F9
:10243800472400084D240008FEF7CAFA06E0FEF714
:10244800BBFA03E0FEF7D0FA00E000BF00BF80BD92
:10245800DC00002080B500AF114B124A1A60104B07
:102468004FF4E1325A600E4B00229A600C4B002266
:10247800DA600B4B00221A61094B0C225A61084B97
:1024880000229A61064B0022DA61054802F060F9E1
:102498000346002B01D0FEF747FD00BF80BD00BFFB
:1024A800B00400200010014080B588B000AF174A82
:1024B80007F1180392E80300186004331980023307
:1024C8000A0C1A70124B7B61124B5B6839460A2260
:1024D800184603F0E1F807F118014FF47A73072260
:1024E8000D4802F082F939464FF47A7302220A48FD
:1024F80002F07BF907F114014FF47A7304220648BD
:1025080002F073F900BF2037BD4680BD7857000838
:10251800230A0A00B8000020B004002080B590B05B
:1025280000AF304A07F1380392E80300186004331B
:10253800198002330A0C1A702B4A07F1300392E80B
:10254800030018600433198002330A0C1A70274AF2
:1025580007F12C031268114619800233120C1A7005
:10256800234B1B6807F118010A22184603F094F858
:102578001F4B9B68391D0A22184603F08DF807F196
:1025880030014FF47A7307221A4802F02EF9391DE8
:102598004FF47A730222174802F027F907F12C0149
:1025A8004FF47A730322134802F01FF907F1380138
:1025B8004FF47A7307220F4802F017F907F1180150
:1025C8004FF47A7302220B4802F00FF907F12C013D
:1025D8004FF47A730322074802F007F900BF403727
:1025E800BD4680BD78570008805700088857000806
:1025F800B8000020B0040020DFF834D00D480E49A0
:102608000E4A002302E0D458C4500433C4188C4244
:10261800F9D30B4A0B4C002301E013600432A242A9
:10262800FBD3FFF767FD02F0FBFFFEF7CBFA70471D
:10263800000002200000002078000020DC5700087D
:1026480078000020F8040020FEE7000080B500AF05
:102658000E4B1B680D4A43F4007313600B4B1B6849
:102668000A4A43F480631360084B1B68074A43F423
:1026780080731360032000F02BF90F2000F008F896
:10268800FFF70CFC0023184680BD00BF003C024049
:1026980080B582B000AF7860124B1A68124B1B7875
:1026A80019464FF47A73B3FBF1F3B2FBF3F3184610
:1026B80000F043F90346002B01D001230EE07B68AC
:1026C8000F2B0AD8002279684FF0FF3000F00BF981
:1026D800064A7B681360002300E001231846083788
:1026E800BD4680BD6C0000207400002070000020F2
:1026F80080B400AF064B1B781A46064B1B68134480
:10270800044A136000BFBD465DF8047B704700BFF4
:1027180074000020F404002080B400AF034B1B6851
:102728001846BD465DF8047B704700BFF4040020DE
:1027380080B485B000AF78607B6803F00703FB6066
:102748000C4BDB68BB60BA684FF6FF031340BB60F5
:10275800FB681A02BB68134343F0BF6343F40033BA
:10276800BB60044ABB68D36000BF1437BD465DF840
:10277800047B704700ED00E080B400AF044BDB68D9
:102788001B0A03F007031846BD465DF8047B704733
:1027980000ED00E080B483B000AF0346FB7197F909
:1027A8000730002B0BDBFB7903F01F02074997F971
:1027B80007305B09012000FA02F241F8232000BF2C
:1027C8000C37BD465DF8047B704700BF00E100E0B0
:1027D80080B483B000AF03463960FB7197F90730C6
:1027E800002B0ADB3B68DAB20C4997F90730120173
:1027F800D2B20B4483F800230AE03B68DAB20849F6
:10280800FB7903F00F03043B1201D2B20B441A7692
:1028180000BF0C37BD465DF8047B704700E100E05F
:1028280000ED00E080B489B000AFF860B9607A606C
:10283800FB6803F00703FB61FB69C3F10703042B83
:1028480028BF0423BB61FB690433062B02D9FB694B
:10285800033B00E000237B614FF0FF32BB6902FAC3
:1028680003F3DA43BB681A407B699A404FF0FF31A3
:102878007B6901FA03F3D9437B680B40134318467D
:102888002437BD465DF8047B7047000080B582B0F0
:1028980000AF78607B68013BB3F1807F01D30123EF
:1028A8000FE00A4A7B68013B53600F214FF0FF306D
:1028B800FFF78EFF054B00229A60044B07221A602F
:1028C800002318460837BD4680BD00BF10E000E071
:1028D80080B582B000AF78607868FFF729FF00BF45
:1028E8000837BD4680BD80B586B000AF0346B960E5
:1028F8007A60FB7300237B61FFF73EFF78617A689B
:10290800B9687869FFF78EFF024697F90F301146CC
:102918001846FFF75DFF00BF1837BD4680BD80B57C
:1029280082B000AF0346FB7197F907301846FFF7EE
:1029380031FF00BF0837BD4680BD80B582B000AF0B
:1029480078607868FFF7A2FF034618460837BD4647
:1029580080BD80B584B000AF78607B689B6DFB60FC
:10296800FFF7DAFEB8607B6893F83530DBB2022BEC
:1029780008D07B6880225A657B68002283F834205F
:10298800012352E07B681B681A687B681B6822F089
:1029980016021A607B681B685A697B681B6822F0FC
:1029A80080025A617B681B6C002B03D17B689B6C8F
:1029B800002B07D07B681B681A687B681B6822F0AD
:1029C80008021A607B681B681A687B681B6822F01B
:1029D80001021A6013E0FFF79FFE0246BB68D31A94
:1029E800052B0CD97B6820225A657B68032283F863
:1029F80035207B68002283F83420032315E07B68A8
:102A08001B681B6803F00103002BE4D17B68DB6DB6
:102A18003F229A40FB689A607B68012283F8352040
:102A28007B68002283F83420002318461037BD46FF
:102A380080BD80B483B000AF78607B6893F8353090
:102A4800DBB2022B04D07B6880225A6501230CE09C
:102A58007B68052283F835207B681B681A687B68C9
:102A68001B6822F001021A60002318460C37BD4685
:102A78005DF8047B7047000080B489B000AF7860CF
:102A8800396000237B6100233B610023BB61002385
:102A9800FB616BE10122FB6902FA03F37B613B688E
:102AA8001B687A6913403B613A697B699A4240F036
:102AB8005A813B685B6803F00303012B05D03B6830
:102AC8005B6803F00303022B30D17B689B68BB6112
:102AD800FB695B00032202FA03F3DB43BA69134084
:102AE800BB613B68DA68FB695B0002FA03F3BA6909
:102AF8001343BB617B68BA699A607B685B68BB619A
:102B08000122FB6902FA03F3DB43BA691340BB6194
:102B18003B685B681B0903F00102FB6902FA03F3D7
:102B2800BA691343BB617B68BA695A603B685B68E2
:102B380003F00303032B17D07B68DB68BB61FB69D9
:102B48005B00032202FA03F3DB43BA691340BB615B
:102B58003B689A68FB695B0002FA03F3BA6913439E
:102B6800BB617B68BA69DA603B685B6803F00303A2
:102B7800022B23D1FB69DA087B68083253F822302C
:102B8800BB61FB6903F007039B000F2202FA03F302
:102B9800DB43BA691340BB613B681A69FB6903F000
:102BA80007039B0002FA03F3BA691343BB61FB698D
:102BB800DA087B680832B96943F822107B681B6819
:102BC800BB61FB695B00032202FA03F3DB43BA69CA
:102BD8001340BB613B685B6803F00302FB695B0061
:102BE80002FA03F3BA691343BB617B68BA691A60D6
:102BF8003B685B6803F44033002B00F0B48000238B
:102C0800FB60604B5B6C5F4A43F4804353645D4BED
:102C18005B6C03F48043FB60FB685B4AFB699B08C1
:102C2800023352F82330BB61FB6903F003039B00B6
:102C38000F2202FA03F3DB43BA691340BB617B68D6
:102C4800524A93422BD07B68514A934225D07B68E5
:102C5800504A93421FD07B684F4A934219D07B68F1
:102C68004E4A934213D07B684D4A93420DD07B68FD
:102C78004C4A934207D07B684B4A934201D10723C1
:102C88000EE008230CE006230AE0052308E00423ED
:102C980006E0032304E0022302E0012300E000230E
:102CA800FA6902F0030292009340BA691343BB61C8
:102CB8003549FB699B080233BA6941F823203B4B2D
:102CC8001B68BB613B69DB43BA691340BB613B6866
:102CD8005B6803F48033002B03D0BA693B69134364
:102CE800BB61324ABB691360304B5B68BB613B69AF
:102CF800DB43BA691340BB613B685B6803F400338C
:102D0800002B03D0BA693B691343BB61274ABB69EF
:102D18005360264B9B68BB613B69DB43BA69134030
:102D2800BB613B685B6803F48013002B03D0BA696E
:102D38003B691343BB611D4ABB6993601B4BDB684E
:102D4800BB613B69DB43BA691340BB613B685B68A5
:102D580003F40013002B03D0BA693B691343BB612A
:102D6800124ABB69D360FB690133FB61FB690F2B16
:102D78007FF690AE00BF00BF2437BD465DF8047BE8
:102D8800704700BF00380240003801400000024090
:102D98000004024000080240000C024000100240FB
:102DA8000014024000180240001C0240003C014090
:102DB80080B485B000AF78600B467B807B681A6969
:102DC8007B881340002B02D00123FB7301E0002312
:102DD800FB73FB7B18461437BD465DF8047B7047D0
:102DE80080B483B000AF78600B467B8013467B705D
:102DF8007B78002B03D07A887B689A6103E07B8814
:102E08001A047B689A6100BF0C37BD465DF8047BE5
:102E1800704780B485B000AF78600B467B807B68D4
:102E28005B69FB607A88FB6813401A04FB68D94326
:102E38007B880B401A437B689A6100BF1437BD46F4
:102E48005DF8047B7047000080B586B000AF7860FD
:102E58007B68002B01D1012364E27B681B6803F0C7
:102E68000103002B75D0A34B9B6803F00C03042BC4
:102E78000CD0A04B9B6803F00C03082B12D19D4B80
:102E88005B6803F48003B3F5800F0BD1994B1B6883
:102E980003F40033002B5BD07B685B68002B57D1B1
:102EA80001233FE27B685B68B3F5803F06D1914B15
:102EB8001B68904A43F4803313601DE07B685B68AD
:102EC800B3F5A02F0CD18B4B1B688A4A43F480239F
:102ED8001360884B1B68874A43F4803313600BE008
:102EE800844B1B68834A23F480331360814B1B682F
:102EF800804A23F4802313607B685B68002B13D01F
:102F0800FFF70AFC386108E0FFF706FC02463B6958
:102F1800D31A642B01D9032304E2764B1B6803F40C
:102F28000033002BF0D014E0FFF7F6FB386108E01F
:102F3800FFF7F2FB02463B69D31A642B01D903233E
:102F4800F0E16C4B1B6803F40033002BF0D100E078
:102F580000BF7B681B6803F00203002B63D0654B3E
:102F68009B6803F00C03002B0BD0624B9B6803F0AB
:102F78000C03082B1CD15F4B5B6803F48003002B08
:102F880016D15C4B1B6803F00203002B05D07B684D
:102F9800DB68012B01D00123C4E1564B1B6823F0E9
:102FA800F8027B681B69DB00524913430B603AE067
:102FB8007B68DB68002B20D04F4B01221A60FFF79B
:102FC800ABFB386108E0FFF7A7FB02463B69D31A61
:102FD800022B01D90323A5E1464B1B6803F002032A
:102FE800002BF0D0434B1B6823F0F8027B681B6969
:102FF800DB00404913430B6015E03F4B00221A6089
:10300800FFF78AFB386108E0FFF786FB02463B6959
:10301800D31A022B01D9032384E1364B1B6803F032
:103028000203002BF0D17B681B6803F00803002B18
:1030380030D07B685B69002B16D0304B01221A60B8
:10304800FFF76AFB386108E0FFF766FB02463B6959
:10305800D31A022B01D9032364E1264B5B6F03F0DB
:103068000203002BF0D015E0244B00221A60FFF772
:1030780053FB386108E0FFF74FFB02463B69D31A60
:10308800022B01D903234DE11A4B5B6F03F00203B6
:10309800002BF0D17B681B6803F00403002B00F0C1
:1030A800A0800023FB75134B1B6C03F08053002B8F
:1030B8000FD10023BB600F4B1B6C0E4A43F08053AB
:1030C80013640C4B1B6C03F08053BB60BB6801237B
:1030D800FB750B4B1B6803F48073002B21D1084B45
:1030E8001B68074A43F480731360FFF715FB3861C8
:1030F80011E000BF0038024000004742800E4742FE
:1031080000700040FFF708FB02463B69D31A022B08
:1031180001D9032306E1854B1B6803F48073002B58
:10312800F0D07B689B68012B06D1814B1B6F804ACE
:1031380043F0010313671CE07B689B68052B0CD1E7
:103148007B4B1B6F7A4A43F004031367784B1B6F62
:10315800774A43F0010313670BE0754B1B6F744A02
:1031680023F001031367724B1B6F714A23F00403AA
:1031780013677B689B68002B15D0FFF7CDFA386181
:103188000AE0FFF7C9FA02463B69D31A41F28832CE
:10319800934201D90323C5E0654B1B6F03F002037B
:1031A800002BEED014E0FFF7B7FA38610AE0FFF71A
:1031B800B3FA02463B69D31A41F28832934201D9E5
:1031C8000323AFE05A4B1B6F03F00203002BEED131
:1031D800FB7D012B05D1564B1B6C554A23F08053C0
:1031E80013647B689B69002B00F09B80504B9B68A5
:1031F80003F00C03082B5CD07B689B69022B41D140
:103208004C4B00221A60FFF787FA386108E0FFF795
:1032180083FA02463B69D31A022B01D9032381E0C2
:10322800434B1B6803F00073002BF0D17B68DA690D
:103238007B681B6A1A437B685B6A9B011A437B683D
:103248009B6A5B08013B1B041A437B68DB6A1B060D
:10325800374913434B60374B01221A60FFF75CFA7A
:10326800386108E0FFF758FA02463B69D31A022B87
:1032780001D9032356E02E4B1B6803F00073002B83
:10328800F0D04EE02B4B00221A60FFF745FA386168
:1032980008E0FFF741FA02463B69D31A022B01D92D
:1032A80003233FE0224B1B6803F00073002BF0D18F
:1032B80037E07B689B69012B01D1012332E01C4B6D
:1032C8005B68FB607B689B69012B28D0FB6803F473
:1032D80080027B68DB699A4221D1FB6803F03F02D8
:1032E8007B681B6A9A421AD1FA6847F6C073134082
:1032F8007A68526A9201934211D1FB6803F4403212
:103308007B689B6A5B08013B1B049A4207D1FB68F8
:1033180003F070627B68DB6A1B069A4201D00123C6
:1033280000E0002318461837BD4680BD00700040F5
:10333800003802406000474280B584B000AF786032
:1033480039607B68002B01D10123CCE0684B1B68F6
:1033580003F007033A689A420CD9654B3A68D2B22F
:103368001A70634B1B6803F007033A689A4201D04E
:103378000123B8E07B681B6803F00203002B20D010
:103388007B681B6803F00403002B05D0594B9B682E
:10339800584A43F4E05393607B681B6803F00803C2
:1033A800002B05D0534B9B68524A43F4604393600B
:1033B800504B9B6823F0F0027B689B684D49134390
:1033C8008B607B681B6803F00103002B44D07B688B
:1033D8005B68012B07D1474B1B6803F40033002BB4
:1033E80019D101237FE07B685B68022B03D07B68DF
:1033F8005B68032B07D13F4B1B6803F00073002B5E
:1034080009D101236FE03B4B1B6803F00203002B3B
:1034180001D1012367E0374B9B6823F003027B68E7
:103428005B68344913438B60FFF776F9F8600AE06C
:10343800FFF772F90246FB68D31A41F288329342C9
:1034480001D903234FE02B4B9B6803F00C027B68E8
:103458005B689B009A42EBD1254B1B6803F007037E
:103468003A689A420CD2224B3A68D2B21A70204B70
:103478001B6803F007033A689A4201D0012332E03F
:103488007B681B6803F00403002B08D0194B9B686A
:1034980023F4E0527B68DB68164913438B607B6832
:1034A8001B6803F00803002B09D0124B9B6823F418
:1034B80060427B681B69DB000E4913438B6000F098
:1034C80021F802460B4B9B681B0903F00F030A49BE
:1034D800CB5C22FA03F3094A1360094B1B681846B0
:1034E800FFF7D6F8002318461037BD4680BD00BF49
:1034F800003C0240003802408C5700086C00002055
:1035080070000020B0B584B000AF002179600021C0
:10351800F960002139600021B9605249896801F0D9
:103528000C0108290DD0082900F29480002902D046
:10353800042903D08EE04C4BBB608EE04B4BBB6044
:103548008BE04849496801F03F017960454949687D
:1035580001F48001002924D04249496889090846B4
:103568004FF0000140F2FF144FF0000500EA04029A
:1035780001EA05033D4901FB03F0002101FB02F1CB
:1035880044183A49A2FB0101631819467B681A4698
:103598004FF00003FCF714FE02460B461346FB608F
:1035A8004AE0304B5B689B091A464FF0000340F233
:1035B800FF104FF0000102EA000403EA010520466B
:1035C80029464FF000024FF000034B0143EAD06355
:1035D800420110461946001B61EB05014FF000023D
:1035E8004FF000038B0143EA90638201121A63EBE8
:1035F80001034FF000004FF00001D90041EA527179
:10360800D00002460B46121945EB03034FF00000A9
:103618004FF00001990241EA9251900202460B468E
:10362800104619467B681A464FF00003FCF7C8FDA0
:1036380002460B461346FB600A4B5B681B0C03F003
:10364800030301335B003B60FA683B68B2FBF3F3AA
:10365800BB6002E0044BBB6000BFBB681846103774
:10366800BD46B0BD003802400024F40040787D011A
:1036780080B400AF034B1B681846BD465DF8047B59
:10368800704700BF6C00002080B500AFFFF7F0FF67
:103698000246054B9B689B0A03F007030349CB5C72
:1036A80022FA03F3184680BD003802409C570008F0
:1036B80080B500AFFFF7DCFF0246054B9B685B0B4C
:1036C80003F007030349CB5C22FA03F3184680BDD5
:1036D800003802409C57000880B582B000AF78607F
:1036E8007B68002B01D1012341E07B6893F83D30D2
:1036F800DBB2002B06D17B68002283F83C20786877
:10370800FEF7F4FB7B68022283F83D207B681A6889
:103718007B6804331946104600F07AFC7B68012266
:1037280083F846207B68012283F83E207B680122CB
:1037380083F83F207B68012283F840207B680122C0
:1037480083F841207B68012283F842207B680122AC
:1037580083F843207B68012283F844207B68012298
:1037680083F845207B68012283F83D200023184612
:103778000837BD4680BD000080B485B000AF7860D2
:103788007B6893F83D30DBB2012B01D001234EE07A
:103798007B68022283F83D207B681B68DA687B68B7
:1037A8001B6842F00102DA607B681B68234A934277
:1037B80022D07B681B68B3F1804F1DD07B681B68E3
:1037C8001F4A934218D07B681B681E4A934213D045
:1037D8007B681B681C4A93420ED07B681B681B4A97
:1037E800934209D07B681B68194A934204D07B68CE
:1037F8001B68184A934211D17B681B689B6803F0C9
:103808000703FB60FB68062B10D07B681B681A68EF
:103818007B681B6842F001021A6007E07B681B683E
:103828001A687B681B6842F001021A600023184678
:103838001437BD465DF8047B704700BF00000140A7
:103848000004004000080040000C00400004014053
:10385800004001400018004080B582B000AF786099
:103868007B68002B01D1012341E07B6893F83D3050
:10387800DBB2002B06D17B68002283F83C207868F5
:1038880000F039F87B68022283F83D207B681A68CB
:103898007B6804331946104600F0BAFB7B680122A6
:1038A80083F846207B68012283F83E207B6801224A
:1038B80083F83F207B68012283F840207B6801223F
:1038C80083F841207B68012283F842207B6801222B
:1038D80083F843207B68012283F844207B68012217
:1038E80083F845207B68012283F83D200023184691
:1038F8000837BD4680BD80B483B000AF786000BF94
:103908000C37BD465DF8047B7047000080B584B075
:1039180000AF786039603B68002B09D17B6893F869
:103928003E30DBB2012B14BF01230023DBB222E0BF
:103938003B68042B09D17B6893F83F30DBB2012B3D
:1039480014BF01230023DBB215E03B68082B09D123
:103958007B6893F84030DBB2012B14BF01230023AE
:10396800DBB208E07B6893F84130DBB2012B14BF6F
:1039780001230023DBB2002B01D001237CE03B684C
:10398800002B04D17B68022283F83E2013E03B68B9
:10399800042B04D17B68022283F83F200BE03B68AC
:1039A800082B04D17B68022283F8402003E07B685F
:1039B800022283F841207B681B6801223968184677
:1039C80000F010FE7B681B682D4A934204D07B6888
:1039D8001B682C4A934201D1012300E00023002BED
:1039E80007D07B681B685A6C7B681B6842F40042EE
:1039F8005A647B681B68224A934222D07B681B6802
:103A0800B3F1804F1DD07B681B681F4A934218D0C2
:103A18007B681B681D4A934213D07B681B681C4A4D
:103A280093420ED07B681B68164A934209D07B6884
:103A38001B68184A934204D07B681B68164A934255
:103A480011D17B681B689B6803F00703FB60FB6868
:103A5800062B10D07B681B681A687B681B6842F0CD
:103A680001021A6007E07B681B681A687B681B689C
:103A780042F001021A60002318461037BD4680BD87
:103A8800000001400004014000040040000800401C
:103A9800000C0040004001400018004080B582B092
:103AA80000AF78607B681B681B6903F00203022B78
:103AB80022D17B681B68DB6803F00203022B1BD151
:103AC8007B681B686FF002021A617B6801221A7713
:103AD8007B681B689B6903F00303002B03D078689D
:103AE80000F077FA05E0786800F069FA786800F085
:103AF8007AFA7B6800221A777B681B681B6903F0D7
:103B08000403042B22D17B681B68DB6803F00403E1
:103B1800042B1BD17B681B686FF004021A617B6859
:103B280002221A777B681B689B6903F44073002B99
:103B380003D0786800F04DFA05E0786800F03FFAA5
:103B4800786800F050FA7B6800221A777B681B6857
:103B58001B6903F00803082B22D17B681B68DB680C
:103B680003F00803082B1BD17B681B686FF0080261
:103B78001A617B6804221A777B681B68DB6903F08B
:103B88000303002B03D0786800F023FA05E0786877
:103B980000F015FA786800F026FA7B6800221A7798
:103BA8007B681B681B6903F01003102B22D17B680C
:103BB8001B68DB6803F01003102B1BD17B681B68A4
:103BC8006FF010021A617B6808221A777B681B68FD
:103BD800DB6903F44073002B03D0786800F0F9F92F
:103BE80005E0786800F0EBF9786800F0FCF97B688C
:103BF80000221A777B681B681B6903F00103012BFD
:103C08000ED17B681B68DB6803F00103012B07D129
:103C18007B681B686FF001021A617868FDF77AF912
:103C28007B681B681B6903F08003802B0ED17B68BF
:103C38001B68DB6803F08003802B07D17B681B6857
:103C48006FF080021A61786800F078FD7B681B6865
:103C58001B6903F04003402B0ED17B681B68DB68AF
:103C680003F04003402B07D17B681B686FF04002CC
:103C78001A61786800F0C1F97B681B681B6903F05A
:103C88002003202B0ED17B681B68DB6803F0200320
:103C9800202B07D17B681B686FF020021A617868B7
:103CA80000F042FD00BF0837BD4680BD80B586B034
:103CB80000AFF860B9607A600023FB75FB6893F881
:103CC8003C30012B01D10223AEE0FB68012283F8CE
:103CD8003C207B680C2B00F29F8001A252F823F055
:103CE8001D3D0008213E0008213E0008213E000835
:103CF8005D3D0008213E0008213E0008213E0008E5
:103D08009F3D0008213E0008213E0008213E000892
:103D1800DF3D0008FB681B68B968184600F018FA10
:103D2800FB681B689A69FB681B6842F008029A6185
:103D3800FB681B689A69FB681B6822F004029A6199
:103D4800FB681B689969BB681A69FB681B680A43AA
:103D58009A6164E0FB681B68B968184600F068FA65
:103D6800FB681B689A69FB681B6842F400629A61E9
:103D7800FB681B689A69FB681B6822F480629A6179
:103D8800FB681B689969BB681B691A02FB681B689A
:103D98000A439A6143E0FB681B68B968184600F05B
:103DA800BDFAFB681B68DA69FB681B6842F0080209
:103DB800DA61FB681B68DA69FB681B6822F0040299
:103DC800DA61FB681B68D969BB681A69FB681B68FC
:103DD8000A43DA6123E0FB681B68B968184600F0FB
:103DE80011FBFB681B68DA69FB681B6842F4006218
:103DF800DA61FB681B68DA69FB681B6822F4806279
:103E0800DA61FB681B68D969BB681B691A02FB6821
:103E18001B680A43DA6102E00123FB7500BFFB68F7
:103E2800002283F83C20FB7D18461837BD4680BD2C
:103E380080B584B000AF786039600023FB737B687D
:103E480093F83C30012B01D10223B4E07B680122B6
:103E580083F83C207B68022283F83D207B681B683E
:103E68009B68BB60BB6823F07703BB60BB6823F427
:103E78007F43BB607B681B68BA689A603B681B68B5
:103E8800B3F5005F3ED0B3F5005F00F28780B3F56D
:103E9800805F00F08680B3F5805F7FD8702B1AD0E2
:103EA800702B7BD8602B50D0602B77D8502B3CD010
:103EB800502B73D8402B58D0402B6FD8302B64D060
:103EC800302B6BD8202B60D0202B67D8002B5CD0F0
:103ED800102B5AD062E07B6818683B6899683B6889
:103EE8005A683B68DB6800F05DFB7B681B689B6871
:103EF800BB60BB6843F07703BB607B681B68BA682C
:103F08009A604FE07B6818683B6899683B685A6814
:103F18003B68DB6800F046FB7B681B689A687B6837
:103F28001B6842F480429A603CE07B6818683B68F2
:103F380059683B68DB681A4600F0BAFA7B681B6868
:103F48005021184600F013FB2CE07B6818683B688A
:103F580059683B68DB681A4600F0D9FA7B681B6829
:103F68006021184600F003FB1CE07B6818683B687A
:103F780059683B68DB681A4600F09AFA7B681B6848
:103F88004021184600F0F3FA0CE07B681A683B6899
:103F98001B681946104600F0EAFA03E00123FB7398
:103FA80000E000BF7B68012283F83D207B68002287
:103FB80083F83C20FB7B18461037BD4680BD80B493
:103FC80083B000AF786000BF0C37BD465DF8047B56
:103FD800704780B483B000AF786000BF0C37BD462F
:103FE8005DF8047B704780B483B000AF786000BF91
:103FF8000C37BD465DF8047B704780B483B000AFD2
:10400800786000BF0C37BD465DF8047B7047000040
:1040180080B485B000AF786039607B681B68FB604E
:104028007B68404A934213D07B68B3F1804F0FD02E
:104038007B683D4A93420BD07B683C4A934207D049
:104048007B683B4A934203D07B683A4A934208D143
:10405800FB6823F07003FB603B685B68FA681343F6
:10406800FB607B682F4A93422BD07B68B3F1804F6B
:1040780027D07B682C4A934223D07B682B4A9342F3
:104088001FD07B682A4A93421BD07B68294A9342F7
:1040980017D07B68284A934213D07B68274A9342FB
:1040A8000FD07B68264A93420BD07B68254A9342FF
:1040B80007D07B68244A934203D07B68234A934203
:1040C80008D1FB6823F44073FB603B68DB68FA683F
:1040D8001343FB60FB6823F080023B685B69134372
:1040E800FB607B68FA681A603B689A687B68DA62EA
:1040F8003B681A687B689A627B680A4A934203D0D5
:104108007B680C4A934203D13B681A697B681A633F
:104118007B6801225A6100BF1437BD465DF8047BF5
:10412800704700BF00000140000400400008004044
:10413800000C0040000401400040014000440140E0
:104148000048014000180040001C004000200040CA
:1041580080B487B000AF786039607B681B6A23F051
:1041680001027B681A627B681B6A7B617B685B68FB
:104178003B617B689B69FB60FB6823F07003FB6015
:10418800FB6823F00303FB603B681B68FA68134372
:10419800FB607B6923F002037B613B689B687A695B
:1041A80013437B617B68204A934203D07B681F4A94
:1041B80093420CD17B6923F008037B613B68DB6881
:1041C8007A6913437B617B6923F004037B617B6815
:1041D800154A934203D07B68144A934211D13B6934
:1041E80023F480733B613B6923F400733B613B68B4
:1041F8005B693A6913433B613B689B693A691343BE
:104208003B617B683A695A607B68FA689A613B68E7
:104218005A687B685A637B687A691A6200BF1C37E0
:10422800BD465DF8047B7047000001400004014072
:1042380080B487B000AF786039607B681B6A23F070
:1042480010027B681A627B681B6A7B617B685B680B
:104258003B617B689B69FB60FB6823F4E043FB6080
:10426800FB6823F44073FB603B681B681B02FA6819
:104278001343FB607B6923F020037B613B689B68E9
:104288001B017A6913437B617B68224A934203D0FE
:104298007B68214A93420DD17B6923F080037B61BF
:1042A8003B68DB681B017A6913437B617B6923F0F8
:1042B80040037B617B68174A934203D07B68164AA8
:1042C800934213D13B6923F480633B613B6923F438
:1042D80000633B613B685B699B003A6913433B6140
:1042E8003B689B699B003A6913433B617B683A6969
:1042F8005A607B68FA689A613B685A687B689A6377
:104308007B687A691A6200BF1C37BD465DF8047B7A
:10431800704700BF000001400004014080B487B02E
:1043280000AF786039607B681B6A23F480727B6811
:104338001A627B681B6A7B617B685B683B617B6890
:10434800DB69FB60FB6823F07003FB60FB6823F00C
:104358000303FB603B681B68FA681343FB607B69D7
:1043680023F400737B613B689B681B027A691343E3
:104378007B617B68214A934203D07B68204A934241
:104388000DD17B6923F400637B613B68DB681B020A
:104398007A6913437B617B6923F480637B617B6863
:1043A800164A934203D07B68154A934213D13B695E
:1043B80023F480533B613B6923F400533B613B6822
:1043C8005B691B013A6913433B613B689B691B01AD
:1043D8003A6913433B617B683A695A607B68FA68BB
:1043E800DA613B685A687B68DA637B687A691A62C3
:1043F80000BF1C37BD465DF8047B704700000140D4
:104408000004014080B487B000AF786039607B68F1
:104418001B6A23F480527B681A627B681B6A3B61C3
:104428007B685B687B617B68DB69FB60FB6823F406
:10443800E043FB60FB6823F44073FB603B681B6848
:104448001B02FA681343FB603B6923F400533B618A
:104458003B689B681B033A6913433B617B68124ABC
:10446800934203D07B68114A934209D17B6923F4B4
:1044780080437B613B685B699B017A6913437B617D
:104488007B687A695A607B68FA68DA613B685A68BF
:104498007B681A647B683A691A6200BF1C37BD469C
:1044A8005DF8047B704700BF000001400004014034
:1044B80080B487B000AFF860B9607A60FB681B6AA7
:1044C8007B61FB681B6A23F00102FB681A62FB68C8
:1044D8009B693B613B6923F0F0033B617B681B01EF
:1044E8003A6913433B617B6923F00A037B617A696C
:1044F800BB6813437B61FB683A699A61FB687A6918
:104508001A6200BF1C37BD465DF8047B704780B453
:1045180087B000AFF860B9607A60FB681B6A23F067
:104528001002FB681A62FB689B697B61FB681B6A67
:104538003B617B6923F470437B617B681B037A6969
:1045480013437B613B6923F0A0033B61BB681B01FC
:104558003A6913433B61FB687A699A61FB683A6977
:104568001A6200BF1C37BD465DF8047B704780B4F3
:1045780085B000AF786039607B689B68FB60FB683A
:1045880023F07003FB603A68FB68134343F00703AA
:10459800FB607B68FA689A6000BF1437BD465DF817
:1045A800047B704780B487B000AFF860B9607A6068
:1045B8003B60FB689B687B617B6923F47F437B617D
:1045C8003B681A027B681A43BB6813437A69134332
:1045D8007B61FB687A699A6000BF1C37BD465DF84D
:1045E800047B704780B487B000AFF860B9607A6028
:1045F800BB6803F01F03012202FA03F37B61FB6827
:104608001A6A7B69DB431A40FB681A62FB681A6AFC
:10461800BB6803F01F03796801FA03F31A43FB68C8
:104628001A6200BF1C37BD465DF8047B7047000066
:1046380080B485B000AF786039607B6893F83C300F
:10464800012B01D102235AE07B68012283F83C2028
:104658007B68022283F83D207B681B685B68FB60EF
:104668007B681B689B68BB60FB6823F07003FB607A
:104678003B681B68FA681343FB607B681B68FA6831
:104688005A607B681B68214A934222D07B681B686A
:10469800B3F1804F1DD07B681B681D4A934218D028
:1046A8007B681B681B4A934213D07B681B681A4AB5
:1046B80093420ED07B681B68184A934209D07B68E6
:1046C8001B68174A934204D07B681B68154A9342BB
:1046D8000CD1BB6823F08003BB603B685B68BA6899
:1046E8001343BB607B681B68BA689A607B680122C9
:1046F80083F83D207B68002283F83C20002318467D
:104708001437BD465DF8047B704700BF00000140C8
:104718000004004000080040000C00400004014074
:10472800004001400018004080B483B000AF7860BA
:1047380000BF0C37BD465DF8047B704780B483B07A
:1047480000AF786000BF0C37BD465DF8047B70474A
:1047580080B582B000AF78607B68002B01D101235F
:104768003FE07B6893F83D30DBB2002B06D17B68D5
:10477800002283F83C207868FDF72EFC7B68242211
:1047880083F83D207B681B68DA687B681B6822F425
:104798000052DA60786800F07BFD7B681B681A6954
:1047A8007B681B6822F490421A617B681B685A690F
:1047B8007B681B6822F02A025A617B681B68DA68EA
:1047C8007B681B6842F40052DA607B6800221A6436
:1047D8007B68202283F83D207B68202283F83E20D6
:1047E800002318460837BD4680BD80B58AB002AFA1
:1047F800F860B9603B601346FB8000237B61FB686F
:1048080093F83D30DBB2202B7CD1BB68002B02D063
:10481800FB88002B01D1012375E0FB6893F83C303D
:10482800012B01D102236EE0FB68012283F83C20B2
:10483800FB6800221A64FB68212283F83D20FDF7FB
:104848006BFF7861FB68FA889A84FB68FA88DA84D7
:10485800FB689B68B3F5805F08D1FB681B69002B78
:1048680004D10023FB61BB68BB6103E0BB68FB614B
:104878000023BB61FB68002283F83C202AE03B68E8
:1048880000937B6900228021F86800F0F9FA03465A
:10489800002B01D0032336E0FB69002B0BD1BB6949
:1048A8001B881A46FB681B68C2F308025A60BB697A
:1048B8000233BB6107E0FB691A78FB681B685A6022
:1048C800FB690133FB61FB68DB8C9BB2013B9AB24D
:1048D800FB68DA84FB68DB8C9BB2002BCFD13B688A
:1048E80000937B6900224021F86800F0C9FA03466A
:1048F800002B01D0032306E0FB68202283F83D202B
:10490800002300E0022318462037BD4680BD000082
:1049180080B5BAB000AF78607B681B681B68C7F8C1
:10492800E4307B681B68DB68C7F8E0307B681B688D
:104938005B69C7F8DC300023C7F8D8300023C7F814
:10494800D430D7F8E43003F00F03C7F8D830D7F8DD
:10495800D830002B0FD1D7F8E43003F02003002B18
:1049680009D0D7F8E03003F02003002B03D0786893
:1049780000F0D3FB56E2D7F8D830002B00F0DE80E9
:10498800D7F8DC3003F00103002B06D1D7F8E0306C
:1049980003F49073002B00F0D180D7F8E43003F0D3
:1049A8000103002B0BD0D7F8E03003F48073002B01
:1049B80005D07B681B6C43F001027B681A64D7F84A
:1049C800E43003F00403002B0BD0D7F8DC3003F0FD
:1049D8000103002B05D07B681B6C43F002027B6847
:1049E8001A64D7F8E43003F00203002B0BD0D7F891
:1049F800DC3003F00103002B05D07B681B6C43F00F
:104A080004027B681A64D7F8E43003F00803002B2B
:104A180011D0D7F8E03003F02003002B05D1D7F8E8
:104A2800DC3003F00103002B05D07B681B6C43F0DE
:104A380008027B681A647B681B6C002B00F0ED8110
:104A4800D7F8E43003F02003002B08D0D7F8E03083
:104A580003F02003002B02D0786800F05EFB7B682F
:104A68001B685B6903F04003402B0CBF0123002344
:104A7800DBB2C7F8D4307B681B6C03F00803002B4B
:104A880003D1D7F8D430002B4FD0786800F066FAFD
:104A98007B681B685B6903F04003402B41D17B684E
:104AA8001B681433C7F89C30D7F89C3053E8003F94
:104AB800C7F89830D7F8983023F04003C7F8D030BB
:104AC8007B681B681433D7F8D020C7F8A820C7F82C
:104AD800A430D7F8A410D7F8A82041E80023C7F8D5
:104AE800A030D7F8A030002BD9D17B689B6B002B66
:104AF80013D07B689B6B7D4A1A657B689B6B184655
:104B0800FDF797FF0346002B16D07B689B6B1B6D48
:104B18007A68926B104698470EE0786800F09AF928
:104B28000AE0786800F096F906E0786800F092F9F3
:104B38007B6800221A6470E100BF6EE17B681B6B22
:104B4800012B40F04A81D7F8E43003F01003002B22
:104B580000F04381D7F8E03003F01003002B00F099
:104B68003C810023BB607B681B681B68BB607B685B
:104B78001B685B68BB60BB687B681B685B6903F08C
:104B88004003402B40F0B4807B689B6B1B685B68DC
:104B9800A7F8BE30B7F8BE30002B00F040817B6824
:104BA8009B8DB7F8BE209A4280F039817B68B7F8B0
:104BB800BE20DA857B689B6BDB69B3F5807F00F0EC
:104BC80088807B681B680C33C7F88830D7F8883032
:104BD80053E8003FC7F88430D7F8843023F4807353
:104BE800C7F8B8307B681B680C33D7F8B820C7F80B
:104BF8009420C7F89030D7F89010D7F8942041E85F
:104C08000023C7F88C30D7F88C30002BD9D17B68BB
:104C18001B6814337B677B6F53E8003F3B673B6F30
:104C280023F00103C7F8B4307B681B681433D7F846
:104C3800B420C7F88020FB67F96FD7F8802041E8D7
:104C48000023BB67BB6F002BE1D17B681B68143363
:104C58003B663B6E53E8003FFB65FB6D23F040036A
:104C6800C7F8B0307B681B681433D7F8B020FA66F1
:104C7800BB66B96EFA6E41E800237B667B6E002B3B
:104C8800E3D17B68202283F83E207B6800221A63E8
:104C98007B681B680C33FB64FB6C53E8003FBB6408
:104CA800BB6C23F01003C7F8AC307B681B680C336F
:104CB800D7F8AC20BA657B65796DBA6D41E80023F9
:104CC8003B653B6D002BE3D17B689B6B1846FDF77A
:104CD80040FE7B689A8D7B68DB8D9BB2D31A9BB2B2
:104CE8001946786800F0C0F899E000BF2B5000081A
:104CF8007B689A8D7B68DB8D9BB2D31AA7F8CE3080
:104D08007B68DB8D9BB2002B00F08B80B7F8CE3030
:104D1800002B00F086807B681B680C33BB63BB6B81
:104D280053E8003F7B637B6B23F49073C7F8C8306C
:104D38007B681B680C33D7F8C8207A643B64396CED
:104D48007A6C41E80023FB63FB6B002BE3D17B68A3
:104D58001B6814337B627B6A53E8003F3B623B6A03
:104D680023F00103C7F8C4307B681B681433D7F8F5
:104D7800C4203A63FB62F96A3A6B41E80023BB62DC
:104D8800BB6A002BE3D17B68202283F83E207B6836
:104D980000221A637B681B680C333B613B6953E84C
:104DA800003FFB60FB6823F01003C7F8C0307B6846
:104DB8001B680C33D7F8C020FA61BB61B969FA697E
:104DC80041E800237B617B69002BE3D1B7F8CE3043
:104DD8001946786800F048F823E0D7F8E43003F083
:104DE8008003002B09D0D7F8E03003F08003002BB4
:104DF80003D0786800F029F914E0D7F8E43003F01C
:104E08004003002B0ED0D7F8E03003F04003002B0E
:104E180008D0786800F069F904E000BF02E000BF3C
:104E280000E000BFE837BD4680BD00BF80B483B056
:104E380000AF786000BF0C37BD465DF8047B704753
:104E480080B483B000AF786000BF0C37BD465DF812
:104E5800047B704780B483B000AF786000BF0C3724
:104E6800BD465DF8047B704780B483B000AF7860BE
:104E78000B467B8000BF0C37BD465DF8047B70474E
:104E880080B590B000AFF860B9603B601346FB7125
:104E980050E0BB6CB3F1FF3F4CD0BB6C002B07D08C
:104EA800FDF73AFC02463B68D31ABA6C9A4241D2E3
:104EB800FB681B680C33BB62BB6A53E8003F7B622C
:104EC8007B6A23F4D073FB63FB681B680C33FA6BB3
:104ED8007A633B63396B7A6B41E80023FB62FB6AB8
:104EE800002BE5D1FB681B6814337B617B6953E8B1
:104EF800003F3B613B6923F00103BB63FB681B6810
:104F08001433BA6B3A62FB61F9693A6A41E80023E3
:104F1800BB61BB69002BE5D1FB68202283F83D20EB
:104F2800FB68202283F83E20FB68002283F83C209F
:104F380003230FE0FB681B681A68BB681340BA6854
:104F48009A420CBF01230023DBB21A46FB799A422E
:104F58009FD0002318464037BD4680BD80B495B029
:104F680000AF78607B681B680C337B637B6B53E80E
:104F7800003F3B633B6B23F49073FB647B681B68C7
:104F88000C33FA6C3A64FB63F96B3A6C41E8002322
:104F9800BB63BB6B002BE5D17B681B6814333B629A
:104FA8003B6A53E8003FFB61FB6923F00103BB64E4
:104FB8007B681B681433BA6CFA62BB62B96AFA6A16
:104FC80041E800237B627B6A002BE5D17B681B6B81
:104FD800012B19D17B681B680C33FB60FB6853E815
:104FE800003FBB60BB6823F010037B647B681B68D1
:104FF8000C337A6CBA617B617969BA6941E800233C
:105008003B613B69002BE5D17B68202283F83E2079
:105018007B6800221A6300BF5437BD465DF8047BE5
:10502800704780B584B000AF78607B689B6BFB608D
:10503800FB680022DA85FB680022DA84F868FFF74B
:1050480009FF00BF1037BD4680BD80B485B000AFF2
:1050580078607B6893F83D30DBB2212B3ED17B68CA
:105068009B68B3F5805F14D17B681B69002B10D156
:105078007B681B6AFB60FB681B881A467B681B6899
:10508800C2F308025A607B681B6A9A1C7B681A6222
:1050980008E07B681B6A591C7A6811621A787B6879
:1050A8001B685A607B68DB8C9BB2013B9BB27A68B9
:1050B8001946D184002B0FD17B681B68DA687B689E
:1050C8001B6822F08002DA607B681B68DA687B68FC
:1050D8001B6842F04002DA60002300E00223184611
:1050E8001437BD465DF8047B704780B582B000AFC9
:1050F80078607B681B68DA687B681B6822F040026E
:10510800DA607B68202283F83D207868FFF78EFEFE
:10511800002318460837BD4680BD80B58CB000AF67
:1051280078607B6893F83E30DBB2222B40F0AB808E
:105138007B689B68B3F5805F17D17B681B69002B80
:1051480013D10023FB627B689B6ABB627B681B6888
:105158005B689BB2C3F308039AB2BB6A1A807B6888
:105168009B6A9A1C7B689A6226E07B689B6AFB6252
:105178000023BB627B689B68B3F5805F07D07B68C0
:105188009B68002B0AD17B681B69002B06D17B68C2
:105198001B685B68DAB2FB6A1A7008E07B681B68F8
:1051A8005B68DBB203F07F03DAB2FB6A1A707B68D4
:1051B8009B6A5A1C7B689A627B68DB8D9BB2013BB9
:1051C8009BB27A681946D185002B5AD17B681B6837
:1051D800DA687B681B6822F02002DA607B681B684B
:1051E800DA687B681B6822F48072DA607B681B6867
:1051F8005A697B681B6822F001025A617B68202289
:1052080083F83E207B681B6B012B35D17B6800221D
:105218001A637B681B680C337B617B6953E8003F2A
:105228003B613B6923F010037B627B681B680C338E
:105238007A6A3A62FB61F9693A6A41E80023BB611C
:10524800BB69002BE5D17B681B681B6803F0100362
:10525800102B0AD10023FB607B681B681B68FB606E
:105268007B681B685B68FB60FB687B689B8D1946E5
:105278007868FFF7F9FD02E07868FFF7E1FD0023A1
:1052880002E0002300E0022318463037BD4680BD07
:105298002DE9F04F9FB000AFF866FB6E1B681B69E5
:1052A80023F44050FB6ED968FB6E1A6840EA01038C
:1052B8001361FB6E9A68FB6E1B691A43FB6E5B6990
:1052C8001A43FB6EDB6913433B67FB6E1B68DB68A5
:1052D80023F4164121F00C01FB6E1A683B6F0B4357
:1052E800D360FB6E1B685B6923F44070FB6E9969A1
:1052F800FB6E1A6840EA01035361FB6E1A68C54BDE
:105308009A4204D0FB6E1A68C34B9A4203D1FEF747
:10531800CFF9786702E0FEF7B7F97867FB6EDB69CB
:10532800B3F5004F40F0B6807B6F1C464FF0000588
:1053380022462B46911839645B417B64D7E91023D8
:10534800121945EB03034FF000004FF00001D9009C
:1053580041EA5271D00002460B46111939666B4179
:105368007B66FB6E5B681A464FF000039118B963C1
:105378005B41FB63D7E90E23D7E91801FAF720FF51
:1053880002460B46A54BA3FB02235B091E017B6F5C
:105398001C464FF0000522462B46911839635B41A5
:1053A8007B63D7E90C23121945EB03034FF0000088
:1053B8004FF00001D90041EA5271D00002460B4675
:1053C8001119B9656B41FB65FB6E5B681A464FF0B6
:1053D80000039118B9625B41FB62D7E90A23D7E958
:1053E8001601FAF7EDFE02460B468C4BA3FB02139F
:1053F8005B09642101FB03F3D31ADB003233874ACC
:10540800A2FB03235B095B0003F4F8731E447B6F64
:1054180018464FF0000102460B4694183C625B4167
:105428007B62D7E90823121841EB03034FF000040D
:105438004FF00005DD0045EA5275D40022462B46A0
:1054480014183C654B417B65FB6E5B681A464FF050
:1054580000039118B9615B41FB61D7E90623D7E9DD
:105468001401FAF7ADFE02460B466C4BA3FB021380
:105478005B09642101FB03F3D31ADB003233674A6B
:10548800A2FB03235B0903F00702FB6E1B6832448F
:105498009A60B9E07B6F1C464FF0000522462B4608
:1054A800911839615B417B61D7E90423121945EBF7
:1054B80003034FF000004FF00001D90041EA527198
:1054C800D00002460B4612EB040843EB0509FB6EBD
:1054D8005B6818464FF000014FF000024FF00003E0
:1054E8008B0043EA9073820040464946FAF768FE0B
:1054F80002460B46494BA3FB02235B091E017B6F47
:1055080018464FF0000102460B469418BC605B41F8
:10551800FB60D7E90223121841EB03034FF00004A4
:105528004FF00005DD0045EA5275D40022462B46AF
:105538001418BC644B41FB64FB6E5B6818464FF063
:1055480000014FF000024FF000038B0043EA907314
:105558008200D7E91201FAF733FE02460B462F4BB9
:10556800A3FB02135B09642101FB03F3D31A1B019C
:1055780032332A4AA2FB03235B0903F0F0031E44DB
:105588007B6F18464FF0000102460B4694183C60AA
:105598005B417B60D7E90023121841EB03034FF00E
:1055A80000044FF00005DD0045EA5275D40022469C
:1055B8002B4612EB000A43EB010BFB6E5B681846A7
:1055C8004FF000014FF000024FF000038B0043EA58
:1055D8009073820050465946FAF7F2FD02460B4690
:1055E8000E4BA3FB02135B09642101FB03F3D31ADF
:1055F8001B013233094AA2FB03235B0903F00F02A4
:10560800FB6E1B6832449A6000BF7C37BD46BDE81C
:10561800F08F00BF00100140001401401F85EB51BE
:1056280070B50D4D0D4C641BA4100026A64209D17F
:105638000B4D0C4C00F07CF8641BA4100026A6420D
:1056480005D170BD55F8043B98470136EEE755F88B
:10565800043B98470136F2E7D4570008D4570008AE
:10566800D4570008D8570008931E222B10B50C46B3
:1056780004D900230B701C46204610BD0A2A09D104
:10568800002807DA2D230B7040420121214400F045
:105698000DF8F1E70021F9E7FFF7E6BF02440346FA
:1056A800934200D1704703F8011BF9E7F0B51F4C8E
:1056B8008BB005460B466E4604F1200C20686168E5
:1056C800374603C7083464453E46F7D12179397116
:1056D800911E2068386022294FF0000104D9197002
:1056E8000B4618460BB0F0BD581E8446B5FBF2F7C2
:1056F8000DF1280E02FB175676440C4616F8286C56
:105708000CF8016F2E46B24201F101013D46EDD978
:1057180000225A541919A51AAA42E2DA10F8015FB0
:105728000E780670013201F80159F4E7A457000811
:10573800F8B500BFF8BC08BC9E467047F8B500BF76
:08574800F8BC08BC9E46704746
:1057500021534156455F56414C55455F4641494CA2
:10576000230A0A0021534156455F56414C55455F77
:1057700050415353230A0A0021375345473A00004A
:10578000214D4F44453A0000230A0000000000006C
:1057900000000000010203040607080900000000E1
:1057A000010203043031323334353637383961621F
:1057B000636465666768696A6B6C6D6E6F70717241
:0C57C000737475767778797A0000000029
:0857CC002CAAFF7F0100000080
:0457D400AD0100081B
:0457D800890100083B
:1057DC0000000240000802400000024000010001ED
:1057EC0000040000010000000100000001000000A6
:1057FC000100000001000000010000000100000099
:10580C000100000001000000010000000100000088
:10581C0001000000C8000000C8000000C800000023
:10582C00020000000700000005000000020000005C
:10583C000500000003000000020000000024F4003A
:08584C00100000000100000043
:0400000508002601C8
:00000001FF
