:020000040800F2
:1000000000500020D11C0008BD170008C3170008CD
:10001000C9170008CF170008D51700080000000016
:10002000000000000000000000000000DB170008D6
:10003000E717000800000000F3170008FF1700088A
:10004000191D0008191D0008191D0008191D0008B8
:10005000191D0008191D0008191D0008191D0008A8
:10006000191D0008191D0008191D0008191D000898
:10007000191D0008191D0008191D0008191D000888
:10008000191D0008191D0008191D0008191D000878
:10009000191D0008191D0008191D0008191D000868
:1000A000191D0008191D0008191D0008191D000858
:1000B0000D180008191D0008191D0008191D000859
:1000C000191D0008191D0008191D0008191D000838
:1000D000191D0008191D000821180008191D000825
:1000E000191D0008191D0008191D00080000000056
:1000F0000000000000000000000000000000000000
:0C01000000000000000000005FF808F1A3
:10010C0010B5054C237833B9044B13B10448AFF345
:10011C0000800123237010BD780000200000000037
:10012C00A446000808B5034B1BB103490348AFF3C1
:10013C00008008BD000000007C000020A4460008E0
:10014C0080B483B000AF00237B6011E00D4A7B6864
:10015C00002142F823100C4A7B68002142F823103E
:10016C000A4A7B68002142F823107B6801337B60CC
:10017C007B68022BEADD00BF00BF0C37BD4680BC9C
:10018C00704700BFAC000020A000002094000020AD
:10019C0080B582B000AF78607B68022B00F0AB803A
:1001AC007B68022B00F3EC807B68002B03D07B6810
:1001BC00012B5BD0E4E0764A7B6852F82330032BAA
:1001CC0052D801A252F823F0E501000809020008F8
:1001DC002D020008510200086E4A7B6852F8233049
:1001EC00002B02D0012B04D007E0FFF7A9FF052359
:1001FC00CAE0FFF7A5FF0C23C6E036E0654A7B6832
:10020C0052F82330002B02D0012B04D007E0FFF76B
:10021C0097FF0523B8E0FFF793FF0223B4E024E037
:10022C005C4A7B6852F82330012B02D0022B04D09D
:10023C0007E0FFF785FF0323A6E0FFF781FF032309
:10024C00A2E012E0534A7B6852F82330022B02D012
:10025C00032B04D007E0FFF773FF042394E0FFF7B0
:10026C006FFF042390E000E000BF8DE0484A7B68FC
:10027C0052F82330022B2AD0022B3ADC002B02D06E
:10028C00012B12D035E0434A7B6852F82330002B07
:10029C0002D0012B04D007E0FFF752FF082373E0D4
:1002AC00FFF74EFF0C236FE024E03A4A7B6852F8CC
:1002BC002330002B02D0012B04D007E0FFF740FFC6
:1002CC00082361E0FFF73CFF06235DE012E0314AB2
:1002DC007B6852F82330012B02D0022B04D007E0AC
:1002EC00FFF72EFF07234FE0FFF72AFF07234BE012
:1002FC0000E000BF48E0264A7B6852F82330022B0E
:10030C002AD0022B3ADC002B02D0012B12D035E084
:10031C00204A7B6852F82330002B02D0012B04D0EA
:10032C0007E0FFF70DFF0B232EE0FFF709FF0C236F
:10033C002AE024E0174A7B6852F82330002B02D0C5
:10034C00012B04D007E0FFF7FBFE0B231CE0FFF7AB
:10035C00F7FE092318E012E00E4A7B6852F82330AE
:10036C00012B02D0022B04D007E0FFF7E9FE0A2391
:10037C000AE0FFF7E5FE0A2306E000E000BF03E019
:10038C00FFF7DEFE0C23FFE718460837BD4680BD9D
:10039C00A0000020AC00002080B582B000AF00238C
:1003AC007B60C1E0654A7B6852F8232064497B6816
:1003BC0041F82320634A7B6852F823205F497B680D
:1003CC0041F82320604A7B6852F823205F497B6800
:1003DC0031F813301946104602F03EF80346194620
:1003EC00584A7B6842F82310554A7B6852F8232000
:1003FC0052497B6851F823309A4240F092804F4A20
:10040C007B6852F823204F497B6851F823309A427D
:10041C0040F087804E4A7B6852F8232048497B681D
:10042C0051F823309A4231D0494A7B6852F8233034
:10043C00002B02D0012B14D073E0454A7B680121BC
:10044C0042F82310434A7B6852F823305A1C414926
:10045C007B6841F82320404A7B680A2142F823102C
:10046C005FE03B4A7B68002142F823103B4A7B68E3
:10047C0052F823305A1C39497B6841F82320384AFA
:10048C007B684FF4967142F823104AE0304A7B683F
:10049C0052F82330012B19D12F4A7B6852F82330A4
:1004AC00002B3EDD2C4A7B6852F823305A1E2A4919
:1004BC007B6841F82320284A7B6852F82330002BB4
:1004CC002FDC7868FFF764FE034632E0244A7B6831
:1004DC0052F82330002B24DD214A7B6852F823305C
:1004EC005A1E1F497B6841F823201D4A7B6852F82D
:1004FC002330002B15DC7B68002B05D1184A7B6858
:10050C004FF4967142F823107B68012B04D1144AE6
:10051C007B68142142F823107868FFF739FE0346F4
:10052C0007E07B6801337B607B68022B7FF73AAF77
:10053C000C2318460837BD4680BD00BF2C00002098
:10054C002000002038000020000000200C000020BB
:10055C0014000020AC00002094000020A00000201B
:10056C004400002080B483B000AF786039603B68F1
:10057C00022B11D03B68022B12DC3B68002B03D002
:10058C003B68012B04D00BE0084A7B68136008E041
:10059C00064A7B68536004E0044A7B68936000E081
:1005AC0000BF00BF0C37BD4680BC7047B8000020B0
:1005BC0080B582B000AF786000217868FFF7D2FF79
:1005CC0000BF0837BD4680BD80B582B000AF7860F3
:1005DC0001217868FFF7C6FF00BF0837BD4680BD14
:1005EC0080B582B000AF786002217868FFF7BAFF5F
:1005FC0000BF0837BD4680BD80B500AF052108207F
:10060C0000F01AFE0521092000F016FE00BF80BD87
:10061C0080B500AF0321082000F00EFE0321092055
:10062C0000F00AFE00BF80BD80B500AF0421082099
:10063C0000F002FE0421092000F0FEFD00BF80BD89
:10064C0080B500AF0621082000F0F6FD0621092038
:10065C0000F0F2FD00BF80BD80B500AF072108207F
:10066C0000F0EAFD0721092000F0E6FD00BF80BD87
:10067C0080B500AF0021082000F0DEFD00BF80BD7A
:10068C0080B500AF0221082000F0D6FD00BF80BD70
:10069C0080B500AF0121082000F0CEFD00BF80BD69
:1006AC0080B500AF0021092000F0C6FD00BF80BD61
:1006BC0080B500AF0221092000F0BEFD00BF80BD57
:1006CC0080B500AF0121092000F0B6FD00BF80BD50
:1006DC0080B500AF0A2000F0B3FE00BF80BD80B52E
:1006EC0000AF0B2000F0ACFE00BF80BD80B500AFAA
:1006FC000C2000F0A5FE00BF80BD000080B500AF4F
:10070C00154B1B68032B1AD0032B22DC012B02D0B8
:10071C00022B0AD01DE0114B1B68002B02DCFFF7EB
:10072C00D7FF17E0FFF7DBFF14E00C4B1B68002B27
:10073C0002DCFFF7CDFF0DE0FFF7D8FF0AE0074B17
:10074C001B68002B02DCFFF7C3FF03E0FFF7CEFFB3
:10075C0000E000BF00BF80BD60010020C40000208D
:10076C0080B500AF1D4B1B68013B032B32D801A297
:10077C0052F823F091070008CD070008B9070008CC
:10078C00A5070008164B1B68002B02DCFFF7A0FF27
:10079C0021E0FFF7A4FF1EE0114B1B68002B02DCCD
:1007AC00FFF796FF17E0FFF7A1FF14E00C4B1B6857
:1007BC00002B02DCFFF78CFF0DE0FFF797FF0AE040
:1007CC00074B1B68002B02DCFFF782FF03E0FFF7EF
:1007DC0086FF00E000BF00BF80BD00BF5C010020B1
:1007EC00C400002080B500AF01F092FA00F0DCF8F4
:1007FC0000F0D8F900F014F900F05EF901F072F98C
:10080C00634802F0DBFA0421624802F081FB01200C
:10081C0000F0A4FE642000F0B5FE322000F0C6FE0D
:10082C005D4B1B68012B40F09380012000F096FE7D
:10083C00FFF7B2FD0346023B082B00F2888001A2B1
:10084C0052F823F075080008810800088D0800088C
:10085C0099080008C3080008EF0800080B090008F5
:10086C00270900084B0900084C4B06221A6000F0BF
:10087C00B7FC6DE0494B07221A6000F0C7FA67E03D
:10088C00464B08221A6001F045F861E0434B1B68A7
:10089C00082B08D0082B0CDC052B07D0072B08D114
:1008AC0000F008FA06E000F0C5FF03E0FFF7C8FE11
:1008BC0000E000BF4CE0394B1B68082B0CD0082B18
:1008CC000DDC062B02D0072B03D008E000F088FCCF
:1008DC0006E000F0EFF903E001F02EF800E000BFB5
:1008EC0036E02E4B1B68052B04D0082B05D101F0EC
:1008FC0087F803E0FFF7A4FE00E000BF28E0274BD9
:10090C001B68052B04D0082B05D101F015F803E06A
:10091C00FFF796FE00E000BF1AE0204B1B68062B89
:10092C0002D0072B05D009E000F072FCFFF7E6FEC1
:10093C0004E000F07BFAFFF713FF00BF08E0174B51
:10094C0005221A60FFF77CFEFFF7C2FE00E000BF35
:10095C00134B1B68012B0AD1642000F013FE0F4BC4
:10096C001B68062B03D100F085FAFFF7C7FE0D4B71
:10097C001B68012B7FF454AF322000F017FE074B9D
:10098C001B68082B7FF44CAF01F08CF848E700BFD4
:10099C00CC000020140100208401002068000020FD
:1009AC008C0100209401002080B590B000AF07F1BD
:1009BC00180328220021184603F042FE3B1D00229A
:1009CC001A605A609A60DA601A610223BB610123D3
:1009DC00BB621023FB6200237B6307F118031846EC
:1009EC0001F082FD0346002B01D000F051F90F23DA
:1009FC007B600023BB600023FB6000233B61002372
:100A0C007B613B1D0021184601F0F0FF0346002BD3
:100A1C0001D000F03DF900BF4037BD4680BD00005D
:100A2C0080B586B000AF07F1080300221A605A6047
:100A3C009A60DA603B4600221A605A601D4B4FF0F8
:100A4C0080421A601B4B41F63F725A60194B0022D0
:100A5C009A60184B0922DA60164B00221A61154B6A
:100A6C0000229A61134802F059F90346002B01D079
:100A7C0000F00EF94FF48053BB6007F108031946E0
:100A8C000C4802F0ADFC0346002B01D000F000F93D
:100A9C0000233B6000237B603B461946054803F06E
:100AAC002BF80346002B01D000F0F2F800BF1837EA
:100ABC00BD4680BDCC00002080B58EB000AF07F1E4
:100ACC00280300221A605A609A60DA6007F120034A
:100ADC0000221A605A603B1D00221A605A609A600C
:100AEC00DA601A615A619A612C4B2D4A1A602B4BB1
:100AFC0041F63F725A60294B00229A60274B09221B
:100B0C00DA60264B00221A61244B00229A6123489A
:100B1C0002F004F90346002B01D000F0B9F84FF4B1
:100B2C008053BB6207F1280319461C4802F058FC9D
:100B3C000346002B01D000F0ABF8184802F090F9F6
:100B4C000346002B01D000F0A3F800233B620023E6
:100B5C007B6207F120031946104802F0CDFF0346D3
:100B6C00002B01D000F094F860237B600523BB6060
:100B7C000023FB6000237B613B1D002219460748C4
:100B8C0002F070FB0346002B01D000F081F8034803
:100B9C0000F08AFD00BF3837BD4680BD140100202F
:100BAC000004004080B588B000AF07F110030022AC
:100BBC001A605A609A60DA602C4B9B692B4A43F09E
:100BCC0010039361294B9B6903F01003FB60FB68D6
:100BDC00264B9B69254A43F004039361234B9B6985
:100BEC0003F00403BB60BB68204B9B691F4A43F0B6
:100BFC00080393611D4B9B6903F008037B607B68C2
:100C0C0001220F211A4801F03EFC0122A9211948AA
:100C1C0001F039FC0F233B6101237B610023BB6195
:100C2C000323FB6107F110031946114801F090FAF8
:100C3C0013233B6100237B610123BB6107F110038C
:100C4C0019460D4801F084FAA9233B6101237B610D
:100C5C000023BB610323FB6107F110031946054810
:100C6C0001F076FA00BF2037BD4680BD001002406F
:100C7C0000100140000C01400008014080B582B01A
:100C8C0000AF786000F014FC00BF0837BD4680BD93
:100C9C0080B400AF72B600BFFEE7000080B400AFB6
:100CAC00034B00221A6000BFBD4680BC704700BFDA
:100CBC005C01002080B500AF514B1B68042B00F287
:100CCC009B8001A252F823F0E90C0008030D0008E8
:100CDC003F0D0008810D0008C30D0008484B012290
:100CEC001A600220FFF77CFCFFF7AAFCFFF7C0FCA0
:100CFC00FFF7E6FC81E0424B02221A60404B1A6877
:100D0C00404B1B689A420BD13F4B1B68002B03DDF9
:100D1C003D4B1B68013B01E03B4B1B683A4A13609F
:100D2C00FFF71EFDFFF78CFCFFF7A2FCFFF7C0FCE2
:100D3C0063E0334B03221A60314B1A68314B1B684A
:100D4C009A420BD1304B1B68002B03DD2E4B1B68DA
:100D5C00013B01E02C4B1B682B4A1360FFF700FD95
:100D6C000220FFF73DFCFFF76BFCFFF791FCFFF750
:100D7C0097FC42E0224B04221A60214B1A68214B4B
:100D8C001B689A420BD1204B1B68002B03DD1E4BBA
:100D9C001B68013B01E01C4B1B681B4A1360FFF7EF
:100DAC00DFFC0220FFF71CFCFFF74AFCFFF768FC96
:100DBC00FFF776FC21E0124B01221A60104B1A68E7
:100DCC00104B1B689A420BD10F4B1B68002B03DD99
:100DDC000D4B1B68013B01E00B4B1B680A4A13606F
:100DEC00FFF7BEFC0220FFF7FBFBFFF729FCFFF728
:100DFC003FFCFFF765FC00E000BF00BF80BD00BFFB
:100E0C005C010020C8000020C400002080B500AFA9
:100E1C00054B00221A60FFF75BFCFFF73FFFFFF763
:100E2C0049FF00BF80BD00BFC400002080B400AFEC
:100E3C00054B03221A60054B1B68054A136000BF63
:100E4C00BD4680BC704700BFC40000205C01002080
:100E5C00C800002080B400AF044B00221A60044B81
:100E6C0000221A6000BFBD4680BC704760010020A4
:100E7C006401002080B500AF9A4B1B68032B00F275
:100E8C00DF8001A252F823F0A50E0008CB0E00085B
:100E9C004D0F0008CD0F0008934B1B68934A13604D
:100EAC00904B01221A60FFF7E3FB904B1B6818462E
:100EBC00FFF77EFB00F040FE00F0C2FEC7E08B4B5C
:100ECC001B68002B40F3BE80884B1B68013B874A94
:100EDC001360864B1B68002B26DC854B1B68854AF0
:100EEC001360804B02221A60834B1A687D4B1B687F
:100EFC009A420BD1814B1B68002B03DD7F4B1B6887
:100F0C00013B01E07D4B1B687C4A1360FFF7F6FB4D
:100F1C00FFF7BEFB774B1B681846FFF749FB00F049
:100F2C000BFE00F08DFE8DE0FFF7A2FB6F4B1B68F4
:100F3C001846FFF73DFB00F0FFFD00F081FE81E05D
:100F4C006C4B1B68002B7FDD6A4B1B68013B694AAD
:100F5C001360684B1B68002B26DC694B1B68694AC5
:100F6C001360604B03221A60634B1A685D4B1B685D
:100F7C009A420BD1614B1B68002B03DD5F4B1B6846
:100F8C00013B01E05D4B1B685C4A1360FFF7B6FB4D
:100F9C00FFF776FB5B4B1B681846FFF709FB00F06D
:100FAC00CBFD00F04DFE4FE0FFF772FB514B1B6881
:100FBC001846FFF7FDFA00F0BFFD00F041FE43E0DC
:100FCC00504B1B68002B41DD4E4B1B68013B4D4ABF
:100FDC0013604C4B1B68002B26DC434B1B68434AAD
:100FEC001360404B01221A60434B1A683D4B1B683F
:100FFC009A420BD1414B1B68002B03DD3F4B1B6806
:10100C00013B01E03D4B1B683C4A1360FFF776FB4C
:10101C00FFF72EFB354B1B681846FFF7C9FA00F09B
:10102C008BFD00F00DFE11E0FFF72AFB354B1B6822
:10103C001846FFF7BDFA00F07FFD00F001FE05E059
:10104C0000BF04E000BF02E000BF00E000BF2E4B79
:10105C001B68032B00F2AE8001A252F823F000BFF4
:10106C007D100008711100089F1000082111000864
:10107C00254B02221A601E4B1B68244A1360FFF793
:10108C001FFB224B1B681846FFF79EFA00F096FDDB
:10109C0097E01E4B1B68002B40F38E801B4B1B688C
:1010AC00013B1A4A1360194B1B68002B10DC144BC4
:1010BC001B68174A1360144B03221A60FFF7F8FAE7
:1010CC00134B1B681846FFF77FFA00F077FD73E0AF
:1010DC00FFF7F6FA0D4B1B681846FFF775FA00F090
:1010EC006DFD69E0600100205C00002068010020BB
:1010FC006000002070010020C8000020C400002007
:10110C00640000207801002064010020740100209C
:10111C007C0100202C4B1B68002B4FDD2A4B1B68DD
:10112C00013B294A1360284B1B68002B10DC274B12
:10113C001B68274A1360274B01221A60FFF7B0FA8D
:10114C00234B1B681846FFF73FFA00F037FD35E0DC
:10115C00FFF7AEFA1C4B1B681846FFF735FA00F088
:10116C002DFD2BE01A4B1B68002B29DD184B1B683F
:10117C00013B174A1360164B1B68002B10DC164BF7
:10118C001B68164A1360134B02221A60FFF798FA79
:10119C00124B1B681846FFF717FA00F00FFD0FE013
:1011AC00FFF77EFA0A4B1B681846FFF70DFA00F0A2
:1011BC0005FD05E000BF04E000BF02E000BF00E059
:1011CC0000BF00BF80BD00BF7C0100205C00002080
:1011DC006C010020640100206000002074010020DC
:1011EC0080B500AF094B00221A60FFF771FAFFF7C8
:1011FC0027FA0120FFF7F4F9FFF72CFEFFF73AFE70
:10120C00642000F0BFF900BF80BD00BFC400002007
:10121C0080B400AF054B03221A60054B1B68054ACE
:10122C00136000BFBD4680BC704700BFC4000020E7
:10123C0060010020C800002080B582B000AF78604B
:10124C0039607B68082B03D07B68092B77D0EEE0E4
:10125C003B68072B71D801A252F823F089120008C1
:10126C00A9120008C9120008E9120008FD120008B2
:10127C00F3120008071300082713000801220121AC
:10128C006D4801F000F9002201216C4801F0FBF8D7
:10129C0000220221694801F0F6F84FE000220121FA
:1012AC00654801F0F0F800220121644801F0EBF8E8
:1012BC0001220221614801F0E6F83FE00022012101
:1012CC005D4801F0E0F8012201215C4801F0DBF8F7
:1012DC0000220221594801F0D6F82FE0012156488E
:1012EC0001F0E9F82AE00121544801F0E4F825E086
:1012FC000221524801F0DFF820E0002201214E4883
:10130C0001F0C1F8002201214C4801F0BCF8002288
:10131C0002214A4801F0B7F810E0012201214648A9
:10132C0001F0B1F801220121444801F0ACF801228E
:10133C000221424801F0A7F800E000BF77E03B68CB
:10134C00072B72D801A252F823F000BF79130008C2
:10135C0099130008B9130008D9130008ED130008FD
:10136C00E3130008F71300081714000801220421E6
:10137C00324801F088F8002280212F4801F083F8D0
:10138C00002208212D4801F07EF84FE000220421B4
:10139C002A4801F078F800228021274801F073F8E0
:1013AC0001220821254801F06EF83FE000220421BB
:1013BC00224801F068F8012280211F4801F063F8EF
:1013CC00002208211D4801F05EF82FE004211B4883
:1013DC0001F071F82AE08021174801F06CF825E043
:1013EC000821164801F067F820E000220421134878
:1013FC0001F049F8002280210F4801F044F8002246
:10140C0008210E4801F03FF810E0012204210B489E
:10141C0001F039F801228021074801F034F801224B
:10142C000821064801F02FF800E000BF00BF00BF04
:10143C000837BD4680BD00BF000C014000100140C4
:10144C0080B582B000AF78607B680C2B1ED07B68B7
:10145C000C2B26DC7B680A2B0DD07B680B2B20D148
:10146C0001220821114801F00EF8002220210F481A
:10147C0001F009F816E0002208210C4801F003F8ED
:10148C0000222021094800F0FEFF0BE00022082179
:10149C00064800F0F8FF01222021044800F0F3FF79
:1014AC0000E000BF00BF0837BD4680BD000C014006
:1014BC0080B400AF214B1B68002B0BDD1F4B1B684E
:1014CC00013B1E4A13601D4B1B68002B02DC1C4B9E
:1014DC0001221A601B4B1B68002B0BDD194B1B6880
:1014EC00013B184A1360174B1B68002B02DC164B90
:1014FC0001221A60154B1B68002B0BDD134B1B686C
:10150C00013B124A1360114B1B68002B02DC104B81
:10151C0001221A600F4B1B68002B0BDD0D4B1B6857
:10152C00013B0C4A13600B4B1B68002B02DC0A4B73
:10153C0001221A6000BFBD4680BC704780010020AC
:10154C0084010020880100208C01002090010020E3
:10155C0094010020980100209C01002080B483B0ED
:10156C0000AF7860054A7B681360054B00221A6057
:10157C0000BF0C37BD4680BC704700BF8001002007
:10158C008401002080B483B000AF7860054A7B688A
:10159C001360054B00221A6000BF0C37BD4680BC9F
:1015AC00704700BF880100208C01002080B483B0FC
:1015BC0000AF7860054A7B681360054B00221A6007
:1015CC0000BF0C37BD4680BC704700BF90010020A7
:1015DC009401002080B485B000AF154B9B69144A70
:1015EC0043F001039361124B9B6903F00103BB6051
:1015FC00BB680F4BDB690E4A43F08053D3610C4B35
:10160C00DB6903F080537B607B680A4B5B68FB6093
:10161C00FB6823F0E063FB60FB6843F00073FB6046
:10162C00044AFB68536000BF1437BD4680BC70474A
:10163C00001002400000014080B584B000AF78601B
:10164C007B681B68B3F1804F14D1154BDB69144ACE
:10165C0043F00103D361124BDB6903F00103FB6020
:10166C00FB68002200211C2000F08BFC1C2000F0E9
:10167C00A4FC10E07B681B680A4A93420BD1084B10
:10168C00DB69074A43F00203D361054BDB6903F0C6
:10169C000203BB60BB6800BF1037BD4680BD00BFF6
:1016AC00001002400004004080B588B000AF7860A4
:1016BC0007F1100300221A605A609A60DA607B68A6
:1016CC001B680F4A934217D10E4B9B690D4A43F08E
:1016DC00040393610B4B9B6903F00403FB60FB68F1
:1016EC0040233B6102237B610223FB6107F1100362
:1016FC001946054800F02CFD00BF2037BD4680BDC3
:10170C0000040040001002400008014080B588B081
:10171C0000AF786007F1100300221A605A609A60DB
:10172C00DA607B681B681F4A934237D11E4BDB691A
:10173C001D4A43F40033D3611B4BDB6903F40033C4
:10174C00FB60FB68184B9B69174A43F004039361D9
:10175C00154B9B6903F00403BB60BB6804233B611E
:10176C0002237B610323FB6107F1100319460F4829
:10177C0000F0EEFC08233B6100237B610023BB617E
:10178C0007F110031946094800F0E2FC0022002181
:10179C00262000F0F6FB262000F00FFC00BF2037BF
:1017AC00BD4680BD004400400010024000080140CE
:1017BC0080B400AFFEE780B400AFFEE780B400AFAA
:1017CC00FEE780B400AFFEE780B400AFFEE780B464
:1017DC0000AF00BFBD4680BC704780B400AF00BFF7
:1017EC00BD4680BC704780B400AF00BFBD4680BC16
:1017FC00704780B500AF00F0D1FA00BF80BD00008B
:10180C0080B500AF024801F025FC00BF80BD00BFD1
:10181C00CC00002080B500AF024802F0BDFA00BF3A
:10182C0080BD00BFA401002080B400AF00BFBD4646
:10183C0080BC704780B500AF2C4B1B68032B4BD87A
:10184C0001A252F823F000BF6518000885180008A3
:10185C00A5180008C5180008244B01221A60FEF7D1
:10186C00EFFE234B1B681846FEF7A2FE204B1B68AD
:10187C001846FEF7A9FE30E01C4B02221A60FEF758
:10188C00DFFE1C4B1B681846FEF792FE194B1B68BB
:10189C001846FEF799FE20E0144B03221A60FEF75F
:1018AC00CFFE154B1B681846FEF782FE124B1B68C9
:1018BC001846FEF789FE10E00C4B01221A60FEF769
:1018CC00BFFE0B4B1B681846FEF772FE084B1B68DD
:1018DC001846FEF779FE00E000BF00F02DF900F08D
:1018EC00AFF900F06BF900BF80BD00BFA001002074
:1018FC005C000020640000206000002080B400AF79
:10190C00034B00221A6000BFBD4680BC704700BF6D
:10191C00A001002080B500AF064B00221A60FEF734
:10192C00D7FEFFF7EBFF0320FEF75AFEFFF782FF0F
:10193C0000BF80BDC400002080B500AF2C4B1B68DD
:10194C00032B34D0032B49DC012B02D0022B17D0F4
:10195C0044E0284B1B680133264A1360254B1B6857
:10196C00632B02DD234B00221A60224B1B681846A6
:10197C00FEF71EFE1F4B1B681846FEF725FE2EE0D9
:10198C001D4B1B6801331C4A13601B4B1B68632BDC
:10199C0002DD194B00221A60174B1B681846FEF724
:1019AC0007FE154B1B681846FEF70EFE17E0134B8F
:1019BC001B680133114A1360104B1B68632B02DD4B
:1019CC000E4B00221A600D4B1B681846FEF7F0FDFB
:1019DC000A4B1B681846FEF7F7FD00E000BF00F04D
:1019EC00ABF800F02DF900F0E9F800BF80BD00BFA6
:1019FC00A0010020500000205800002054000020BE
:101A0C0080B500AF204B1A68204B1B681A44204B42
:101A1C001B689A4228D01F4B1B68032B17D15820E8
:101A2C00FEF7C6FD5820FEF7CFFD0820FEF7D8FDC7
:101A3C00FEF712FE184B1B68144A1360174B1B68F9
:101A4C00134A1360164B1B680F4A136019E0124BB4
:101A5C001B680E4A1360114B1B680D4A1360104B28
:101A6C001B68094A13600CE0084B1B680A4A136098
:101A7C00074B1B68094A1360034B1B68084A136029
:101A8C0000BF00BF80BD00BF5800002054000020E4
:101A9C0050000020A0010020600000205C0000200D
:101AAC006400002080B500AF0D4B1B68032B14D8CD
:101ABC0001A252F823F000BFE71A0008D51A00085B
:101ACC00DB1A0008E11A0008FEF7A2FD06E0FEF79B
:101ADC0093FD03E0FEF7A8FD00E000BF00BF80BD52
:101AEC00A001002080B500AF114B124A1A60104BB8
:101AFC004FF4E1325A600E4B00229A600C4B0022DC
:101B0C00DA600B4B00221A61094B0C225A61084B0C
:101B1C0000229A61064B0022DA61054802F05CF85B
:101B2C000346002B01D0FFF7B3F800BF80BD00BF08
:101B3C00A40100200044004080B586B000AF1B4AD1
:101B4C0007F1100392E80300186004331980023384
:101B5C000A0C1A70164A07F10C0312681146198008
:101B6C000233120C1A70134B9B68391D0A2218464B
:101B7C0002F022FD07F110014FF47A7307220E4890
:101B8C0002F077F8391D4FF47A7302220A4802F0FA
:101B9C0070F807F10C014FF47A730322064802F037
:101BAC0068F800BF1837BD4680BD00BFBC460008B2
:101BBC00C4460008B8000020A401002080B586B0FF
:101BCC0000AF1B4A07F1100392E8030018600433BE
:101BDC00198002330A0C1A70164A07F10C031268AA
:101BEC00114619800233120C1A70134B5B68391DA5
:101BFC000A22184602F0E0FC07F110014FF47A7348
:101C0C0007220E4802F035F8391D4FF47A73022280
:101C1C000A4802F02EF807F10C014FF47A730322F4
:101C2C00064802F026F800BF1837BD4680BD00BF3D
:101C3C00C8460008C4460008B8000020A4010020D3
:101C4C0080B586B000AF1B4A07F1100392E8030081
:101C5C0018600433198002330A0C1A70164A07F103
:101C6C000C031268114619800233120C1A70134BB4
:101C7C001B68391D0A22184602F09EFC07F1100160
:101C8C004FF47A7307220E4801F0F3FF391D4FF41D
:101C9C007A7302220A4801F0ECFF07F10C014FF4B1
:101CAC007A730322064801F0E4FF00BF1837BD46E3
:101CBC0080BD00BFC8460008C4460008B80000201C
:101CCC00A40100200C480D490D4A002302E0D45811
:101CDC00C4500433C4188C42F9D30A4A0A4C00236A
:101CEC0001E013600432A242FBD3FFF79DFD02F02A
:101CFC00AFFCFEF777FD7047000000207800002055
:101D0C002847000878000020EC010020FEE70000C6
:101D1C0080B500AF084B1B68074A43F010031360F3
:101D2C00032000F023F90F2000F008F8FFF752FC15
:101D3C000023184680BD00BF0020024080B582B051
:101D4C0000AF7860124B1A68124B1B7819464FF48F
:101D5C007A73B3FBF1F3B2FBF3F3184600F03BF9E3
:101D6C000346002B01D001230EE07B680F2B0AD811
:101D7C00002279684FF0FF3000F003F9064A7B68C7
:101D8C001360002300E0012318460837BD4680BDD0
:101D9C006C000020740000207000002080B400AFA4
:101DAC00054B1B781A46054B1B681344034A1360FA
:101DBC0000BFBD4680BC704774000020E8010020C5
:101DCC0080B400AF024B1B681846BD4680BC704700
:101DDC00E801002080B485B000AF78607B6803F028
:101DEC000703FB600C4BDB68BB60BA684FF6FF0364
:101DFC001340BB60FB681A02BB68134343F0BF631C
:101E0C0043F40033BB60044ABB68D36000BF143793
:101E1C00BD4680BC704700BF00ED00E080B400AF51
:101E2C00044BDB681B0A03F007031846BD4680BC55
:101E3C00704700BF00ED00E080B483B000AF0346F4
:101E4C00FB7197F90730002B0BDBFB7903F01F02BA
:101E5C00064997F907305B09012000FA02F241F8B4
:101E6C00232000BF0C37BD4680BC704700E100E06A
:101E7C0080B483B000AF03463960FB7197F907302B
:101E8C00002B0ADB3B68DAB20C4997F907301201D8
:101E9C00D2B20B4483F800230AE03B68DAB208495B
:101EAC00FB7903F00F03043B1201D2B20B441A76F8
:101EBC0000BF0C37BD4680BC704700BF00E100E09E
:101ECC0000ED00E080B489B000AFF860B9607A60D2
:101EDC00FB6803F00703FB61FB69C3F10703042BE9
:101EEC0028BF0423BB61FB690433062B02D9FB69B1
:101EFC00033B00E000237B614FF0FF32BB6902FA29
:101F0C0003F3DA43BB681A407B699A404FF0FF3108
:101F1C007B6901FA03F3D9437B680B4013431846E2
:101F2C002437BD4680BC704780B582B000AF786066
:101F3C007B68013BB3F1807F01D301230FE00A4A98
:101F4C007B68013B53600F214FF0FF30FFF790FF90
:101F5C00054B00229A60044B07221A600023184696
:101F6C000837BD4680BD00BF10E000E080B582B0F0
:101F7C0000AF78607868FFF72DFF00BF0837BD46CB
:101F8C0080BD80B586B000AF0346B9607A60FB7344
:101F9C0000237B61FFF742FF78617A68B968786942
:101FAC00FFF790FF024697F90F3011461846FFF7DE
:101FBC005FFF00BF1837BD4680BD80B582B000AF53
:101FCC000346FB7197F907301846FFF735FF00BF42
:101FDC000837BD4680BD80B582B000AF78607868A8
:101FEC00FFF7A2FF034618460837BD4680BD80B4F4
:101FFC0085B000AF78600023FB737B6893F82130C9
:10200C00022B08D07B6804229A637B68002283F839
:10201C002020012320E07B681B681A687B681B6802
:10202C0022F00E021A607B681B681A687B681B68BA
:10203C0022F001021A607B681A6C7B68DB6B012151
:10204C0001FA02F25A607B68012283F821207B6836
:10205C00002283F82020FB7B18461437BD4680BC39
:10206C007047000080B584B000AF78600023FB732C
:10207C007B6893F82130022B05D07B6804229A638D
:10208C000123FB7351E07B681B681A687B681B6833
:10209C0022F00E021A607B681B681A687B681B684A
:1020AC0022F001021A607B681B68224A934229D0F5
:1020BC007B681B68204A934222D07B681B681F4AAE
:1020CC0093421AD07B681B681D4A934212D07B68DE
:1020DC001B681C4A93420AD07B681B681A4A9342BD
:1020EC0002D14FF480130EE04FF080730BE04FF4ED
:1020FC00803308E04FF4805305E04FF4807302E026
:10210C00102300E00123114A53607B68012283F8FD
:10211C0021207B68002283F820207B685B6B002BDE
:10212C0003D07B685B6B78689847FB7B184610374D
:10213C00BD4680BD080002401C0002403000024039
:10214C0044000240580002406C0002400000024073
:10215C0080B48BB000AF7860396000237B620023C1
:10216C003B6269E101227B6A02FA03F3FB613B6883
:10217C001B68FA691340BB61BA69FB699A4240F06B
:10218C0058813B685B689A4A93425ED0984A934266
:10219C0075D8984A934258D0964A93426FD8964A2B
:1021AC00934252D0944A934269D8944A93424CD069
:1021BC00924A934263D8924A934246D0904A9342B1
:1021CC005DD8122B2AD8122B59D801A252F823F021
:1021DC0057220008312200084322000885220008FB
:1021EC008B2200088B2200088B2200088B2200080F
:1021FC008B2200088B2200088B2200088B220008FF
:10220C008B2200088B2200088B2200088B220008EE
:10221C008B220008392200084D220008794A93428B
:10222C0013D02CE03B68DB683B6229E03B68DB6841
:10223C0004333B6224E03B68DB6808333B621FE0FD
:10224C003B68DB680C333B621AE03B689B68002BF5
:10225C0002D104233B6213E03B689B68012B05D140
:10226C0008233B627B68FA691A6109E008233B6228
:10227C007B68FA695A6103E000233B6200E000BF0F
:10228C00BB69FF2B01D87B6801E07B6804337B6161
:10229C00BB69FF2B02D87B6A9B0002E07B6A083B80
:1022AC009B003B617B691A680F213B6901FA03F3C0
:1022BC00DB431A40396A3B6901FA03F31A437B6921
:1022CC001A603B685B6803F08053002B00F0B18010
:1022DC004D4B9B694C4A43F0010393614A4B9B69FC
:1022EC0003F00103BB60BB68484A7B6A9B0802335E
:1022FC0052F82330FB607B6A03F003039B000F2230
:10230C0002FA03F3DB43FA681340FB607B68404A34
:10231C00934213D07B683F4A93420DD07B683E4A70
:10232C00934207D07B683D4A934201D1032306E0D8
:10233C00042304E0022302E0012300E000237A6A74
:10234C0002F0030292009340FA681343FB602F499A
:10235C007B6A9B080233FA6841F823203B685B6870
:10236C0003F48033002B06D02D4B1A682C49BB6923
:10237C0013430B6006E02A4B1A68BB69DB43284900
:10238C0013400B603B685B6803F40033002B06D0F2
:10239C00234B5A682249BB6913434B6006E0204B20
:1023AC005A68BB69DB431E4913404B603B685B6852
:1023BC0003F48013002B06D0194B9A681849BB699B
:1023CC0013438B6006E0164B9A68BB69DB431449D8
:1023DC0013408B603B685B6803F40013002B21D027
:1023EC000F4BDA680E49BB691343CB6021E000BF89
:1023FC0000003210000031100000221000002110EB
:10240C0000001210000011100010024000000140EA
:10241C0000080140000C0140001001400014014074
:10242C00000401400B4BDA68BB69DB4309491340DC
:10243C00CB607B6A01337B623B681A687B6A22FA49
:10244C0003F3002B7FF48EAE00BF00BF2C37BD46CC
:10245C0080BC70470004014080B485B000AF786048
:10246C000B467B807B689A687B881340002B02D0DC
:10247C000123FB7301E00023FB73FB7B184614372D
:10248C00BD4680BC704780B483B000AF78600B460B
:10249C007B8013467B707B78002B03D07A887B681B
:1024AC001A6103E07B881A047B681A6100BF0C3741
:1024BC00BD4680BC704780B485B000AF78600B46D9
:1024CC007B807B68DB68FB607A88FB6813401A04AE
:1024DC00FB68D9437B880B401A437B681A6100BFA9
:1024EC001437BD4680BC704780B586B000AF7860AD
:1024FC007B68002B01D1012372E27B681B6803F01F
:10250C000103002B00F08780924B5B6803F00C03F7
:10251C00042B0CD08F4B5B6803F00C03082B12D1EF
:10252C008C4B5B6803F48033B3F5803F0BD1894B44
:10253C001B6803F40033002B6CD07B685B68002BAA
:10254C0068D101234CE27B685B68B3F5803F06D110
:10255C00804B1B687F4A43F4803313602EE07B680A
:10256C005B68002B0CD17B4B1B687A4A23F48033BD
:10257C001360784B1B68774A23F4802313601DE0AB
:10258C007B685B68B3F5A02F0CD1724B1B68714A4A
:10259C0043F4802313606F4B1B686E4A43F4803303
:1025AC0013600BE06B4B1B686A4A23F48033136097
:1025BC00684B1B68674A23F4802313607B685B6855
:1025CC00002B13D0FFF7FCFB386108E0FFF7F8FB9A
:1025DC0002463B69D31A642B01D9032300E25D4BFD
:1025EC001B6803F40033002BF0D014E0FFF7E8FB7A
:1025FC00386108E0FFF7E4FB02463B69D31A642B11
:10260C0001D90323ECE1534B1B6803F40033002B7B
:10261C00F0D100E000BF7B681B6803F00203002BC5
:10262C0063D04C4B5B6803F00C03002B0BD0494B75
:10263C005B6803F00C03082B1CD1464B5B6803F45E
:10264C008033002B16D1434B1B6803F00203002B85
:10265C0005D07B681B69012B01D00123C0E13D4BE8
:10266C001B6823F0F8027B685B69DB003949134374
:10267C000B603AE07B681B69002B20D0364B0122A3
:10268C001A60FFF79DFB386108E0FFF799FB0246E3
:10269C003B69D31A022B01D90323A1E12D4B1B68F3
:1026AC0003F00203002BF0D02A4B1B6823F0F80236
:1026BC007B685B69DB00274913430B6015E0264BF5
:1026CC0000221A60FFF77CFB386108E0FFF778FB0B
:1026DC0002463B69D31A022B01D9032380E11D4B1F
:1026EC001B6803F00203002BF0D17B681B6803F01E
:1026FC000803002B3AD07B689B69002B19D0174B31
:10270C0001221A60FFF75CFB386108E0FFF758FB09
:10271C0002463B69D31A022B01D9032360E10D4B0E
:10272C005B6A03F00203002BF0D0012000F0D8FA12
:10273C001CE00A4B00221A60FFF742FB38610FE0E5
:10274C00FFF73EFB02463B69D31A022B08D9032341
:10275C0046E100BF001002400000424280044242A9
:10276C00924B5B6A03F00203002BE9D17B681B6878
:10277C0003F00403002B00F0A6800023FB758B4BA9
:10278C00DB6903F08053002B0DD1884BDB69874A42
:10279C0043F08053D361854BDB6903F08053BB60FE
:1027AC00BB680123FB75824B1B6803F48073002B01
:1027BC0018D17F4B1B687E4A43F480731360FFF77C
:1027CC00FFFA386108E0FFF7FBFA02463B69D31ABF
:1027DC00642B01D9032303E1754B1B6803F480734D
:1027EC00002BF0D07B68DB68012B06D16F4B1B6A8A
:1027FC006E4A43F0010313622DE07B68DB68002B0B
:10280C000CD16A4B1B6A694A23F001031362674BB4
:10281C001B6A664A23F0040313621CE07B68DB68C6
:10282C00052B0CD1614B1B6A604A43F00403136205
:10283C005E4B1B6A5D4A43F0010313620BE05B4B7A
:10284C001B6A5A4A23F001031362584B1B6A574AFE
:10285C0023F0040313627B68DB68002B15D0FFF7B1
:10286C00AFFA38610AE0FFF7ABFA02463B69D31ABC
:10287C0041F28832934201D90323B1E04B4B1B6ADE
:10288C0003F00203002BEED014E0FFF799FA386145
:10289C000AE0FFF795FA02463B69D31A41F28832F7
:1028AC00934201D903239BE0404B1B6A03F00203C4
:1028BC00002BEED1FB7D012B05D13C4BDB693B4A58
:1028CC0023F08053D3617B68DB69002B00F0878099
:1028DC00364B5B6803F00C03082B61D07B68DB691B
:1028EC00022B46D1334B00221A60FFF769FA38618C
:1028FC0008E0FFF765FA02463B69D31A022B01D9AF
:10290C0003236DE0294B1B6803F00073002BF0D1FF
:10291C007B681B6AB3F5803F08D1244B5B6823F4BA
:10292C0000327B689B68214913434B601F4B5B68EB
:10293C0023F474127B68196A7B685B6A0B431B492E
:10294C0013434B601B4B01221A60FFF739FA3861B5
:10295C0008E0FFF735FA02463B69D31A022B01D97E
:10296C0003233DE0114B1B6803F00073002BF0D0E8
:10297C0035E0104B00221A60FFF722FA386108E0AC
:10298C00FFF71EFA02463B69D31A022B01D9032327
:10299C0026E0064B1B6803F00073002BF0D11EE001
:1029AC007B68DB69012B07D1012319E00010024081
:1029BC0000700040600042420B4B5B68FB60FB68A0
:1029CC0003F480327B681B6A9A4206D1FB6803F4DD
:1029DC0070127B685B6A9A4201D0012300E00023ED
:1029EC0018461837BD4680BD0010024080B584B033
:1029FC0000AF786039607B68002B01D10123D0E0F7
:102A0C006A4B1B6803F007033A689A4210D9674B6C
:102A1C001B6823F0070265493B6813430B60634B4B
:102A2C001B6803F007033A689A4201D00123B8E00F
:102A3C007B681B6803F00203002B20D07B681B68AB
:102A4C0003F00403002B05D0594B5B68584A43F440
:102A5C00E06353607B681B6803F00803002B05D010
:102A6C00534B5B68524A43F460535360504B5B6862
:102A7C0023F0F0027B689B684D4913434B607B68E5
:102A8C001B6803F00103002B40D07B685B68012BB3
:102A9C0007D1474B1B6803F40033002B15D10123DE
:102AAC007FE07B685B68022B07D1414B1B6803F00E
:102ABC000073002B09D1012373E03D4B1B6803F01D
:102ACC000203002B01D101236BE0394B5B6823F02F
:102ADC0003027B685B68364913434B60FFF770F960
:102AEC00F8600AE0FFF76CF90246FB68D31A41F272
:102AFC008832934201D9032353E02D4B5B6803F0DA
:102B0C000C027B685B689B009A42EBD1274B1B68DD
:102B1C0003F007033A689A4210D2244B1B6823F047
:102B2C00070222493B6813430B60204B1B6803F0E0
:102B3C0007033A689A4201D0012332E07B681B6894
:102B4C0003F00403002B08D0194B5B6823F4E062FC
:102B5C007B68DB68164913434B607B681B6803F08A
:102B6C000803002B09D0124B5B6823F460527B687E
:102B7C001B69DB000E4913434B6000F021F8024641
:102B8C000B4B5B681B0903F00F030A49CB5C22FA61
:102B9C0003F3094A1360094B1B681846FFF7CEF87C
:102BAC00002318461037BD4680BD00BF00200240F0
:102BBC0000100240E04600086C000020700000206D
:102BCC0090B48AB000AF294B3C1D0FCB84E80F00AA
:102BDC0040F201233B800023FB610023BB610023F7
:102BEC007B6200237B6100233B62214B5B68FB61B2
:102BFC00FB6903F00C03042B02D0082B03D02BE051
:102C0C001C4B3B622BE0FB699B0C03F00F0328333E
:102C1C003B4413F8243C7B61FB6903F48033002BA9
:102C2C0012D0134B5B685B0C03F0010328333B445D
:102C3C0013F8283CBB617B690E4A03FB02F2BB69AB
:102C4C00B2FBF3F37B6204E07B690B4A02FB03F3F8
:102C5C007B627B6A3B6202E0064B3B6200BF3B6AD5
:102C6C0018462837BD4690BC704700BFD0460008B8
:102C7C000010024000127A0000093D0080B400AF41
:102C8C00024B1B681846BD4680BC70476C00002088
:102C9C0080B500AFFFF7F2FF0246054B5B681B0ADD
:102CAC0003F007030349CB5C22FA03F3184680BDFB
:102CBC0000100240F046000880B500AFFFF7DEFFC1
:102CCC000246054B5B68DB0A03F007030349CB5C48
:102CDC0022FA03F3184680BD00100240F0460008AB
:102CEC0080B485B000AF78600A4B1B680A4AA2FB1F
:102CFC0003235B0A7A6802FB03F3FB6000BFFB68EB
:102D0C005A1EFA60002BF9D100BF00BF1437BD4624
:102D1C0080BC70476C000020D34D621080B582B02F
:102D2C0000AF78607B68002B01D1012341E07B6808
:102D3C0093F83D30DBB2002B06D17B68002283F880
:102D4C003C207868FEF778FC7B68022283F83D20F3
:102D5C007B681A687B6804331946104600F028FC1F
:102D6C007B68012283F846207B68012283F83E2091
:102D7C007B68012283F83F207B68012283F8402086
:102D8C007B68012283F841207B68012283F8422072
:102D9C007B68012283F843207B68012283F844205E
:102DAC007B68012283F845207B68012283F83D2053
:102DBC00002318460837BD4680BD000080B485B09E
:102DCC0000AF78607B6893F83D30DBB2012B01D00B
:102DDC0001233AE07B68022283F83D207B681B6864
:102DEC00DA687B681B6842F00102DA607B681B685A
:102DFC00184A93420ED07B681B68B3F1804F09D000
:102E0C007B681B68144A934204D07B681B68134A86
:102E1C00934211D17B681B689B6803F00703FB602E
:102E2C00FB68062B10D07B681B681A687B681B68D4
:102E3C0042F001021A6007E07B681B681A687B6825
:102E4C001B6842F001021A60002318461437BD4675
:102E5C0080BC7047002C014000040040000800407A
:102E6C0080B582B000AF78607B68002B01D1012364
:102E7C0041E07B6893F83D30DBB2002B06D17B68D8
:102E8C00002283F83C20786800F039F87B68022235
:102E9C0083F83D207B681A687B680433194610461A
:102EAC0000F086FB7B68012283F846207B680122B8
:102EBC0083F83E207B68012283F83F207B68012247
:102ECC0083F840207B68012283F841207B68012233
:102EDC0083F842207B68012283F843207B6801221F
:102EEC0083F844207B68012283F845207B6801220B
:102EFC0083F83D20002318460837BD4680BD80B4BA
:102F0C0083B000AF786000BF0C37BD4680BC704703
:102F1C0080B584B000AF786039603B68002B09D174
:102F2C007B6893F83E30DBB2012B14BF01230023E6
:102F3C00DBB222E03B68042B09D17B6893F83F306D
:102F4C00DBB2012B14BF01230023DBB215E03B687D
:102F5C00082B09D17B6893F84030DBB2012B14BFEE
:102F6C0001230023DBB208E07B6893F84130DBB22D
:102F7C00012B14BF01230023DBB2002B01D0012352
:102F8C005EE03B68002B04D17B68022283F83E2074
:102F9C0013E03B68042B04D17B68022283F83F20AA
:102FAC000BE03B68082B04D17B68022283F840209D
:102FBC0003E07B68022283F841207B681B680122B6
:102FCC003968184600F074FD7B681B681E4A9342F2
:102FDC0007D17B681B685A6C7B681B6842F4004203
:102FEC005A647B681B68184A93420ED07B681B6836
:102FFC00B3F1804F09D07B681B68144A934204D00C
:10300C007B681B68124A934211D17B681B689B68D2
:10301C0003F00703FB60FB68062B10D07B681B6872
:10302C001A687B681B6842F001021A6007E07B6833
:10303C001B681A687B681B6842F001021A60002347
:10304C0018461037BD4680BD002C014000040040DE
:10305C000008004080B582B000AF78607B681B68C8
:10306C001B6903F00203022B22D17B681B68DB680F
:10307C0003F00203022B1BD17B681B686FF002026A
:10308C001A617B6801221A777B681B689B6903F0C5
:10309C000303002B03D0786800F06FFA05E0786822
:1030AC0000F062FA786800F071FA7B6800221A77F7
:1030BC007B681B681B6903F00403042B22D17B681B
:1030CC001B68DB6803F00403042B1BD17B681B68B3
:1030DC006FF004021A617B6802221A777B681B6806
:1030EC009B6903F44073002B03D0786800F045FA19
:1030FC0005E0786800F038FA786800F047FA7B68E9
:10310C0000221A777B681B681B6903F00803082BE5
:10311C0022D17B681B68DB6803F00803082B1BD1EA
:10312C007B681B686FF008021A617B6804221A77AF
:10313C007B681B68DB6903F00303002B03D0786802
:10314C0000F01BFA05E0786800F00EFA786800F0E1
:10315C001DFA7B6800221A777B681B681B6903F0D9
:10316C001003102B22D17B681B68DB6803F0100363
:10317C00102B1BD17B681B686FF010021A617B68E7
:10318C0008221A777B681B68DB6903F44073002BF9
:10319C0003D0786800F0F1F905E0786800F0E4F904
:1031AC00786800F0F3F97B6800221A777B681B685B
:1031BC001B6903F00103012B0ED17B681B68DB68D4
:1031CC0003F00103012B07D17B681B686FF0010230
:1031DC001A617868FDF752FD7B681B681B6903F068
:1031EC008003802B0ED17B681B68DB6803F08003A7
:1031FC00802B07D17B681B686FF080021A6178689E
:10320C0000F0E1FC7B681B681B6903F04003402B5A
:10321C000ED17B681B68DB6803F04003402B07D1A1
:10322C007B681B686FF040021A61786800F0B7F990
:10323C007B681B681B6903F02003202B0ED17B6875
:10324C001B68DB6803F02003202B07D17B681B680D
:10325C006FF020021A61786800F0ACFC00BF0837F0
:10326C00BD4680BD80B584B000AFF860B9607A60AF
:10327C00FB6893F83C30012B01D10223ACE0FB68D6
:10328C00012283F83C207B680C2B00F29F8001A26A
:10329C0052F823F0D5320008D9330008D93300088E
:1032AC00D933000815330008D9330008D933000886
:1032BC00D933000857330008D9330008D933000834
:1032CC00D933000897330008FB681B68B9681846A7
:1032DC0000F0D0F9FB681B689A69FB681B6842F028
:1032EC0008029A61FB681B689A69FB681B6822F0EC
:1032FC0004029A61FB681B689969BB681A69FB68D0
:10330C001B680A439A6162E0FB681B68B96818463F
:10331C0000F016FAFB681B689A69FB681B6842F49C
:10332C0000629A61FB681B689A69FB681B6822F44F
:10333C0080629A61FB681B689969BB681B691A02F9
:10334C00FB681B680A439A6141E0FB681B68B9681B
:10335C00184600F05FFAFB681B68DA69FB681B68AB
:10336C0042F00802DA61FB681B68DA69FB681B68CB
:10337C0022F00402DA61FB681B68D969BB681A6920
:10338C00FB681B680A43DA6121E0FB681B68B968BB
:10339C00184600F0A9FAFB681B68DA69FB681B6821
:1033AC0042F40062DA61FB681B68DA69FB681B682F
:1033BC0022F48062DA61FB681B68D969BB681B69FF
:1033CC001A02FB681B680A43DA6100E000BFFB6865
:1033DC00002283F83C20002318461037BD4680BDE0
:1033EC0080B584B000AF786039607B6893F83C306E
:1033FC00012B01D10223B3E07B68012283F83C202E
:10340C007B68022283F83D207B681B689B68FB600D
:10341C00FB6823F07703FB60FB6823F47F43FB60BE
:10342C007B681B68FA689A603B681B68B3F5005FA1
:10343C003ED0B3F5005F00F28780B3F5805F00F0FB
:10344C008580B3F5805F7FD8702B1AD0702B7BD81A
:10345C00602B50D0602B77D8502B3CD0502B73D88E
:10346C00402B58D0402B6FD8302B64D0302B6BD8DE
:10347C00202B60D0202B67D8002B5CD0102B5AD07F
:10348C0062E07B6818683B6899683B685A683B68DF
:10349C00DB6800F0EEFA7B681B689B68FB60FB68DE
:1034AC0043F07703FB607B681B68FA689A604EE018
:1034BC007B6818683B6899683B685A683B68DB68AE
:1034CC0000F0D7FA7B681B689A687B681B6842F42B
:1034DC0080429A603BE07B6818683B6859683B689F
:1034EC00DB681A4600F04EFA7B681B6850211846C0
:1034FC0000F0A5FA2BE07B6818683B6859683B68BC
:10350C00DB681A4600F06CFA7B681B686021184671
:10351C0000F095FA1BE07B6818683B6859683B68BB
:10352C00DB681A4600F02EFA7B681B6840211846AF
:10353C0000F085FA0BE07B681A683B681B6819463B
:10354C00104600F07CFA02E000BF00E000BF7B6890
:10355C00012283F83D207B68002283F83C20002365
:10356C0018461037BD4680BD80B483B000AF78607C
:10357C0000BF0C37BD4680BC704780B483B000AF31
:10358C00786000BF0C37BD4680BC704780B483B0F8
:10359C0000AF786000BF0C37BD4680BC704780B46C
:1035AC0083B000AF786000BF0C37BD4680BC70475D
:1035BC0080B485B000AF786039607B681B68FB60B5
:1035CC007B68294A93420BD07B68B3F1804F07D0BC
:1035DC007B68264A934203D07B68254A934208D1E4
:1035EC00FB6823F07003FB603B685B68FA6813436D
:1035FC00FB607B681C4A93420BD07B68B3F1804F15
:10360C0007D07B68194A934203D07B68184A9342CF
:10361C0008D1FB6823F44073FB603B68DB68FA68F5
:10362C001343FB60FB6823F080023B685B69134328
:10363C00FB607B68FA681A603B689A687B68DA62A0
:10364C003B681A687B689A627B68074A934203D18D
:10365C003B681A697B681A637B6801225A6100BF58
:10366C001437BD4680BC7047002C0140000400405C
:10367C000008004080B487B000AF786039607B6888
:10368C001B6A23F001027B681A627B681B6A7B61F0
:10369C007B685B683B617B689B69FB60FB6823F024
:1036AC007003FB60FB6823F00303FB603B681B6843
:1036BC00FA681343FB607B6923F002037B613B6870
:1036CC009B687A6913437B617B681C4A93420CD1DB
:1036DC007B6923F008037B613B68DB687A691343E1
:1036EC007B617B6923F004037B617B68134A934203
:1036FC0011D13B6923F480733B613B6923F4007364
:10370C003B613B685B693A6913433B613B689B696E
:10371C003A6913433B617B683A695A607B68FA6883
:10372C009A613B685A687B685A637B687A691A624B
:10373C0000BF1C37BD4680BC704700BF002C014049
:10374C0080B487B000AF786039607B681B6A23F067
:10375C0010027B681A627B681B6A7B617B685B6802
:10376C003B617B689B69FB60FB6823F4E043FB6077
:10377C00FB6823F44073FB603B681B681B02FA6810
:10378C001343FB607B6923F020037B613B689B68E0
:10379C001B017A6913437B617B681D4A93420DD1EF
:1037AC007B6923F080037B613B68DB681B017A69D2
:1037BC0013437B617B6923F040037B617B68144A74
:1037CC00934213D13B6923F480633B613B6923F43F
:1037DC0000633B613B685B699B003A6913433B6147
:1037EC003B689B699B003A6913433B617B683A6970
:1037FC005A607B68FA689A613B685A687B689A637E
:10380C007B687A691A6200BF1C37BD4680BC704762
:10381C00002C014080B487B000AF786039607B68C1
:10382C001B6A23F480727B681A627B681B6A7B615B
:10383C007B685B683B617B68DB69FB60FB6823F042
:10384C007003FB60FB6823F00303FB603B681B68A1
:10385C00FA681343FB607B6923F400737B613B685C
:10386C009B681B027A6913437B617B681D4A9342F8
:10387C000DD17B6923F400637B613B68DB681B0221
:10388C007A6913437B617B6923F480637B617B687A
:10389C00144A934213D13B6923F480533B613B6937
:1038AC0023F400533B613B685B691B013A6913438A
:1038BC003B613B689B691B013A6913433B617B6825
:1038CC003A695A607B68FA68DA613B685A687B68C7
:1038DC00DA637B687A691A6200BF1C37BD4680BC0C
:1038EC00704700BF002C014080B487B000AF7860F7
:1038FC0039607B681B6A23F480527B681A627B6890
:10390C001B6A3B617B685B687B617B68DB69FB6086
:10391C00FB6823F4E043FB60FB6823F44073FB601B
:10392C003B681B681B02FA681343FB603B6923F47A
:10393C0000533B613B689B681B033A6913433B6133
:10394C007B680F4A934209D17B6923F480437B61E6
:10395C003B685B699B017A6913437B617B687A697D
:10396C005A607B68FA68DA613B685A687B681A644B
:10397C007B683A691A6200BF1C37BD4680BC704731
:10398C00002C014080B487B000AFF860B9607A6059
:10399C00FB681B6A7B61FB681B6A23F00102FB68F6
:1039AC001A62FB689B693B613B6923F0F0033B6146
:1039BC007B681B013A6913433B617B6923F00A0363
:1039CC007B617A69BB6813437B61FB683A699A61D6
:1039DC00FB687A691A6200BF1C37BD4680BC704711
:1039EC0080B487B000AFF860B9607A60FB681B6A7E
:1039FC0023F01002FB681A62FB689B697B61FB6811
:103A0C001B6A3B617B6923F470437B617B681B03FE
:103A1C007A6913437B613B6923F0A0033B61BB686C
:103A2C001B013A6913433B61FB687A699A61FB6835
:103A3C003A691A6200BF1C37BD4680BC704780B41F
:103A4C0085B000AF786039607B689B68FB60FB6871
:103A5C0023F07003FB603A68FB68134343F00703E1
:103A6C00FB607B68FA689A6000BF1437BD4680BC67
:103A7C00704780B487B000AFF860B9607A603B6083
:103A8C00FB689B687B617B6923F47F437B613B68AC
:103A9C001A027B681A43BB6813437A6913437B6130
:103AAC00FB687A699A6000BF1C37BD4680BC7047C2
:103ABC0080B487B000AFF860B9607A60BB6803F07F
:103ACC001F03012202FA03F37B61FB681A6A7B690C
:103ADC00DB431A40FB681A62FB681A6ABB6803F086
:103AEC001F03796801FA03F31A43FB681A6200BFDB
:103AFC001C37BD4680BC704780B485B000AF786081
:103B0C0039607B6893F83C30012B01D1022346E0ED
:103B1C007B68012283F83C207B68022283F83D20DD
:103B2C007B681B685B68FB607B681B689B68BB6081
:103B3C00FB6823F07003FB603B681B68FA68134357
:103B4C00FB607B681B68FA685A607B681B68164AC6
:103B5C0093420ED07B681B68B3F1804F09D07B6811
:103B6C001B68124A934204D07B681B68104A93422C
:103B7C000CD1BB6823F08003BB603B685B68BA6800
:103B8C001343BB607B681B68BA689A607B68012230
:103B9C0083F83D207B68002283F83C2000231846E4
:103BAC001437BD4680BC7047002C01400004004017
:103BBC000008004080B483B000AF786000BF0C37C1
:103BCC00BD4680BC704780B483B000AF786000BF46
:103BDC000C37BD4680BC704780B582B000AF7860B2
:103BEC007B68002B01D101233FE07B6893F83D30CB
:103BFC00DBB2002B06D17B68002283F83C2078686E
:103C0C00FDF784FD7B68242283F83D207B681B68CC
:103C1C00DA687B681B6822F40052DA60786800F07E
:103C2C0025FC7B681B681A697B681B6822F4904230
:103C3C001A617B681B685A697B681B6822F02A0230
:103C4C005A617B681B68DA687B681B6842F4005217
:103C5C00DA607B6800221A647B68202283F83D209E
:103C6C007B68202283F83E20002318460837BD4687
:103C7C0080BD80B58AB002AFF860B9603B60134676
:103C8C00FB8000237B61FB6893F83D30DBB2202B7B
:103C9C007CD1BB68002B02D0FB88002B01D1012307
:103CAC0075E0FB6893F83C30012B01D102236EE0E8
:103CBC00FB68012283F83C20FB6800221A64FB6835
:103CCC00212283F83D20FEF77BF87861FB68FA88A7
:103CDC009A84FB68FA88DA84FB689B68B3F5805F8A
:103CEC0008D1FB681B69002B04D10023FB61BB6866
:103CFC00BB6103E0BB68FB610023BB61FB68002276
:103D0C0083F83C202AE03B6800937B6900228021E9
:103D1C00F86800F011FA0346002B01D0032336E0BB
:103D2C00FB69002B0BD1BB691B881A46FB681B680F
:103D3C00C2F308025A60BB690233BB6107E0FB693E
:103D4C001A78FB681B685A60FB690133FB61FB68DE
:103D5C00DB8C9BB2013B9AB2FB68DA84FB68DB8C90
:103D6C009BB2002BCFD13B6800937B690022402192
:103D7C00F86800F0E1F90346002B01D0032306E0BC
:103D8C00FB68202283F83D20002300E00223184624
:103D9C002037BD4680BD000080B58AB000AF78608A
:103DAC007B681B681B687B627B681B68DB683B62FB
:103DBC007B681B685B69FB610023BB6100237B6133
:103DCC007B6A03F00F03BB61BB69002B0DD17B6ACF
:103DDC0003F02003002B08D03B6A03F02003002BD8
:103DEC0003D0786800F099FA7BE1BB69002B00F0F6
:103DFC00B180FB6903F00103002B05D13B6A03F48E
:103E0C009073002B00F0A6807B6A03F00103002B5B
:103E1C000AD03B6A03F48073002B05D07B681B6CC3
:103E2C0043F001027B681A647B6A03F00403002BE5
:103E3C000AD0FB6903F00103002B05D07B681B6CD7
:103E4C0043F002027B681A647B6A03F00203002BC6
:103E5C000AD0FB6903F00103002B05D07B681B6CB7
:103E6C0043F004027B681A647B6A03F00803002B9E
:103E7C000FD03B6A03F02003002B04D1FB6903F045
:103E8C000103002B05D07B681B6C43F008027B6898
:103E9C001A647B681B6C002B00F01E817B6A03F09C
:103EAC002003002B07D03B6A03F02003002B02D029
:103EBC00786800F032FA7B681B685B6903F040039A
:103ECC00002B14BF01230023DBB27B617B681B6CCE
:103EDC0003F00803002B02D17B69002B31D07868EA
:103EEC0000F074F97B681B685B6903F04003002BDE
:103EFC0023D07B681B685A697B681B6822F04002E0
:103F0C005A617B689B6B002B13D07B689B6B764A4A
:103F1C005A637B689B6B1846FEF7A4F80346002B8C
:103F2C0016D07B689B6B5B6B7A68926B10469847DC
:103F3C000EE0786800F0ECF80AE0786800F0E8F839
:103F4C0006E0786800F0E4F87B6800221A64C3E0AD
:103F5C0000BFC1E07B681B6B012B40F0A1807B6A2A
:103F6C0003F01003002B00F09B803B6A03F010035E
:103F7C00002B00F095800023FB607B681B681B689E
:103F8C00FB607B681B685B68FB60FB687B681B687D
:103F9C005B6903F04003002B4ED07B689B6B1B6866
:103FAC005B683B823B8A002B00F098807B689B8D82
:103FBC003A8A9A4280F092807B683A8ADA857B68EA
:103FCC009B6B9B69202B2BD07B681B68DA687B680A
:103FDC001B6822F48072DA607B681B685A697B6804
:103FEC001B6822F001025A617B681B685A697B6866
:103FFC001B6822F040025A617B68202283F83E2025
:10400C007B6800221A637B681B68DA687B681B6814
:10401C0022F01002DA607B689B6B1846FDF7E7FF15
:10402C007B689A8D7B68DB8D9BB2D31A9BB2194649
:10403C00786800F076F851E07B689A8D7B68DB8DB0
:10404C009BB2D31A7B827B68DB8D9BB2002B47D053
:10405C007B8A002B44D07B681B68DA687B681B6802
:10406C0022F49072DA607B681B685A697B681B6863
:10407C0022F001025A617B68202283F83E207B6883
:10408C0000221A637B681B68DA687B681B6822F065
:10409C001002DA607B8A1946786800F042F81FE05B
:1040AC007B6A03F08003002B08D03B6A03F080038B
:1040BC00002B03D0786800F0C9F812E07B6A03F09B
:1040CC004003002B0DD03B6A03F04003002B08D0BB
:1040DC00786800F00AF904E000BF02E000BF00E0DD
:1040EC0000BF2837BD4680BD3142000880B483B084
:1040FC0000AF786000BF0C37BD4680BC704780B401
:10410C0083B000AF786000BF0C37BD4680BC7047F1
:10411C0080B483B000AF786000BF0C37BD4680BC64
:10412C00704780B483B000AF78600B467B8000BFD3
:10413C000C37BD4680BC704780B584B000AFF860CA
:10414C00B9603B601346FB712CE0BB69B3F1FF3FD8
:10415C0028D0BB69002B07D0FDF732FE02463B6826
:10416C00D31ABA699A421DD2FB681B68DA68FB68DD
:10417C001B6822F4D072DA60FB681B685A69FB6812
:10418C001B6822F001025A61FB68202283F83D2053
:10419C00FB68202283F83E20FB68002283F83C2039
:1041AC0003230FE0FB681B681A68BB681340BA68EE
:1041BC009A420CBF01230023DBB21A46FB799A42C8
:1041CC00C3D0002318461037BD4680BD80B483B0E1
:1041DC0000AF78607B681B68DA687B681B6822F428
:1041EC009072DA607B681B685A697B681B6822F0E6
:1041FC0001025A617B681B6B012B07D17B681B6822
:10420C00DA687B681B6822F01002DA607B68202277
:10421C0083F83E207B6800221A6300BF0C37BD4632
:10422C0080BC704780B584B000AF78607B685B6AF7
:10423C00FB60FB680022DA85FB680022DA84F868F0
:10424C00FFF766FF00BF1037BD4680BD80B485B058
:10425C0000AF78607B6893F83D30DBB2212B3ED108
:10426C007B689B68B3F5805F14D17B681B69002B5E
:10427C0010D17B681B6AFB60FB681B881A467B6845
:10428C001B68C2F308025A607B681B6A9A1C7B6825
:10429C001A6208E07B681B6A591C7A6811621A78EA
:1042AC007B681B685A607B68DB8C9BB2013B9BB2C2
:1042BC007A681946D184002B0FD17B681B68DA68A9
:1042CC007B681B6822F08002DA607B681B68DA6806
:1042DC007B681B6842F04002DA60002300E0022396
:1042EC0018461437BD4680BC704780B582B000AF0D
:1042FC0078607B681B68DA687B681B6822F0400278
:10430C00DA607B68202283F83D207868FFF7EEFEA8
:10431C00002318460837BD4680BD80B586B000AF77
:10432C0078607B6893F83E30DBB2222B40F09980AA
:10433C007B689B68B3F5805F17D17B681B69002B8A
:10434C0013D100237B617B689B6A3B617B681B6894
:10435C005B689BB2C3F308039AB23B691A807B6813
:10436C009B6A9A1C7B689A6226E07B689B6A7B61DD
:10437C0000233B617B689B68B3F5805F07D07B684B
:10438C009B68002B0AD17B681B69002B06D17B68CC
:10439C001B685B68DAB27B691A7008E07B681B6883
:1043AC005B68DBB203F07F03DAB27B691A707B685F
:1043BC009B6A5A1C7B689A627B68DB8D9BB2013BC3
:1043CC009BB27A681946D185002B48D17B681B6853
:1043DC00DA687B681B6822F02002DA607B681B6855
:1043EC00DA687B681B6822F48072DA607B681B6871
:1043FC005A697B681B6822F001025A617B68202293
:10440C0083F83E207B681B6B012B23D17B68002239
:10441C001A637B681B68DA687B681B6822F01002E1
:10442C00DA607B681B681B6803F01003102B0AD141
:10443C000023FB607B681B681B68FB607B681B6848
:10444C005B68FB60FB687B689B8D19467868FFF79F
:10445C0068FE02E07868FFF752FE002302E00023BA
:10446C0000E0022318461837BD4680BD80B584B0E5
:10447C0000AF78607B681B681B6923F440517B6834
:10448C00DA687B681B680A431A617B689A687B68E8
:10449C001B691A437B685B691343BB607B681B68B1
:1044AC00DB6823F4B05323F00C037A681268B96804
:1044BC000B43D3607B681B685B6923F440717B689A
:1044CC009A697B681B680A435A617B681B682C4A93
:1044DC00934203D1FEF7F0FBF86002E0FEF7D8FB45
:1044EC00F860FA6813469B0013449A001A447B68E0
:1044FC005B689B00B2FBF3F3224AA2FB03235B092C
:10450C001901FA6813469B0013449A001A447B68FD
:10451C005B689B00B2FBF3F21A4BA3FB02035B0933
:10452C00642000FB03F3D31A1B013233154AA2FBA0
:10453C0003235B0903F0F0031944FA6813469B004C
:10454C0013449A001A447B685B689B00B2FBF3F23D
:10455C000C4BA3FB02035B09642000FB03F3D31A8F
:10456C001B013233074AA2FB03235B0903F00F0242
:10457C007B681B680A449A6000BF1037BD4680BD3B
:10458C00003801401F85EB51931E222B10B50C46B1
:10459C0004D900231C460B70204610BD0A2A09D1F1
:1045AC00002807DA2D230B7001214042214400F032
:1045BC0005F8F1E70021F9E7FFF7E6BFF0B58BB09E
:1045CC0005460B466E461D4C04F1200C3746206800
:1045DC006168083403C764453E46F7D121792068E9
:1045EC003971911E222938604FF0000104D91970DD
:1045FC000B4618460BB0F0BD581E8446B5FBF2F7BF
:10460C0002FB175628366E4416F8286C0C460CF82C
:10461C00016F2E46B2423D4601F10101EED9002256
:10462C005A541919A51AAA42E3DA10F8015F0E7848
:10463C000132067001F80159F4E700BFF846000892
:10464C0003460244934200D1704703F8011BF9E77B
:10465C0070B500260C4D0D4C641BA410A64209D15C
:10466C0000F01AF800260A4D0A4C641BA410A6424E
:10467C0005D170BD55F8043B98470136EEE755F867
:10468C00043B98470136F2E7204700082047000812
:10469C002047000824470008F8B500BFF8BC08BC48
:1046AC009E467047F8B500BFF8BC08BC9E467047E4
:1046BC00214D4F44453A0000230A00002137534551
:1046CC00473A000002030405060708090A0B0C0D03
:1046DC000E0F101000000000000000000102030487
:1046EC0006070809000000000102030430313233D0
:1046FC003435363738396162636465666768696A70
:10470C006B6C6D6E6F707172737475767778797A75
:04471C000000000099
:04472000310100085B
:044724000D0100087B
:1047280000080140000801400008014001000200A3
:10473800100000000100000001000000010000005E
:10474800010000000100000001000000010000005D
:10475800010000000100000001000000010000004D
:1047680001000000C8000000C8000000C8000000E8
:10477800070000000500000002000000050000001E
:104788000300000002000000050000000024F400FF
:08479800100000000100000008
:0400000508001CD102
:00000001FF
